FHI00000000000000140620220000000000005100054         00                                                                                                                                            
FPI10000000000000130620220000000000005100054                                                                                                                                                       
FP9518380701PN10061      651406681306202215072022 081/  517141/  /   PINHAOCORO   8708509900032500000006222000000229720000019143400000010004185002920861001000000      00000000000000      011102  
FP9518318411             651406691306202215072022 103/  971911/2 /   BUCHA        4016999000117000000000201000000002070000000172200000250000003002920861001000000      00000000000000      011102  
FP9517046401Est3005      651418361306202215072022 030/  109243/Q /   ROLO         8483509000078000000129615000001994080000166173400002000000283002914918001000000      00000000000000      011102  
FP9518318411             651418481306202215072022 5U4/  833056/D /GRUPORTA        8708299300032500000005661000000209010000017417200000010012600002922523501000000      00000000000000      011102  
FP9518318411             651418481306202215072022 5U4/  833056/D /GRUPORTA        8708299300032500000005661000000209010000017417200000010012600002922523601000000      00000000000000      011102  
FP9518318411             651418741306202215072022 1SB/  807417/A /GRUCOBERTURA    8708100000032500000001788000000066000000005500200000010003529002922606101000000      00000000000000      011102  
FP9518318411             651418741306202215072022 1SB/  807417/A /GRUCOBERTURA    8708100000032500000001788000000066000000005500200000010003529002922606201000000      00000000000000      011102  
FP9518318411             651418741306202215072022 2GP/  805903/  /9B9SPOILER      8708100000032500000000894000000033000000002750100000010002880002922606301000000      00000000000000      011102  
FP9518318411             651418741306202215072022 2GP/  805903/  /9B9SPOILER      8708100000032500000000894000000033000000002750100000010002880002922606401000000      00000000000000      011102  
FP9518318411             651418851306202215072022 17A/  821105/A /   paralama     8708299100032500000002085000000025660000006414200000010001674002922468411000000      00000000000000      011102  
FP9515284201PN1605       651420511306202215072022 032/  103063/AD/   CABECOTE     8409911200032500000049261000001818860000151571400000080012140002922272701000000      00000000000000      011102  
FP9515284201PN1605       651420511306202215072022 032/  103063/AD/   CABECOTE     8409911200032500000043103000001591500000132624900000070012140002922272801000000      00000000000000      011102  
FP9518286903CP0906       651423661306202215072022 2G6/  959752/AH/AIFCHAVE        8301700000000000000000000000000116080000009673000000010000038002920392301000000      00000000000000      011102  
FP9518318411             651426191306202215072022 2G5/  805911/A /   COBERTURA    8708299900032500000000182000000006710000000559100000010001684002922223901000000      00000000000000      011102  
FP9518464711             651426201306202215072022 04E/  103464/AM/   SEPARADOR    8414903900000000000000000000000011700000002926100000010000188002922587811000000      00000000000000      011102  
FP9518464711             651426211306202215072022 032/  107067/  /   PISTAO       8409912000032500000001937000000071500000005958700000040000316002905725501000000      00000000000000      011102  
FP9518464711             651426741306202215072022 5U0/  853653/D /041GRADE        8708299200032500000002226000000082190000006849100000010000189002898114101000000      00000000000000      011102  
FP9518464711             651426741306202215072022 5U0/  853665/H /9B9GRADE        8708100000032500000000312000000011530000000960600000040000287002898114101000000      00000000000000      011102  
FP9518464711             651426741306202215072022 5U0/  853666/  /1NNGRADE        8708100000032500000000522000000019270000001606000000060000550002898114101000000      00000000000000      011102  
FP9518464711             651426741306202215072022 5U0/  853666/J /9B9GRADE        8708100000032500000000131000000004830000000402100000020000105002898114101000000      00000000000000      011102  
FP9518464711             651426741306202215072022 5U5/  945093/F /   LANTERNA     8512202200097500000001740000000021410000001784200000010000092002898114101000000      00000000000000      011102  
FP9518464711             651426741306202215072022 211/  945231/1 /   SUPORTE      8512202900097500000003591000000044200000003683400000070000672002898114101000000      00000000000000      011102  
FP9518464711             651426741306202215072022 5Z6/  945701/A /   LANTERNA     8512202100097500000001799000000022140000001844700000020000167002898114101000000      00000000000000      011102  
FP9518464711             651426741306202215072022 5U0/  955426/A /   PALHETA      8512900000097500000001622000000019960000001663400000040000147002898114101000000      00000000000000      011102  
FP9518464711             651426741306202215072022 JZZ/  698151/AB/   JG PASTILH   8708309000032500000000619000000007620000001905100000010000677002898114111000000      00000000000000      011102  
FP9518464711             651426741306202215072022 5U6/  827705/C /1NNVEDACAO      4016101000117000000001923000000019730000001643800000030001012002898114601000000      00000000000000      011102  
FP9518464711             651426741306202215072022 5U0/  853666/R /9B9COBERTURA    8708100000032500000001032000000038120000003176500000060000260002898114601000000      00000000000000      011102  
FP9518464711             651426741306202215072022 5U6/  945097/A /   luz freio    8512202200097500000006299000000077520000006460200000060000206002898114601000000      00000000000000      011102  
FP9518464711             651426741306202215072022 5U4/  831721/A /1NNVEDACAO      4016101000117000000007065000000072460000006038600000070002639002918953301000000      00000000000000      011102  
FP9518464711             651426741306202215072022 5U1/  837016/AH/   FECHADURA    8301200000065000000000961000000017740000001478500000010000198002918953301000000      00000000000000      011102  
FP9518464711             651426741306202215072022 5U4/  839015/H /   FECHADURA    8301200000065000000001171000000021620000001801300000010000190002918953301000000      00000000000000      011102  
FP9518464711             651426741306202215072022 237/  843423/1 /   ROLDANA      8708999000032500000000288000000010620000000885000000600000020002918953301000000      00000000000000      011102  
FP9518464711             651426741306202215072022 237/  843425/1 /   ROLDANA      8708999000032500000000500000000018470000001539500000700000117002918953301000000      00000000000000      011102  
FP9518464711             651426741306202215072022 237/  847765/1 /   FECHADURA    8708999000032500000001316000000048580000004048700000120000074002918953301000000      00000000000000      011102  
FP9518464711             651426741306202215072022 5NN/  853211/A /9B9COBERTURA    8708100000032500000000986000000012140000003033800000020000131002918953311000000      00000000000000      011102  
FP9518464711             651426741306202215072022 5U6/  853501/A /9B9moldura      8708299900032500000000393000000014530000001210700000020000127002918953301000000      00000000000000      011102  
FP9518464711             651426741306202215072022 5U0/  853666/L /9B9COBERTURA    8708100000032500000000340000000012560000001046500000020000167002918953301000000      00000000000000      011102  
FP9518464711             651426741306202215072022 6EA/  853666/A /9B9COBERTURA    8708100000032500000000480000000017730000001477700000040000347002918953301000000      00000000000000      011102  
FP9518464711             651426741306202215072022 2G5/  854733/  /   EXTENSOR     8708299900032500000000433000000016000000001333000000020000184002918953301000000      00000000000000      011102  
FP9518464711             651426741306202215072022 5U0/  857058/  /1QBPORTA OBJE   8708299900032500000000893000000032990000002749000000040000373002918953301000000      00000000000000      011102  
FP9518464711             651426741306202215072022 5U5/  945094/B /   LANTERNA     8512202200097500000001086000000013370000001114000000010000080002918953301000000      00000000000000      011102  
FP9518464711             651426741306202215072022 ZBA/  601171/  /   CALOTA       8708709000032500000000087000000003210000000267700000040000040002918953301000000      00000000000000      011102  
FP9518464711             651426751306202215072022 5U7/  011031/A /   MACACO       8425491000032500000000778000000028710000002392600000020000033002898114101000000      00000000000000      011102  
FP9518464711             651426751306202215072022 6EA/  035710/  /   ALTO FALAN   8518299000097500000000997000000012270000001022500000030000014002898114601000000      00000000000000      011102  
FP9518464711             651426751306202215072022 211/  837239/1 /1NNROSETA       3926909000097500000001863000000022930000001910600001400000015002918953301000000      00000000000000      011102  
FP9518464711             651426751306202215072022 211/  843711/P /043ROSETA       3926909000097500000001850000000022770000001897900000300000001002918953301000000      00000000000000      011102  
FP9518464711             651426751306202215072022 1SB/  853433/A /4M1INSCRICAO    3919909000097500000000502000000006170000000514500000030000000002918953301000000      00000000000000      011102  
FP9518464711             651426751306202215072022 5Z4/  853516/H /GRUPROTECAO     3926300000032500000000202000000007470000000622200000010000001002918953301000000      00000000000000      011102  
FP9518464711             651426751306202215072022 1SB/  853767/B /P3GFRISO        3926300000032500000000103000000003800000000316800000020000000002918953301000000      00000000000000      011102  
FP9518464711             651426751306202215072022 5U7/  864203/  /9B9GANCHO       3926300000032500000000783000000028900000002408000000200000008002918953301000000      00000000000000      011102  
FP9518464711             651426751306202215072022 5Z0/  941607/C /   CAPA COBER   3926909000097500000000525000000006460000000538000000030000001002918953301000000      00000000000000      011102  
FP9518464711             651426751306202215072022 17A/  945105/  /   REFLETOR     3926909000097500000000440000000001800000000451000000010000001002918953311000000      00000000000000      011102  
FP9518464711             651426751306202215072022 5U7/  945106/B /   REFLETOR     3926300000032500000000073000000000900000000225000000020000000002918953311000000      00000000000000      011102  
FP9518464711             651426751306202215072022 8D0/  955455/  /   TAMPA        3926909000097500000000512000000006300000000525000000060000001002918953301000000      00000000000000      011102  
FP9518464711             651426751306202215072022 2G0/  955463/  /   TUBO         3917390000032500000000252000000009300000000774600000020000001002918953301000000      00000000000000      011102  
FP9518464711             651426751306202215072022 06L/  971845/  /   SUPORTE      3926909000097500000000963000000003950000000988200000050000000002918953311000000      00000000000000      011102  
FP9518464711             651426751306202215072022 5U0/  010795/E /   ETIQUETA     3919909000097500000000989000000012170000001014000000250000000002918953301000000      00000000000000      011102  
FP9518464711             651426751306202215072022 5W0/  011031/  /   MACACO       8425491000032500000000774000000028590000002382200000030000041002918953301000000      00000000000000      011102  
FP9518464711             651426761306202215072022 8E0/  864229/  /9B9CAPA COBER   3926909000097500000000365000000001500000000374500000110000002002918953311000000      00000000000000      011102  
FP9518464711             651426771306202215072022 211/  955975/1 /   PECA EM T    3917409000000000000000000000000030300000002525300001800000001002918953301000000      00000000000000      011102  
FP9517046401Est3005      651426801306202215072022 030/  198955/C /   JG.PECAS     4010310000065000000031782000000586750000048895900001000000091002898114601000000      00000000000000      011102  
FP9516517101Est2505      651426801306202215072022 5U0/  407625/B /   ROLAMENTO    8482101000078000000003083000000047430000003952500000050000030002918953301000000      00000000000000      011102  
FP9517046401Est3005      651426811306202215072022 1K6/  955651/  /   BOMBA        8413709000000000000000000000000477150000039762200001200000102002898114601000000      00000000000000      011102  
FP9514606501PN10050      651426821306202215072022 030/  103171/Q /   FLANGE       8409919000032500000001622000000019960000004990200000020000212002918953311000000      00000000000000      011102  
FP9515436201PN1705       651426821306202215072022 030/  103171/Q /   FLANGE       8409919000032500000000811000000009980000002495200000010000106002918953311000000      00000000000000      011102  
FP9517832801PN06064      651426821306202215072022 030/  103171/Q /   FLANGE       8409919000032500000001669000000020550000005136900000020000212002918953311000000      00000000000000      011102  
FP9515684501PN18050      651426831306202215072022 3G8/  857551/C /SX4PARASOL      8708299900032500000000499000000006150000001536600000010000374002918953311000000      00000000000000      011102  
FP9517884511             651426941306202215072022 6EA/  823535/C /   TIRANTE      8708999000032500000000302000000011160000000930400000010000185002898114101000000      00000000000000      011102  
FP9518464711             651426941306202215072022 0C3/  315105/A /   bombahidra   8413303000032500000006276000000231720000019309700000020002052002898114101000000      00000000000000      011102  
FP9518464711             651426941306202215072022 5Z0/  407255/BA/   CAIXA        8708999000032500000003241000000119680000009973000000030014310002898114101000000      00000000000000      011102  
FP9518464711             651426941306202215072022 5U0/  805583/K /9B9moldura      8708299900032500000001092000000040310000003359300000060001080002898114101000000      00000000000000      011102  
FP9518464711             651426941306202215072022 5U5/  807439/A /   REFORCO      8708100000032500000000649000000023960000001996700000030001800002898114101000000      00000000000000      011102  
FP9518464711             651426941306202215072022 5U7/  827505/A /   FECHADURA    8301200000065000000001704000000031460000002621800000030000858002898114101000000      00000000000000      011102  
FP9518464711             651426941306202215072022 5U0/  407615/  /   CUBO RODA    8708999000032500000001146000000042300000003525000000030004077002898114601000000      00000000000000      011102  
FP9518464711             651426941306202215072022 5U0/  601147/E /YSWCALOTA       8708709000032500000002979000000110000000009167000000100003560002898114601000000      00000000000000      011102  
FP9518464711             651426941306202215072022 5NN/  121341/  /   COBERTURA    8708299900032500000000793000000009760000002440900000020000668002918953311000000      00000000000000      011102  
FP9518464711             651426941306202215072022 5U0/  122447/G /   MANGUEIRA    4009110000065000000000748000000013800000001150200000090000630002918953301000000      00000000000000      011102  
FP9518464711             651426941306202215072022 7X0/  201920/  /   RESERVATOR   8708999000032500000000397000000014650000001220600000030001347002918953301000000      00000000000000      011102  
FP9518464711             651426941306202215072022 013/  311277/1 /   ANEL         8708999000032500000000498000000018370000001531100000060000156002918953301000000      00000000000000      011102  
FP9518464711             651426941306202215072022 211/  711423/  /   BUCHA        8708999000032500000000261000000009650000000804500000500000100002918953301000000      00000000000000      011102  
FP9518464711             651426941306202215072022 5NN/  805588/H /   SUPORTE      8708299900032500000005320000000065470000016367700000010003694002918953311000000      00000000000000      011102  
FP9518464711             651426941306202215072022 5W9/  807194/  /   SUPORTE      8708299900032500000000150000000005540000000461300000080000296002918953301000000      00000000000000      011102  
FP9518464711             651426941306202215072022 17A/  807724/  /   APOIO        8708100000032500000000351000000004320000001078800000010000482002918953311000000      00000000000000      011102  
FP9518464711             651426941306202215072022 5U1/  819403/  /1NNCOBERTURA    8708299900032500000000915000000033790000002815800000090002250002918953301000000      00000000000000      011102  
FP9518464711             651426941306202215072022 6QE/  827550/  /   AMORTECEDO   8708999000032500000000704000000025990000002166000000040000992002918953301000000      00000000000000      011102  
FP9518464711             651426951306202215072022 06H/  103085/J /   RETENTOR     4016999000117000000003204000000010950000002738100000030000009002918953311000000      00000000000000      011102  
FP9518464711             651426951306202215072022 06J/  121119/  /   ANEL         4016930000052000000003134000000024110000006026400000060000008002918953311000000      00000000000000      011102  
FP9518464711             651426951306202215072022 171/  121276/D /   ARRUELA      4006900000032500000000112000000004130000000344400000500000017002918953301000000      00000000000000      011102  
FP9518464711             651426951306202215072022 5W0/  145933/  /   CORREIA      4010320000065000000001174000000021670000001806100000040000124002918953301000000      00000000000000      011102  
FP9518464711             651426951306202215072022 013/  301235/  /   VEDACAO      4823909900097500000001001000000012320000001026700000500000017002918953301000000      00000000000000      011102  
FP9518464711             651426951306202215072022 113/  311362/  /   ARRUELA      7318210000065000000000322000000005940000000494900000400000013002918953301000000      00000000000000      011102  
FP9518464711             651426951306202215072022 113/  311364/  /   ARRUELA      7318210000065000000000415000000007650000000637700000500000200002918953301000000      00000000000000      011102  
FP9518464711             651426951306202215072022 377/  512113/A /   PRATO MOLA   4016999000117000000000406000000004170000000347200000020000107002918953301000000      00000000000000      011102  
FP9518464711             651426951306202215072022 113/  609163/1 /   TAMPAO       4016999000117000000001277000000013100000001091800000400000040002918953301000000      00000000000000      011102  
FP9518464711             651426951306202215072022 211/  611751/  /   BUCHA        4016930000052000000000562000000012980000001081500000800000027002918953301000000      00000000000000      011102  
FP9518464711             651426951306202215072022 211/  703291/  /   BATENTE      4016930000052000000000046000000001070000000089300000250000058002918953301000000      00000000000000      011102  
FP9518464711             651426951306202215072022 211/  711167/1 /   COIFA        4016999000117000000001236000000012670000001056100000130000074002918953301000000      00000000000000      011102  
FP9518464711             651426951306202215072022 211/  721163/A /   MOLA         7320900000097500000001007000000012400000001033100000200000333002918953301000000      00000000000000      011102  
FP9518464711             651426951306202215072022 211/  819369/1 /   TECLA        8414902000032500000000389000000014370000001197700000300000050002918953301000000      00000000000000      011102  
FP9518464711             651426951306202215072022 5X9/  827577/  /1NNCOBERTURA    3926909000097500000002191000000026960000002246900000030000214002918953301000000      00000000000000      011102  
FP9518464711             651426961306202215072022 07K/  103483/B /   VEDACAO      4016930000052000000001848000000014210000003553500000020000078002918953311000000      00000000000000      011102  
FP9518464711             651426971306202215072022 5Q0/  122291/AB/   CONEXAO      3917409000000000000000000000000003020000000754100000010000040002918953311000000      00000000000000      011102  
FP9518464711             651426981306202215072022 03G/  145276/  /   POLIA        8483501000078000000015543000000079710000019927100000070000180002898114111000000      00000000000000      011102  
FP9518464711             651427681306202215072022 032/  121026/CP/   CARCACA      8481909000000000000000000000001593640000132803000000600000658002922183601000000      00000000000000      011102  
FP9518464711             651427681306202215072022 032/  121026/CP/   CARCACA      8481909000000000000000000000001593640000132803000000600000658002922183701000000      00000000000000      011102  
FP9518464711             651427681306202215072022 032/  121026/CP/   CARCACA      8481909000000000000000000000000717140000059761400000270000658002922183801000000      00000000000000      011102  
FP9518464711             651427691306202215072022 5U0/  422803/A /   BARRA DIR    8708949000032500000001619000000059780000004981600000020000945002897680301000000      00000000000000      011102  
FP9518464711             651427691306202215072022 5U7/  827793/B /   CABO         8708999000032500000003205000000118350000009862600000360001440002897680301000000      00000000000000      011102  
FP9518464711             651427691306202215072022 5U0/  853666/H /9B9GRADE        8708100000032500000000312000000011530000000960600000040000380002897680301000000      00000000000000      011102  
FP9518464711             651427701306202215072022 5U7/  945105/A /   REFLETOR     3926300000032500000000145000000001780000000444800000020000045002897680311000000      00000000000000      011102  
FP9518464711             651427701306202215072022 3B0/  819145/  /   GRAMPO       7326909000032500000000172000000002120000000528900000020000004002921889111000000      00000000000000      011102  
FP9515684501PN18050      651434041306202215072022 6EA/  853651/D /RYPGRADE        8708299200032500000001323000000048850000004071200000010000380002922664101000000      00000000000000      011102  
FP9514606501PN10050      651434081306202215072022 5U1/  419501/BA/   COLUNA DIR   8708948200032500000001438000000053110000004426000000010003210002922683301000000      00000000000000      011102  
FP9515684501PN18050      651434081306202215072022 5U1/  419501/BA/   COLUNA DIR   8708948200032500000001438000000053110000004426000000010003210002922683501000000      00000000000000      011102  
FP9513308801PN28040      651434081306202215072022 5U1/  419501/BA/   COLUNA DIR   8708948200032500000001438000000053110000004426000000010003210002922683701000000      00000000000000      011102  
FP9514458901PN09050      651434081306202215072022 5U1/  419501/BA/   COLUNA DIR   8708948200032500000001438000000053110000004426000000010003210002922683801000000      00000000000000      011102  
FP9516007001PN2005       651434371306202215072022 5U0/  121253/C /   RADIADOR     8708910000032500000001456000000053740000004478500000010001998002922687401000000      00000000000000      011102  
FP9508437501PN14032      651434931306202215072022 5U7/  827023/C /GRUTAMPA        8708299900032500000005602000000206840000017237000000010013600002922687101000000      00000000000000      011102  
FP9512431311             651434941306202215072022 5Z0/  823031/C /GRUTAMPA        8708299900032500000002834000000104640000008720400000010009720002922686301000000      00000000000000      011102  
FPF100000000000121                                                                                                                                                                                 
FPI10000000000000130620220000000000005100054                                                                                                                                                       
FP9515817601PN19050      071073832405202223062022 2GB/  121253/A /   RADIADOR     87089100000325000000016690000000616400000053033000000225220000000000000000000005XS00143375930000213      011102  
FPF100000000000003                                                                                                                                                                                 
FPI00000000000000130620220000000000005100054                                                                                                                                                       
FP5518556101Est1306      1306202213062022 6EA/  809606/A /GRU00000020000000  6EA/  809605/A /GRU00000020000002  6EA/  805588/G /   00000050000000                                          220800  
FP5518556101Est1306      1306202213062022 5Z4/  809606/J /GRU00000020000000  5Z4/  809605/K /GRU00000020000000  5Z0/  821022/R /GRU00000020000000                                          220800  
FP5518556101Est1306      1306202213062022 5Z0/  821022/P /GRU00000040000000  5Z0/  821021/Q /GRU00000040000000  5Z0/  821021/N /GRU00000040000000                                          220800  
FP5518556101Est1306      1306202213062022 5Z0/  807109/E /GRU00000020000000  5U7/  821022/B /GRU00000040000000  5U7/  821021/B /GRU00000020000000                                          220800  
FP5518556101Est1306      1306202213062022 5U7/  809606/F /GRU00000020000000  5U7/  809605/F /GRU00000020000000  5U6/  813301/C /GRU00000040000000                                          220800  
FP5518556101Est1306      1306202213062022 5U5/  813301/C /GRU00000020000000  030/  109411/B /   00025200000000  1SB/  809605/A /GRU00000020000000                                          220800  
FP5518556101Est1306      1306202213062022 2G0/  821105/  /GRU00000020000000  2G0/  821106/  /GRU00000020000000  2G5/  821021/  /GRU00000020000000                                          220800  
FP5518556101Est1306      1306202213062022 2G5/  821022/  /GRU00000020000000  2GP/  807109/  /RDH00000040000000  2GP/  821105/  /GRU00000020000000                                          220800  
FP5518556101Est1306      1306202213062022 2GP/  821106/  /GRU00000040000000  5U0/  821021/  /   00000020000000  5U0/  821021/B /GRU00000020000002                                          220800  
FP5518556101Est1306      1306202213062022 5U0/  821022/  /   00000020000000  5U0/  821022/B /GRU00000060000000  5U4/  809605/  /CTR00000020000000                                          220800  
FP5518556101Est1306      1306202213062022 5U4/  809605/E /GRU00000020000000  5U4/  809606/E /GRU00000020000000                     00000000000000                                          220800  
FP5518597301PN1306       1306202213062022 2H0/  927807/A /   00000010000000  2H0/  927808/A /   00000010000000                     00000000000000                                          220800  
FP5518632303CP1306       1306202213062022 6QE/  839904/  /03C00000010000000  6QE/  839903/  /03C00000010000000  5Z0/  885969/A /   00000010000000                                          220800  
FP5518632303CP1306       1306202213062022 2QB/  881105/  /   00000010000000  2Q0/  971235/B /   00000010000000  2H6/  807490/F /RYP00000010000000                                          220800  
FP5518632303CP1306       1306202213062022 2H0/  906028/  /   00000010000000  2GJ/  945096/A /   00000010000000    N/  909483/02/   00000050000000                                          220800  
FP5518632303CP1306       1306202213062022 107/  905855/AF/   00000010000000  107/  905855/CH/   00000010000000  17A/  853688/F /DPJ00000010000000                                          220800  
FP5518632303CP1306       1306202213062022 2GJ/  945096/A /   00000010000000  2GJ/  854950/A /9B900000010000000  17A/  853688/G /DPJ00000010000000                                          220800  
FP5518632303CP1306       1306202213062022 2G6/  959752/AF/AIF00000010000000                     00000000000000                     00000000000000                                          220800  
FP5518633501PN13061      1306202213062022 5U0/  853677/H /9B900000020000000  5U0/  853677/J /9B900000100000000  5U0/  853677/D /9B900000020000000                                          220800  
FP5518633501PN13061      1306202213062022 5U0/  853666/G /9B900000040000000  5U0/  915331/B /   00000020000000  5U0/  919052/A /   00000040000000                                          220800  
FP5518633501PN13061      1306202213062022 5U0/  941005/D /   00000010000000  5U0/  941006/E /   00000010000000  5U0/  853665/R /9B900000010000000                                          220800  
FP5518633501PN13061      1306202213062022 5U0/  853665/P /9B900000040000000  5U0/  853653/G /04100000030000000  5U0/  853653/E /BUS00000040000000                                          220800  
FP5518633501PN13061      1306202213062022 5U0/  853630/  /ULM00000010000001  5U0/  837113/A /FA700000010000000  5U0/  807240/  /   00000020000000                                          220800  
FP5518633501PN13061      1306202213062022 5U0/  807239/  /   00000020000000  5U0/  955409/A /03C00000020000000  5U0/  955425/G /   00000010000000                                          220800  
FP5518633501PN13061      1306202213062022 5U0/  962125/  /9B900000030000000  5U1/  612041/S /   00000010000000  5U1/  819404/  /1NN00000040000000                                          220800  
FP5518633501PN13061      1306202213062022 5U1/  820045/B /9B900000010000000  5U1/  823531/A /   00000020000000  5U1/  837015/AE/   00000020000000                                          220800  
FP5518633501PN13061      1306202213062022 5U1/  857507/K /9B900000020000000  5U1/  880202/F /QL200000010000000  5U3/  831056/D /GRU00000010000000                                          220800  
FP5518633501PN13061      1306202213062022 5U4/  831055/D /CTR00000010000000  5U4/  831721/J /1NN00000050000000  5U4/  839016/F /   00000010000000                                          220800  
FP5518633501PN13061      1306202213062022 5U4/  853319/  /01C00000030000000  5U5/  827025/F /GRU00000020000000  5GM/  915105/N /   00000010000000                                          220800  
FP5518633501PN13061      1306202213062022 5H0/  853601/H /DPJ00000010000000  5K0/  698451/E /   00000010000000  5N0/  805903/J /9B900000010000000                                          220800  
FP5518633501PN13061      1306202213062022 5N0/  853677/H /9B900000010000000  5N0/  854732/B /9B900000010000000  5NN/  853212/A /9B900000020000000                                          220800  
FP5518633501PN13061      1306202213062022 5NN/  854732/A /9B900000010000001  5NN/  868837/  /RM500000010000000  5NN/  955426/  /03C00000020000000                                          220800  
FP5518633501PN13061      1306202213062022 5NN/  955427/  /03C00000030000000  5Q0/  121070/BR/   00000030000000  5Q0/  253115/B /   00000010000000                                          220800  
FP5518633501PN13061      1306202213062022 5Q0/  411315/A /   00000060000000  5Q0/  615301/F /   00000040000000  5Q0/  615301/H /   00000020000000                                          220800  
FP5518633501PN13061      1306202213062022 5Q0/  698151/AF/   00000020000000  5QF/  919087/K /   00000030000000  5U0/  010795/A /   00000100000000                                          220800  
FP5518633501PN13061      1306202213062022 5U0/  035209/  /   00000050000000  5U0/  035936/  /   00000020000000  5U0/  121156/  /   00000040000000                                          220800  
FP5518633501PN13061      1306202213062022 5U0/  121207/B /   00000010000000  5U0/  407365/A /   00000020000002  5U0/  805583/  /9B900000010000000                                          220800  
FP5518633501PN13061      1306202213062022 5U0/  805584/F /9B900000040000000  5U0/  805584/K /9B900000020000000  5U0/  805584/L /9B900000010000000                                          220800  
FP5518633501PN13061      1306202213062022 5U0/  807217/D /GRU00000020000000  5U0/  807221/L /GRU00000020000000  5U0/  807221/Q /KZ300000040000000                                          220800  
FP5518633501PN13061      1306202213062022 5U0/  807221/S /GRU00000040000004  5Z0/  809962/L /   00000010000000  5Z0/  853361/F /EDW00000010000000                                          220800  
FP5518633501PN13061      1306202213062022 5Z0/  853671/D /EDW00000020000000  5Z0/  857578/  /1NN00000040000000  5Z0/  863387/  /71N00000100000000                                          220800  
FP5518633501PN13061      1306202213062022 5Z0/  955426/A /03C00000040000004  5Z0/  955751/  /   00000100000000  5Z4/  833721/E /1NN00000010000000                                          220800  
FP5518633501PN13061      1306202213062022 5Z6/  945106/B /   00000010000000  5Z9/  827505/A /   00000010000000  6EA/  805903/  /9B900000100000000                                          220800  
FP5518633501PN13061      1306202213062022 6EA/  805915/  /   00000030000000  6EA/  806929/C /   00000010000000  6EA/  807184/  /   00000010000000                                          220800  
FP5518633501PN13061      1306202213062022 6EA/  807217/F /GRU00000060000000  6EA/  827761/A /   00000100000000  6EA/  853601/  /2ZZ00000010000001                                          220800  
FP5518633501PN13061      1306202213062022 6EA/  853677/  /9B900000030000000  6EA/  941005/D /   00000010000000  6EC/  807417/C /GRU00000040000000                                          220800  
FP5518633501PN13061      1306202213062022 6Q0/  831411/A /   00000010000000  6Q0/  959858/  /9B900000050000000  6R0/  819653/  /   00000050000000                                          220800  
FP5518633501PN13061      1306202213062022 7E0/  819631/  /   00000040000000  7L0/  823633/H /   00000010000000  JZW/  998003/A /   00000020000000                                          220800  
FP5518633501PN13061      1306202213062022 JZZ/  413031/  /   00000020000002  JZZ/  905106/  /   00000050000000H WHT/  001386/  /   00000100000000                                          220800  
FP5518633501PN13061      1306202213062022 WHT/  002482/  /   00000500000000  WHT/  003431/  /   00000100000000  WHT/  005305/B /   00000400000000                                          220800  
FP5518633501PN13061      1306202213062022 5U5/  945106/  /   00000100000000  5U6/  807417/T /GRU00000010000000  5U6/  853705/A /1NN00000060000000                                          220800  
FP5518633501PN13061      1306202213062022 5U6/  853706/A /1NN00000060000000  5U6/  945105/A /   00000030000000  5U7/  611764/B /   00000010000000                                          220800  
FP5518633501PN13061      1306202213062022 5U7/  805588/A /GRU00000050000000  5U7/  807421/A /GRU00000010000000  5U7/  809921/E /9B900000020000000                                          220800  
FP5518633501PN13061      1306202213062022 5U7/  823031/  /GRU00000010000000  5U7/  827185/A /   00000020000000  5U7/  827517/A /   00000030000000                                          220800  
FP5518633501PN13061      1306202213062022 5U7/  853501/C /9B900000050000000  5U7/  853502/A /9B900000030000000  5U7/  853502/C /9B900000010000000                                          220800  
FP5518633501PN13061      1306202213062022 5U7/  853503/A /9B900000030000000  5U7/  853503/B /9B900000010000000  5U7/  853504/A /9B900000010000000                                          220800  
FP5518633501PN13061      1306202213062022 5U7/  853596/  /   00000020000000  5U7/  853926/  /GRU00000010000000  5U7/  860146/A /KN200000020000000                                          220800  
FP5518633501PN13061      1306202213062022 5U7/  860381/  /KN200000030000000  5W0/  807239/  /   00000010000000  5W0/  807240/  /   00000010000000                                          220800  
FP5518633501PN13061      1306202213062022 5X0/  010464/Q /   00000080000000  5X6/  827705/  /1NN00000010000000  5Z0/  122051/N /   00000010000000                                          220800  
FP5518633501PN13061      1306202213062022 5Z0/  601147/AC/BJW00000010000000  5Z0/  805583/C /9B900000030000000  5Z0/  807183/A /   00000040000000                                          220800  
FP5518633501PN13061      1306202213062022 5Z0/  807241/B /GRU00000020000000  5Z0/  809961/N /   00000010000000  04E/  109119/L /   00000050000000                                          220800  
FP5518633501PN13061      1306202213062022 04E/  121119/C /   00000020000000  04E/  127026/BH/   00000020000000  04E/  145933/AL/   00000010000000                                          220800  
FP5518633501PN13061      1306202213062022 059/  145757/AC/   00000010000000  06A/  109479/F /   00000010000000  06H/  109509/Q /   00000010000000                                          220800  
FP5518633501PN13061      1306202213062022 06H/  145255/F /   00000010000000  06H/  905601/A /   00000080000000  06J/  115441/A /   00000050000000                                          220800  
FP5518633501PN13061      1306202213062022 06J/  117070/C /   00000100000000  06J/  127025/L /   00000010000000  06K/  121143/  /   00000050000000                                          220800  
FP5518633501PN13061      1306202213062022 06K/  905601/B /   00000060000000  06L/  121012/L /   00000010000000  06L/  121043/B /   00000010000000                                          220800  
FP5518633501PN13061      1306202213062022 09G/  301189/  /   00000010000000  09K/  321243/  /   00000010000000  0AM/  301189/E /   00000010000000                                          220800  
FP5518633501PN13061      1306202213062022 0C7/  321199/  /   00000010000000  0CT/  141153/C /   00000020000000  113/  857219/1 /   00001500000000                                          220800  
FP5518633501PN13061      1306202213062022 17A/  807183/  /   00000010000000  17A/  823031/  /   00000010000000  17A/  868837/A /RM500000010000000                                          220800  
FP5518633501PN13061      1306202213062022 17A/  945095/A /   00000010000000  1J0/  412331/C /   00000100000000  1J3/  881633/B /71N00000060000000                                          220800  
FP5518633501PN13061      1306202213062022 1K0/  253144/BD/   00000050000000  1K0/  412249/B /   00000070000000  1K0/  612181/F /   00000010000000                                          220800  
FP5518633501PN13061      1306202213062022 1S0/  121407/J /   00000040000000    D/  176501/A1/   00000020000000    N/  017763/2 /   00000030000000                                          220800  
FP5518633501PN13061      1306202213062022   N/  101692/01/   00000050000000    N/  102861/11/   00000100000000    N/  102862/05/   00000050000000                                          220800  
FP5518633501PN13061      1306202213062022   N/  103320/02/   00000250000000    N/  105524/04/   00000050000000    N/  106994/01/   00000100000000                                          220800  
FP5518633501PN13061      1306202213062022   N/  903445/01/   00000010000000    N/  906175/01/   00000100000000    N/  908946/01/   00000500000000                                          220800  
FP5518633501PN13061      1306202213062022   N/  910868/01/   00000100000000    N/  912044/01/   00000100000000    N/  912251/01/   00000100000000                                          220800  
FP5518633501PN13061      1306202213062022 013/  311269/1 /   00000080000000  013/  409399/2 /   00000100000010  02T/  311269/G /   00000010000000                                          220800  
FP5518633501PN13061      1306202213062022 02T/  311269/L /   00000020000000  02T/  911021/E /   00000020000000  030/  103485/AA/   00000100000000                                          220800  
FP5518633501PN13061      1306202213062022 030/  105269/H /   00000010000000  030/  121121/D /   00000010000000  032/  109101/AG/   00000020000000                                          220800  
FP5518633501PN13061      1306202213062022 032/  109101/AH/   00000010000001  032/  121110/C /   00000010000000  036/  103383/AF/   00000020000000                                          220800  
FP5518633501PN13061      1306202213062022 038/  903315/AN/   00000020000000  03L/  115105/B /   00000040000000  03L/  121111/AK/   00000040000000                                          220800  
FP5518633501PN13061      1306202213062022 03P/  907666/B /   00000010000000  04C/  103085/B /   00000010000001  04E/  103600/C /   00000010000000                                          220800  
FP5518633501PN13061      1306202213062022 2H6/  941699/B /   00000010000000  2H7/  807502/C /9B900000010000000  2HH/  853653/  /9B900000010000000                                          220800  
FP5518633501PN13061      1306202213062022 2HH/  853677/  /9B900000020000000  2HH/  853727/  /GRU00000010000001  2QB/  201553/  /9B900000020000000                                          220800  
FP5518633501PN13061      1306202213062022 2QB/  407615/A /   00000010000000  2QB/  413031/Q /   00000020000000  2QB/  498103/D /   00000010000001                                          220800  
FP5518633501PN13061      1306202213062022 2QB/  919051/G /   00000020000002  377/  121197/E /   00000020000000  377/  129607/M /   00000020000000                                          220800  
FP5518633501PN13061      1306202213062022 377/  199381/E /   00000020000000  377/  422523/  /   00000100000000  377/  721335/P /   00000040000000                                          220800  
FP5518633501PN13061      1306202213062022 377/  857520/A /1NN00000150000000  377/  860250/  /   00000010000000  3CN/  868243/  /   00000100000000                                          220800  
FP5518633501PN13061      1306202213062022 3G0/  853601/B /DPJ00000010000000  3Q0/  698451/F /   00000020000000  4E0/  121666/  /   00000040000000                                          220800  
FP5518633501PN13061      1306202213062022 5C0/  253115/A /   00000010000000  5C0/  598375/  /   00000010000000  5C6/  805706/D /   00000030000000                                          220800  
FP5518633501PN13061      1306202213062022 5C6/  807183/A /   00000010000000  5C6/  807184/  /   00000010000000  5C6/  857521/B /   00000010000000                                          220800  
FP5518633501PN13061      1306202213062022 5G0/  805904/  /9B900000010000000  5G0/  805911/AK/   00000010000000  5G0/  959855/L /WZU00000010000000                                          220800  
FP5518633501PN13061      1306202213062022 5G6/  955427/C /   00000010000001  5GM/  915105/C /   00000020000000  1S0/  825661/D /   00000010000000                                          220800  
FP5518633501PN13061      1306202213062022 1SB/  806333/B /EL700000010000000  1SB/  807183/  /   00000050000000  1SB/  807221/B /GRU00000010000000                                          220800  
FP5518633501PN13061      1306202213062022 1SB/  807241/D /GRU00000010000000  1SB/  807568/A /9B900000010000000  1SB/  819404/A /9B900000010000000                                          220800  
FP5518633501PN13061      1306202213062022 1SB/  837432/B /5AP00000010000000  1SB/  853101/B /2ZZ00000020000000  1SB/  853102/B /2ZZ00000010000000                                          220800  
FP5518633501PN13061      1306202213062022 1SB/  955453/  /   00000020000000  237/  711141/1 /1NN00000050000000  237/  881375/1 /   00000030000001                                          220800  
FP5518633501PN13061      1306202213062022 2G1/  959839/B /UPA00000010000000  2G5/  805911/A /   00000020000000  2G5/  807217/B /GRU00000020000000                                          220800  
FP5518633501PN13061      1306202213062022 2H6/  853728/  /GRU00000010000000  2H0/  867276/  /   00000250000000  2H0/  422154/A /   00000010000000                                          220800  
FP5518633501PN13061      1306202213062022 2GP/  945105/  /   00000010000000  2GP/  868837/  /KJ100000040000000  2GP/  863324/A /WGI00000040000000                                          220800  
FP5518633501PN13061      1306202213062022 2GP/  853763/  /2ZZ00000010000000  2GP/  853665/A /9B900000020000000  2GP/  807394/A /   00000020000000                                          220800  
FP5518633501PN13061      1306202213062022 2G5/  955427/  /9B900000040000004  2G5/  941035/A /   00000010000000  2G5/  854732/  /9B900000020000000                                          220800  
FP5518633501PN13061      1306202213062022 2G5/  853689/A /FOD00000020000000  2G5/  853687/  /2ZZ00000020000000  2G5/  853651/E /BMO00000010000001                                          220800  
FP5518633501PN13061      1306202213062022 2G5/  807521/  /9B900000010000000                     00000000000000                     00000000000000                                          220800  
FP6480878504LD-34699     01072021 5NN/  863367/  /07N000000100000221488                    000000000000000000                    000000000000000000B                                               
FP6501899801FE1201       12012022 ASE/  401605/00/000000000100000071246                    000000000000000000                    000000000000000000B                                               
FP6508437501PN14032      14032022 7X0/  906034/B /   000000200000038370 5U1/  612041/D /   000000200000003175 5U0/  853666/M /9B9000000200000007848B                                               
FP6508437501PN14032      14032022 5U0/  407365/  /   000000100000006879 5GM/  805705/  /   000000100000009124 2QB/  919673/  /   000001000000005757B                                               
FP6508437501PN14032      14032022 2H5/  829211/D /   000000100000008005 1SB/  959857/  /9B9000000100000004066 1S0/  407151/A /   000000200000007306B                                               
FP6508437501PN14032      14032022 04C/  103085/B /   000000100000008799 030/  107411/H /   000004000000002796   G/  060751/A2/   000000400000022646B                                               
FP6508437501PN14032      14032022   D/  000600/A2/   000000200000026852                    000000000000000000                    000000000000000000B                                               
FP6508593301PN15030      15032022 WHT/  003862/  /   000000800000030312 WHT/  003856/  /   000000200000028694 5Z0/  821022/G /   000000100000043972B                                               
FP6508714101PN16034      16032022 5U7/  821022/A /GRU000000100000032511                    000000000000000000                    000000000000000000B                                               
FP6509119711             18032022 211/  401301/1 /   000000800000004008 373/  853708/  /   000000100000008645 5U7/  853630/A /OLP000000200000004765B                                               
FP6509445201PN22030      22032022 1Z0/  857538/A /GRU000000100000008735 2H5/  829211/A /   000000100000008005 5GM/  805705/  /   000000400000009124B                                               
FP6509445201PN22030      22032022 5U5/  827505/D /   000000100000012546 5Z0/  959856/B /1QB000000100000001818                    000000000000000000B                                               
FP6509450301PN22039      22032022 WHT/  003862/  /   000000200000030313 7X0/  906034/B /   000000200000038370 2H5/  829211/D /   000000100000008005B                                               
FP6509450301PN22039      22032022   N/  907543/02/   000002500000000068                    000000000000000000                    000000000000000000B                                               
FP6509483011             22032022   N/  013945/2 /   000005000000000009 5C7/  941005/C /   000000100000198586                    000000000000000000B                                               
FP6510108511             28032022 5W0/  011247/A /   000000200000000346 5X9/  955707/  /   000000400000003841                    000000000000000000B                                               
FP6510222001PE2903       29032022 2H6/  823033/C /GRU000000200000297564 2H7/  845205/  /   000000100000011029                    000000000000000000B                                               
FP6510222101FE2903       29032022 ASE/  405440/00/000000000100000079731                    000000000000000000                    000000000000000000B                                               
FP6510400011             30032022 5Z0/  513025/L /   000000200000018695 7X0/  837439/  /   000000300000002005                    000000000000000000B                                               
FP6510535403CP3103       31032022   G/  060751/A2/   000000100000022646   G/  060751/A2/   000000100000022646   G/  060751/A2/   000000100000022646B                                               
FP6510707411             01042022 5U0/  881318/A /71N000000100000005225 5U7/  845521/  /   000000500000004647                    000000000000000000B                                               
FP6511057811             05042022 5U0/  819707/  /ST3000001600000004439 5U0/  881318/A /71N000000100000005225                    000000000000000000B                                               
FP6511208411             06042022 211/  955407/2 /   000000500000003220 5U0/  881375/  /   000000400000007699                    000000000000000000B                                               
FP6511654601PN11041      11042022 7X0/  906034/  /   000000300000037105 6QE/  807217/B /GRU000000600000070703 6EA/  880201/H /HVF000000200000030282B                                               
FP6511654601PN11041      11042022 5Z0/  853677/K /9B9000000200000008358 5Z0/  823031/D /GRU000000200000108689 5U7/  845521/  /   000000200000004741B                                               
FP6511654601PN11041      11042022 5U7/  827565/  /MK1000000200000018970 5U7/  827129/C /   000000600000012690 5U1/  422055/L /   000000600000070572B                                               
FP6511654601PN11041      11042022 5U0/  881375/  /   000001000000007856 5U0/  881347/  /71N000001000000002055 5U0/  819707/  /ZE6000001000000004618B                                               
FP6511654601PN11041      11042022 5GM/  805931/  /   000000200000004526   G/  052150/A2/   000000100000007360                    000000000000000000B                                               
FP6511749301PE1204       12042022 JZZ/  698302/C /   000000300000021920 5U0/  615301/C /   000000400000014055                    000000000000000000B                                               
FP6511933801PN13041      13042022 373/  853708/  /   000000100000008956 5U4/  857706/J /HCP000000100000027304 6EA/  831056/H /GRU000000300000067927B                                               
FP6511933801PN13041      13042022 6EA/  839477/  /5AP000000100000005214                    000000000000000000                    000000000000000000B                                               
FP6511980111             13042022 6QE/  807217/B /GRU000001700000069289                    000000000000000000                    000000000000000000B                                               
FP6512106103CP1404       14042022 17A/  845011/AF/NVB000000100000181370 5NN/  863367/  /07N000000100000279832                    000000000000000000B                                               
FP6512160803CP1804       18042022 2GP/  601025/A /DM9000000100000067101 5U0/  819707/  /TU6000000100000004266                    000000000000000000B                                               
FP6512218701PN1804       18042022 1SB/  807258/B /9B9000000400000005320 04C/  129709/A /   000000300000038251                    000000000000000000B                                               
FP6512221101PN18041      18042022 5U0/  819707/  /ZE6000000300000004618 5U0/  853666/M /9B9000000200000007968 5U0/  937537/A /   000000100000021225B                                               
FP6512221101PN18041      18042022 5U7/  845521/  /   000000400000004741 5X0/  711025/A /   000000100000011306                    000000000000000000B                                               
FP6512283911             18042022 5Z4/  833056/H /GRU000000400000124995                    000000000000000000                    000000000000000000B                                               
FP6512389601PN1904       19042022 WHT/  003857/B /   000000200000035805 6QE/  807217/B /GRU000001200000070703 6EC/  813301/  /GRU000000100000081725B                                               
FP6512389601PN1904       19042022 6EA/  941006/  /   000000500000043192 6EA/  880201/H /HVF000000100000030282 6EA/  831055/H /GRU000000500000067927B                                               
FP6512389601PN1904       19042022 5Z1/  423057/B /   000000100000098264 5Z0/  949101/  /   000000100000013559 5U0/  853665/G /9B9000000200000002254B                                               
FP6512389601PN1904       19042022 2QB/  919673/  /   000000500000006342                    000000000000000000                    000000000000000000B                                               
FP6512413903CP19041      19042022 5Z0/  419091/CN/RIR000000100000043175                    000000000000000000                    000000000000000000B                                               
FP6512532701PN2004       20042022 811/  711279/  /   000006000000000139 6EA/  941006/  /   000000200000043193 6EA/  880201/H /HVF000000100000030282B                                               
FP6512532701PN2004       20042022 5X0/  711025/A /   000000400000011306 5U0/  937537/A /   000000400000021226 5U0/  853666/M /9B9000000100000007968B                                               
FP6512532701PN2004       20042022 5U0/  819707/  /ZE6000000300000004618 5U0/  805583/E /9B9000000900000004037 2QB/  919673/  /   000000400000006342B                                               
FP6512532701PN2004       20042022 2G5/  945307/A /   000000200000135934 1SB/  807258/B /9B9000000200000005321 04C/  129709/A /   000000400000038251B                                               
FP6512532701PN2004       20042022 030/  107411/H /   000004000000002838                    000000000000000000                    000000000000000000B                                               
FP6512616103CP2004       20042022   G/  065567/A2/   000000100000037564                    000000000000000000                    000000000000000000B                                               
FP6512626411             20042022 5U0/  853665/G /9B9000000700000002209                    000000000000000000                    000000000000000000B                                               
FP6512669901PN22041      22042022 377/  201171/AB/   000000100000002582                    000000000000000000                    000000000000000000B                                               
FP6512710001PN22040      22042022 5Z1/  423057/B /   000000500000098264 5NN/  807482/B /041000000100000101040 2HH/  807221/  /GRU000000100000247128B                                               
FP6512710001PN22040      22042022 2G5/  945307/A /   000000100000135935                    000000000000000000                    000000000000000000B                                               
FP6512759303CP2504       25042022 04E/  121600/BQ/   000000100000071734 2GP/  853856/A /9B9000000100000031214 WHT/  007317/  /   000000200000000560B                                               
FP6512833901PN2504       25042022 04C/  129709/A /   000000100000038251 1SB/  807258/B /9B9000000200000005321 5U0/  853666/M /9B9000000200000007968B                                               
FP6512833901PN2504       25042022 5U0/  937537/A /   000000100000021225 5U7/  845521/  /   000000100000004742 5X0/  711025/A /   000000300000011305B                                               
FP6512833901PN2504       25042022 6EA/  941006/  /   000000200000043193                    000000000000000000                    000000000000000000B                                               
FP6512860403CP25041      25042022 5U7/  853095/A /9B9000000100000003753 2GJ/  858416/D /3LB000000100000172849                    000000000000000000B                                               
FP6512886711             25042022   N/  012416/1 /   000000400000000041                    000000000000000000                    000000000000000000B                                               
FP6513035311             26042022   N/  017738/6 /   000001000000001255 080/  141701/1 /   000000500000006842 5C7/  941006/K /   000000100000242331B                                               
FP6513035311             26042022 5U0/  915429/  /   000000200000000597                    000000000000000000                    000000000000000000B                                               
FP6513174303CP27041      27042022 2GP/  867212/  /OEC000000100000052865                    000000000000000000                    000000000000000000B                                               
FP6513308801PN28040      28042022 6EA/  839477/  /5AP000000100000005214 6EA/  831056/H /GRU000000100000067927 5Z4/  853372/A /71N000000100000002391B                                               
FP6513308801PN28040      28042022 5Z0/  823031/C /GRU000000100000088984 5Z0/  821022/G /   000000100000043972 5U0/  915429/  /   000000100000000610B                                               
FP6513308801PN28040      28042022 5GM/  805931/  /   000000100000004526 2HH/  807221/  /GRU000000100000247128 2GP/  853856/A /9B9000000100000031214B                                               
FP6513308801PN28040      28042022 1S0/  407152/A /   000000100000007418                    000000000000000000                    000000000000000000B                                               
FP6513517401PN2904       29042022 5U0/  937537/A /   000000100000021225 5U0/  881375/  /   000001200000007856 5U0/  881347/  /71N000001000000002055B                                               
FP6513517401PN2904       29042022 5U0/  853666/M /9B9000000100000007968 5U0/  819707/  /ST3000000200000004530 5U0/  805583/E /9B9000000700000004037B                                               
FP6513517401PN2904       29042022 5GM/  915105/B /   000000300000033032 2G5/  945307/A /   000000100000135935 1SB/  807258/B /9B9000000200000005321B                                               
FP6513517401PN2904       29042022 04C/  129709/A /   000000200000038251 032/  103063/AD/   000001500000189464 030/  107411/H /   000004400000002838B                                               
FP6513726103CP0205       02052022 2GJ/  858416/D /3LB000000100000165178                    000000000000000000                    000000000000000000B                                               
FP6514002503CP0405       04052022 2QB/  919051/D /   000000100000072193                    000000000000000000                    000000000000000000B                                               
FP6514030811             04052022 050/  905205/AP/   000000200000042116 6EA/  941005/  /   000000300000042328                    000000000000000000B                                               
FP6514149603CP0505       05052022   G/  060567/A2/   000000100000030874 032/  103171/D /   000030000000011178                    000000000000000000B                                               
FP6514165603CP05051      05052022 2HH/  807221/  /GRU000000100000247128 17A/  845011/AF/NVB000000100000181370                    000000000000000000B                                               
FP6514235301PN0605       06052022 030/  105255/G /   000000300000008649 6EA/  941006/  /   000000100000043192 WHT/  003860/  /   000000200000036353B                                               
FP6514290303CP0605       06052022 5U0/  881318/A /71N000000100000005332 5U7/  860026/B /MK1000000100000054949                    000000000000000000B                                               
FP6514302403CP06051      06052022 5Q0/  199868/J /   000000100000025708 5Z0/  941531/  /APW000000100000009511                    000000000000000000B                                               
FP6514405801PN09056      09052022 013/  141180/1 /   000000400000005647                    000000000000000000                    000000000000000000B                                               
FP6514406201PN0905       09052022 WHT/  003857/B /   000000100000035805 6EC/  813301/  /GRU000000100000081725 6EA/  945095/  /   000000100000025438B                                               
FP6514406201PN0905       09052022 6EA/  941005/  /   000000200000043193 5Z6/  807421/M /GRU000000200000108662 5Z4/  831055/J /GRU000000200000145195B                                               
FP6514406201PN0905       09052022 5W0/  858559/  /1NN000000500000003864 5U7/  827565/  /MK1000000300000018970 5U4/  857705/J /HCP000000200000027305B                                               
FP6514406201PN0905       09052022 5C7/  941005/C /   000000100000205764 305/  419831/1 /   000000500000001149 305/  412365/A /   000001000000000782B                                               
FP6514458901PN09050      09052022 5Z0/  807833/B /UY2000000100000018654 5Z0/  201294/  /   000000200000005321 5U0/  819707/  /ITZ000000100000005274B                                               
FP6514458901PN09050      09052022 377/  199307/A /   000000200000004617 2QB/  959655/A /   000000100000169439 2H5/  807417/D /03C000000100000213007B                                               
FP6514458901PN09050      09052022 2H1/  945096/H /   000000100000048820 053/  103157/A /   000000200000019319 1K8/  827761/D /   000000200000004744B                                               
FP6514458901PN09050      09052022 1S0/  121253/AQ/   000000200000032869 1S0/  816411/A /   000000100000066881 2GP/  858418/E /TQM000000100000161491B                                               
FP6514458901PN09050      09052022 2G5/  813309/  /GRU000000100000013286 1S0/  820803/E /   000000300000075563                    000000000000000000B                                               
FP6514473103CP0905       09052022 5U7/  949101/  /   000000100000012570 6EC/  601025/  /FZZ000000100000071056 2GP/  601025/A /DM9000000400000067102B                                               
FP6514473103CP0905       09052022 1SB/  807305/  /   000000100000015112                    000000000000000000                    000000000000000000B                                               
FP6514487503CP09051      09052022 5U7/  827521/A /   000000200000001837                    000000000000000000                    000000000000000000B                                               
FP6514496211             09052022 6EA/  853651/D /RYP000000500000039897                    000000000000000000                    000000000000000000B                                               
FP6514606501PN10050      10052022 5U0/  881375/  /   000000500000007855 5Z0/  201294/  /   000000200000005321 5Z0/  807221/AC/GRU000000200000072699B                                               
FP6514606501PN10050      10052022 5Z0/  807833/B /UY2000000100000018654 5Z0/  821022/G /   000000100000043972 5Z0/  823031/D /GRU000000100000108689B                                               
FP6514606501PN10050      10052022 5Z0/  941531/A /BVY000000200000010723 5Z1/  423057/B /   000000200000098264 5Z4/  831055/J /GRU000000100000145195B                                               
FP6514606501PN10050      10052022 5Z4/  833055/H /GRU000000100000127546 5Z4/  833056/H /GRU000000100000127546 5Z4/  853753/J /9B9000000100000003520B                                               
FP6514606501PN10050      10052022 6EA/  831056/H /GRU000000100000067927 6EA/  839477/  /5AP000000100000005214 6EA/  880201/H /HVF000000200000030282B                                               
FP6514606501PN10050      10052022 6EA/  941005/  /   000000100000043192 6EA/  941006/  /   000000200000043193 6EC/  813301/  /GRU000000200000081725B                                               
FP6514606501PN10050      10052022 6Q4/  831056/P /007000000100000243692 7X0/  906034/  /   000000200000037104 WHT/  003857/B /   000000200000035805B                                               
FP6514606501PN10050      10052022 5U0/  853666/M /9B9000000200000007968   G/  052135/A1/   000000100000009403 04C/  103085/B /   000000100000008935B                                               
FP6514606501PN10050      10052022 04C/  129709/A /   000000200000038251 053/  103157/A /   000000200000019319 06H/  198205/N /   000000100000226320B                                               
FP6514606501PN10050      10052022 081/  311261/4 /   000000200000023168 17B/  955426/  /03C000000200000011906 1K8/  827761/D /   000000100000004744B                                               
FP6514606501PN10050      10052022 1S0/  121253/AQ/   000000200000032869 1S0/  407151/A /   000000200000007418 1S0/  407152/A /   000000100000007418B                                               
FP6514606501PN10050      10052022 1S0/  820031/D /   000000100000017389 217/  419669/1 /1NN000000200000005565 2GP/  858418/E /TQM000000100000161491B                                               
FP6514606501PN10050      10052022 2H5/  807417/D /03C000000100000213007 2H5/  829211/D /   000000200000008128 2QB/  919673/  /   000000500000006342B                                               
FP6514606501PN10050      10052022 377/  199307/A /   000000100000004617 5GM/  805931/  /   000000100000004526 5U0/  407365/  /   000000200000006984B                                               
FP6514606501PN10050      10052022 5U0/  819707/  /ZE6000000400000004618                    000000000000000000                    000000000000000000B                                               
FP6514640803CP10051      10052022 5Z0/  941206/C /   000000100000029788 2G0/  907057/F /EYW000000100000099582                    000000000000000000B                                               
FP6514790503CP1105       11052022 5Z0/  941205/C /   000000100000030782 5Z0/  941205/C /   000000100000030782 5Z0/  941206/C /   000000100000029788B                                               
FP6514790503CP1105       11052022 5Z0/  941206/C /   000000100000029788                    000000000000000000                    000000000000000000B                                               
FP6514814501PN11057      11052022 WHT/  003856/  /   000000100000028694 5Z6/  807421/M /GRU000000100000108661 5Z0/  823031/C /GRU000000100000088984B                                               
FP6514814501PN11057      11052022 5X0/  711025/A /   000000400000011306 5U4/  857705/J /HCP000000100000027304 5U0/  881348/  /71N000000100000002055B                                               
FP6514814501PN11057      11052022 5U0/  881347/  /71N000001000000002055 5U0/  853665/M /9B9000000600000007738 5U0/  853665/G /9B9000000200000002254B                                               
FP6514814501PN11057      11052022 5U0/  805903/B /EL7000000200000019398 2G5/  945307/A /   000000300000135934 1SB/  941016/  /   000000100000036045B                                               
FP6514814501PN11057      11052022 1SB/  807258/B /9B9000000200000005321 030/  105255/G /   000000200000008650                    000000000000000000B                                               
FP6514840811             11052022 1SB/  807305/  /   000000300000014810 2GJ/  853687/E /2ZZ000000300000004000 305/  611707/1 /   000000300000003509B                                               
FP6514840811             11052022 5Z0/  941206/C /   000000500000029192                    000000000000000000                    000000000000000000B                                               
FP6514921503CP1205       12052022 5Z0/  941206/C /   000000100000029788                    000000000000000000                    000000000000000000B                                               
FP6514922301PE1205       12052022 5U6/  807417/M /GRU000000100000074716 5W0/  823031/  /   000000200000199919 5W4/  831021/B /   000000100000278364B                                               
FP6514922301PE1205       12052022 5W4/  831022/B /   000000100000278364 5Z0/  823031/B /   000000100000199919                    000000000000000000B                                               
FP6515032401PC1305       13052022 2G5/  827705/C /9B9000000100000011380 2GM/  809471/  /GRU000000100000001080 6EA/  805903/A /9B9000000300000006081B                                               
FP6515032401PC1305       13052022 6EA/  813301/A /GRU000000100000009665 6EA/  831056/H /GRU000000100000067927 6EC/  809606/  /GRU000000100000144258B                                               
FP6515034103CP1305       13052022 2GP/  858418/E /TQM000000100000161491 1S0/  721261/F /   000000100000037642                    000000000000000000B                                               
FP6515126503CP13051      13052022 2QB/  919673/  /   000000100000006342                    000000000000000000                    000000000000000000B                                               
FP6515145011             13052022 5U0/  807240/C /   000000100000002216 5Z0/  419669/  /1NN000000800000004403                    000000000000000000B                                               
FP6515281003CP1605       16052022 1SB/  807305/  /   000000100000015112 2H0/  837401/H /   000000100000072354                    000000000000000000B                                               
FP6515284201PN1605       16052022 811/  711279/  /   000006000000000139 6EA/  941006/D /   000000200000051404 6EA/  831055/H /GRU000000200000067927B                                               
FP6515284201PN1605       16052022 5Z1/  423057/B /   000000200000098264 5Z0/  949101/  /   000000100000013559 5X0/  711025/A /   000000100000011306B                                               
FP6515284201PN1605       16052022 5U0/  805583/E /9B9000001000000004037 06L/  103801/  /   000001000000001493   G/  052182/A2/   000016200000005969B                                               
FP6515436201PN1705       17052022 2GP/  805912/A /   000000300000009087 2H6/  853727/  /GRU000000300000045359 5U0/  881348/  /71N000000100000002055B                                               
FP6515436201PN1705       17052022 5U7/  827565/  /MK1000000100000018970 5Z0/  853677/G /9B9000000100000008358 5Z4/  833055/H /GRU000000100000127546B                                               
FP6515436201PN1705       17052022 6EA/  805903/A /9B9000000300000006081                    000000000000000000                    000000000000000000B                                               
FP6515465504LD-42893     17052022 5Z1/  423057/B /   000000100000084855                    000000000000000000                    000000000000000000B                                               
FP6515507203CP1705       17052022 6EA/  713203/D /VGD000000100000066394 5Z0/  807833/B /EL7000000100000019812 5Z0/  807833/B /EL7000000100000019812B                                               
FP6515563711             17052022 5C7/  941005/K /   000000100000242331 5U0/  807239/C /   000000200000002216 5U0/  807240/C /   000000100000002216B                                               
FP6515563711             17052022 5U5/  945096/Q /   000000300000015049                    000000000000000000                    000000000000000000B                                               
FP6515614403CP1805       18052022 6EA/  831056/H /GRU000000100000067927                    000000000000000000                    000000000000000000B                                               
FP6515684501PN18050      18052022 6EC/  863459/  /82V000000100000011469 6EA/  880201/H /HVF000000100000030282 6EA/  831056/H /GRU000000100000067927B                                               
FP6515684501PN18050      18052022 5Z0/  821022/G /   000000100000043972 5W0/  807217/L /GRU000000200000073792 5U7/  845521/  /   000000100000004742B                                               
FP6515684501PN18050      18052022 5U0/  943021/  /   000000200000001864 5U0/  807240/C /   000000100000002262 17B/  955426/  /03C000000200000011906B                                               
FP6515684501PN18050      18052022 1S0/  121253/AQ/   000000100000032869 1S0/  407152/A /   000000100000007418 1S0/  820031/D /   000000100000017389B                                               
FP6515684501PN18050      18052022 5C6/  919275/B /GRU000000100000040697 2QB/  423057/C /   000000100000050164 2QB/  407152/C /   000000100000021355B                                               
FP6515815401PN1905       19052022 2Q0/  959653/  /   000000100000030916 1J1/  863201/L /2QL000000200000041308 032/  103063/AD/   000001000000189464B                                               
FP6515817601PN19050      19052022 5Z0/  807221/AC/GRU000000100000072698 5U0/  903025/H /   000000100000084352 5GB/  807417/  /GRU000000100000053411B                                               
FP6515817601PN19050      19052022 2QB/  407151/C /   000000100000021355 2HH/  807221/  /GRU000000100000247128 2G5/  813309/  /GRU000000100000013286B                                               
FP6515817601PN19050      19052022 2G0/  907057/E /EYW000000100000091110 1SB/  941016/  /   000000100000036045 1S0/  820803/E /   000000100000075563B                                               
FP6515817601PN19050      19052022   G/  052172/M2/   000000100000031304                    000000000000000000                    000000000000000000B                                               
FP6515873703CP1905       19052022 2GM/  809471/  /GRU000000100000001080 2GP/  601025/A /DM9000000100000067101 2H6/  805471/  /GRU000000100000043312B                                               
FP6515878003CP19051      19052022 2QB/  919673/  /   000000100000006342                    000000000000000000                    000000000000000000B                                               
FP6515887911             19052022 5GB/  853671/  /RYP000000100000014908 542/  253147/  /   000000500000001117                    000000000000000000B                                               
FP6515974401PE2005       20052022   G/  052182/A2/   000010000000005969                    000000000000000000                    000000000000000000B                                               
FP6516007001PN2005       20052022   G/  052182/A2/   000010000000005969   G/  052527/R2/   000000600000005699 5U0/  805903/B /EL7000000400000019398B                                               
FP6516007001PN2005       20052022 5U0/  853665/M /9B9000000600000007738 5X0/  711025/A /   000000200000011305 5Z0/  949102/  /   000000100000011167B                                               
FP6516007001PN2005       20052022 6EA/  941006/D /   000000200000051404                    000000000000000000                    000000000000000000B                                               
FP6516115801PN2305       23052022 JZZ/  413031/  /   000000100000029462 6X0/  819465/E /   000000500000016009 5Z6/  807421/M /GRU000000100000108661B                                               
FP6516115801PN2305       23052022 5U7/  827565/  /MK1000000100000018970 5U7/  827023/C /GRU000000200000175027 2H6/  853727/  /GRU000000200000045359B                                               
FP6516115801PN2305       23052022 17B/  955425/A /03C000000200000012931                    000000000000000000                    000000000000000000B                                               
FP6516129801PE2305       23052022 1SB/  831055/A /GRU000000100000181744 1SB/  831056/A /GRU000000100000181744                    000000000000000000B                                               
FP6516205303CP2305       23052022 1SB/  831055/A /GRU000000100000181744 5C7/  941005/K /   000000100000247276 5QM/  881106/J /   000000100000184507B                                               
FP6516205303CP2305       23052022 6EA/  713203/C /QCX000000100000065347 6EC/  601025/  /FZZ000000100000071056                    000000000000000000B                                               
FP6516210003CP23051      23052022 2GP/  601025/A /DM9000000100000067101 5U0/  943021/  /   000000100000001864                    000000000000000000B                                               
FP6516220611             23052022 2HH/  853718/  /GRU000000100000115959                    000000000000000000                    000000000000000000B                                               
FP6516317901PN24051      24052022 2QB/  407151/C /   000000200000021355 5QM/  121251/Q /   000000100000053214                    000000000000000000B                                               
FP6516432903CP2505       25052022 2H0/  845099/N /NVB000000100000134049 5QH/  713023/AB/   000000100000213180                    000000000000000000B                                               
FP6516517101Est2505      25052022 0C3/  721261/A /   000003000000012980 2GP/  805911/A /   000001200000006849                    000000000000000000B                                               
FP6516520103CP25051      25052022 09G/  927158/AG/   000000100000507068                    000000000000000000                    000000000000000000B                                               
FP6516544511             25052022 5Z6/  807875/  /9B9000000200000012215 5Z4/  831056/H /GRU000000100000142291 5Z0/  837113/G /EL7000000300000004950B                                               
FP6516544511             25052022 5U7/  945095/G /   000000200000018650 5GB/  853671/  /RYP000000200000014908 327/  867389/  /   000001000000000055B                                               
FP6516544511             25052022 2HH/  853347/A /9B9000000100000038251 2G5/  853856/  /9B9000000100000010634 237/  501201/2 /   000000200000045797B                                               
FP6516544511             25052022 1J0/  018977/A /   000001500000000429 04E/  129712/B /   000000200000033451                    000000000000000000B                                               
FP6516590203CP2605       26052022   G/  052539/A2/   000000100000024208 2GP/  955409/  /03C000000100000012272 5Z4/  867233/F /Y20000000100000009789B                                               
FP6516678203CP26051      26052022 5NN/  863367/  /07N000000100000279832                    000000000000000000                    000000000000000000B                                               
FP6516690003CP26052      26052022 2H0/  805563/E /   000000100000134654 6EA/  419089/B /YRX000000100000128511 6EA/  713203/B /QCX000000100000065347B                                               
FP6516704811             26052022   N/  016137/1 /   000008000000000272                    000000000000000000                    000000000000000000B                                               
FP6516758803CP2705       27052022 2QB/  919673/  /   000000100000006342 5Z0/  941206/C /   000000100000029788                    000000000000000000B                                               
FP6516770301PN2705       27052022 WHT/  003856/  /   000000200000028694 5X0/  711025/A /   000000300000011305 5U0/  853665/M /9B9000000100000007738B                                               
FP6516770301PN2705       27052022 2Q0/  959653/  /   000000200000030916 1J1/  863201/L /2QL000001000000041308 06L/  103801/  /   000002000000001493B                                               
FP6516770301PN2705       27052022 032/  103063/AD/   000000900000189464 030/  105255/G /   000000600000008649 014/  141713/B /   000000800000001196B                                               
FP6516812201PE2705       27052022 17A/  809203/  /   000000100000042572 17A/  853651/R /IDJ000000100000092738 17A/  927163/  /   000000100000009241B                                               
FP6516812201PE2705       27052022 5Q0/  959655/BR/   000000100000092733 5QM/  412331/A /   000000100000011312                    000000000000000000B                                               
FP6516844003CP27051      27052022 5U3/  857705/F /HCP000000100000031136 6EA/  941006/  /   000000100000043192                    000000000000000000B                                               
FP6516846401PE27051      27052022 7X0/  419051/A /   000000100000126986                    000000000000000000                    000000000000000000B                                               
FP6516891111             28052022 5U0/  121253/C /   000001200000043889                    000000000000000000                    000000000000000000B                                               
FP6516999703CP3005       30052022   G/  052580/A2/   000000300000032728   G/  065175/A2/   000000100000031590 2GP/  867011/A /OEG000000100000066688B                                               
FP6516999703CP3005       30052022 2GP/  867211/A /OEJ000000100000052865 3QD/  980654/  /   000000100000500341                    000000000000000000B                                               
FP6517039903CP30051      30052022 030/  103585/B /   000001000000000604 5Z9/  807417/  /GRU000000100000366632 5Z9/  853685/  /   000000100000034120B                                               
FP6517046401Est3005      30052022 04E/  905110/M /   000001600000008591                    000000000000000000                    000000000000000000B                                               
FP6517061911             30052022 5Z0/  857121/A /FXJ000000200000005374 5Z0/  513025/L /   000000300000018983 5U6/  945312/  /   000000300000001627B                                               
FP6517061911             30052022 113/  837355/1 /1NN000026000000000070                    000000000000000000                    000000000000000000B                                               
FP6517086604LD-43163     31052022 02E/  325025/AS/Z7F000000100000737121                    000000000000000000                    000000000000000000B                                               
FP6517128701PE3105       31052022 06H/  115105/FT/   000000100000129364                    000000000000000000                    000000000000000000B                                               
FP6517129101PE31052      31052022   G/  052580/A2/   000000300000032728                    000000000000000000                    000000000000000000B                                               
FP6517129301PE31053      31052022 5NN/  807482/B /041000000100000101040                    000000000000000000                    000000000000000000B                                               
FP6517129401PE31054      31052022 5NA/  821135/C /   000000100000003812 5NN/  807394/  /   000000100000006110                    000000000000000000B                                               
FP6517129601PE31055      31052022 5NA/  827025/J /   000000100000379620                    000000000000000000                    000000000000000000B                                               
FP6517155003CP3105       31052022 1S0/  413031/J /   000000200000022957 2GP/  867233/  /KJ1000000100000006924 6EA/  880201/D /HVF000000100000025892B                                               
FP6517159601PN3105       31052022 2Q0/  959653/  /   000000100000030916 1SB/  807258/B /9B9000000100000005320 1J1/  863201/L /2QL000000400000041308B                                               
FP6517159601PN3105       31052022 06L/  103801/  /   000001000000001493                    000000000000000000                    000000000000000000B                                               
FP6517204103CP31051      31052022 2QB/  919673/  /   000000100000006342                    000000000000000000                    000000000000000000B                                               
FP6517366703CP0106       01062022 030/  103585/B /   000001000000000621 2H0/  805563/F /GRU000000100000078129 3B0/  823499/C /   000000100000001984B                                               
FP6517366703CP0106       01062022 5QM/  498099/H /   000000100000240269                    000000000000000000                    000000000000000000B                                               
FP6517378103CP01061      01062022 2QB/  919673/  /   000000100000006529                    000000000000000000                    000000000000000000B                                               
FP6517399611             01062022 17A/  837880/  /GRU000000200000008918 5U0/  805903/C /EL7000000500000026184                    000000000000000000B                                               
FP6517543003CP02061      02062022 3AA/  122051/H /   000000100000011634 2GP/  858418/E /TQM000000100000166234                    000000000000000000B                                               
FP6517566411             02062022 5U0/  905851/  /   000000100000030565 5U4/  857706/M /HCP000000200000039050                    000000000000000000B                                               
FP6517675103CP0306       03062022 2Q0/  937089/A /   000000100000054785 2QB/  919673/  /   000000100000006529 5Z0/  419091/CN/RIR000000100000044443B                                               
FP6517675103CP0306       03062022 5Z0/  959856/B /1QB000000100000001901                    000000000000000000                    000000000000000000B                                               
FP6517690403CP03061      03062022   G/  052539/A2/   000000100000024918   G/  052539/A2/   000000100000024918 6EA/  419089/B /YRX000000100000132284B                                               
FP6517832801PN06064      06062022 5U0/  805903/C /EL7000000500000026719 5U0/  853665/M /9B9000000200000010566 5U0/  880201/AN/81U000000300000048789B                                               
FP6517832801PN06064      06062022 5U7/  827565/  /MK1000000200000019528 5U7/  945095/J /   000000200000025404 5Z0/  201294/  /   000000100000005477B                                               
FP6517832801PN06064      06062022 5Z0/  807221/AB/GRU000000300000065479 5Z0/  807221/AC/GRU000000100000074833 5Z0/  955426/A /03C000000400000006497B                                               
FP6517832801PN06064      06062022 5Z6/  807421/M /GRU000000100000111852 6EA/  857705/A /RAA000000100000036852 6EA/  880201/H /HVF000000100000031171B                                               
FP6517832801PN06064      06062022 LIT/  041451/70/   000200000000000075 5U0/  805583/E /9B9000000200000004156 026/  919081/1 /   000001500000002055B                                               
FP6517832801PN06064      06062022 030/  105255/G /   000000200000008904 04E/  129712/B /   000000200000035137 06K/  133986/K /   000000100000023910B                                               
FP6517832801PN06064      06062022 1S0/  407151/A /   000000100000007636 1S0/  820031/D /   000000100000017898 1SB/  959857/  /9B9000000100000004249B                                               
FP6517832801PN06064      06062022 2GP/  853856/A /9B9000000100000032131 2H5/  829211/A /   000000200000008366 2H6/  853727/  /GRU000000100000046690B                                               
FP6517832801PN06064      06062022 3C0/  601173/A /9B9000000500000000354 5U0/  407365/  /   000000100000007190 5U0/  407365/A /   000000200000009431B                                               
FP6517864303CP0606       06062022 237/  501201/2 /   000000100000048104 237/  501201/2 /   000000200000048104 2GP/  868837/  /Y20000000100000013130B                                               
FP6517864303CP0606       06062022 5U0/  407365/  /   000000100000007190 6EA/  881375/A /   000000100000023512                    000000000000000000B                                               
FP6517884511             06062022 6QE/  721261/D /   000003000000007508 5Z4/  831056/H /GRU000000200000146470 5U0/  837879/  /9B9000000200000007371B                                               
FP6517884511             06062022 5U0/  821142/A /GRU000000300000003303 5U0/  711113/J /YGO000000200000005511 2H1/  941016/L /   000000100000062017B                                               
FP6517884511             06062022 030/  121016/A /   000001800000019470 014/  409135/A /   000012000000000135                    000000000000000000B                                               
FP6517911501PN07064      07062022 1C0/  823593/D /01C000000200000007477                    000000000000000000                    000000000000000000B                                               
FP6517933101PN0706       07062022 6EA/  955707/  /   000000100000002808 5Z0/  853653/J /041000000100000025681 5X3/  867791/  /   000002500000001122B                                               
FP6517933101PN0706       07062022 5U7/  941699/  /   000000200000037454 5U7/  857508/H /9B9000000100000024640 5QM/  121251/Q /   000000100000054776B                                               
FP6517933101PN0706       07062022 3AA/  698451/A /   000000100000042086 2HH/  853727/  /GRU000000100000074308 2G5/  853687/  /041000000200000004115B                                               
FP6517933101PN0706       07062022 1SB/  941016/  /   000000100000037104 1SB/  837015/E /   000000100000030264   N/  107332/02/   000000100000006905B                                               
FP6517988203CP0706       07062022 2GP/  601025/A /DM9000000100000069072 2GP/  601025/A /DM9000000300000069072 6EA/  713203/D /VGD000000100000068344B                                               
FP6517999201FE0706       07062022 V03/  839124/NR/   000000100000014833 V03/  839124/CS/   000000100000014290 V03/  839037/RC/   000000100000010554B                                               
FP6517999201FE0706       07062022 V03/  839037/BG/   000000100000007511 ASE/  485432/00/000000000100000058398 ASE/  465932/00/000000000100000061861B                                               
FP6517999201FE0706       07062022 ASE/  442070/00/000000000100000015020 ASE/  411345/00/000000000100000036602                    000000000000000000B                                               
FP6518015203CP07061      07062022 2G0/  907057/F /EYW000000100000102505 2H6/  823033/C /GRU000000100000311023 2H6/  823033/C /GRU000000100000311023B                                               
FP6518024111             07062022 026/  121041/M /   000000400000002253 1K0/  805962/C /9B9000000300000004673 5U0/  837207/  /1NN000000300000003354B                                               
FP6518024111             07062022 5U6/  827025/D /GRU000000100000134126 5Z1/  721480/D /   000000200000003186                    000000000000000000B                                               
FP6518146903CP0806       08062022 030/  107411/H /   000000400000002922 2GP/  853856/A /9B9000000100000032131                    000000000000000000B                                               
FP6518286903CP0906       09062022 6C0/  035501/G /5FQ000000100000012806 1SB/  805903/H /9B9000000100000019438                    000000000000000000B                                               
FP6518318411             09062022 111/  971911/2 /   000005000000000066 1SB/  941015/  /   000000200000036362 2GP/  853651/B /JZR000000200000064169B                                               
FP6518318411             09062022 2QB/  423057/C /   000000100000064204 5U7/  413031/C /   000000200000020147                    000000000000000000B                                               
FP6518457003CP1006       10062022 030/  107411/H /   000000400000002922 5U1/  422055/K /   000000100000056925 6EA/  831056/H /GRU000000100000069921B                                               
FP6518464711             10062022 6Q0/  199851/BB/   000000300000017542 6EA/  941661/  /   000000100000054275 5U0/  805903/B /EL7000001900000019568B                                               
FP6518464711             10062022 5NN/  941113/C /   000000100000701171 237/  847761/1 /   000001000000001873 231/  837211/1 /   000010000000000024B                                               
FP6518464711             10062022 04E/  103464/AM/   000000100000029261 032/  107067/  /   000000400000014897 026/  105255/4 /   000000500000006969B                                               
FP6518464711             10062022 013/  311295/  /   000000600000002427                    000000000000000000                    000000000000000000B                                               
FP6518556101Est1306      13062022 5U0/  821021/B /GRU000000200000027393 6EA/  809605/A /GRU000000200000063919                    000000000000000000B                                               
FP6518633501PN13061      13062022 JZZ/  413031/  /   000000200000030327 6EA/  853601/  /2ZZ000000100000005737 5Z0/  955426/A /03C000000400000006497B                                               
FP6518633501PN13061      13062022 5U0/  853630/  /ULM000000100000002636 5U0/  807221/S /GRU000000400000054901 5U0/  407365/A /   000000200000009431B                                               
FP6518633501PN13061      13062022 5NN/  854732/A /9B9000000100000015014 5G6/  955427/C /   000000100000006759 2QB/  919051/G /   000000200000129668B                                               
FP6518633501PN13061      13062022 2QB/  498103/D /   000000100000039929 2HH/  853727/  /GRU000000100000074308 2G5/  955427/  /9B9000000400000003788B                                               
FP6518633501PN13061      13062022 2G5/  853651/E /BMO000000100000037417 237/  881375/1 /   000000100000014717 04C/  103085/B /   000000100000009198B                                               
FP6518633501PN13061      13062022 032/  109101/AH/   000000100000038803 013/  409399/2 /   000001000000001359                    000000000000000000B                                               
FP72380164014349046      24022015   G/  052553/R2/   000024000000002870                    000000000000000000                    000000000000000000                                                
FP72383234014349052      26022015   G/  052195/R2/   000036000000003642                    000000000000000000                    000000000000000000                                                
FP7244686901Piloto DSO   23042015   G/  052167/A4/   000024000000002294                    000000000000000000                    000000000000000000                                                
FP7481873501pe1207       12072021 04E/  130241/AQ/   000000100000013584 5U5/  035548/  /   000000400000001659                    000000000000000000                                                
FP7507728401PN07034      07032022   G/  052150/A2/   000000100000007248                    000000000000000000                    000000000000000000                                                
FP7508813211             16032022 026/  129589/D /   000001000000001727                    000000000000000000                    000000000000000000                                                
FP7510400011             30032022 5U0/  943021/  /   000000600000001798                    000000000000000000                    000000000000000000                                                
FP7512616103CP2004       20042022   G/  052172/M2/   000000100000031304                    000000000000000000                    000000000000000000                                                
FP7512617003CP20041      20042022 2HH/  807489/B /RYP000000100000052142                    000000000000000000                    000000000000000000                                                
FP7513338101PL02804      28042022 5U0/  601307/B /RPI000000500000057853 5U0/  601307/K /RPI000000500000045509 APR/  601307/L /RPI000004400000090060                                                
FP7513338101PL02804      28042022 V04/  011009/ES/RPI000000100000078354                    000000000000000000                    000000000000000000                                                
FP7513906301PL00405      04052022 2QB/  601307/E /RCO000001100000038372 3C8/  601322/  /RCO000000400000086864 APR/  601309/AL/   000000800000039123                                                
FP7513906301PL00405      04052022 APR/  601329/BA/   000000400000039176                    000000000000000000                    000000000000000000                                                
FP7514235301PN0605       06052022 211/  405317/1 /   000001000000001557                    000000000000000000                    000000000000000000                                                
FP7514264501AC00605      06052022 V04/  010080/AA/001000001500000004552                    000000000000000000                    000000000000000000                                                
FP7514406201PN0905       09052022 5U0/  943021/  /   000000100000001864                    000000000000000000                    000000000000000000                                                
FP7514458901PN09050      09052022 2H0/  831056/AG/GRU000000100000237156                    000000000000000000                    000000000000000000                                                
FP7514606501PN10050      10052022 2H0/  831056/AG/GRU000000100000237156 5U0/  943021/  /   000000100000001864                    000000000000000000                                                
FP7514840811             11052022 5U6/  945311/  /   000000100000001626                    000000000000000000                    000000000000000000                                                
FP7515032401PC1305       13052022 2G5/  809606/  /GRU000000100000137037                    000000000000000000                    000000000000000000                                                
FP7515281003CP1605       16052022 5QN/  423055/A /   000000100001107133                    000000000000000000                    000000000000000000                                                
FP7515448001VarFoco      17052022 2G5/  061163/  /   000000300000017874 2GP/  061163/B /   000000200000017222                    000000000000000000                                                
FP7515684501PN18050      18052022 030/  103485/AD/   000000100000001818                    000000000000000000                    000000000000000000                                                
FP7515817601PN19050      19052022 5U6/  945311/  /   000000100000001660                    000000000000000000                    000000000000000000                                                
FP7516105901AC02305      23052022 2GP/  061163/B /   000001000000017222 6EA/  061500/  /   000001000000011124                    000000000000000000                                                
FP7516205303CP2305       23052022   G/  060175/A2/   000000100000050366                    000000000000000000                    000000000000000000                                                
FP7516517101Est2505      25052022 5U0/  407625/B /   000000900000007905                    000000000000000000                    000000000000000000                                                
FP7516680201AC02605      26052022 2G5/  061163/  /   000001000000017875                    000000000000000000                    000000000000000000                                                
FP7517630401AC00306      03062022 5U0/  054630/B /   000004000000012016                    000000000000000000                    000000000000000000                                                
FP7518318411             09062022 103/  971911/2 /   000035000000000069                    000000000000000000                    000000000000000000                                                
