FHI00000000000000140620220000000000005101544         00                                                                                                                                            
FPI10000000000000130620220000000000005101544                                                                                                                                                       
FP9518481211             651416161306202215072022 1K0/  601173/  /9B9CAPA         3926909000097500000001361000000005590000001396300000360000005002921615111000000      00000000000000      011102  
FP9518337011             651420031306202215072022 2H6/  129620/  /   ELEMENTO     8421999900052000000002276000000017500000004376100000030000502002921474811000000      00000000000000      011102  
FP9518337011             651420031306202215072022 059/  198405/B /   ELEM FILTR   8421999900052000000001350000000031160000002596800000050000083002921474801000000      00000000000000      011102  
FP9518337011             651420031306202215072022   N/  101064/02/   PORCA        7318160000065000000000198000000003660000000304900000050000038002921474801000000      00000000000000      011102  
FP9518337011             651420031306202215072022   N/  104018/01/   PORCA        7318160000065000000000176000000003250000000270500000100000117002921474801000000      00000000000000      011102  
FP9518337011             651420041306202215072022 1K6/  955651/  /   BOMBA        8413709000000000000000000000000005810000000484200000010000102002921474801000000      00000000000000      011102  
FP9518481211             651432461306202215072022 04C/  129620/D /   ELEMENTO     8421999900052000000001742000000040210000003350600000100000185002921527101000000      00000000000000      011102  
FP9518481211             651432461306202215072022 6Q0/  959858/  /9B9INTERRUPTO   8536509000097500000000564000000006940000000578000000020000003002921527101000000      00000000000000      011102  
FP9518481211             651432461306202215072022   N/  905014/02/   PARAFUSO     7318150000065000000000060000000001100000000091800000100000024002921889001000000      00000000000000      011102  
FP9518481211             651432471306202215072022 JZZ/  998002/D /   JG.PALHETA   8512900000097500000000877000000010790000000899300000010000320002921527101000000      00000000000000      011102  
FPF100000000000012                                                                                                                                                                                 
FPI00000000000000130620220000000000005101544                                                                                                                                                       
FP5518669311             1306202213062022 02E/  305051/C /   00000010000000  030/  109243/Q /   00000050000000                     00000000000000                                          220800  
FP6514628503CP1005       10052022   G/  060567/A2/   000000100000030874                    000000000000000000                    000000000000000000B                                               
FP6514961403CP1205       12052022 WHT/  003862/  /   000000100000035540                    000000000000000000                    000000000000000000B                                               
FP6515344003CP1605       16052022 6EA/  419089/B /YRX000000100000128511                    000000000000000000                    000000000000000000B                                               
FP6515512103CP1705       17052022 WHT/  003862/  /   000000100000035540                    000000000000000000                    000000000000000000B                                               
FP6515581511             17052022 5U1/  422055/L /   000000300000069160 5Z0/  837113/G /EL7000000200000004950                    000000000000000000B                                               
FP6515670703CP1805       18052022 WHT/  003862/  /   000000100000035540                    000000000000000000                    000000000000000000B                                               
FP6515906511             19052022 1S0/  820803/E /   000000200000074052 5Z0/  837113/G /EL7000000300000004950                    000000000000000000B                                               
FP6516526803CP2505       25052022   G/  060567/A2/   000000100000030874                    000000000000000000                    000000000000000000B                                               
FP6517237401760822       31052022 5U0/  035453/A /   000000100000003177                    000000000000000000                    000000000000000000B                                               
FP6517352403CP0106       01062022   G/  065175/A2/   000000200000032517                    000000000000000000                    000000000000000000B                                               
FP6518337011             09062022 5Z0/  698151/B /   000000100000011618                    000000000000000000                    000000000000000000B                                               
FP6518365503CP1006       10062022 2QB/  919673/  /   000000100000006529                    000000000000000000                    000000000000000000B                                               
FP7261815901592          28092015   G/  052167/A4/   000012000000002024   G/  052195/R2/   000003600000003048   G/  052553/R6/   000000300000385805                                                
FP7265934401PVEX NOV     06112015   G/  052553/R6/   000000200000385805                    000000000000000000                    000000000000000000                                                
FP7359405901varejo em foc21052018   G/  052553/R6/   000000500000331772                    000000000000000000                    000000000000000000                                                
FP7518669311             13062022 02E/  305051/C /   000000100000008232 030/  109243/Q /   000000500000011130                    000000000000000000                                                
FPF000000000000019                                                                                                                                                                                 
FRI10000000000000130620220000000000005101544                                                                                                                                                       
FR111000000000000000000000000000000000000000000000000000000000000+00000000000000+N                                                                                                         010699  
FR111000000000000000000000000000000000000000000000000000000294431-00000000000000+O                                                                                                         010699  
FR20004961736   P3105202201072022000000000015693000000000000000000000000000000                                                  000000000000000                                            000     
F060101 DOLAR REFERENCIAL DIARIO - VENDA                                                                                                                                                   300997  
F06021406202200000051033000000000000000000000000000000000000000000000000000000000000000000000000000000000000000000000000000000000000000000000000000000000000000000000000000000000          300997  
F060105 UFIR - UNIDADE FISCAL DE REFERENCIA                                                                                                                                                300997  
F06021406202200000010641000000000000000000000000000000000000000000000000000000000000000000000000000000000000000000000000000000000000000000000000000000000000000000000000000000000          300997  
F060114 IGPM - INDICE GERAL DE PRECOS DO MERCADO                                                                                                                                           300997  
F06021406202200010249084000000000000000000000000000000000000000000000000000000000000000000000000000000000000000000000000000000000000000000000000000000000000000000000000000000000          300997  
F060130 TRD - TAXA REFERENCIAL DIARIA                                                                                                                                                      300997  
F06021406202200000000130463100000000000000000000000000000000000000000000000000000000000000000000000000000000000000000000000000000000000000000000000000000000000000000000000000000          300997  
F060175 TABELA DE QCS PARA LIQUIDACAO DE DEBITOS EXCLUSIVAMENTE JUNTO AO CREDITO ROTATIVO                                                                                                  300997  
F06021406202200000246957886200000000000000000000000000000000000000000000000000000000000000000000000000000000000000000000000000000000000000000000000000000000000000000000000000000          300997  
F060178 TABELA DE QCIS PARA LIQUIDACAO DE DEBITOS EXCLUSIVAMENTE JUNTO AO CREDITO ROTATIVO - VEICULOS IMPORTADOS VW                                                                        300997  
F06021406202200000013536108300000000000000000000000000000000000000000000000000000000000000000000000000000000000000000000000000000000000000000000000000000000000000000000000000000          300997  
F060192 TABELA DE QCIS PARA LIQUIDACAO DE DEBITOS EXCLUSIVAMENTE JUNTO AO CREDITO ROTATIVO - VEICULOS IMPORT. SEAT                                                                         300997  
F06021406202200000013626515900000000000000000000000000000000000000000000000000000000000000000000000000000000000000000000000000000000000000000000000000000000000000000000000000000          300997  
F060196 TABELA DE QCIS PARA LIQUIDACAO DE DEBITOS EXCLUSIVAMENTE JUNTO AO CREDITO ROTATIVO - VEIC.IMPORT VW/96                                                                             300997  
F06021406202200000330951123400000000000000000000000000000000000000000000000000000000000000000000000000000000000000000000000000000000000000000000000000000000000000000000000000000          300997  
F0601101TABELA DE QCIS PARA LIQUIDACAO DE DEBITOS EXCLUSIVAMENTE JUNTO AO CREDITO ROTATIVO - VEICULO USADO                                                                                 300997  
F06021406202200000451866798100000000000000000000000000000000000000000000000000000000000000000000000000000000000000000000000000000000000000000000000000000000000000000000000000000          300997  
F0601105TABELA DE QCIS PARA LIQUIDACAO DE DEBITOS EXCLUSIVAMENTE JUNTO AO CREDITO ROTATIVO - VEICULOS AUDI                                                                                 300997  
F06021406202200000722642040900000000000000000000000000000000000000000000000000000000000000000000000000000000000000000000000000000000000000000000000000000000000000000000000000000          300997  
F0601106TABELA DE QCIS PARA LIQUIDACAO DE DEBITOS EXCLUSIVAMENTE JUNTO AO CREDITO ROTATIVO - PECAS                                                                                         300997  
F06021406202200000983055528900000000000000000000000000000000000000000000000000000000000000000000000000000000000000000000000000000000000000000000000000000000000000000000000000000          300997  
F0601109TABELA DE QCIS PARA LIQUIDACAO DE DEBITOS EXCLUSIVAMENTE JUNTO AO CREDITO ROTATIVO - CAMINHOES USADOS                                                                              300997  
F06021406202200001006069452500000000000000000000000000000000000000000000000000000000000000000000000000000000000000000000000000000000000000000000000000000000000000000000000000000          300997  
F0601110TABELA DE QCIS PARA LIQUIDACAO DE DEBITOS EXCLUSIVAMENTE JUNTO AO CREDITO ROTATIVO - AUDI USADOS                                                                                   300997  
F06021406202200000732749830000000000000000000000000000000000000000000000000000000000000000000000000000000000000000000000000000000000000000000000000000000000000000000000000000000          300997  
F0601111TABELA DE QCIS PARA LIQUIDACAO DE DEBITOS EXCLUSIVAMENTE JUNTO AO CREDITO ROTATIVO - SEAT USADOS                                                                                   300997  
F06021406202200000742147307700000000000000000000000000000000000000000000000000000000000000000000000000000000000000000000000000000000000000000000000000000000000000000000000000000          300997  
F0601115TABELA DE QCIS PARA LIQUIDACAO DE DEBITOS EXCLUSIVAMENTE JUNTO AO CREDITO ROTATIVO - QC COM BONUS                                                                                  300997  
F06021406202200000306399671600000000000000000000000000000000000000000000000000000000000000000000000000000000000000000000000000000000000000000000000000000000000000000000000000000          300997  
F0601116TABELA DE QCIS PARA LIQUIDACAO DE DEBITOS EXCLUSIVAMENTE JUNTO AO CREDITO ROTATIVO - QC DO BONUS ROTATIVO                                                                          300997  
F06021406202200000092909198200000000000000000000000000000000000000000000000000000000000000000000000000000000000000000000000000000000000000000000000000000000000000000000000000000          300997  
F0601117TABELA DE QCIS PARA LIQUIDACAO DE DEBITOS EXCLUSIVAMENTE JUNTO AO CREDITO ROTATIVO - QC FINANCIAMENTO ICMS                                                                         300997  
F06021406202200000983055530800000000000000000000000000000000000000000000000000000000000000000000000000000000000000000000000000000000000000000000000000000000000000000000000000000          300997  
F0601119TABELA DE QCIS PARA LIQUIDACAO DE DEBITOS EXCLUSIVAMENTE JUNTO AO CREDITO ROTATIVO - MULTA DE CONFISSAO DIV                                                                        300997  
F06021406202200000010000000000000000000000000000000000000000000000000000000000000000000000000000000000000000000000000000000000000000000000000000000000000000000000000000000000000          300997  
FRF100000000000041                                                                                                                                                                                 
FAI10000000000000140620220000000000005101544                                                                                                                                                       
FA100000000000000+00000000000000+00000000000000+00000000000000+00000000000000+00000000000000+00000000000000+00000000000000+00000000000000+                                                         
FA200000000000000+00000000000000+00000000000000+00000000000000+00000000000000+00000000000000+00000000000000+00000000000000+00000000000000+                                                         
FA3000100134000010620220707202200000000001005000000000001005000000000000000000000000000000000000000000000070720220 88  ICMS ST PECAS                                                               
FA3000107295000020620220707202200000000000024400000000000024400000000000000000000000000000000000000000000070720220 88  ICMS ST PECAS                                                               
FA3000109181000030620220707202200000000000058600000000000058600000000000000000000000000000000000000000000070720220 88  ICMS ST PECAS                                                               
FA3000117093000060620220707202200000000005738600000000005738600000000000000000000000000000000000000000000070720220 88  ICMS ST PECAS                                                               
FA3000118351000060620220707202200000000000728600000000000728600000000000000000000000000000000000000000000070720220 88  ICMS ST PECAS                                                               
FA3000118352000060620220707202200000000002205100000000002205100000000000000000000000000000000000000000000070720220 88  ICMS ST PECAS                                                               
FA3000119269000060620220707202200000000000619400000000000619400000000000000000000000000000000000000000000070720220 88  ICMS ST PECAS                                                               
FA3000119107000060620220707202200000000000392900000000000392900000000000000000000000000000000000000000000070720220 88  ICMS ST PECAS                                                               
FA3000121641000070620220707202200000000000686600000000000686600000000000000000000000000000000000000000000070720220 88  ICMS ST PECAS                                                               
FA3000122324000070620220707202200000000002255000000000002255000000000000000000000000000000000000000000000070720220 88  ICMS ST PECAS                                                               
FA3000126584000080620220707202200000000000404400000000000404400000000000000000000000000000000000000000000070720220 88  ICMS ST PECAS                                                               
FA3000126268000080620220707202200000000000283900000000000283900000000000000000000000000000000000000000000070720220 88  ICMS ST PECAS                                                               
FA3000124355000080620220707202200000000000353400000000000353400000000000000000000000000000000000000000000070720220 88  ICMS ST PECAS                                                               
FA3000131435000090620220707202200000000003326200000000003326200000000000000000000000000000000000000000000070720220 88  ICMS ST PECAS                                                               
FA3000131436000090620220707202200000000000945300000000000945300000000000000000000000000000000000000000000070720220 88  ICMS ST PECAS                                                               
FA3000133087000090620220707202200000000000162300000000000162300000000000000000000000000000000000000000000070720220 88  ICMS ST PECAS                                                               
FA3000133088000090620220707202200000000000112500000000000112500000000000000000000000000000000000000000000070720220 88  ICMS ST PECAS                                                               
FA3000134336000100620220707202200000000000624500000000000624500000000000000000000000000000000000000000000070720220 88  ICMS ST PECAS                                                               
FA3000135890000100620220707202200000000000418200000000000418200000000000000000000000000000000000000000000070720220 88  ICMS ST PECAS                                                               
FA3000136637000100620220707202200000000000134000000000000134000000000000000000000000000000000000000000000070720220 88  ICMS ST PECAS                                                               
FA3000139500000110620220707202200000000000450800000000000450800000000000000000000000000000000000000000000070720220 88  ICMS ST PECAS                                                               
FA3000141616000130620220707202200000000000385200000000000385200000000000000000000000000000000000000000000070720220 88  ICMS ST PECAS                                                               
FA3000143246000130620220707202200000000000640500000000000640500000000000000000000000000000000000000000000070720220 88  ICMS ST PECAS                                                               
FA3000143247000130620220707202200000000000152400000000000152400000000000000000000000000000000000000000000070720220 88  ICMS ST PECAS                                                               
FA3000142003000130620220707202200000000001651400000000001651400000000000000000000000000000000000000000000070720220 88  ICMS ST PECAS                                                               
FA3000142004000130620220707202200000000000069600000000000069600000000000000000000000000000000000000000000070720220 88  ICMS ST PECAS                                                               
FA3230781     0090620222006202200000000004119100000000004119100000000000000000000000000000000000000000000200620220 DV  ALUGUEL DE SISTEMAS                                                         
FA3756220     0110520222006202200000000005600000000000005339600000000000000000000000000000000000000000000200620220 DZRVFAT. MISCELANEOUS                                                           
FA3757146     0110520222006202200000000003220100000000003070400000000000000000000000000000000000000000000200620220 DZRVFAT. MISCELANEOUS                                                           
FA3759655     0130620222007202200000000012890000000000012097200000000000000000000000000000000000000000000200720220 DZRVFAT. MISCELANEOUS                                                           
FA3758729     0130620222007202200000000005880000000000005606600000000000000000000000000000000000000000000200720220 DZRVFAT. MISCELANEOUS                                                           
FA3759192     0130620222007202200000000005710100000000005444600000000000000000000000000000000000000000000200720220 DZRVFAT. MISCELANEOUS                                                           
FA40000SALDO INICIAL                           000000000013062022C0000000012154779999SALDO FINAL                             000000000013062022C000000001215477                            040213  
FAF100000000000037                                                                                                                                                                                 
FTI10060000000000130620220000000000005101544                                                                                                                                                       
FT5VK47-AVISO DE LANCAMENTO * VK49-RELACAO DAS PECAS * VK58-AVALIACAO DO MOVIMENTO                                                                                                         300997  
FT60VOKSWAGEN DO BRASIL LTDA               *      S I G A       *                                                 * PAG.       74                                                                  
FT60ESTRADA MARGINAL VIA ANCIETA, KM 23,5  *      GARANTIA      *   DEBITOS PROCESSADOS - STATUS 6  *** CTG ***   * DATA:--------                                                                  
FT60SAO PAULO  -  SP                       *     VOLKSWAGEN     *                                                 * REF.    VK47F                                                                  
FT60     DN: 0001544    SERVOPA S.A. COMERCIO E INDUSTRIA                                                                                                                                          
FT60NR.OS. TMA     NR.CHASSI     DTVENDA DTREPARO QUILOM TG MICROFIL NUM.NF  AUTORI  RESER1  RESER2  RESER3  RESER4                                                                                
FT60 LN  DF  FOR   QT        NUM.PECA         CODOPSER  HORAS         VALOR PECAS    AD.HORAS      AD.VALOR PECAS                                                                                  
FT60 69683 5Z4 9BWAB45Z0E4023751  06/13  19/03/15 065418 7  00000000 000000       0                                                                                                                
FT60 01  91  2BR   02   412331/ 6Q0/B /       40852000 ------              150,37        1,53                                                                                                      
FT60 77870 7X2 9BWMF07XXEP003754  06/13  25/05/16 040450 7  00000000 000000       0                                                                                                                
FT60 01  91  2BR   01   898205/ 237/1 /       57111950 ------              332,62        0,03                                                                                                      
FT60 05  91  2BR   01   837015/ 231/1 /       57171950 ------              158,43        0,23                                                                                                      
FT60 07  91  2BR   01   837501/ 7X0/  /       64532050 ------              102,14        0,33                                                                                                      
FT60 09  91  2BR   01   837476/ 211/1 /       64481950 ------               55,54        0,63                                                                                                      
FT60 11  91  2BR   01   843604/ 211/J /       58701950 ------              931,08        0,23                                                                                                      
FT60 17  91  2BR   01   843703/ 211/T /       58681900 ------              469,87        0,13                                                                                                      
FT60 19  91  2BR   01   953513/ 237/1 /999    92051900 ------              106,80        0,43                                                                                                      
FT60 20  91  2BR   01   945515/ 113/1 /       94361900 ------               55,65        0,33                                                                                                      
FT60 21  90  2BR   01   115561/ 030/AR/       01150024 ------               32,40        1,23                                                                                                      
FT60 26  91  2BR   04   905610/ 101/C /       28702000 ------               54,00        0,23                                                                                                      
FT60 27  91  2BR   01   698151/ 7X0/  /       46362000 ------              144,48        0,43                                                                                                      
FT60 30  91  2BR   02   711213/ 311/A /       34251950 ------              134,17        0,03                                                                                                      
FT60 34  91  2BR   01   711149/ 211/1 /       34075500 ------               16,97        0,43                                                                                                      
FT60 54  91  2BR   01   998002/ 5X0/  /       92271900 ------               62,10        0,13                                                                                                      
FT60 55  91  2BR   01   711105/ 211/1 /       34081900 ------               35,11        0,43                                                                                                      
FT60                                                                                                                                                                                               
FTF100000000000028                                                                                                                                                                                 
FCI10050000000000130620220000000000005101544                                                                                                                                                       
FC1000000290000000-PROCESSO DE AUTOSERVICE          - QUANTIDADE REGISTROS RECEBIDOS        00290                                                                                                  
FC2DZY. A154413062022000294000000** ARQUIVO RECEBIDO OK **                                                                                                                                         
FCF100000000000004                                                                                                                                                                                 
FCI10050000000000130620220000000000005101544                                                                                                                                                       
FC1000000112000000-PROCESSO DE AUTOSERVICE          - QUANTIDADE REGISTROS RECEBIDOS        00112                                                                                                  
FC2DZY. B154413062022000116000000** ARQUIVO RECEBIDO OK **                                                                                                                                         
FCF100000000000004                                                                                                                                                                                 
FCI10050000000000130620220000000000005101544                                                                                                                                                       
FC1000000141000000-PROCESSO DE AUTOPART             - QUANTIDADE REGISTROS RECEBIDOS        00141                                                                                                  
FC2DZY. A154413062022000145000000* ARQ.AUTOPART RECEBIDO OK-                 00000000 *                                                                                                            
FCF100000000000004                                                                                                                                                                                 
FPI10000000000000130620220000000000005101544                                                                                                                                                       
F270001306202200015440V00001          AUTOPART                                                                                                                                             190598  
F270001306202200015440V00072          AUTOPART                                                                                                                                             190598  
F270001306202200015440V00032          AUTOPART                                                                                                                                             190598  
F270001306202200015440V00032          AUTOPART                                                                                                                                             190598  
FPF100000000000006                                                                                                                                                                                 
FPI10000000000000130620220000000000005101544                                                                                                                                                       
F280001306202200015440V00000          AUTOPART0000100000R180739                                                                                                                            010700  
F280001306202200015440V00000          AUTOPART0007200000R180739                                                                                                                            010700  
F280001306202200015440V00000          AUTOPART0003200000R180739                                                                                                                            010700  
F280001306202200015440V00000          AUTOPART0003200000R180740                                                                                                                            010700  
FPF100000000000006                                                                                                                                                                                 
FKI10000000000000130620220000000000005101544                                                                                                                                                       
FK20000154413062200010000 A/C CPD E OFICINA  SUB-GERENTE DE ASSISTENCIA TECNICA                                         00000000000                                                        210812  
FK2001006294107613000000LOTE PROCESSADO COM SUCESSO                                                     CK7001                                                                                     
FK2001006293107635000000LOTE PROCESSADO COM SUCESSO                                                     CK7001                                                                                     
FK2001006300107648000000LOTE PROCESSADO COM SUCESSO                                                     CK7001                                                                                     
FK2001006298107647000000LOTE PROCESSADO COM SUCESSO                                                     CK7001                                                                                     
FK2001006291107637000000LOTE PROCESSADO COM SUCESSO                                                     CK7001                                                                                     
FK2001006289107625000000LOTE PROCESSADO COM SUCESSO                                                     CK7001                                                                                     
FK2001006295107644000000LOTE PROCESSADO COM SUCESSO                                                     CK7001                                                                                     
FK2001006301107646000000LOTE PROCESSADO COM SUCESSO                                                     CK7001                                                                                     
FK2001006299107576000000LOTE PROCESSADO COM SUCESSO                                                     CK7001                                                                                     
FK2001006292107525000000LOTE PROCESSADO COM SUCESSO                                                     CK7001                                                                                     
FK2001006290107591000000LOTE PROCESSADO COM SUCESSO                                                     CK7001                                                                                     
FK2001006296107610000000LOTE PROCESSADO COM SUCESSO                                                     CK7001                                                                                     
FK2001000000107525000000LOTE PROCESSADO COM SUCESSO                                                     CK6011                                                                                     
FK2001000000107610000000LOTE PROCESSADO COM SUCESSO                                                     CK6011                                                                                     
FK2001000000107613000000LOTE PROCESSADO COM SUCESSO                                                     CK6011                                                                                     
FK2001000000107613000000LOTE PROCESSADO COM SUCESSO                                                     CK6011                                                                                     
FK2001000000107625010902LOTE PROCESSADO COM SUCESSO                                                     CK6011                                                                                     
FK2001000000107625010902LOTE PROCESSADO COM SUCESSO                                                     CK6011                                                                                     
FK2001000000107635010911LOTE PROCESSADO COM SUCESSO                                                     CK6011                                                                                     
FK2001000000107635010911LOTE PROCESSADO COM SUCESSO                                                     CK6011                                                                                     
FK2001000000107637000000LOTE PROCESSADO COM SUCESSO                                                     CK6011                                                                                     
FK2001000000107637000000LOTE PROCESSADO COM SUCESSO                                                     CK6011                                                                                     
FK2001000000107644000000LOTE PROCESSADO COM SUCESSO                                                     CK6011                                                                                     
FK2001000000107644000000LOTE PROCESSADO COM SUCESSO                                                     CK6011                                                                                     
FK2001000000107576000000LOTE PROCESSADO COM SUCESSO                                                     CK6011                                                                                     
FK2001000000107576000000LOTE PROCESSADO COM SUCESSO                                                     CK6011                                                                                     
FK2001000000107634000000LOTE PROCESSADO COM SUCESSO                                                     CK6011                                                                                     
FK2001000000107646000000LOTE PROCESSADO COM SUCESSO                                                     CK6011                                                                                     
FK2001000000107646000000LOTE PROCESSADO COM SUCESSO                                                     CK6011                                                                                     
FK2001000000107647010915LOTE PROCESSADO COM SUCESSO                                                     CK6011                                                                                     
FK2001000000107647010915LOTE PROCESSADO COM SUCESSO                                                     CK6011                                                                                     
FK2001000000107648000000LOTE PROCESSADO COM SUCESSO                                                     CK6011                                                                                     
FK2001000000107648000000LOTE PROCESSADO COM SUCESSO                                                     CK6011                                                                                     
FK2001000000107588000000LOTE PROCESSADO COM SUCESSO                                                     CK6011                                                                                     
FK2001000000107593000000LOTE PROCESSADO COM SUCESSO                                                     CK6011                                                                                     
FK2001000000107525000000LOTE PROCESSADO COM SUCESSO                                                     CK6011                                                                                     
FK2001000000107591000000LOTE PROCESSADO COM SUCESSO                                                     CK6011                                                                                     
FK2001000000107591000000LOTE PROCESSADO COM SUCESSO                                                     CK6011                                                                                     
FK2001000000107610000000LOTE PROCESSADO COM SUCESSO                                                     CK6011                                                                                     
FK2001128401107591000000LOTE PROCESSADO COM SUCESSO                                                     CK7001                                                                                     
FK2001128405000000000000LOTE PROCESSADO COM SUCESSO                                                     CK3001                                                                                     
FK2001128407000000000000LOTE PROCESSADO COM SUCESSO                                                     CK3001                                                                                     
FK2001128415000000000000LOTE PROCESSADO COM SUCESSO                                                     CK3001                                                                                     
FK2001128420000000000000LOTE PROCESSADO COM SUCESSO                                                     CK3001                                                                                     
FK2001128398107625000000LOTE PROCESSADO COM SUCESSO                                                     CK7001                                                                                     
FK2001128418107648000000LOTE PROCESSADO COM SUCESSO                                                     CK7001                                                                                     
FK2001128414107647000000LOTE PROCESSADO COM SUCESSO                                                     CK7001                                                                                     
FK2001128417107576000000LOTE PROCESSADO COM SUCESSO                                                     CK7001                                                                                     
FK2001128416107634000000LOTE PROCESSADO COM SUCESSO                                                     CK7001                                                                                     
FK2001128404107637000000LOTE PROCESSADO COM SUCESSO                                                     CK7001                                                                                     
FK2001128412107644000000LOTE PROCESSADO COM SUCESSO                                                     CK7001                                                                                     
FK2001128409107635000000LOTE PROCESSADO COM SUCESSO                                                     CK7001                                                                                     
FK2001128421107646000000LOTE PROCESSADO COM SUCESSO                                                     CK7001                                                                                     
FK2001128406107525000000LOTE PROCESSADO COM SUCESSO                                                     CK7001                                                                                     
FK2001128413107610000000LOTE PROCESSADO COM SUCESSO                                                     CK7001                                                                                     
FK2001128411107613000000LOTE PROCESSADO COM SUCESSO                                                     CK7001                                                                                     
FKF000000000000059                                                                                                                                                                                 
FAI10000000000000140620220000000000005101544                                                                                                                                                       
FNT00001544SERVOPA S.A. COMERCIO E IR CORONEL ELYSIO PEREIRA 523            PARANAGUA           ESTRADINHA                    PR83206-00                                                   101202  
FAF100000000000003                                                                                                                                                                                 
FHF000000000000225                                                                                                                                                                                 
