FHI00000000000000140620220000000000005100032         00                                                                                                                                            
FPI10000000000000130620220000000000005100032                                                                                                                                                       
FP9518258903CP0906       651423641306202215072022 04C/  906020/AF/   UNIDADE      9032892900097500000005470000000067320000005610400000010000215002709201301000000      00000000000000      011102  
FPF100000000000003                                                                                                                                                                                 
FPI00000000000000130620220000000000005100032                                                                                                                                                       
FP5518617203CP1306       1306202213062022 5U6/  867769/B /7T800000010000000  5U6/  827025/D /GRU00000010000001  2GM/  941607/  /   00000010000000                                          220800  
FP5518617203CP1306       1306202213062022 17A/  807723/  /   00000010000000                     00000000000000                     00000000000000                                          220800  
FP6510607303Pvex Abril/2201042022 V03/  839124/GG/   000000100000050979 V03/  839900/BF/   000000100000039080                    000000000000000000B                                               
FP6518617203CP1306       13062022 5U6/  827025/D /GRU000000100000136862                    000000000000000000                    000000000000000000B                                               
FPF000000000000006                                                                                                                                                                                 
FRI10000000000000130620220000000000005100032                                                                                                                                                       
FR111000000000000000000000000000000000000000000000000000000000000+00000000000000+N                                                                                                         010699  
FR111000000000000000000000000000000000000000000000000000000000000+00000000000000+C                                                                                                         010699  
FR111000000000000000000000000000000000000000000000000000000010194-00000000000000+O                                                                                                         010699  
FR20004960947   P3105202201072022000000000010194000000000000000000000000000000                                                  000000000000000                                            000     
F060101 DOLAR REFERENCIAL DIARIO - VENDA                                                                                                                                                   300997  
F06021406202200000051033000000000000000000000000000000000000000000000000000000000000000000000000000000000000000000000000000000000000000000000000000000000000000000000000000000000          300997  
F060105 UFIR - UNIDADE FISCAL DE REFERENCIA                                                                                                                                                300997  
F06021406202200000010641000000000000000000000000000000000000000000000000000000000000000000000000000000000000000000000000000000000000000000000000000000000000000000000000000000000          300997  
F060114 IGPM - INDICE GERAL DE PRECOS DO MERCADO                                                                                                                                           300997  
F06021406202200010249084000000000000000000000000000000000000000000000000000000000000000000000000000000000000000000000000000000000000000000000000000000000000000000000000000000000          300997  
F060130 TRD - TAXA REFERENCIAL DIARIA                                                                                                                                                      300997  
F06021406202200000000130463100000000000000000000000000000000000000000000000000000000000000000000000000000000000000000000000000000000000000000000000000000000000000000000000000000          300997  
F060175 TABELA DE QCS PARA LIQUIDACAO DE DEBITOS EXCLUSIVAMENTE JUNTO AO CREDITO ROTATIVO                                                                                                  300997  
F06021406202200000246957886200000000000000000000000000000000000000000000000000000000000000000000000000000000000000000000000000000000000000000000000000000000000000000000000000000          300997  
F060178 TABELA DE QCIS PARA LIQUIDACAO DE DEBITOS EXCLUSIVAMENTE JUNTO AO CREDITO ROTATIVO - VEICULOS IMPORTADOS VW                                                                        300997  
F06021406202200000013536108300000000000000000000000000000000000000000000000000000000000000000000000000000000000000000000000000000000000000000000000000000000000000000000000000000          300997  
F060192 TABELA DE QCIS PARA LIQUIDACAO DE DEBITOS EXCLUSIVAMENTE JUNTO AO CREDITO ROTATIVO - VEICULOS IMPORT. SEAT                                                                         300997  
F06021406202200000013626515900000000000000000000000000000000000000000000000000000000000000000000000000000000000000000000000000000000000000000000000000000000000000000000000000000          300997  
F060196 TABELA DE QCIS PARA LIQUIDACAO DE DEBITOS EXCLUSIVAMENTE JUNTO AO CREDITO ROTATIVO - VEIC.IMPORT VW/96                                                                             300997  
F06021406202200000330951123400000000000000000000000000000000000000000000000000000000000000000000000000000000000000000000000000000000000000000000000000000000000000000000000000000          300997  
F0601101TABELA DE QCIS PARA LIQUIDACAO DE DEBITOS EXCLUSIVAMENTE JUNTO AO CREDITO ROTATIVO - VEICULO USADO                                                                                 300997  
F06021406202200000451866798100000000000000000000000000000000000000000000000000000000000000000000000000000000000000000000000000000000000000000000000000000000000000000000000000000          300997  
F0601105TABELA DE QCIS PARA LIQUIDACAO DE DEBITOS EXCLUSIVAMENTE JUNTO AO CREDITO ROTATIVO - VEICULOS AUDI                                                                                 300997  
F06021406202200000722642040900000000000000000000000000000000000000000000000000000000000000000000000000000000000000000000000000000000000000000000000000000000000000000000000000000          300997  
F0601106TABELA DE QCIS PARA LIQUIDACAO DE DEBITOS EXCLUSIVAMENTE JUNTO AO CREDITO ROTATIVO - PECAS                                                                                         300997  
F06021406202200000983055528900000000000000000000000000000000000000000000000000000000000000000000000000000000000000000000000000000000000000000000000000000000000000000000000000000          300997  
F0601109TABELA DE QCIS PARA LIQUIDACAO DE DEBITOS EXCLUSIVAMENTE JUNTO AO CREDITO ROTATIVO - CAMINHOES USADOS                                                                              300997  
F06021406202200001006069452500000000000000000000000000000000000000000000000000000000000000000000000000000000000000000000000000000000000000000000000000000000000000000000000000000          300997  
F0601110TABELA DE QCIS PARA LIQUIDACAO DE DEBITOS EXCLUSIVAMENTE JUNTO AO CREDITO ROTATIVO - AUDI USADOS                                                                                   300997  
F06021406202200000732749830000000000000000000000000000000000000000000000000000000000000000000000000000000000000000000000000000000000000000000000000000000000000000000000000000000          300997  
F0601111TABELA DE QCIS PARA LIQUIDACAO DE DEBITOS EXCLUSIVAMENTE JUNTO AO CREDITO ROTATIVO - SEAT USADOS                                                                                   300997  
F06021406202200000742147307700000000000000000000000000000000000000000000000000000000000000000000000000000000000000000000000000000000000000000000000000000000000000000000000000000          300997  
F0601115TABELA DE QCIS PARA LIQUIDACAO DE DEBITOS EXCLUSIVAMENTE JUNTO AO CREDITO ROTATIVO - QC COM BONUS                                                                                  300997  
F06021406202200000306399671600000000000000000000000000000000000000000000000000000000000000000000000000000000000000000000000000000000000000000000000000000000000000000000000000000          300997  
F0601116TABELA DE QCIS PARA LIQUIDACAO DE DEBITOS EXCLUSIVAMENTE JUNTO AO CREDITO ROTATIVO - QC DO BONUS ROTATIVO                                                                          300997  
F06021406202200000092909198200000000000000000000000000000000000000000000000000000000000000000000000000000000000000000000000000000000000000000000000000000000000000000000000000000          300997  
F0601117TABELA DE QCIS PARA LIQUIDACAO DE DEBITOS EXCLUSIVAMENTE JUNTO AO CREDITO ROTATIVO - QC FINANCIAMENTO ICMS                                                                         300997  
F06021406202200000983055530800000000000000000000000000000000000000000000000000000000000000000000000000000000000000000000000000000000000000000000000000000000000000000000000000000          300997  
F0601119TABELA DE QCIS PARA LIQUIDACAO DE DEBITOS EXCLUSIVAMENTE JUNTO AO CREDITO ROTATIVO - MULTA DE CONFISSAO DIV                                                                        300997  
F06021406202200000010000000000000000000000000000000000000000000000000000000000000000000000000000000000000000000000000000000000000000000000000000000000000000000000000000000000000          300997  
FRF100000000000042                                                                                                                                                                                 
FVI10060000000000140620220000000000005100032                                                                                                                                                       
F229BWDH5BZXNP041792714835130520229BWBJ6BF0N4053331483092090620229BWCH6CH4NP022436716799300520229BWBJ6BF3N406198748066627052022                                                            300997  
F229BWCH6CH7NP024522716266280520229BWAG45U3PT000477288612200420229BWAH5BZXNP038989707238200420229BWAG45U0PT01421030914503062022                                                            300997  
F229BWBJ6BF8N4045221482212020620229BWBH6BF1N4060008478229180520229BWCH6CH1NP03164471674830052022                                                                                           300997  
FVF100000000000005                                                                                                                                                                                 
FAI10000000000000140620220000000000005100032                                                                                                                                                       
FA100000000000000+00000000000000+00000000000000+00000000000000+00000000000000+00000000000000+00000000000000+00000000000000+00000000000000+                                                         
FA200000000000000+00000000000000+00000000000000+00000000000000+00000000000000+00000000000000+00000000000000+00000000000000+00000000000000+                                                         
FA3000102164000010620220707202200000000002170900000000002170900000000000000000000000000000000000000000000070720220 88  ICMS ST PECAS                                                               
FA3000100807000010620220707202200000000000051200000000000051200000000000000000000000000000000000000000000070720220 88  ICMS ST PECAS                                                               
FA3000100808000010620220707202200000000001703100000000001703100000000000000000000000000000000000000000000070720220 88  ICMS ST PECAS                                                               
FA3000105450000020620220707202200000000000913000000000000913000000000000000000000000000000000000000000000070720220 88  ICMS ST PECAS                                                               
FA3000105451000020620220707202200000000000111100000000000111100000000000000000000000000000000000000000000070720220 88  ICMS ST PECAS                                                               
FA3000482212000020620220707202200000000040021900000000040021900000000000000000000000000000000000000000000070720220 99  ICMS ST VEICULOS                                                            
FA3000309145000030620220707202200000000019544900000000019544900000000000000000000000000000000000000000000070720220 99  ICMS ST VEICULOS                                                            
FA3000113887000040620220707202200000000000057300000000000057300000000000000000000000000000000000000000000070720220 88  ICMS ST PECAS                                                               
FA3000120200000070620220707202200000000000716300000000000716300000000000000000000000000000000000000000000070720220 88  ICMS ST PECAS                                                               
FA3000124749000080620220707202200000000000136800000000000136800000000000000000000000000000000000000000000070720220 88  ICMS ST PECAS                                                               
FA3000124748000080620220707202200000000000932000000000000932000000000000000000000000000000000000000000000070720220 88  ICMS ST PECAS                                                               
FA3000483092000090620220707202200000000036432700000000036432700000000000000000000000000000000000000000000070720220 99  ICMS ST VEICULOS                                                            
FA3000135860000100620220707202200000000000636200000000000636200000000000000000000000000000000000000000000070720220 88  ICMS ST PECAS                                                               
FA3000142364000130620220707202200000000000951000000000000951000000000000000000000000000000000000000000000070720220 88  ICMS ST PECAS                                                               
FA3230370     0090620222006202200000000006758300000000006758300000000000000000000000000000000000000000000200620220 DV  ALUGUEL DE SISTEMAS                                                         
FA3757147     0110520222006202200000000003220100000000003070400000000000000000000000000000000000000000000200620220 DZRVFAT. MISCELANEOUS                                                           
FA3756221     0110520222006202200000000005600000000000005339600000000000000000000000000000000000000000000200620220 DZRVFAT. MISCELANEOUS                                                           
FA3757576     0160520222006202200000000007201100000000006758300000000000000000000000000000000000000000000200620220 DZRVFAT. MISCELANEOUS                                                           
FA3759656     0130620222007202200000000012890000000000012097200000000000000000000000000000000000000000000200720220 DZRVFAT. MISCELANEOUS                                                           
FA3758730     0130620222007202200000000005880000000000005606600000000000000000000000000000000000000000000200720220 DZRVFAT. MISCELANEOUS                                                           
FA3759193     0130620222007202200000000005710100000000005444600000000000000000000000000000000000000000000200720220 DZRVFAT. MISCELANEOUS                                                           
FA40000SALDO INICIAL                           000000000013062022C0000000070077589999SALDO FINAL                             000000000013062022C000000007007758                            040213  
FAF100000000000026                                                                                                                                                                                 
FCI10050000000000130620220000000000005100032                                                                                                                                                       
FC2DZY. A003213062022000002000000**ARQUIVO NAO PROCESSADO/ARQUIVO VAZIO (SEM REGISTROS DE PROCESSOS)**                                                                                             
FCF100000000000003                                                                                                                                                                                 
FCI10050000000000130620220000000000005100032                                                                                                                                                       
FC1000000013000000-PROCESSO DE AUTOSERVICE          - QUANTIDADE REGISTROS RECEBIDOS        00013                                                                                                  
FC2DZY. B003213062022000017000000** ARQUIVO RECEBIDO OK **                                                                                                                                         
FCF100000000000004                                                                                                                                                                                 
FCI10050000000000130620220000000000005100032                                                                                                                                                       
FC2DZY. C003213062022000002000000**ARQUIVO NAO PROCESSADO/ARQUIVO VAZIO (SEM REGISTROS DE PROCESSOS)**                                                                                             
FCF100000000000003                                                                                                                                                                                 
FCI10050000000000130620220000000000005100032                                                                                                                                                       
FC1000000119000000-PROCESSO DE AUTOSERVICE          - QUANTIDADE REGISTROS RECEBIDOS        00119                                                                                                  
FC2DZY. D003213062022000123000000** ARQUIVO RECEBIDO OK **                                                                                                                                         
FCF100000000000004                                                                                                                                                                                 
FKI10000000000000130620220000000000005100032                                                                                                                                                       
FK20000003213062200010000 A/C CPD E OFICINA  SUB-GERENTE DE ASSISTENCIA TECNICA                                         00000000000                                                        210812  
FK2001000000068129000000LOTE PROCESSADO COM SUCESSO                                                     CK6011                                                                                     
FK2001076104068129000000LOTE PROCESSADO COM SUCESSO                                                     CK7001                                                                                     
FK2001076095068118000000LOTE PROCESSADO COM SUCESSO                                                     CK7001                                                                                     
FK2001040724068118000000LOTE PROCESSADO COM SUCESSO                                                     CK7001                                                                                     
FK2001040725068125000000LOTE PROCESSADO COM SUCESSO                                                     CK7001                                                                                     
FK2001076098068125000000LOTE PROCESSADO COM SUCESSO                                                     CK7001                                                                                     
FK2001040726068127000000LOTE PROCESSADO COM SUCESSO                                                     CK7001                                                                                     
FK2001076102068127000000LOTE PROCESSADO COM SUCESSO                                                     CK7001                                                                                     
FK2001000000068118012881LOTE PROCESSADO COM SUCESSO                                                     CK6011                                                                                     
FK2001076106000000000000LOTE PROCESSADO COM SUCESSO                                                     CK3001                                                                                     
FK2001076107000000000000LOTE PROCESSADO COM SUCESSO                                                     CK3001                                                                                     
FK2001076091000000000000LOTE PROCESSADO COM SUCESSO                                                     CK3001                                                                                     
FK2001076093000000000000LOTE PROCESSADO COM SUCESSO                                                     CK3001                                                                                     
FK2001076097000000000000LOTE PROCESSADO COM SUCESSO                                                     CK3001                                                                                     
FK2001076099000000000000LOTE PROCESSADO COM SUCESSO                                                     CK3001                                                                                     
FK2001000000068118012881LOTE PROCESSADO COM SUCESSO                                                     CK6011                                                                                     
FK2001000000068125012891LOTE PROCESSADO COM SUCESSO                                                     CK6011                                                                                     
FK2001000000068125012891LOTE PROCESSADO COM SUCESSO                                                     CK6011                                                                                     
FK2001000000068127000000LOTE PROCESSADO COM SUCESSO                                                     CK6011                                                                                     
FK2001000000068127000000LOTE PROCESSADO COM SUCESSO                                                     CK6011                                                                                     
FK2001000000068098000000LOTE PROCESSADO COM SUCESSO                                                     CK6011                                                                                     
FK2001000000068113000000LOTE PROCESSADO COM SUCESSO                                                     CK6011                                                                                     
FKF000000000000025                                                                                                                                                                                 
FAI10000000000000140620220000000000005100032                                                                                                                                                       
FNT00000032SERVOPA S/A COMERCIO E INAV. PARANA, 1525 1525                   PARANAVAI           TRES MARIAS                   PR87704-10                                                   101202  
FAF100000000000003                                                                                                                                                                                 
FHF000000000000126                                                                                                                                                                                 
