FHI00000000000000140620220000000000005101225         00                                                                                                                                            
FPI10000000000000130620220000000000005101225                                                                                                                                                       
FP9518113201PN0806       651402911306202215072022 5U0/  809961/D /   PROTETOR     8708299900032500000000177000000006550000000545900000010000934002922266501000000      00000000000000      011102  
FP9518113201PN0806       651403061306202215072022 5U0/  809958/  /   PROTETOR     8708299900032500000003620000000133650000011137900000190000800002918055801000000      00000000000000      011102  
FP95119553031334         651410711306202215072022 V03/  839306/FJ/   EXPANSOR     8205590000052000000000810000000006230000001557900000010000070002920957011000000      00000000000000      011102  
FP9518474811             651416081306202215072022 030/  905607/  /   VELA         8511100000097500000003564000000043870000003655500000200000042002921616201000000      00000000000000      011102  
FP9518113201PN0806       651419111306202215072022 5U0/  121253/C /   RADIADOR     8708910000032500000001498000000055320000004610000000010001998002922596201000000      00000000000000      011102  
FP9518329111             651419151306202215072022 059/  103085/L /   RETENTOR     4016930000052000000002488000000019140000004784000000090000008002921416911000000      00000000000000      011102  
FP9518329111             651419151306202215072022 059/  103631/D /   BUCHA        4016930000052000000002709000000020840000005210300000300000007002921416911000000      00000000000000      011102  
FP9518329111             651419151306202215072022 059/  121149/F /   ANEL         4016930000052000000000117000000000900000000225200000010000000002921416911000000      00000000000000      011102  
FP9518329111             651419151306202215072022 5U0/  412545/  /   SUPORTE      4016999000117000000000777000000007970000000664300000060000047002921416901000000      00000000000000      011102  
FP9518329111             651419151306202215072022 5Z0/  955751/A /   TUBO         3917329000032500000000593000000021900000001825100000100000024002921416901000000      00000000000000      011102  
FP9518329111             651419151306202215072022 02M/  301189/L /   ANEL         4016930000052000000000269000000002070000000518200000010000002002921896511000000      00000000000000      011102  
FP9518329111             651419161306202215072022 013/  311295/1 /   ANEL         8708409000032500000000709000000026180000002182000000080000065002921416901000000      00000000000000      011102  
FP9518329111             651419161306202215072022 1H0/  412303/B /   BATENTE      8708800000032500000001198000000044230000003685800000060000023002921416901000000      00000000000000      011102  
FP9518113201PN0806       651419191306202215072022 6EC/  807863/  /   GUIA         8708100000032500000000153000000005630000000469300000010000398002921416901000000      00000000000000      011102  
FP9518474811             651432081306202215072022 026/  109119/D /   CORREIA      4010310000065000000000404000000007460000000621800000010000094002922173001000000      00000000000000      011102  
FP9518474811             651432081306202215072022 2H0/  411313/C /   MANCAL       4016999000117000000000940000000009640000000803600000030000261002922173001000000      00000000000000      011102  
FP9518474811             651432081306202215072022   N/  020301/2 /   MANGUEIRA    3917390000032500000000841000000031070000002589100001000002700002922173001000000      00000000000000      011102  
FP9518474811             651432091306202215072022 030/  115561/AR/   FILTRO OLE   8421230000052000000015966000000368440000030703300001200000282002922173001000000      00000000000000      011102  
FP9518474811             651432091306202215072022 5U7/  853596/  /   COBERTURA    8708299900032500000000202000000007440000000620000000010000004002922173001000000      00000000000000      011102  
FP9518474811             651432091306202215072022 2GM/  854731/  /9B9COBERTURA    8708299900032500000000151000000005580000000464800000010000004002922173001000000      00000000000000      011102  
FP9518474811             651432101306202215072022 030/  115611/P /   VARETA       9026102900000000000000000000000006510000000542100000050000020002922173001000000      00000000000000      011102  
FP9516292101PN24051      651434141306202215072022 6EA/  853651/D /RYPGRADE        8708299200032500000001323000000048850000004071200000010000380002922662501000000      00000000000000      011102  
FP9516292101PN24051      651434541306202215072022 5U0/  121253/C /   RADIADOR     8708910000032500000001456000000053740000004478500000010001998002922687601000000      00000000000000      011102  
FPF100000000000025                                                                                                                                                                                 
FPI10000000000000130620220000000000005101225                                                                                                                                                       
FP9516292101PN24051      068404962505202222062022   G/  001770/A2/   ADITIVO      38119090000000000000000000000000923800000076980000001001250000000000000000000005XJ99843648971000155      011102  
FPF100000000000003                                                                                                                                                                                 
FPI00000000000000130620220000000000005101225                                                                                                                                                       
FP55186073031414         1306202213062022 JZZ/  698302/A /   00000010000000  2G5/  863459/  /82V00000010000000  2G5/  827705/C /9B900000010000001                                          220800  
FP55186073031414         1306202213062022 2G5/  807394/A /   00000010000000                     00000000000000                     00000000000000                                          220800  
FP6509350501PN21032      22032022 030/  107411/H /   000000800000002796 2QB/  919673/  /   000000400000005757                    000000000000000000B                                               
FP6510118911             28032022 5U0/  805583/E /9B9000000300000003895                    000000000000000000                    000000000000000000B                                               
FP6510208101PN29034      29032022 030/  107411/H /   000000800000002796                    000000000000000000                    000000000000000000B                                               
FP6511513811             08042022 04C/  129709/A /   000000100000037486                    000000000000000000                    000000000000000000B                                               
FP6512081803240          14042022 5Z0/  122447/N /   000000100000006426                    000000000000000000                    000000000000000000B                                               
FP6512474401PN20044      20042022 5U0/  805583/E /9B9000000100000004036                    000000000000000000                    000000000000000000B                                               
FP6512896111             25042022 032/  107411/C /   000001200000003318                    000000000000000000                    000000000000000000B                                               
FP65130107031344         26042022 2G4/  837902/E /9B9000000100000003967                    000000000000000000                    000000000000000000B                                               
FP6513045711             26042022 5U0/  819707/  /ST3000000400000004439                    000000000000000000                    000000000000000000B                                               
FP6513221501PN28040      28042022   G/  052135/A1/   000000100000009403   G/  052182/A2/   000000500000005969 1SB/  807258/B /9B9000000100000005320B                                               
FP6513221501PN28040      28042022 2G0/  907057/E /EYW000000100000091110 2QB/  919673/  /   000000100000006342 5U0/  805583/E /9B9000000100000004036B                                               
FP65135720031348         30042022 5U7/  821021/A /GRU000000100000033012                    000000000000000000                    000000000000000000B                                               
FP65137024031351         02052022   G/  052145/S2/   000000100000018116 6EA/  419089/B /YRX000000100000122229                    000000000000000000B                                               
FP6514411101PN09051      09052022 5U7/  845521/  /   000000200000004741 2QB/  959655/D /   000000100000135553 2QB/  919673/  /   000000400000006342B                                               
FP6514411101PN09051      09052022 2G0/  907057/E /EYW000000100000091110 1SB/  807258/B /9B9000000100000005320 17B/  955426/  /03C000000200000011906B                                               
FP6514411101PN09051      09052022 04C/  129709/A /   000000200000038251                    000000000000000000                    000000000000000000B                                               
FP6514504811             09052022 5U0/  853666/M /9B9000000100000007809                    000000000000000000                    000000000000000000B                                               
FP6514682611             10052022 5U0/  853666/M /9B9000000200000007809                    000000000000000000                    000000000000000000B                                               
FP65148086031371         11052022 1SB/  959855/  /9B9000000100000002276 WHT/  003862/  /   000000100000035540                    000000000000000000B                                               
FP6515226601PN16051      16052022   G/  052135/A1/   000000600000009403 5U0/  807240/C /   000000100000002262                    000000000000000000B                                               
FP6515574711             17052022 032/  103063/AD/   000000500000185675                    000000000000000000                    000000000000000000B                                               
FP65156818031375         18052022 5QM/  498203/A /   000000100000024605                    000000000000000000                    000000000000000000B                                               
FP6515899011             19052022 811/  711279/  /   000006000000000136                    000000000000000000                    000000000000000000B                                               
FP6516292101PN24051      24052022 6QE/  721261/D /   000000100000007442 6EA/  831056/H /GRU000000100000067927 5U7/  853687/  /   000000100000002672B                                               
FP6516292101PN24051      24052022 5U6/  945095/AB/   000000100000016852 5U0/  807240/C /   000000100000002262 2Q0/  959653/  /   000000100000030916B                                               
FP6516292101PN24051      24052022   G/  052182/A2/   000002000000005969 032/  109101/AH/   000000100000037696 06L/  103801/  /   000001000000001493B                                               
FP6516292101PN24051      24052022 2G5/  945307/A /   000000100000135935 17B/  955425/A /03C000000100000012930 080/  311123/1 /   000000100000010235B                                               
FP65165233031388         25052022 V03/  839141/ND/   000000100000044552 V03/  839141/JM/   000000100000084009 2QB/  919673/  /   000000100000006342B                                               
FP65166707031390         26052022 V03/  839142/AB/   000000100000063133                    000000000000000000                    000000000000000000B                                               
FP6516965701PN30051      30052022 5U7/  853687/  /   000000100000002672 5U7/  845521/  /   000000100000004742 5U1/  422055/L /   000000100000070571B                                               
FP6516965701PN30051      30052022 5U0/  819707/  /ST3000000100000004529 5U0/  805583/E /9B9000000100000004036 3B0/  121321/  /   000000100000012145B                                               
FP6516965701PN30051      30052022 2QB/  919673/  /   000000100000006342 2QB/  919051/G /   000000300000125969 2G5/  945307/A /   000000100000135935B                                               
FP6516965701PN30051      30052022 211/  405317/1 /   000001000000001557 17B/  955426/  /03C000000100000011906                    000000000000000000B                                               
FP6517408711             01062022 5U7/  827565/  /MK1000000200000019137                    000000000000000000                    000000000000000000B                                               
FP6517718211             03062022 5U0/  601147/AA/Z31000000300000004467                    000000000000000000                    000000000000000000B                                               
FP6518113201PN0806       08062022 5G6/  955427/C /   000000100000006759 5U7/  945096/  /   000000100000021697 6EA/  941006/D /   000000100000052913B                                               
FP65181429031411         08062022 2QB/  614105/K /   000000100000112732                    000000000000000000                    000000000000000000B                                               
FP6518329111             09062022 5U7/  413031/C /   000000400000020147                    000000000000000000                    000000000000000000B                                               
FP65186073031414         13062022 2G5/  827705/C /9B9000000100000011714                    000000000000000000                    000000000000000000B                                               
FP7514411101PN09051      09052022 6EA/  857706/A /RAA000000100000035800                    000000000000000000                    000000000000000000                                                
FP7518113201PN0806       08062022 2GB/  121253/A /   000000100000025682                    000000000000000000                    000000000000000000                                                
FP7518474811             10062022 5U6/  810971/E /   000000200000004349                    000000000000000000                    000000000000000000                                                
FPF000000000000046                                                                                                                                                                                 
FRI10000000000000130620220000000000005101225                                                                                                                                                       
FR111000000000000000000000000019000000000000009999900000000099999+00000000000000+C                                                                                                         010699  
FR111000000000000000000000000309999800000000309999800000002031635+00000000000000+O                                                                                                         010699  
FR111000000000000000000000009538000000000000000000000000000000000+00000000000000+N                                                                                                         010699  
FR20004961500   P3105202201072022000000000006910000000000000000000000000000000                                                  000000000000000                                            000     
FR20004961499   P3105202201072022000000000085148000000000000000000000000000000                                                  000000000000000                                            000     
F060101 DOLAR REFERENCIAL DIARIO - VENDA                                                                                                                                                   300997  
F06021406202200000051033000000000000000000000000000000000000000000000000000000000000000000000000000000000000000000000000000000000000000000000000000000000000000000000000000000000          300997  
F060105 UFIR - UNIDADE FISCAL DE REFERENCIA                                                                                                                                                300997  
F06021406202200000010641000000000000000000000000000000000000000000000000000000000000000000000000000000000000000000000000000000000000000000000000000000000000000000000000000000000          300997  
F060114 IGPM - INDICE GERAL DE PRECOS DO MERCADO                                                                                                                                           300997  
F06021406202200010249084000000000000000000000000000000000000000000000000000000000000000000000000000000000000000000000000000000000000000000000000000000000000000000000000000000000          300997  
F060130 TRD - TAXA REFERENCIAL DIARIA                                                                                                                                                      300997  
F06021406202200000000130463100000000000000000000000000000000000000000000000000000000000000000000000000000000000000000000000000000000000000000000000000000000000000000000000000000          300997  
F060175 TABELA DE QCS PARA LIQUIDACAO DE DEBITOS EXCLUSIVAMENTE JUNTO AO CREDITO ROTATIVO                                                                                                  300997  
F06021406202200000246957886200000000000000000000000000000000000000000000000000000000000000000000000000000000000000000000000000000000000000000000000000000000000000000000000000000          300997  
F060178 TABELA DE QCIS PARA LIQUIDACAO DE DEBITOS EXCLUSIVAMENTE JUNTO AO CREDITO ROTATIVO - VEICULOS IMPORTADOS VW                                                                        300997  
F06021406202200000013536108300000000000000000000000000000000000000000000000000000000000000000000000000000000000000000000000000000000000000000000000000000000000000000000000000000          300997  
F060192 TABELA DE QCIS PARA LIQUIDACAO DE DEBITOS EXCLUSIVAMENTE JUNTO AO CREDITO ROTATIVO - VEICULOS IMPORT. SEAT                                                                         300997  
F06021406202200000013626515900000000000000000000000000000000000000000000000000000000000000000000000000000000000000000000000000000000000000000000000000000000000000000000000000000          300997  
F060196 TABELA DE QCIS PARA LIQUIDACAO DE DEBITOS EXCLUSIVAMENTE JUNTO AO CREDITO ROTATIVO - VEIC.IMPORT VW/96                                                                             300997  
F06021406202200000330951123400000000000000000000000000000000000000000000000000000000000000000000000000000000000000000000000000000000000000000000000000000000000000000000000000000          300997  
F0601101TABELA DE QCIS PARA LIQUIDACAO DE DEBITOS EXCLUSIVAMENTE JUNTO AO CREDITO ROTATIVO - VEICULO USADO                                                                                 300997  
F06021406202200000451866798100000000000000000000000000000000000000000000000000000000000000000000000000000000000000000000000000000000000000000000000000000000000000000000000000000          300997  
F0601105TABELA DE QCIS PARA LIQUIDACAO DE DEBITOS EXCLUSIVAMENTE JUNTO AO CREDITO ROTATIVO - VEICULOS AUDI                                                                                 300997  
F06021406202200000722642040900000000000000000000000000000000000000000000000000000000000000000000000000000000000000000000000000000000000000000000000000000000000000000000000000000          300997  
F0601106TABELA DE QCIS PARA LIQUIDACAO DE DEBITOS EXCLUSIVAMENTE JUNTO AO CREDITO ROTATIVO - PECAS                                                                                         300997  
F06021406202200000983055528900000000000000000000000000000000000000000000000000000000000000000000000000000000000000000000000000000000000000000000000000000000000000000000000000000          300997  
F0601109TABELA DE QCIS PARA LIQUIDACAO DE DEBITOS EXCLUSIVAMENTE JUNTO AO CREDITO ROTATIVO - CAMINHOES USADOS                                                                              300997  
F06021406202200001006069452500000000000000000000000000000000000000000000000000000000000000000000000000000000000000000000000000000000000000000000000000000000000000000000000000000          300997  
F0601110TABELA DE QCIS PARA LIQUIDACAO DE DEBITOS EXCLUSIVAMENTE JUNTO AO CREDITO ROTATIVO - AUDI USADOS                                                                                   300997  
F06021406202200000732749830000000000000000000000000000000000000000000000000000000000000000000000000000000000000000000000000000000000000000000000000000000000000000000000000000000          300997  
F0601111TABELA DE QCIS PARA LIQUIDACAO DE DEBITOS EXCLUSIVAMENTE JUNTO AO CREDITO ROTATIVO - SEAT USADOS                                                                                   300997  
F06021406202200000742147307700000000000000000000000000000000000000000000000000000000000000000000000000000000000000000000000000000000000000000000000000000000000000000000000000000          300997  
F0601115TABELA DE QCIS PARA LIQUIDACAO DE DEBITOS EXCLUSIVAMENTE JUNTO AO CREDITO ROTATIVO - QC COM BONUS                                                                                  300997  
F06021406202200000306399671600000000000000000000000000000000000000000000000000000000000000000000000000000000000000000000000000000000000000000000000000000000000000000000000000000          300997  
F0601116TABELA DE QCIS PARA LIQUIDACAO DE DEBITOS EXCLUSIVAMENTE JUNTO AO CREDITO ROTATIVO - QC DO BONUS ROTATIVO                                                                          300997  
F06021406202200000092909198200000000000000000000000000000000000000000000000000000000000000000000000000000000000000000000000000000000000000000000000000000000000000000000000000000          300997  
F0601117TABELA DE QCIS PARA LIQUIDACAO DE DEBITOS EXCLUSIVAMENTE JUNTO AO CREDITO ROTATIVO - QC FINANCIAMENTO ICMS                                                                         300997  
F06021406202200000983055530800000000000000000000000000000000000000000000000000000000000000000000000000000000000000000000000000000000000000000000000000000000000000000000000000000          300997  
F0601119TABELA DE QCIS PARA LIQUIDACAO DE DEBITOS EXCLUSIVAMENTE JUNTO AO CREDITO ROTATIVO - MULTA DE CONFISSAO DIV                                                                        300997  
F06021406202200000010000000000000000000000000000000000000000000000000000000000000000000000000000000000000000000000000000000000000000000000000000000000000000000000000000000000000          300997  
FRF100000000000043                                                                                                                                                                                 
FVI10060000000000130620220000000000005101225                                                                                                                                                       
F229BWBH6BF3N4053268480751280520229BWCH6CHXNP026569708927250420229BWAG45U0PT009976294225050520229BWBH6BF5N406697548309409062022                                                            300997  
F229BWBJ6BF8N4061905480668270520229BWBH6BF7N4047814475239290420228AWBJ6B26NA819967292132300420229BWAG45U7PT00919629376104052022                                                            300997  
F229BWAG45U9PT009443294426050520229BWAG45U9PT026162309284030620229BWDH5BZ3NP035932714448130520229BWDH5BZ2NP03841770952826042022                                                            300997  
F229BWCH6CH7NP024004715349170520229BWDH5BZXNP040609709500260420229BWAH5BZ3NP037876708220230420229BWBH6BF7N400459142746229092021                                                            300997  
F229BWBH6BF3N4067011483140090620229BWDH5BZ7NP040275706815200420229BWBH6BF6N4053250480760280520229BWBH6BF7N406792048326909062022                                                            300997  
F239BWAG45U3PT012256BAIXA EFETUADA                                                                                                                                                         250897  
FVF100000000000008                                                                                                                                                                                 
FAI10000000000000140620220000000000005101225                                                                                                                                                       
FA100000000000000+00000000000000+00000000000000+00000000000000+00000000000000+00000000000000+00000000000000+00000000000000+00000000000000+                                                         
FA200000000000000+00000000000000+00000000000000+00000000000000+00000000000000+00000000000000+00000000000000+00000000000000+00000000000000+                                                         
FA3000102674000010620220707202200000000001723200000000001723200000000000000000000000000000000000000000000070720220 88  ICMS ST PECAS                                                               
FA3000099348000010620220707202200000000000064300000000000064300000000000000000000000000000000000000000000070720220 88  ICMS ST PECAS                                                               
FA3000101634000010620220707202200000000004747500000000004747500000000000000000000000000000000000000000000070720220 88  ICMS ST PECAS                                                               
FA3000100075000010620220707202200000000000473200000000000473200000000000000000000000000000000000000000000070720220 88  ICMS ST PECAS                                                               
FA3000101041000010620220707202200000000000170300000000000170300000000000000000000000000000000000000000000070720220 88  ICMS ST PECAS                                                               
FA3000100462000010620220707202200000000002035200000000002035200000000000000000000000000000000000000000000070720220 88  ICMS ST PECAS                                                               
FA3000101042000010620220707202200000000003131700000000003131700000000000000000000000000000000000000000000070720220 88  ICMS ST PECAS                                                               
FA3000100081000010620220707202200000000001727100000000001727100000000000000000000000000000000000000000000070720220 88  ICMS ST PECAS                                                               
FA3000098857000010620220707202200000000001626000000000001626000000000000000000000000000000000000000000000070720220 88  ICMS ST PECAS                                                               
FA3000105487000020620220707202200000000003244400000000003244400000000000000000000000000000000000000000000070720220 88  ICMS ST PECAS                                                               
FA3000105488000020620220707202200000000000199500000000000199500000000000000000000000000000000000000000000070720220 88  ICMS ST PECAS                                                               
FA3000104785000020620220707202200000000001455900000000001455900000000000000000000000000000000000000000000070720220 88  ICMS ST PECAS                                                               
FA3000104786000020620220707202200000000009454100000000009454100000000000000000000000000000000000000000000070720220 88  ICMS ST PECAS                                                               
FA3000104787000020620220707202200000000009125500000000009125500000000000000000000000000000000000000000000070720220 88  ICMS ST PECAS                                                               
FA3000104788000020620220707202200000000000302600000000000302600000000000000000000000000000000000000000000070720220 88  ICMS ST PECAS                                                               
FA3000106595000020620220707202200000000004866900000000004866900000000000000000000000000000000000000000000070720220 88  ICMS ST PECAS                                                               
FA3000107185000020620220707202200000000000581200000000000581200000000000000000000000000000000000000000000070720220 88  ICMS ST PECAS                                                               
FA3000107380000020620220707202200000000000558600000000000558600000000000000000000000000000000000000000000070720220 88  ICMS ST PECAS                                                               
FA3000107381000020620220707202200000000000474000000000000474000000000000000000000000000000000000000000000070720220 88  ICMS ST PECAS                                                               
FA3000107204000020620220707202200000000000013400000000000013400000000000000000000000000000000000000000000070720220 88  ICMS ST PECAS                                                               
FA3000107205000020620220707202200000000002688700000000002688700000000000000000000000000000000000000000000070720220 88  ICMS ST PECAS                                                               
FA3000107206000020620220707202200000000005938300000000005938300000000000000000000000000000000000000000000070720220 88  ICMS ST PECAS                                                               
FA3000107207000020620220707202200000000002610300000000002610300000000000000000000000000000000000000000000070720220 88  ICMS ST PECAS                                                               
FA3000107208000020620220707202200000000000868800000000000868800000000000000000000000000000000000000000000070720220 88  ICMS ST PECAS                                                               
FA3000107209000020620220707202200000000015397400000000015397400000000000000000000000000000000000000000000070720220 88  ICMS ST PECAS                                                               
FA3000107910000020620220707202200000000001133300000000001133300000000000000000000000000000000000000000000070720220 88  ICMS ST PECAS                                                               
FA3000108237000020620220707202200000000000871300000000000871300000000000000000000000000000000000000000000070720220 88  ICMS ST PECAS                                                               
FA3000107210000020620220707202200000000001055300000000001055300000000000000000000000000000000000000000000070720220 88  ICMS ST PECAS                                                               
FA3000106579000020620220707202200000000000527700000000000527700000000000000000000000000000000000000000000070720220 88  ICMS ST PECAS                                                               
FA3000107798000020620220707202200000000000761500000000000761500000000000000000000000000000000000000000000070720220 88  ICMS ST PECAS                                                               
FA3000108001000020620220707202200000000000339300000000000339300000000000000000000000000000000000000000000070720220 88  ICMS ST PECAS                                                               
FA3000109141000030620220707202200000000000313000000000000313000000000000000000000000000000000000000000000070720220 88  ICMS ST PECAS                                                               
FA3000109142000030620220707202200000000004326600000000004326600000000000000000000000000000000000000000000070720220 88  ICMS ST PECAS                                                               
FA3000109146000030620220707202200000000005021200000000005021200000000000000000000000000000000000000000000070720220 88  ICMS ST PECAS                                                               
FA3000109147000030620220707202200000000000091000000000000091000000000000000000000000000000000000000000000070720220 88  ICMS ST PECAS                                                               
FA3000109151000030620220707202200000000004634000000000004634000000000000000000000000000000000000000000000070720220 88  ICMS ST PECAS                                                               
FA3000109152000030620220707202200000000001952600000000001952600000000000000000000000000000000000000000000070720220 88  ICMS ST PECAS                                                               
FA3000111522000030620220707202200000000000545500000000000545500000000000000000000000000000000000000000000070720220 88  ICMS ST PECAS                                                               
FA3000110803000030620220707202200000000000187700000000000187700000000000000000000000000000000000000000000070720220 88  ICMS ST PECAS                                                               
FA3000309284000030620220707202200000000019756900000000019756900000000000000000000000000000000000000000000070720220 99  ICMS ST VEICULOS                                                            
FA3000114421000040620220707202200000000000826400000000000826400000000000000000000000000000000000000000000070720220 88  ICMS ST PECAS                                                               
FA3000114354000040620220707202200000000001062900000000001062900000000000000000000000000000000000000000000070720220 88  ICMS ST PECAS                                                               
FA3000114355000040620220707202200000000000867700000000000867700000000000000000000000000000000000000000000070720220 88  ICMS ST PECAS                                                               
FA3000114668000040620220707202200000000000341200000000000341200000000000000000000000000000000000000000000070720220 88  ICMS ST PECAS                                                               
FA3000113738000040620220707202200000000004520100000000004520100000000000000000000000000000000000000000000070720220 88  ICMS ST PECAS                                                               
FA3000117575000060620220707202200000000000030400000000000030400000000000000000000000000000000000000000000070720220 88  ICMS ST PECAS                                                               
FA3000115948000060620220707202200000000006277300000000006277300000000000000000000000000000000000000000000070720220 88  ICMS ST PECAS                                                               
FA3000118300000060620220707202200000000001021100000000001021100000000000000000000000000000000000000000000070720220 88  ICMS ST PECAS                                                               
FA3000118301000060620220707202200000000001798500000000001798500000000000000000000000000000000000000000000070720220 88  ICMS ST PECAS                                                               
FA3000115190000060620220707202200000000001247600000000001247600000000000000000000000000000000000000000000070720220 88  ICMS ST PECAS                                                               
FA3000119178000060620220707202200000000001580100000000001580100000000000000000000000000000000000000000000070720220 88  ICMS ST PECAS                                                               
FA3000119093000060620220707202200000000000123000000000000123000000000000000000000000000000000000000000000070720220 88  ICMS ST PECAS                                                               
FA3000119094000060620220707202200000000000073400000000000073400000000000000000000000000000000000000000000070720220 88  ICMS ST PECAS                                                               
FA3000119095000060620220707202200000000000241100000000000241100000000000000000000000000000000000000000000070720220 88  ICMS ST PECAS                                                               
FA3000119096000060620220707202200000000000072000000000000072000000000000000000000000000000000000000000000070720220 88  ICMS ST PECAS                                                               
FA3000121737000070620220707202200000000000761500000000000761500000000000000000000000000000000000000000000070720220 88  ICMS ST PECAS                                                               
FA3000120138000070620220707202200000000000050600000000000050600000000000000000000000000000000000000000000070720220 88  ICMS ST PECAS                                                               
FA3000120139000070620220707202200000000003937300000000003937300000000000000000000000000000000000000000000070720220 88  ICMS ST PECAS                                                               
FA3000120140000070620220707202200000000000061700000000000061700000000000000000000000000000000000000000000070720220 88  ICMS ST PECAS                                                               
FA3000120726000070620220707202200000000000373300000000000373300000000000000000000000000000000000000000000070720220 88  ICMS ST PECAS                                                               
FA3000120727000070620220707202200000000000058900000000000058900000000000000000000000000000000000000000000070720220 88  ICMS ST PECAS                                                               
FA3000121603000070620220707202200000000000105800000000000105800000000000000000000000000000000000000000000070720220 88  ICMS ST PECAS                                                               
FA3000121604000070620220707202200000000000605800000000000605800000000000000000000000000000000000000000000070720220 88  ICMS ST PECAS                                                               
FA3000123626000070620220707202200000000001220500000000001220500000000000000000000000000000000000000000000070720220 88  ICMS ST PECAS                                                               
FA3000123627000070620220707202200000000000076600000000000076600000000000000000000000000000000000000000000070720220 88  ICMS ST PECAS                                                               
FA3000123625000070620220707202200000000000280600000000000280600000000000000000000000000000000000000000000070720220 88  ICMS ST PECAS                                                               
FA3000128540000080620220707202200000000001061400000000001061400000000000000000000000000000000000000000000070720220 88  ICMS ST PECAS                                                               
FA3000127821000080620220707202200000000000397700000000000397700000000000000000000000000000000000000000000070720220 88  ICMS ST PECAS                                                               
FA3000124322000080620220707202200000000000410700000000000410700000000000000000000000000000000000000000000070720220 88  ICMS ST PECAS                                                               
FA3000125894000080620220707202200000000000761500000000000761500000000000000000000000000000000000000000000070720220 88  ICMS ST PECAS                                                               
FA3000126232000080620220707202200000000001676000000000001676000000000000000000000000000000000000000000000070720220 88  ICMS ST PECAS                                                               
FA3000127589000080620220707202200000000000229300000000000229300000000000000000000000000000000000000000000070720220 88  ICMS ST PECAS                                                               
FA3000127590000080620220707202200000000000565000000000000565000000000000000000000000000000000000000000000070720220 88  ICMS ST PECAS                                                               
FA3000127918000080620220707202200000000000163000000000000163000000000000000000000000000000000000000000000070720220 88  ICMS ST PECAS                                                               
FA3000133070000090620220707202200000000000073400000000000073400000000000000000000000000000000000000000000070720220 88  ICMS ST PECAS                                                               
FA3000133071000090620220707202200000000000049400000000000049400000000000000000000000000000000000000000000070720220 88  ICMS ST PECAS                                                               
FA3000133074000090620220707202200000000000407000000000000407000000000000000000000000000000000000000000000070720220 88  ICMS ST PECAS                                                               
FA3000131386000090620220707202200000000000016700000000000016700000000000000000000000000000000000000000000070720220 88  ICMS ST PECAS                                                               
FA3000131387000090620220707202200000000000013600000000000013600000000000000000000000000000000000000000000070720220 88  ICMS ST PECAS                                                               
FA3000130835000090620220707202200000000001390900000000001390900000000000000000000000000000000000000000000070720220 88  ICMS ST PECAS                                                               
FA3000483269000090620220707202200000000027142600000000027142600000000000000000000000000000000000000000000070720220 99  ICMS ST VEICULOS                                                            
FA3000483094000090620220707202200000000027476500000000027476500000000000000000000000000000000000000000000070720220 99  ICMS ST VEICULOS                                                            
FA3000483140000090620220707202200000000027389100000000027389100000000000000000000000000000000000000000000070720220 99  ICMS ST VEICULOS                                                            
FA3000134591000100620220707202200000000001277500000000001277500000000000000000000000000000000000000000000070720220 88  ICMS ST PECAS                                                               
FA3000134328000100620220707202200000000000637200000000000637200000000000000000000000000000000000000000000070720220 88  ICMS ST PECAS                                                               
FA3000135599000100620220707202200000000001051100000000001051100000000000000000000000000000000000000000000070720220 88  ICMS ST PECAS                                                               
FA3000134420000100620220707202200000000000392000000000000392000000000000000000000000000000000000000000000070720220 88  ICMS ST PECAS                                                               
FA3000135090000100620220707202200000000000891500000000000891500000000000000000000000000000000000000000000070720220 88  ICMS ST PECAS                                                               
FA3000136581000100620220707202200000000000078600000000000078600000000000000000000000000000000000000000000070720220 88  ICMS ST PECAS                                                               
FA3000136585000100620220707202200000000002036600000000002036600000000000000000000000000000000000000000000070720220 88  ICMS ST PECAS                                                               
FA3000136586000100620220707202200000000001361200000000001361200000000000000000000000000000000000000000000070720220 88  ICMS ST PECAS                                                               
FA3000136587000100620220707202200000000000101000000000000101000000000000000000000000000000000000000000000070720220 88  ICMS ST PECAS                                                               
FA3000136588000100620220707202200000000000708500000000000708500000000000000000000000000000000000000000000070720220 88  ICMS ST PECAS                                                               
FA3000137273000100620220707202200000000000163000000000000163000000000000000000000000000000000000000000000070720220 88  ICMS ST PECAS                                                               
FA3000139371000110620220707202200000000000682400000000000682400000000000000000000000000000000000000000000070720220 88  ICMS ST PECAS                                                               
FA3000138175000110620220707202200000000003096800000000003096800000000000000000000000000000000000000000000070720220 88  ICMS ST PECAS                                                               
FA3000138176000110620220707202200000000000857300000000000857300000000000000000000000000000000000000000000070720220 88  ICMS ST PECAS                                                               
FA3000138376000110620220707202200000000000285000000000000285000000000000000000000000000000000000000000000070720220 88  ICMS ST PECAS                                                               
FA3000138399000110620220707202200000000001608800000000001608800000000000000000000000000000000000000000000070720220 88  ICMS ST PECAS                                                               
FA3000143414000130620220707202200000000000620300000000000620300000000000000000000000000000000000000000000070720220 88  ICMS ST PECAS                                                               
FA3000143208000130620220707202200000000000635000000000000635000000000000000000000000000000000000000000000070720220 88  ICMS ST PECAS                                                               
FA3000143209000130620220707202200000000005001300000000005001300000000000000000000000000000000000000000000070720220 88  ICMS ST PECAS                                                               
FA3000143210000130620220707202200000000000077900000000000077900000000000000000000000000000000000000000000070720220 88  ICMS ST PECAS                                                               
FA3000143454000130620220707202200000000000682400000000000682400000000000000000000000000000000000000000000070720220 88  ICMS ST PECAS                                                               
FA3000141071000130620220707202200000000000409300000000000409300000000000000000000000000000000000000000000070720220 88  ICMS ST PECAS                                                               
FA3000141911000130620220707202200000000000702400000000000702400000000000000000000000000000000000000000000070720220 88  ICMS ST PECAS                                                               
FA3000141915000130620220707202200000000003215500000000003215500000000000000000000000000000000000000000000070720220 88  ICMS ST PECAS                                                               
FA3000141916000130620220707202200000000000894100000000000894100000000000000000000000000000000000000000000070720220 88  ICMS ST PECAS                                                               
FA3000140291000130620220707202200000000000083200000000000083200000000000000000000000000000000000000000000070720220 88  ICMS ST PECAS                                                               
FA3000141919000130620220707202200000000000071500000000000071500000000000000000000000000000000000000000000070720220 88  ICMS ST PECAS                                                               
FA3000141608000130620220707202200000000000619600000000000619600000000000000000000000000000000000000000000070720220 88  ICMS ST PECAS                                                               
FA3000140306000130620220707202200000000001697000000000001697000000000000000000000000000000000000000000000070720220 88  ICMS ST PECAS                                                               
FA3000144046000130620220707202200000000001717600000000001717600000000000000000000000000000000000000000000070720220 88  ICMS ST PECAS                                                               
FA3230590     0090620222006202200000000006758300000000006758300000000000000000000000000000000000000000000200620220 DV  ALUGUEL DE SISTEMAS                                                         
FA3757143     0110520222006202200000000003220100000000003070400000000000000000000000000000000000000000000200620220 DZRVFAT. MISCELANEOUS                                                           
FA3756217     0110520222006202200000000005600000000000005339600000000000000000000000000000000000000000000200620220 DZRVFAT. MISCELANEOUS                                                           
FA3757573     0160520222006202200000000007201100000000006758300000000000000000000000000000000000000000000200620220 DZRVFAT. MISCELANEOUS                                                           
FA3758726     0130620222007202200000000005880000000000005606600000000000000000000000000000000000000000000200720220 DZRVFAT. MISCELANEOUS                                                           
FA3759652     0130620222007202200000000012890000000000012097200000000000000000000000000000000000000000000200720220 DZRVFAT. MISCELANEOUS                                                           
FA3759189     0130620222007202200000000005710100000000005444600000000000000000000000000000000000000000000200720220 DZRVFAT. MISCELANEOUS                                                           
FA40000SALDO INICIAL                           000000000013062022C000000007677794DL  BONUS                                   180125828613062022C000000000100000                            040213  
FA49999SALDO FINAL                             000000000013062022C000000007777794                                                                                                          040213  
FAF100000000000126                                                                                                                                                                                 
FCI10050000000000130620220000000000005101225                                                                                                                                                       
FC2DZY. A122513062022000002000000* ARQ.AUTOPART RECEBIDO OK-                 00000000 *                                                                                                            
FCF100000000000003                                                                                                                                                                                 
FCI10050000000000130620220000000000005101225                                                                                                                                                       
FC1000000002000000-PROCESSO DE TS VEIC VENDIDOS     - QUANTIDADE REGISTROS RECEBIDOS        00002                                                                                                  
FC2DZY. B122513062022000006000000** ARQUIVO RECEBIDO OK **                                                                                                                                         
FCF100000000000004                                                                                                                                                                                 
FCI10050000000000130620220000000000005101225                                                                                                                                                       
FC1000000495000000-PROCESSO DE AUTOSERVICE          - QUANTIDADE REGISTROS RECEBIDOS        00495                                                                                                  
FC2DZY. C122513062022000499000000** ARQUIVO RECEBIDO OK **                                                                                                                                         
FCF100000000000004                                                                                                                                                                                 
FCI10050000000000130620220000000000005101225                                                                                                                                                       
FC2DZY. D122513062022000002000000**ARQUIVO NAO PROCESSADO/ARQUIVO VAZIO (SEM REGISTROS DE PROCESSOS)**                                                                                             
FCF100000000000003                                                                                                                                                                                 
FCI10050000000000130620220000000000005101225                                                                                                                                                       
FC1000000334000000-PROCESSO DE AUTOSERVICE          - QUANTIDADE REGISTROS RECEBIDOS        00334                                                                                                  
FC2DZY. E122513062022000338000000** ARQUIVO RECEBIDO OK **                                                                                                                                         
FCF100000000000004                                                                                                                                                                                 
FCI10050000000000130620220000000000005101225                                                                                                                                                       
FC2DZY. F122513062022000002000000**ARQUIVO NAO PROCESSADO/ARQUIVO VAZIO (SEM REGISTROS DE PROCESSOS)**                                                                                             
FCF100000000000003                                                                                                                                                                                 
FPI10000000000000140620220000000000005101225                                                                                                                                                       
F1000001225149099800000000101601914.06.2022                                                                                                                                                110199  
F1001001225149099814029100000000000646813.06.202214030600000000013196913.06.202214107100000000002048213.06.202214160800000000004631513.06.202214191100000000005462213.06.2022              110199  
F1001001225149099814191500000000017137913.06.202214191600000000006952613.06.202214191900000000000556113.06.202214320800000000004868013.06.202214320900000000038421313.06.2022              110199  
F1001001225149099814321000000000000620013.06.202214341400000000004823813.06.202214345400000000005306513.06.202214404600000000013357213.06.2022                                             110199  
FPF100000000000006                                                                                                                                                                                 
FKI10000000000000130620220000000000005101225                                                                                                                                                       
FK20000122513062200010000 A/C CPD E OFICINA  SUB-GERENTE DE ASSISTENCIA TECNICA                                         00000000000                                                        210812  
FK2001000000235207000000216  BAIRRO NAO INFORMADO                                                       CK6041                                                                                     
FK2001072265235045000000LOTE PROCESSADO COM SUCESSO                                                     CK7001                                                                                     
FK2001072271235053000000LOTE PROCESSADO COM SUCESSO                                                     CK7001                                                                                     
FK2001072282235235000000LOTE PROCESSADO COM SUCESSO                                                     CK7001                                                                                     
FK2001072275235210000000LOTE PROCESSADO COM SUCESSO                                                     CK7001                                                                                     
FK2001072266235136000000LOTE PROCESSADO COM SUCESSO                                                     CK7001                                                                                     
FK2001072279235080000000LOTE PROCESSADO COM SUCESSO                                                     CK7001                                                                                     
FK2001072267235100000000LOTE PROCESSADO COM SUCESSO                                                     CK7001                                                                                     
FK2001072286235218000000LOTE PROCESSADO COM SUCESSO                                                     CK7001                                                                                     
FK2001072254235200000000LOTE PROCESSADO COM SUCESSO                                                     CK7001                                                                                     
FK2001072274235222000000LOTE PROCESSADO COM SUCESSO                                                     CK7001                                                                                     
FK2001072255235206000000LOTE PROCESSADO COM SUCESSO                                                     CK7001                                                                                     
FK2001072253235106000000LOTE PROCESSADO COM SUCESSO                                                     CK7001                                                                                     
FK2001072280235217000000LOTE PROCESSADO COM SUCESSO                                                     CK7001                                                                                     
FK2001072278235223000000LOTE PROCESSADO COM SUCESSO                                                     CK7001                                                                                     
FK2001072263235104000000LOTE PROCESSADO COM SUCESSO                                                     CK7001                                                                                     
FK2001072268235072000000LOTE PROCESSADO COM SUCESSO                                                     CK7001                                                                                     
FK2001072283235234000000LOTE PROCESSADO COM SUCESSO                                                     CK7001                                                                                     
FK2001072284235211000000LOTE PROCESSADO COM SUCESSO                                                     CK7001                                                                                     
FK2001072260235209000000LOTE PROCESSADO COM SUCESSO                                                     CK7001                                                                                     
FK2001072262235219000000LOTE PROCESSADO COM SUCESSO                                                     CK7001                                                                                     
FK2001072277235220000000LOTE PROCESSADO COM SUCESSO                                                     CK7001                                                                                     
FK2001072259235186000000LOTE PROCESSADO COM SUCESSO                                                     CK7001                                                                                     
FK2001072276235229000000LOTE PROCESSADO COM SUCESSO                                                     CK7001                                                                                     
FK2001072269235065000000LOTE PROCESSADO COM SUCESSO                                                     CK7001                                                                                     
FK2001072273235040000000LOTE PROCESSADO COM SUCESSO                                                     CK7001                                                                                     
FK2001072285235237000000LOTE PROCESSADO COM SUCESSO                                                     CK7001                                                                                     
FK2001072270235044000000LOTE PROCESSADO COM SUCESSO                                                     CK7001                                                                                     
FK2001072272235037000000LOTE PROCESSADO COM SUCESSO                                                     CK7001                                                                                     
FK2001072257234938000000LOTE PROCESSADO COM SUCESSO                                                     CK7001                                                                                     
FK2001000000234938047898LOTE PROCESSADO COM SUCESSO                                                     CK6011                                                                                     
FK2001000000234938047898LOTE PROCESSADO COM SUCESSO                                                     CK6011                                                                                     
FK2001000000235037000000LOTE PROCESSADO COM SUCESSO                                                     CK6011                                                                                     
FK2001000000235037000000LOTE PROCESSADO COM SUCESSO                                                     CK6011                                                                                     
FK2001000000235040000000LOTE PROCESSADO COM SUCESSO                                                     CK6011                                                                                     
FK2001000000235040000000LOTE PROCESSADO COM SUCESSO                                                     CK6011                                                                                     
FK2001000000235044000000LOTE PROCESSADO COM SUCESSO                                                     CK6011                                                                                     
FK2001000000235045000000LOTE PROCESSADO COM SUCESSO                                                     CK6011                                                                                     
FK2001000000235045000000LOTE PROCESSADO COM SUCESSO                                                     CK6011                                                                                     
FK2001000000235053000000LOTE PROCESSADO COM SUCESSO                                                     CK6011                                                                                     
FK2001000000235065000000LOTE PROCESSADO COM SUCESSO                                                     CK6011                                                                                     
FK2001000000235072000000LOTE PROCESSADO COM SUCESSO                                                     CK6011                                                                                     
FK2001000000235072000000LOTE PROCESSADO COM SUCESSO                                                     CK6011                                                                                     
FK2001000000235100000000LOTE PROCESSADO COM SUCESSO                                                     CK6011                                                                                     
FK2001000000235100000000LOTE PROCESSADO COM SUCESSO                                                     CK6011                                                                                     
FK2001000000235104000000LOTE PROCESSADO COM SUCESSO                                                     CK6011                                                                                     
FK2001000000235104000000LOTE PROCESSADO COM SUCESSO                                                     CK6011                                                                                     
FK2001000000235106048181LOTE PROCESSADO COM SUCESSO                                                     CK6011                                                                                     
FK2001000000235106048181LOTE PROCESSADO COM SUCESSO                                                     CK6011                                                                                     
FK2001000000235134000000LOTE PROCESSADO COM SUCESSO                                                     CK6011                                                                                     
FK2001000000235136000000LOTE PROCESSADO COM SUCESSO                                                     CK6011                                                                                     
FK2001000000235136000000LOTE PROCESSADO COM SUCESSO                                                     CK6011                                                                                     
FK2001000000235184000000LOTE PROCESSADO COM SUCESSO                                                     CK6011                                                                                     
FK2001000000235186048287LOTE PROCESSADO COM SUCESSO                                                     CK6011                                                                                     
FK2001000000235186048287LOTE PROCESSADO COM SUCESSO                                                     CK6011                                                                                     
FK2001000000235200048302LOTE PROCESSADO COM SUCESSO                                                     CK6011                                                                                     
FK2001000000235200048302LOTE PROCESSADO COM SUCESSO                                                     CK6011                                                                                     
FK2001000000235206000000LOTE PROCESSADO COM SUCESSO                                                     CK6011                                                                                     
FK2001000000235209000000LOTE PROCESSADO COM SUCESSO                                                     CK6011                                                                                     
FK2001000000235209000000LOTE PROCESSADO COM SUCESSO                                                     CK6011                                                                                     
FK2001000000235210000000LOTE PROCESSADO COM SUCESSO                                                     CK6011                                                                                     
FK2001000000235210000000LOTE PROCESSADO COM SUCESSO                                                     CK6011                                                                                     
FK2001000000235219000000LOTE PROCESSADO COM SUCESSO                                                     CK6011                                                                                     
FK2001000000235220000000LOTE PROCESSADO COM SUCESSO                                                     CK6011                                                                                     
FK2001000000235207000000220  MUNICIPIO NAO INFORMADO                                                    CK6042                                                                                     
FK2001000000235222000000LOTE PROCESSADO COM SUCESSO                                                     CK6011                                                                                     
FK2001000000235222000000LOTE PROCESSADO COM SUCESSO                                                     CK6011                                                                                     
FK2001000000235223048326LOTE PROCESSADO COM SUCESSO                                                     CK6011                                                                                     
FK2001000000235223048326LOTE PROCESSADO COM SUCESSO                                                     CK6011                                                                                     
FK2001000000235229000000LOTE PROCESSADO COM SUCESSO                                                     CK6011                                                                                     
FK2001000000235229000000LOTE PROCESSADO COM SUCESSO                                                     CK6011                                                                                     
FK2001000000234989048006LOTE PROCESSADO COM SUCESSO                                                     CK6011                                                                                     
FK2001000000235084000000LOTE PROCESSADO COM SUCESSO                                                     CK6011                                                                                     
FK2001000000235123000000LOTE PROCESSADO COM SUCESSO                                                     CK6011                                                                                     
FK2001000000235136000000LOTE PROCESSADO COM SUCESSO                                                     CK6011                                                                                     
FK2001000000235158000000LOTE PROCESSADO COM SUCESSO                                                     CK6011                                                                                     
FK2001000000235159000000LOTE PROCESSADO COM SUCESSO                                                     CK6011                                                                                     
FK2001000000235189000000LOTE PROCESSADO COM SUCESSO                                                     CK6011                                                                                     
FK2001000000235195000000LOTE PROCESSADO COM SUCESSO                                                     CK6011                                                                                     
FK2001000000235080000000LOTE PROCESSADO COM SUCESSO                                                     CK6011                                                                                     
FK2001000000235080000000LOTE PROCESSADO COM SUCESSO                                                     CK6011                                                                                     
FK2001000000235211048314LOTE PROCESSADO COM SUCESSO                                                     CK6011                                                                                     
FK2001000000235211048314LOTE PROCESSADO COM SUCESSO                                                     CK6011                                                                                     
FK2001000000235217000000LOTE PROCESSADO COM SUCESSO                                                     CK6011                                                                                     
FK2001000000235217000000LOTE PROCESSADO COM SUCESSO                                                     CK6011                                                                                     
FK2001000000235218000000LOTE PROCESSADO COM SUCESSO                                                     CK6011                                                                                     
FK2001000000235218000000LOTE PROCESSADO COM SUCESSO                                                     CK6011                                                                                     
FK2001000000235234000000LOTE PROCESSADO COM SUCESSO                                                     CK6011                                                                                     
FK2001000000235234000000LOTE PROCESSADO COM SUCESSO                                                     CK6011                                                                                     
FK2001000000235235048340LOTE PROCESSADO COM SUCESSO                                                     CK6011                                                                                     
FK2001000000235235048340LOTE PROCESSADO COM SUCESSO                                                     CK6011                                                                                     
FK2001000000235237000000LOTE PROCESSADO COM SUCESSO                                                     CK6011                                                                                     
FK2001000000235237000000LOTE PROCESSADO COM SUCESSO                                                     CK6011                                                                                     
FK2001000000235018000000LOTE PROCESSADO COM SUCESSO                                                     CK6011                                                                                     
FK2001000000235109000000LOTE PROCESSADO COM SUCESSO                                                     CK6011                                                                                     
FK2001000000235207000000221  UF NAO INFORMADA                                                           CK6042                                                                                     
FK2001000000235207000000214  ENDERECO NAO INFORMADO                                                     CK6041                                                                                     
FK2001000000235207000000216  BAIRRO NAO INFORMADO                                                       CK6041                                                                                     
FK2001000000235207000000220  MUNICIPIO NAO INFORMADO                                                    CK6042                                                                                     
FK2001000000235207000000221  UF NAO INFORMADA                                                           CK6042                                                                                     
FK2001000000235148048221214  ENDERECO NAO INFORMADO                                                     CK6041                                                                                     
FK2001000000235148048221216  BAIRRO NAO INFORMADO                                                       CK6041                                                                                     
FK2001000000235148048221220  MUNICIPIO NAO INFORMADO                                                    CK6042                                                                                     
FK2001000000235148048221221  UF NAO INFORMADA                                                           CK6042                                                                                     
FK2001000000235148048221214  ENDERECO NAO INFORMADO                                                     CK6041                                                                                     
FK2001000000235148048221216  BAIRRO NAO INFORMADO                                                       CK6041                                                                                     
FK2001000000235148048221220  MUNICIPIO NAO INFORMADO                                                    CK6042                                                                                     
FK2001000000235148048221221  UF NAO INFORMADA                                                           CK6042                                                                                     
FK2001000000235201000000214  ENDERECO NAO INFORMADO                                                     CK6041                                                                                     
FK2001072281235148000000                                                                                                                                                                           
FK2001072281235148000000240  BAIRRO NAO INFORMADO - CK7002                                              CK7002                                                                                     
FK2001072256235207000000241  MUNICIPIO NAO INFORMADO - CK7002                                           CK7002                                                                                     
FK2001072256235207000000242  UF NAO INFORMADO - CK7002                                                  CK7002                                                                                     
FK2001072256235207000000                                                                                                                                                                           
FK2001072281235148000000241  MUNICIPIO NAO INFORMADO - CK7002                                           CK7002                                                                                     
FK2001072281235148000000242  UF NAO INFORMADO - CK7002                                                  CK7002                                                                                     
FK2001072256235207000000240  BAIRRO NAO INFORMADO - CK7002                                              CK7002                                                                                     
FK2001000000235201000000216  BAIRRO NAO INFORMADO                                                       CK6041                                                                                     
FK2001000000235201000000220  MUNICIPIO NAO INFORMADO                                                    CK6042                                                                                     
FK2001000000235201000000221  UF NAO INFORMADA                                                           CK6042                                                                                     
FK2001000000235201000000214  ENDERECO NAO INFORMADO                                                     CK6041                                                                                     
FK2001000000235201000000216  BAIRRO NAO INFORMADO                                                       CK6041                                                                                     
FK2001000000235201000000220  MUNICIPIO NAO INFORMADO                                                    CK6042                                                                                     
FK2001000000235201000000221  UF NAO INFORMADA                                                           CK6042                                                                                     
FK2001000000235207000000214  ENDERECO NAO INFORMADO                                                     CK6041                                                                                     
FK2001261124235148000000241  MUNICIPIO NAO INFORMADO - CK7002                                           CK7002                                                                                     
FK2001261108235045000000LOTE PROCESSADO COM SUCESSO                                                     CK7001                                                                                     
FK2001261131235235000000LOTE PROCESSADO COM SUCESSO                                                     CK7001                                                                                     
FK2001261140235237000000LOTE PROCESSADO COM SUCESSO                                                     CK7001                                                                                     
FK2001261093234938000000LOTE PROCESSADO COM SUCESSO                                                     CK7001                                                                                     
FK2001261111235072000000LOTE PROCESSADO COM SUCESSO                                                     CK7001                                                                                     
FK2001261141235218000000LOTE PROCESSADO COM SUCESSO                                                     CK7001                                                                                     
FK2001261118235222000000LOTE PROCESSADO COM SUCESSO                                                     CK7001                                                                                     
FK2001261119235210000000LOTE PROCESSADO COM SUCESSO                                                     CK7001                                                                                     
FK2001261109235136000000LOTE PROCESSADO COM SUCESSO                                                     CK7001                                                                                     
FK2001261122235080000000LOTE PROCESSADO COM SUCESSO                                                     CK7001                                                                                     
FK2001261106235104000000LOTE PROCESSADO COM SUCESSO                                                     CK7001                                                                                     
FK2001261123235217000000LOTE PROCESSADO COM SUCESSO                                                     CK7001                                                                                     
FK2001261121235223000000LOTE PROCESSADO COM SUCESSO                                                     CK7001                                                                                     
FK2001261095235186000000LOTE PROCESSADO COM SUCESSO                                                     CK7001                                                                                     
FK2001261086235200000000LOTE PROCESSADO COM SUCESSO                                                     CK7001                                                                                     
FK2001261110235100000000LOTE PROCESSADO COM SUCESSO                                                     CK7001                                                                                     
FK2001261134235234000000LOTE PROCESSADO COM SUCESSO                                                     CK7001                                                                                     
FK2001261139235211000000LOTE PROCESSADO COM SUCESSO                                                     CK7001                                                                                     
FK2001261096235209000000LOTE PROCESSADO COM SUCESSO                                                     CK7001                                                                                     
FK2001261104235184000000LOTE PROCESSADO COM SUCESSO                                                     CK7001                                                                                     
FK2001261120235229000000LOTE PROCESSADO COM SUCESSO                                                     CK7001                                                                                     
FK2001261080235106000000LOTE PROCESSADO COM SUCESSO                                                     CK7001                                                                                     
FK2001261103235134000000LOTE PROCESSADO COM SUCESSO                                                     CK7001                                                                                     
FK2001261113235037000000LOTE PROCESSADO COM SUCESSO                                                     CK7001                                                                                     
FK2001261114235040000000LOTE PROCESSADO COM SUCESSO                                                     CK7001                                                                                     
FK2001261124235148000000242  UF NAO INFORMADO - CK7002                                                  CK7002                                                                                     
FK2001261081000000000000LOTE PROCESSADO COM SUCESSO                                                     CK3001                                                                                     
FK2001261082000000000000LOTE PROCESSADO COM SUCESSO                                                     CK3001                                                                                     
FK2001261084000000000000LOTE PROCESSADO COM SUCESSO                                                     CK3001                                                                                     
FK2001261085000000000000LOTE PROCESSADO COM SUCESSO                                                     CK3001                                                                                     
FK2001261087000000000000LOTE PROCESSADO COM SUCESSO                                                     CK3001                                                                                     
FK2001261088000000000000LOTE PROCESSADO COM SUCESSO                                                     CK3001                                                                                     
FK2001261092000000000000LOTE PROCESSADO COM SUCESSO                                                     CK3001                                                                                     
FK2001261094000000000000LOTE PROCESSADO COM SUCESSO                                                     CK3001                                                                                     
FK2001261098000000000000LOTE PROCESSADO COM SUCESSO                                                     CK3001                                                                                     
FK2001261099000000000000LOTE PROCESSADO COM SUCESSO                                                     CK3001                                                                                     
FK2001261101000000000000LOTE PROCESSADO COM SUCESSO                                                     CK3001                                                                                     
FK2001261102000000000000LOTE PROCESSADO COM SUCESSO                                                     CK3001                                                                                     
FK2001261105000000000000LOTE PROCESSADO COM SUCESSO                                                     CK3001                                                                                     
FK2001261115000000000000LOTE PROCESSADO COM SUCESSO                                                     CK3001                                                                                     
FK2001261117000000000000LOTE PROCESSADO COM SUCESSO                                                     CK3001                                                                                     
FK2001261125000000000000LOTE PROCESSADO COM SUCESSO                                                     CK3001                                                                                     
FK2001261126000000000000LOTE PROCESSADO COM SUCESSO                                                     CK3001                                                                                     
FK2001261127000000000000LOTE PROCESSADO COM SUCESSO                                                     CK3001                                                                                     
FK2001261128000000000000LOTE PROCESSADO COM SUCESSO                                                     CK3001                                                                                     
FK2001261129000000000000LOTE PROCESSADO COM SUCESSO                                                     CK3001                                                                                     
FK2001261130000000000000LOTE PROCESSADO COM SUCESSO                                                     CK3001                                                                                     
FK2001261132000000000000LOTE PROCESSADO COM SUCESSO                                                     CK3001                                                                                     
FK2001261133000000000000LOTE PROCESSADO COM SUCESSO                                                     CK3001                                                                                     
FK2001261135000000000000LOTE PROCESSADO COM SUCESSO                                                     CK3001                                                                                     
FK2001261136000000000000LOTE PROCESSADO COM SUCESSO                                                     CK3001                                                                                     
FK2001261137000000000000LOTE PROCESSADO COM SUCESSO                                                     CK3001                                                                                     
FK2001261138000000000000LOTE PROCESSADO COM SUCESSO                                                     CK3001                                                                                     
FK2001261124235148000000                                                                                                                                                                           
FK2001261124235148000000240  BAIRRO NAO INFORMADO - CK7002                                              CK7002                                                                                     
FK2001261089235207000000                                                                                                                                                                           
FK2001261089235207000000240  BAIRRO NAO INFORMADO - CK7002                                              CK7002                                                                                     
FK2001261089235207000000241  MUNICIPIO NAO INFORMADO - CK7002                                           CK7002                                                                                     
FK2001261089235207000000242  UF NAO INFORMADO - CK7002                                                  CK7002                                                                                     
FK2001261107235201000000241  MUNICIPIO NAO INFORMADO - CK7002                                           CK7002                                                                                     
FK2001261107235201000000242  UF NAO INFORMADO - CK7002                                                  CK7002                                                                                     
FK2001261107235201000000                                                                                                                                                                           
FK2001261107235201000000240  BAIRRO NAO INFORMADO - CK7002                                              CK7002                                                                                     
FKF000000000000192                                                                                                                                                                                 
FAI10000000000000140620220000000000005101225                                                                                                                                                       
FNT00001225SERVOPA S.A. COMERCIO E IR.LEOPOLDO GUIMARAES DA CUNHA, 233      PONTA GROSSA        OFICINAS                      PR84035-31                                                   101202  
FNT01CVOLKSWAGEN DO BRASIL LTDA59.104.422/0001-50ISENTO            ESTRADA MARGINAL DA VIA ANCHIETA                  2582861801130622130622RENATO VINICIUS FINETTO  1901           0000            
FNT02VALOR QUE CREDITAMOS EM SEU CONTA CORRENTE REFERENTE A DESCONTOS                                                                                                                              
FNT02CONCEDIDOS A POSTERIORI, CONFORME SEGUE EM CASO DE DUVIDAS, CONTATAR                                                                                                                          
FNT02SEMPRE O SEU REGIONAL                                                                                                                                                                         
FNT02          T O T A L  D O  C R E D I T O        1000.00                                                                                                                                        
FNT022022JUN01301                                                                                                                                                                                  
FNT02BF1                                                                                                                                                                                           
FNT02N.FISCAL = 481064 - EMISSAO = 30/05/22                                                                                                                                                        
FNT02CHASSI DO VEICULO = 9BWBJ6BF1N4053399 DT. VAREJO                                                                                                                                              
FNT02 = 10/06/22 JUN/22/13/TCROSS HGL MY21 MY22 NAC 1                                                                                                                                              
FNT02SEQ. BONUS = 01                                                                                                                                                                               
FNT02          TOTAL LIQUIDO              1000.00                                                                                                                                                  
FNT02          VOLKSWAGEN - VAI MAIS LONGE POR VOCE                                                                                                                                                
FNT02          EM CASO DE DUVIDAS, FAVOR CONTATAR O EMITENTE                                                                                                                                       
FAF100000000000017                                                                                                                                                                                 
FHF000000000000489                                                                                                                                                                                 
