FHI00000000000000140620220000000000005104773         00                                                                                                                                            
FPI10000000000000130620220000000000005104773                                                                                                                                                       
FP95184229031006         351112501306202215072022 2W0/  301338/A /   MOLA         7320201000097500000000514000000006330000000527500000030000001000503472101000000      000000000000005XEDC8011102  
FP95184229031006         351112501306202215072022 2W0/  311372/C /   ROLAMENTO    8482501000078000000000513000000007890000000657700000010000028000503472101000000      000000000000005XEDC8011102  
FP95184229031006         351112501306202215072022 2W0/  398003/  /   ROLAMENTO    8482501000078000000001464000000022520000001876700000010000265000503472101000000      000000000000005XEDC8011102  
FP95184229031006         351112501306202215072022 2W0/  311511/A /   ESPACADOR    7318290000065000000000595000000010980000000915300000010000017000503472101000000      000000000000005XEDC8011102  
FP95184229031006         351112501306202215072022 2Z0/  311799/  /   ANEL         4016930000052000000000042000000000970000000080600000010000002000503472101000000      000000000000005XEDC8011102  
FP95184229031006         351112501306202215072022 2W0/  711862/C /   PARAFUSO     7318150000065000000000688000000012710000001059200000020000077000503472101000000      000000000000005XEDC8011102  
FP95184229031006         351112501306202215072022 2W0/  398041/  /   ROLAMENTO    8482201000078000000003095000000047610000003967900000010000587000503472101000000      000000000000005XEDC8011102  
FP95184229031006         351112501306202215072022 2W0/  311372/E /   ROLAMENTO    8482501000078000000000337000000005180000000431700000010000050000503472101000000      000000000000005XEDC8011102  
FP95184229031006         351112501306202215072022 2W0/  398003/A /   ROLAMENTO    8482501000078000000001212000000018640000001553400000010000190000503472101000000      000000000000005XEDC8011102  
FP95184229031006         351112501306202215072022 2W0/  311965/  /   ROLAMENTO    8482101000078000000002521000000038790000003232300000010000458000503772401000000      000000000000005XEDC8011102  
FP95184229031006         351112511306202215072022 2P0/  301803/A /   TAMPA        8708409000032500000000425000000015690000001307600000010000890000503159001000000      000000000000005XEDC8011102  
FP95184229031006         351112511306202215072022 2W0/  311944/  /   ANEL         8708999000032500000000127000000004700000000391900000010000025000503472101000000      000000000000005XEDC8011102  
FP95184229031006         351112511306202215072022 2W0/  311295/E /   ANEL         8708409000032500000000963000000035540000002961700000020000270000503472101000000      000000000000005XEDC8011102  
FP95184229031006         351114791306202215072022 2RD/  899469/  /   haste        8302300000065000000000264000000004870000000405500000010000005000501447901000000      000000000000005XEDC8011102  
FP95184292031006         351114791306202215072022 2T0/  398101/  /   JG.PECAS     8708409000032500000000621000000022930000001910500000010000175000502407801000000      000000000000005XEDC8011102  
FP95184229031006         351114801306202215072022 2W0/  311944/B /   ARRUELA      7318220000065000000000121000000002230000000186200000100000005000503872501000000      000000000000005XEDC8011102  
FPF100000000000018                                                                                                                                                                                 
FPI10000000000000130620220000000000005104773                                                                                                                                                       
FP95181219010806         052108191306202213062022 TE3/  103119/  /   ANEL         74152100000000000000000000000000000000000003840000002000020000000000000000000005X358B43201151001001      011102  
FP95181219010806         052108191306202213062022 2Z0/  145367/F /   TUBO         84149039000000000000000000000000000000000009862000000101100000000000000000000005X358B43201151001001      011102  
FP9518438101100622       052107831306202213062022 2S0/  105701/  /   CASQUILHO    84833029000000000000000000000000000000000030209000000118300000000000000000000005X358B43201151001001      011102  
FP9518438101100622       052107831306202213062022 2R0/  145299/  /   TENSOR       84839000000000000000000000000000000000000107914000000210850000000000000000000005X358B43201151001001      011102  
FP9518438101100622       052107831306202213062022 2T2/  109309/  /   TUCHO        84099999000000000000000000000002744100000152448000001202400000000000000000000005X358B43201151001001      011102  
FP9518438101100622       052107831306202213062022 2T2/  198011/A /   JG.VEDACAO   84849000000000000000000000000000000000000075139000000113100000000000000000000005X358B43201151001001      011102  
FP9518438101100622       052107831306202213062022 2R0/  906433/  /   SENSOR       90268000000000000000000000000000432700000024038000000100500000000000000000000005X358B43201151001001      011102  
FP9518438101100622       052107831306202213062022 2T2/  130085/F /   TUBO         84099999000000000000000000000000000000000028328000000100750000000000000000000005X358B43201151001001      011102  
FP9518438101100622       052107831306202213062022 TRA/  105275/  /   COROA DENT   84834090000000000000000000000000000000000033551000000120300000000000000000000005X358B43201151001001      011102  
FPF100000000000011                                                                                                                                                                                 
FPI00000000000000130620220000000000005104773                                                                                                                                                       
FP5518647101761629       1306202213062022 2P0/  711118/  /   00000010000001                     00000000000000                     00000000000000                                          220800  
FP6508758701160322       16032022 2P0/  698139/  /   000000100000003178                    000000000000000000                    000000000000000000B                                               
FP6509897701250322       25032022 23B/  927748/A /   000000100000020954                    000000000000000000                    000000000000000000B                                               
FP6510188101290322       29032022 2T2/  198149/  /   000000100000230613 TAU/  413031/  /   000000100000061072                    000000000000000000B                                               
FP6510656301010422       01042022 2R2/  899541/  /   000001000000002181 2R2/  899542/  /   000001000000007359                    000000000000000000B                                               
FP65106684010104         01042022 2R0/  415801/A /   000000100000057059                    000000000000000000                    000000000000000000B                                               
FP6510687101 010422      01042022 23B/  415801/  /   000000100000095586 2T0/  721405/  /   000000100000034765 2T2/  861709/A /   000000100000018928B                                               
FP6510687101 010422      01042022 2V5/  121103/H /   000000100000008776                    000000000000000000                    000000000000000000B                                               
FP6510781101040422       04042022 2V5/  915105/B /   000000200000105610 2R2/  805025/  /   000000100000196052                    000000000000000000B                                               
FP65110202010504         05042022 2T2/  861709/A /   000000100000018928                    000000000000000000                    000000000000000000B                                               
FP6511294201704          07042022   N/  106451/02/   000000800000003516 2P0/  821106/  /   000000100000136252 2S0/  907156/F /   000000100000179653B                                               
FP6511294201704          07042022 2V5/  947171/C /   000000200000004508 TAU/  413031/  /   000000100000061072                    000000000000000000B                                               
FP6511458701080422       08042022 23B/  899541/A /   000000200000006003                    000000000000000000                    000000000000000000B                                               
FP65114709010804         08042022 2R2/  819703/  /82V000000200000006801                    000000000000000000                    000000000000000000B                                               
FP6511634601110422       11042022 2S2/  711266/B /   000000100000065486 2S2/  711267/B /   000000100000082447 2V5/  947171/C /   000000200000004508B                                               
FP6512346601190422       19042022 2R2/  805025/  /   000000100000196052   N/  106451/02/   000000800000003516                    000000000000000000B                                               
FP65125287012004         20042022   N/  106451/02/   000000800000003516 07W/  103035/  /   000001000000003797                    000000000000000000B                                               
FP65128357032504         25042022 2V2/  919670/  /   000000100000178581                    000000000000000000                    000000000000000000B                                               
FP6512905501260422       26042022 2R0/  906261/  /   000000200000045446                    000000000000000000                    000000000000000000B                                               
FP6512973001260422       26042022 23B/  953501/A /9B9000000100000050178                    000000000000000000                    000000000000000000B                                               
FP6512995901260422       26042022 2TB/  941534/  /   000000100000021136 5Z0/  959856/A /1NN000000200000002770                    000000000000000000B                                               
FP6513322001280422       28042022 2T2/  311243/A /   000000200000043048                    000000000000000000                    000000000000000000B                                               
FP6513688301205          02052022 5Z0/  959856/A /1NN000000600000002770 2V5/  857502/B /   000000100000139263 2S2/  711266/B /   000000100000062284B                                               
FP6513688301205          02052022 2S2/  198149/A /   000000100000241243 2R2/  853601/A /   000000100000012461 2R0/  145805/G /   000000100000131564B                                               
FP6513688301205          02052022 2P0/  501291/A /   000000100000015062 07W/  121011/A /   000000100000057674 07W/  105701/A /   000000400000003851B                                               
FP6513688301205          02052022 07W/  103035/  /   000003500000003797                    000000000000000000                    000000000000000000B                                               
FP65138264010322         03052022 23B/  927748/A /   000000100000020954                    000000000000000000                    000000000000000000B                                               
FP6513997601040522       04052022 23B/  837203/  /   000000200000009519                    000000000000000000                    000000000000000000B                                               
FP651413510150522        05052022 5Z0/  959856/A /1NN000001000000002770 2V5/  103181/  /   000000100000039597 2TB/  941534/  /   000000100000021136B                                               
FP651413510150522        05052022 2T2/  253097/A /   000000100000049017 23B/  927748/A /   000000100000020954 23B/  899541/A /   000000200000006003B                                               
FP6514270901060522       06052022 2R2/  853601/A /   000000100000012461                    000000000000000000                    000000000000000000B                                               
FP651460000110522        10052022 07W/  103511/  /   000000600000003421 23B/  857521/A /   000000500000009829 2S2/  711267/B /   000000100000082447B                                               
FP651460000110522        10052022 2S2/  853685/  /   000000200000007282 2S2/  907156/E /   000000100000119980 2T2/  198149/  /   000000200000230614B                                               
FP651460000110522        10052022 5Z0/  959856/A /1NN000000300000002770                    000000000000000000                    000000000000000000B                                               
FP6514602901100522       10052022 2T2/  198149/A /   000000100000267017                    000000000000000000                    000000000000000000B                                               
FP65149400011205         12052022 5Z0/  959856/A /1NN000000300000002770                    000000000000000000                    000000000000000000B                                               
FP65149577011205         12052022 23B/  959493/A /   000000100000006602                    000000000000000000                    000000000000000000B                                               
FP651496740112062        12052022 2R2/  853601/A /   000000100000012461                    000000000000000000                    000000000000000000B                                               
FP65150946011305         13052022 23B/  858217/  /NA2000000100000004224 2P0/  821106/  /   000000100000136252                    000000000000000000B                                               
FP65152963011605         16052022 2R0/  906261/  /   000000200000045446 5Z0/  959856/A /1NN000000400000002770                    000000000000000000B                                               
FP65154994011705         17052022 2S2/  907247/C /   000000200000041581                    000000000000000000                    000000000000000000B                                               
FP65156599011805         18052022 2T2/  311243/A /   000000100000043047                    000000000000000000                    000000000000000000B                                               
FP65156790031805         18052022 JNV/  121071/AQ/   000000100000085611                    000000000000000000                    000000000000000000B                                               
FP65158061011905         19052022 07W/  903137/  /   000000200000009639 23B/  857521/A /   000000200000009829 2T2/  265357/B /   000000100000004052B                                               
FP65158061011905         19052022 2V5/  103181/  /   000000100000039597                    000000000000000000                    000000000000000000B                                               
FP6516168701230522       23052022 23B/  820423/  /   000000100000047093 2R2/  899541/  /   000001000000002181                    000000000000000000B                                               
FP65163228012405         24052022 07W/  130758/H /   000000100000031411 2V3/  915089/  /   000000200000182809                    000000000000000000B                                               
FP6516664803260522       26052022 2R2/  953513/  /   000000100000078097                    000000000000000000                    000000000000000000B                                               
FP65168230012705         27052022 2T2/  115308/C /   000000100000013243                    000000000000000000                    000000000000000000B                                               
FP65172872030106         01062022 2P0/  907156/H /   000000100000202768                    000000000000000000                    000000000000000000B                                               
FP651734890301062        01062022 2S2/  920808/B /   000000100000136414                    000000000000000000                    000000000000000000B                                               
FP651737270110622        01062022 6Q0/  959858/A /9B9000002400000005772 2V5/  947171/C /   000000400000004507 2V5/  947171/A /   000001000000000534B                                               
FP651737270110622        01062022 2V5/  915105/B /   000000200000100447 2V5/  857502/B /   000000100000139263 2V2/  919670/  /   000000100000178581B                                               
FP651737270110622        01062022 2TB/  941534/  /   000000100000021136 2T4/  861711/A /   000000100000025032 2T2/  253097/A /   000000100000049017B                                               
FP651737270110622        01062022 2T2/  198149/  /   000000200000230614 2S0/  800375/B /   000000100000056564 2R2/  955326/  /   000000100000007963B                                               
FP651737270110622        01062022 2P0/  121103/H /   000000100000010260 23B/  820423/  /   000000100000047093 23B/  601163/A /   000000100000003183B                                               
FP651737270110622        01062022   N/  106451/02/   000001000000003516                    000000000000000000                    000000000000000000B                                               
FP6517668701306          03062022 07W/  121011/A /   000000100000060352 2P0/  501317/A /   000000200000021897 2R0/  407673/A /   000000200000016579B                                               
FP6517668701306          03062022 2R2/  955326/  /   000000200000007962                    000000000000000000                    000000000000000000B                                               
FP6517924801706          07062022 2T2/  711118/C /1NN000000100000035640 2P0/  501291/A /   000000100000015062 07W/  109177/C /   000003000000000513B                                               
FP6518000403070622       07062022 2S0/  907156/F /   000000100000179653                    000000000000000000                    000000000000000000B                                               
FP6518114601806          08062022   N/  106451/02/   000001200000003516 07W/  130758/  /   000000400000017701 23B/  941206/  /   000000100000058264B                                               
FP6518114601806          08062022 2T2/  121402/  /   000000100000033260 2T2/  323174/A /   000000100000007343                    000000000000000000B                                               
FP6518268801906          09062022 2P0/  711118/  /   000000100000014263 2R2/  899541/  /   000002000000002181 2S2/  857161/  /   000000100000004855B                                               
FP6518268801906          09062022 2T2/  121402/  /   000000100000033260 2T2/  265357/B /   000000200000004052 2V3/  915089/  /   000000100000182808B                                               
FP65184229031006         10062022 2W0/  311565/B /   000000100000017163 2W0/  301116/  /   000000100000219364                    000000000000000000B                                               
FP6518432201106          10062022 2V3/  819045/A /   000000100000114932                    000000000000000000                    000000000000000000B                                               
FP65184360011006         10062022 07W/  103601/J /   000000100000215123 23B/  857521/B /   000000100000012615 2R2/  881371/  /   000000100000016189B                                               
FP65184360011006         10062022 2V2/  919670/  /   000000100000178581                    000000000000000000                    000000000000000000B                                               
FP6518647101761629       13062022 2P0/  711118/  /   000000100000014263                    000000000000000000                    000000000000000000B                                               
FP7507417601030322       03032022 2U2/  198567/A /   000003000000025746                    000000000000000000                    000000000000000000                                                
FP7507419401030322       03032022 2P0/  103601/C /   000000100000098728                    000000000000000000                    000000000000000000                                                
FP7507452401040322       04032022 2P0/  103601/C /   000000100000098728                    000000000000000000                    000000000000000000                                                
FP7510092001PED.INICIAL D28032022 23C/  198012/  /   000000100000047976 23C/  145299/  /   000000200000025680 23C/  253143/B /   000000100000007846                                                
FP7510092001PED.INICIAL D28032022 23C/  903015/C /   000000100000108495 23C/  903137/A /   000000200000011518 23C/  130758/  /   000000100000093882                                                
FP7510092001PED.INICIAL D28032022 23C/  130201/  /   000000100000247459 23C/  127023/  /   000000100000081390 23C/  121114/  /   000000200000026021                                                
FP7510092001PED.INICIAL D28032022 23C/  121091/  /   000000200000001622 23C/  903137/B /   000000200000013469 23C/  903165/  /   000000200000014301                                                
FP7510092001PED.INICIAL D28032022 23C/  906041/  /   000000100000022287 23C/  906041/A /   000000100000031837 23C/  906051/  /   000000100000017689                                                
FP7510092001PED.INICIAL D28032022 23C/  906051/B /   000000100000008114 23C/  906051/C /   000000100000007271 23C/  906051/D /   000000100000005578                                                
FP7510092001PED.INICIAL D28032022 23C/  906051/E /   000000200000003436 23C/  919501/  /   000000100000004184 23C/  121011/  /   000000100000040925                                                
FP7510092001PED.INICIAL D28032022 23C/  115441/  /   000000100000001858 23C/  115403/  /   000000500000009805 23C/  115230/A /   000000100000086596                                                
FP7510092001PED.INICIAL D28032022 23C/  115230/  /   000000100000060494 23C/  115130/A /   000000100000025935 23C/  115130/  /   000000400000038612                                                
FP7510092001PED.INICIAL D28032022 23C/  115124/B /   000000100000019219 23C/  115105/  /   000000100000083302 23C/  109293/B /   000000100000004166                                                
FP7510092001PED.INICIAL D28032022 23C/  109293/A /   000000100000004042 23C/  109139/  /   000000100000010272 23C/  103609/  /   000000200000010784                                                
FP7510092001PED.INICIAL D28032022 23C/  103523/  /   000000200000015221 23C/  103487/  /   000000200000005135 23C/  103485/  /   000000100000005043                                                
FP7510092001PED.INICIAL D28032022 23C/  103196/  /   000000500000000229 23C/  103181/A /   000000200000009958 23C/  103181/  /   000000200000004369                                                
FP7510092001PED.INICIAL D28032022 23B/  201257/  /   000000100000046893                    000000000000000000                    000000000000000000                                                
FP7511458701080422       08042022 07W/  906529/B /   000000100000040923                    000000000000000000                    000000000000000000                                                
FP75125287012004         20042022 07W/  906529/B /   000000100000040923                    000000000000000000                    000000000000000000                                                
FP7513688301205          02052022 2P0/  103601/C /   000000100000093514                    000000000000000000                    000000000000000000                                                
FP7513705001020522       02052022 23B/  103601/A /   000000100000146648 2P0/  103601/C /   000000100000093514                    000000000000000000                                                
FP7514123301050522       05052022 2P0/  130105/  /   000000100000331824                    000000000000000000                    000000000000000000                                                
FP7514149701050522       05052022   G/  052809/Q2/   000000200000139257   G/  052829/Q2/   000000800000042166                    000000000000000000                                                
FP7514221901060522       06052022 2U2/  198567/A /   000003000000025746                    000000000000000000                    000000000000000000                                                
FP75142440010605         06052022 APC/  052812/A0/   000012000000002457                    000000000000000000                    000000000000000000                                                
FP75149400011205         12052022 07W/  906529/B /   000000100000037149                    000000000000000000                    000000000000000000                                                
FP7517377901106222       01062022 2Z0/  906051/  /   000000200000010483                    000000000000000000                    000000000000000000                                                
FP75173826010106222      01062022 23B/  311269/A /   000000100000039686 2S0/  141305/B /   000000100000023793 2S2/  301463/A /   000000100000002945                                                
FP75173826010106222      01062022 2Z0/  301431/A /   000000500000001327 JZV/  198149/C /   000000100000196268 JZV/  198149/D /   000000300000198231                                                
FP7517668701306          03062022 2P0/  721405/  /   000000100000017626                    000000000000000000                    000000000000000000                                                
FP75178521010622         06062022 23B/  115403/  /   000001200000016732 2T2/  201733/  /   000000300000020235                    000000000000000000                                                
FP751785500106222        06062022 2S0/  698075/N /   000004200000012927 2R0/  698075/J /   000002800000008896                    000000000000000000                                                
FP7517924801706          07062022 JZV/  198149/B /   000000100000134880                    000000000000000000                    000000000000000000                                                
FP75182780010906         09062022 23B/  311540/  /   000000100000040027 2P0/  311613/  /   000000100000002950 2RG/  311287/  /   000000100000009860                                                
FP75182780010906         09062022 2S2/  301463/A /   000000100000002945 2S2/  311540/B /   000000100000051055 2S2/  311541/C /   000000100000021049                                                
FP75182780010906         09062022 APC/  052812/A0/   000016800000002457                    000000000000000000                    000000000000000000                                                
FP7518279901090622       09062022 2RG/  607041/  /   000020000000000399 2RG/  609273/  /   000700000000000033 2T0/  609485/  /   000000200000012203                                                
FP7518438101100622       10062022 2T2/  121688/A /   000000100000009583                    000000000000000000                    000000000000000000                                                
FPF000000000000110                                                                                                                                                                                 
FRI10000000000000130620220000000000005104773                                                                                                                                                       
FR111000000000000000000000000000000000000000000000000000004337473-00000000000000+O                                                                                                         010699  
FR111000000000000000000000000000000000000000000000000001543749084-00000013504702+N                                                                                                         010699  
FR2000155647610 C1002202200000000000000043206068000000000000000000000000000000                                                  000000000000000                                            000     
FR2000156592710 C2505202200000000000000030193690000000000000000000000000000000                                                  000000000000000                                            000     
FR2000156592810 C2505202200000000000000031216344000000000000000000000000000000                                                  000000000000000                                            000     
FR2000156592910 C2505202200000000000000031276463000000000000000000000000000000                                                  000000000000000                                            000     
FR2000156593910 C3005202200000000000000032288804000000000000000000000000000000                                                  000000000000000                                            000     
FR2000156630910 C0106202200000000000000029972614000000000000000000000000000000                                                  000000000000000                                            000     
FR2000156653910 C3005202200000000000000050461800000000000000000000000000000000                                                  000000000000000                                            000     
FR2000156667060 P290320220000000000000005227578800000051798209300000000000000095365824XPR011034VW CAMINHOES CHASSI C/ MOTOR E CA202220230000000                                            090     
FR2000156685460 P2903202200000000000000049762122000000493075080000000000000000953658243PR013028VW CAMINHOES CHASSI C/ MOTOR E CA202220230000000                                            090     
FR2000156771660 P3103202200000000000000051007979000000505419824000000000000000953658244PR013362VW CAMINHOES CHASSI C/ MOTOR E CA202220230000000                                            090     
FR2000156851160 P11042022000000000000000537213420000005323055680000000000000009536Y824XPR013941VW CAMINHOES CHASSI C/ MOTOR E CA202220230000000                                            090     
FR2000156860660 P130420220000000000000002447436100000024250769100000000000000095355FTE6PR014360VW CAMINHOES CHASSI MOTOR CABINE 202220230000000                                            090     
FR2000156869660 P1404202200000000000000051110540000000506436067000000000000000953658244PR014270VW CAMINHOES CHASSI C/ MOTOR E CA202220230000000                                            090     
FR2000156931460 P25042022000000000000000307175840000003043695590000000000000009535H5TB4PR013036VW CAMINHOES CHASSI C/ MOTOR E CA202220230000000                                            090     
FR2000156991360 P27042022000000000000000487914990000004834575190000000000000009536Y8241PR008160VW CAMINHOES CHASSI C/ MOTOR E CA202220230000000                                            090     
FR2000157188460 P06052022000000000000000691972570000006856508760000000000000009539B8TJ7PR200962VW CAMINHOES CAMINHAO TRACTOR    202220230000000                                            090     
FR2000157188760 P060520220000000000000005210251200000051626516700000000000000095365824XPR017500VW CAMINHOES CHASSI C/ MOTOR E CA202220230000000                                            090     
FR2000157204460 P10052022000000000000000571068110000005658509770000000000000009536Y8249PR017110VW CAMINHOES CHASSI C/ MOTOR E CA202220230000000                                            090     
FR2000157242560 P13052022000000000000000314782900000003119071270000000000000009535V6TB0PR018815VW CAMINHOES CHASSI C/ MOTOR E CA202220230000000                                            090     
FR2000157242660 P13052022000000000000000528812590000005239814850000000000000009536Y8240PR018792VW CAMINHOES CHASSI C/ MOTOR E CA202220230000000                                            090     
FR2000157358060 P23052022000000000000000326380480000003233987460000000000000009535V6TB7PR019444VW CAMINHOES CHASSI C/ MOTOR E CA202220230000000                                            090     
FR2000157358160 P230520220000000000000002402926600000023809741000000000000000095355FTE4PR018827VW CAMINHOES CHASSI MOTOR CABINE 202220230000000                                            090     
FR2000157358260 P2305202200000000000000066408959000000658022631000000000000000953998TH9PR201152VW CAMINHOES CAMINHAO TRACTOR    202220230000000                                            090     
FR2000157369260 P24052022000000000000000728281700000007216282950000000000000009539B8TJ7PR201027VW CAMINHOES CAMINHAO TRACTOR    202220230000000                                            090     
FR2000157369960 P24052022000000000000000315930420000003130441590000000000000009535V6TB5PR016381VW CAMINHOES CHASSI C/ MOTOR E CA202220230000000                                            090     
FR2000157456860 P27052022000000000000000327688660000003246949810000000000000009535V6TB3PR014578VW CAMINHOES CHASSI C/ MOTOR E CA202220230000000                                            090     
FR2000157477360 P30052022000000000000000321937090000003189959580000000000000009535V7TB7PR019451VW CAMINHOES CHASSI C/ MOTOR E CA202220230000000                                            090     
FR2000157522760 P3105202200000000000000050010981000000495540927000000000000000953658240PR016825VW CAMINHOES CHASSI C/ MOTOR E CA202220230000000                                            090     
FR2000157522860 P3105202200000000000000051499957000000510294663000000000000000953658248PR019858VW CAMINHOES CHASSI C/ MOTOR E CA202220230000000                                            090     
FR2000157522960 P3105202200000000000000051499957000000510294663000000000000000953658246PR019860VW CAMINHOES CHASSI C/ MOTOR E CA202220230000000                                            090     
FR2000157527460 P3105202200000000000000047307568000000468753783000000000000000953658265PR020614VW CAMINHOES CHASSI C/ MOTOR E CA202220230000000                                            045     
FR2000157536760 P31052022000000000000000592115840000005867064170000000000000009536R8266PR018410VW CAMINHOES CHASSI C/ MOTOR E CA202220230000000                                            090     
FR2000157536860 P31052022000000000000000725769230000007191387760000000000000009539B8TJ7PR201058VW CAMINHOES CAMINHAO TRACTOR    202220230000000                                            090     
FR2000157536960 P3105202200000000000000052360967000000518826102000000000000000953658260PR021203VW CAMINHOES CHASSI C/ MOTOR E CA202220230000000                                            090     
FR2000157562560 P31052022000000000000000529399400000005245629400000000000000009536R8270PR021294VW CAMINHOES CAMINHAO TRATOR     202220230000000                                            090     
FR2000157596360 P3105202200000000000000045294480000000448806813000000000000000953658262PR020070VW CAMINHOES CHASSI C/ MOTOR E CA202220230000000                                            045     
FR2000157602960 P31052022000000000000000463010240000004587802980000000000000009536K8264PR018085VW CAMINHOES CHASSI C/ MOTOR E CA202220230000000                                            045     
FR2000157619360 P0306202200000000000000050589977000000501277997000000000000000953658247PR018099VW CAMINHOES CHASSI C/ MOTOR E CA202220230000000                                            090     
FR2000157648460 P0906202200000000000000047068305000000466383004000000000000000953658268PR021501VW CAMINHOES CHASSI C/ MOTOR E CA202220230000000                                            045     
FR2000155933010 C0203202200000000000000065955407000000000000000000000000000000                                                  000000000000000                                            000     
FR2000156136310 C2403202200000000000000029972614000000000000000000000000000000                                                  000000000000000                                            000     
FR2000156204410 C2403202200000000000000029059302000000000000000000000000000000                                                  000000000000000                                            000     
FR2000156440910 C0405202200000000000000031276463000000000000000000000000000000                                                  000000000000000                                            000     
FR2000156446810 C1005202200000000000000038490368000000000000000000000000000000                                                  000000000000000                                            000     
FR2000156464610 C0405202200000000000000039818707000000000000000000000000000000                                                  000000000000000                                            000     
FR2000156476710 C2505202200000000000000036943049000000000000000000000000000000                                                  000000000000000                                            000     
FR2000125121606 P1006202200000000000000000569030000000005792862000000000000000                                                  000000000490340                                            032     
FR2000125121706 P1006202200000000000000000426772000000004344646000000000000000                                                  000000000490340                                            032     
FR2000125121806 P1006202200000000000000000426773000000004344655000000000000000                                                  000000000490340                                            032     
FR2000125255106 P1306202200000000000000001165958000000011869726000000000000000                                                  000000000490785                                            032     
FR2000125255206 P1306202200000000000000000874468000000008902294000000000000000                                                  000000000490785                                            032     
FR2000125255306 P1306202200000000000000000874469000000008902307000000000000000                                                  000000000490785                                            032     
F060101 DOLAR REFERENCIAL DIARIO - VENDA                                                                                                                                                   300997  
F06021406202200000051033000000000000000000000000000000000000000000000000000000000000000000000000000000000000000000000000000000000000000000000000000000000000000000000000000000000          300997  
F060102 TABELA DE QCS PARA LIQUIDACAO DE DEBITOS EXCLUSIVAMENTE JUNTO AO FLOOR PLAN PARA CAMINHOES (INCLUINDO F.4000) - VW                                                                 300997  
F06021406202200001009953078300000000000000000000000000000000000000000000000000000000000000000000000000000000000000000000000000000000000000000000000000000000000000000000000000000          300997  
F060104 TABELA DE QCS PARA LIQUIDACAO DE DEBITOS EXCLUSIVAMENTE JUNTO AO PLANO DE CAPITALIZACAO - VW CAMINHOES                                                                             300997  
F06021406202200000000004643800000000000000000000000000000000000000000000000000000000000000000000000000000000000000000000000000000000000000000000000000000000000000000000000000000          300997  
F060105 UFIR - UNIDADE FISCAL DE REFERENCIA                                                                                                                                                300997  
F06021406202200000010641000000000000000000000000000000000000000000000000000000000000000000000000000000000000000000000000000000000000000000000000000000000000000000000000000000000          300997  
F060114 IGPM - INDICE GERAL DE PRECOS DO MERCADO                                                                                                                                           300997  
F06021406202200010249084000000000000000000000000000000000000000000000000000000000000000000000000000000000000000000000000000000000000000000000000000000000000000000000000000000000          300997  
F060120 TABELA DE QCS PARA LIQUIDACAO DE DEBITOS EXCLUSIVAMENTE JUNTO AO FLOOR PLAN PARA AUTOMOVEIS, COM. LEVES E OUTROS DEBITOS - VW                                                      300997  
F06021406202200001091385475700000000000000000000000000000000000000000000000000000000000000000000000000000000000000000000000000000000000000000000000000000000000000000000000000000          300997  
F060130 TRD - TAXA REFERENCIAL DIARIA                                                                                                                                                      300997  
F06021406202200000000130463100000000000000000000000000000000000000000000000000000000000000000000000000000000000000000000000000000000000000000000000000000000000000000000000000000          300997  
F0601101TABELA DE QCIS PARA LIQUIDACAO DE DEBITOS EXCLUSIVAMENTE JUNTO AO CREDITO ROTATIVO - VEICULO USADO                                                                                 300997  
F06021406202200000451866798100000000000000000000000000000000000000000000000000000000000000000000000000000000000000000000000000000000000000000000000000000000000000000000000000000          300997  
F0601106TABELA DE QCIS PARA LIQUIDACAO DE DEBITOS EXCLUSIVAMENTE JUNTO AO CREDITO ROTATIVO - PECAS                                                                                         300997  
F06021406202200000983055528900000000000000000000000000000000000000000000000000000000000000000000000000000000000000000000000000000000000000000000000000000000000000000000000000000          300997  
F0601109TABELA DE QCIS PARA LIQUIDACAO DE DEBITOS EXCLUSIVAMENTE JUNTO AO CREDITO ROTATIVO - CAMINHOES USADOS                                                                              300997  
F06021406202200001006069452500000000000000000000000000000000000000000000000000000000000000000000000000000000000000000000000000000000000000000000000000000000000000000000000000000          300997  
F0601110TABELA DE QCIS PARA LIQUIDACAO DE DEBITOS EXCLUSIVAMENTE JUNTO AO CREDITO ROTATIVO - AUDI USADOS                                                                                   300997  
F06021406202200000732749830000000000000000000000000000000000000000000000000000000000000000000000000000000000000000000000000000000000000000000000000000000000000000000000000000000          300997  
F0601111TABELA DE QCIS PARA LIQUIDACAO DE DEBITOS EXCLUSIVAMENTE JUNTO AO CREDITO ROTATIVO - SEAT USADOS                                                                                   300997  
F06021406202200000742147307700000000000000000000000000000000000000000000000000000000000000000000000000000000000000000000000000000000000000000000000000000000000000000000000000000          300997  
F0601115TABELA DE QCIS PARA LIQUIDACAO DE DEBITOS EXCLUSIVAMENTE JUNTO AO CREDITO ROTATIVO - QC COM BONUS                                                                                  300997  
F06021406202200000306399671600000000000000000000000000000000000000000000000000000000000000000000000000000000000000000000000000000000000000000000000000000000000000000000000000000          300997  
F0601116TABELA DE QCIS PARA LIQUIDACAO DE DEBITOS EXCLUSIVAMENTE JUNTO AO CREDITO ROTATIVO - QC DO BONUS ROTATIVO                                                                          300997  
F06021406202200000092909198200000000000000000000000000000000000000000000000000000000000000000000000000000000000000000000000000000000000000000000000000000000000000000000000000000          300997  
F0601117TABELA DE QCIS PARA LIQUIDACAO DE DEBITOS EXCLUSIVAMENTE JUNTO AO CREDITO ROTATIVO - QC FINANCIAMENTO ICMS                                                                         300997  
F06021406202200000983055530800000000000000000000000000000000000000000000000000000000000000000000000000000000000000000000000000000000000000000000000000000000000000000000000000000          300997  
F0601119TABELA DE QCIS PARA LIQUIDACAO DE DEBITOS EXCLUSIVAMENTE JUNTO AO CREDITO ROTATIVO - MULTA DE CONFISSAO DIV                                                                        300997  
F06021406202200000010000000000000000000000000000000000000000000000000000000000000000000000000000000000000000000000000000000000000000000000000000000000000000000000000000000000000          300997  
FRF100000000000088                                                                                                                                                                                 
FVI10060000000000140620220000000000005104773                                                                                                                                                       
F229535V6TB4PR0093395644091403202295355FTE6PR01436056860613042022953658244PR014270568696140420229535V6TB7PR01944457358023052022                                                            300997  
F2295355FTE4PR01882757358123052022953998TH9PR20115257358223052022953658243PR013028566854290320229535H5TB0PR01256356592725032022                                                            300997  
F229535H5TB4PR01303656931425042022953658244PR0133625677163103202295365824XPR011034566670290320229536E7237PR00914556476718032022                                                            300997  
F22953998TH3NR20409255933028012022953658243NR049489556476271220219536R8276NR052269556477271220219535H5TB3PR01093656630928032022                                                            300997  
F229535V6TB8PR01221356593925032022953658240PR008420566539290320229535H5TB5PR012526565928250320229535V6TB0PR01253156592925032022                                                            300997  
F229536Y824XPR013941568511110420229536R8277NR043810547576271020219536Y8241PR00816056991327042022953658268PR02150157648409062022                                                            300997  
F229535V7TB7PR019451574773300520229536K824XPR010975564646170320229535H5TB3PR00562456136315022022953658247PR01809957619303062022                                                            300997  
F2295365824XPR017500571887060520229539B8TJ7PR200962571884060520229535V6TB3PR014578574568270520229535V6TB5PR01638157369924052022                                                            300997  
F229536K8243NR04287454619218102021953658262PR020070575963310520229536R8270PR021294575625310520229539B8TJ7PR20102757369224052022                                                            300997  
F229536R8266PR018410575367310520229539B8TJ7PR20105857536831052022953658260PR021203575369310520229535V7TB1PR00675856204422022022                                                            300997  
F229536Y8249PR01711057204410052022953658265PR020614575274310520229536G8249PR01020856446815032022953658240PR01682557522731052022                                                            300997  
F22953658248PR01985857522831052022953658246PR019860575229310520229535V6TB0PR018815572425130520229536Y8240PR01879257242613052022                                                            300997  
F229536K8247NR04568155057822112021                                                                                                                                                         300997  
FVF100000000000015                                                                                                                                                                                 
FAI10000000000000140620220000000000005104773                                                                                                                                                       
FA3000105263000010620220707202200000000004014100000000004014100000000000000000000000000000000000000000000070720220 88  ICMS ST PECAS                                                               
FA3000105264000010620220707202200000000001169700000000001169700000000000000000000000000000000000000000000070720220 88  ICMS ST PECAS                                                               
FA3000104790000010620220707202200000000003624100000000003624100000000000000000000000000000000000000000000070720220 88  ICMS ST PECAS                                                               
FA3000104791000010620220707202200000000000314100000000000314100000000000000000000000000000000000000000000070720220 88  ICMS ST PECAS                                                               
FA3000105496000020620220707202200000000000087000000000000087000000000000000000000000000000000000000000000070720220 88  ICMS ST PECAS                                                               
FA3000105497000020620220707202200000000001343500000000001343500000000000000000000000000000000000000000000070720220 88  ICMS ST PECAS                                                               
FA3000105946000020620220707202200000000001895600000000001895600000000000000000000000000000000000000000000070720220 88  ICMS ST PECAS                                                               
FA3000105947000020620220707202200000000000258400000000000258400000000000000000000000000000000000000000000070720220 88  ICMS ST PECAS                                                               
FA3000105948000020620220707202200000000001422700000000001422700000000000000000000000000000000000000000000070720220 88  ICMS ST PECAS                                                               
FA3000105949000020620220707202200000000003599700000000003599700000000000000000000000000000000000000000000070720220 88  ICMS ST PECAS                                                               
FA3000106123000020620220707202200000000032202100000000032202100000000000000000000000000000000000000000000070720220 88  ICMS ST PECAS                                                               
FA3000106124000020620220707202200000000032461000000000032461000000000000000000000000000000000000000000000070720220 88  ICMS ST PECAS                                                               
FA3000106125000020620220707202200000000001244000000000001244000000000000000000000000000000000000000000000070720220 88  ICMS ST PECAS                                                               
FA3000106126000020620220707202200000000005731500000000005731500000000000000000000000000000000000000000000070720220 88  ICMS ST PECAS                                                               
FA3000106127000020620220707202200000000001022400000000001022400000000000000000000000000000000000000000000070720220 88  ICMS ST PECAS                                                               
FA3000106761000030620220707202200000000003446300000000003446300000000000000000000000000000000000000000000070720220 88  ICMS ST PECAS                                                               
FA3000106762000030620220707202200000000001396400000000001396400000000000000000000000000000000000000000000070720220 88  ICMS ST PECAS                                                               
FA3000106763000030620220707202200000000001550100000000001550100000000000000000000000000000000000000000000070720220 88  ICMS ST PECAS                                                               
FA3000106764000030620220707202200000000001623600000000001623600000000000000000000000000000000000000000000070720220 88  ICMS ST PECAS                                                               
FA3000106765000030620220707202200000000001089500000000001089500000000000000000000000000000000000000000000070720220 88  ICMS ST PECAS                                                               
FA3000106829000030620220707202200000000004108300000000004108300000000000000000000000000000000000000000000070720220 88  ICMS ST PECAS                                                               
FA3000107068000030620220707202200000000003772100000000003772100000000000000000000000000000000000000000000070720220 88  ICMS ST PECAS                                                               
FA3000106895000030620220707202200000000006522000000000006522000000000000000000000000000000000000000000000070720220 88  ICMS ST PECAS                                                               
FA3000106896000030620220707202200000000002373300000000002373300000000000000000000000000000000000000000000070720220 88  ICMS ST PECAS                                                               
FA3000106897000030620220707202200000000007099200000000007099200000000000000000000000000000000000000000000070720220 88  ICMS ST PECAS                                                               
FA3000106898000030620220707202200000000002653300000000002653300000000000000000000000000000000000000000000070720220 88  ICMS ST PECAS                                                               
FA3000106517000030620220707202200000000005541400000000005541400000000000000000000000000000000000000000000070720220 88  ICMS ST PECAS                                                               
FA3000106602000030620220707202200000000008274000000000008274000000000000000000000000000000000000000000000070720220 88  ICMS ST PECAS                                                               
FA3000106556000030620220707202200000000000747800000000000747800000000000000000000000000000000000000000000070720220 88  ICMS ST PECAS                                                               
FA3000106557000030620220707202200000000005980200000000005980200000000000000000000000000000000000000000000070720220 88  ICMS ST PECAS                                                               
FA3000106558000030620220707202200000000000431700000000000431700000000000000000000000000000000000000000000070720220 88  ICMS ST PECAS                                                               
FA3000106992000030620220707202200000000007457200000000007457200000000000000000000000000000000000000000000070720220 88  ICMS ST PECAS                                                               
FA3000107585000060620220707202200000000000325100000000000325100000000000000000000000000000000000000000000070720220 88  ICMS ST PECAS                                                               
FA3000107586000060620220707202200000000000258700000000000258700000000000000000000000000000000000000000000070720220 88  ICMS ST PECAS                                                               
FA3000108177000070620220707202200000000007952400000000007952400000000000000000000000000000000000000000000070720220 88  ICMS ST PECAS                                                               
FA3000108178000070620220707202200000000012849900000000012849900000000000000000000000000000000000000000000070720220 88  ICMS ST PECAS                                                               
FA3000108179000070620220707202200000000000572900000000000572900000000000000000000000000000000000000000000070720220 88  ICMS ST PECAS                                                               
FA3000108566000070620220707202200000000000323800000000000323800000000000000000000000000000000000000000000070720220 88  ICMS ST PECAS                                                               
FA3000108567000070620220707202200000000000506800000000000506800000000000000000000000000000000000000000000070720220 88  ICMS ST PECAS                                                               
FA3000108520000070620220707202200000000018930400000000018930400000000000000000000000000000000000000000000070720220 88  ICMS ST PECAS                                                               
FA3000108521000070620220707202200000000017244500000000017244500000000000000000000000000000000000000000000070720220 88  ICMS ST PECAS                                                               
FA3000108522000070620220707202200000000001213100000000001213100000000000000000000000000000000000000000000070720220 88  ICMS ST PECAS                                                               
FA3000108523000070620220707202200000000000972800000000000972800000000000000000000000000000000000000000000070720220 88  ICMS ST PECAS                                                               
FA3000108350000070620220707202200000000000450500000000000450500000000000000000000000000000000000000000000070720220 88  ICMS ST PECAS                                                               
FA3000108884000080620220707202200000000001170400000000001170400000000000000000000000000000000000000000000070720220 88  ICMS ST PECAS                                                               
FA3000108885000080620220707202200000000000119400000000000119400000000000000000000000000000000000000000000070720220 88  ICMS ST PECAS                                                               
FA3000108706000080620220707202200000000000975000000000000975000000000000000000000000000000000000000000000070720220 88  ICMS ST PECAS                                                               
FA3000108707000080620220707202200000000000294200000000000294200000000000000000000000000000000000000000000070720220 88  ICMS ST PECAS                                                               
FA3000109021000080620220707202200000000004997800000000004997800000000000000000000000000000000000000000000070720220 88  ICMS ST PECAS                                                               
FA3000110178000090620220707202200000000002393700000000002393700000000000000000000000000000000000000000000070720220 88  ICMS ST PECAS                                                               
FA3000110179000090620220707202200000000000660300000000000660300000000000000000000000000000000000000000000070720220 88  ICMS ST PECAS                                                               
FA3000110180000090620220707202200000000001723600000000001723600000000000000000000000000000000000000000000070720220 88  ICMS ST PECAS                                                               
FA3000109636000090620220707202200000000000398100000000000398100000000000000000000000000000000000000000000070720220 88  ICMS ST PECAS                                                               
FA3000109637000090620220707202200000000000926200000000000926200000000000000000000000000000000000000000000070720220 88  ICMS ST PECAS                                                               
FA3000110027000090620220707202200000000005948800000000005948800000000000000000000000000000000000000000000070720220 88  ICMS ST PECAS                                                               
FA3000110028000090620220707202200000000008326600000000008326600000000000000000000000000000000000000000000070720220 88  ICMS ST PECAS                                                               
FA3000110029000090620220707202200000000000048900000000000048900000000000000000000000000000000000000000000070720220 88  ICMS ST PECAS                                                               
FA3000110030000090620220707202200000000001794800000000001794800000000000000000000000000000000000000000000070720220 88  ICMS ST PECAS                                                               
FA3000110704000100620220707202200000000001985000000000001985000000000000000000000000000000000000000000000070720220 88  ICMS ST PECAS                                                               
FA3000110590000100620220707202200000000025786400000000025786400000000000000000000000000000000000000000000070720220 88  ICMS ST PECAS                                                               
FA3000110532000100620220707202200000000000006500000000000006500000000000000000000000000000000000000000000070720220 88  ICMS ST PECAS                                                               
FA3000111131000100620220707202200000000003969800000000003969800000000000000000000000000000000000000000000070720220 88  ICMS ST PECAS                                                               
FA3000111132000100620220707202200000000003426800000000003426800000000000000000000000000000000000000000000070720220 88  ICMS ST PECAS                                                               
FA3000111133000100620220707202200000000002536600000000002536600000000000000000000000000000000000000000000070720220 88  ICMS ST PECAS                                                               
FA3000110761000100620220707202200000000028496800000000028496800000000000000000000000000000000000000000000070720220 88  ICMS ST PECAS                                                               
FA3000110762000100620220707202200000000000149800000000000149800000000000000000000000000000000000000000000070720220 88  ICMS ST PECAS                                                               
FA3000110763000100620220707202200000000000543100000000000543100000000000000000000000000000000000000000000070720220 88  ICMS ST PECAS                                                               
FA3000110764000100620220707202200000000005946400000000005946400000000000000000000000000000000000000000000070720220 88  ICMS ST PECAS                                                               
FA3000110765000100620220707202200000000000421600000000000421600000000000000000000000000000000000000000000070720220 88  ICMS ST PECAS                                                               
FA3000111479000130620220707202200000000000356400000000000356400000000000000000000000000000000000000000000070720220 88  ICMS ST PECAS                                                               
FA3000111480000130620220707202200000000000030000000000000030000000000000000000000000000000000000000000000070720220 88  ICMS ST PECAS                                                               
FA3000111621000130620220707202200000000002434900000000002434900000000000000000000000000000000000000000000070720220 88  ICMS ST PECAS                                                               
FA3000111622000130620220707202200000000000965800000000000965800000000000000000000000000000000000000000000070720220 88  ICMS ST PECAS                                                               
FA3000111623000130620220707202200000000001997200000000001997200000000000000000000000000000000000000000000070720220 88  ICMS ST PECAS                                                               
FA3000111624000130620220707202200000000004766400000000004766400000000000000000000000000000000000000000000070720220 88  ICMS ST PECAS                                                               
FA3000112017000130620220707202200000000003259200000000003259200000000000000000000000000000000000000000000070720220 88  ICMS ST PECAS                                                               
FA3000112018000130620220707202200000000001532100000000001532100000000000000000000000000000000000000000000070720220 88  ICMS ST PECAS                                                               
FA3000111582000130620220707202200000000009804000000000009804000000000000000000000000000000000000000000000070720220 88  ICMS ST PECAS                                                               
FA3000111250000130620220707202200000000002346300000000002346300000000000000000000000000000000000000000000070720220 88  ICMS ST PECAS                                                               
FA3000111251000130620220707202200000000000710200000000000710200000000000000000000000000000000000000000000070720220 88  ICMS ST PECAS                                                               
FA3000111789000130620220707202200000000000126600000000000126600000000000000000000000000000000000000000000070720220 88  ICMS ST PECAS                                                               
FA3000093515000130520221406202200000000013287100000000013287100000000000000000000000000000000000000000000140620220 02  VENDAS DE PECAS                                                             
FA3000095361000170520222006202200000000005575000000000005575000000000000000000000000000000000000000000000200620220 02  VENDAS DE PECAS                                                             
FA3000095362000170520222006202200000000002168600000000002168600000000000000000000000000000000000000000000200620220 02  VENDAS DE PECAS                                                             
FA3000097221000190520222006202200000000049365600000000049365600000000000000000000000000000000000000000000200620220 02  VENDAS DE PECAS                                                             
FA3000098034000200520222106202200000000005653200000000005653200000000000000000000000000000000000000000000210620220 02  VENDAS DE PECAS                                                             
FA3000100789000250520222706202200000000004218400000000004218400000000000000000000000000000000000000000000270620220 02  VENDAS DE PECAS                                                             
FA3000103075000300520220107202200000000025285700000000025285700000000000000000000000000000000000000000000010720220 02  VENDAS DE PECAS                                                             
FA3000104790000010620220407202200000000024559400000000024559400000000000000000000000000000000000000000000040720220 02  VENDAS DE PECAS                                                             
FA3000104791000010620220407202200000000002128700000000002128700000000000000000000000000000000000000000000040720220 02  VENDAS DE PECAS                                                             
FA3000105496000020620220407202200000000000563000000000000563000000000000000000000000000000000000000000000040720220 02  VENDAS DE PECAS                                                             
FA3000105497000020620220407202200000000009104200000000009104200000000000000000000000000000000000000000000040720220 02  VENDAS DE PECAS                                                             
FA3000108883000080620221107202200000000003085400000000003085400000000000000000000000000000000000000000000110720220 02  VENDAS DE PECAS                                                             
FA3000108884000080620221107202200000000007931000000000007931000000000000000000000000000000000000000000000110720220 02  VENDAS DE PECAS                                                             
FA3000108885000080620221107202200000000000790000000000000790000000000000000000000000000000000000000000000110720220 02  VENDAS DE PECAS                                                             
FA3000108706000080620221107202200000000006607100000000006607100000000000000000000000000000000000000000000110720220 02  VENDAS DE PECAS                                                             
FA3000108707000080620221107202200000000001173500000000001173500000000000000000000000000000000000000000000110720220 02  VENDAS DE PECAS                                                             
FA3000109636000090620221107202200000000002684000000000002684000000000000000000000000000000000000000000000110720220 02  VENDAS DE PECAS                                                             
FA3000109637000090620221107202200000000006276600000000006276600000000000000000000000000000000000000000000110720220 02  VENDAS DE PECAS                                                             
FA3000110590000100620221207202200000000174743400000000174743400000000000000000000000000000000000000000000120720220 02  VENDAS DE PECAS                                                             
FA3000110532000100620221207202200000000000042700000000000042700000000000000000000000000000000000000000000120720220 02  VENDAS DE PECAS                                                             
FA3000111479000130620221507202200000000002404500000000002404500000000000000000000000000000000000000000000150720220 02  VENDAS DE PECAS                                                             
FA3000111480000130620221507202200000000000198300000000000198300000000000000000000000000000000000000000000150720220 02  VENDAS DE PECAS                                                             
FA3000111250000130620221507202200000000015400400000000015400400000000000000000000000000000000000000000000150720220 02  VENDAS DE PECAS                                                             
FA3000111251000130620221507202200000000004812700000000004812700000000000000000000000000000000000000000000150720220 02  VENDAS DE PECAS                                                             
FA40000SALDO INICIAL                           000000000013062022C000000029777341DZ02LIQUIDACAO - VENDAS DE PECAS             00009163413062022D000000000017206                            040213  
FA4DZ02LIQUIDACAO - VENDAS DE PECAS             00009163513062022D000000000031671DZ02LIQUIDACAO - VENDAS DE PECAS             00009163613062022D000000000015057                            040213  
FA4DZ02LIQUIDACAO - VENDAS DE PECAS             00009239413062022D000000000079465DZ02LIQUIDACAO - VENDAS DE PECAS             00009254913062022D000000000006822                            040213  
FA4DQ  GARANTIA                                180029137413062022C000000000439622GV  REVISOES GRATUITAS                      180029152513062022C000000000338644                            040213  
FA4DQ  GARANTIA                                180029174213062022C0000000004398299999SALDO FINAL                             000000000013062022C000000030845215                            040213  
FAF100000000000112                                                                                                                                                                                 
FGI10000000000000130620220000000000005104773                                                                                                                                                       
FG5COMU00477308272516100620224948401 2T2/  616039/  /   100720221                                                                                                                                  
FG5COMU00477308272516100620224960201 2R0/  115403/  /   10072022101 2P0/  103196/A /   10072022113   G/  052822/Q9/   10072022101 23B/  127177/  /   10072022101   G/  052739/Q9/   100720221      
FG5COMU00477308272516100620224960206 APC/  052812/A9/   100720221                                                                                                                                  
FG5COMU00477308272516100620224961801 2P0/  607313/B /   100720221                                                                                                                                  
FG2COMU004773034948427251607984910062022000000001229535000034960227251607972010062022000000001151190000034961827251607973210062022000000000110430000034962927251607981110062022000000000337570000  
FG5COMU00477308272516100620224962901 2TB/  941534/  /   100720221                                                                                                                                  
FG5COMU00477308272516100620224966701 T16/  501317/  /   10072022101 TJG/  501473/  /   10072022101   G/  052739/Q9/   100720221                                                                    
FG5COMU00477308272516100620224973501 2P0/  109293/  /   10072022101 2P0/  115315/  /   100720221                                                                                                   
FG5COMU00477308272516100620224977801 2R2/  419661/  /   10072022101 T00/  415993/  /   100720221                                                                                                   
FG2COMU004773034966727251607984610062022000000000384305000034973527251607995210062022000000000621755000034977827251608010110062022000000000234810000034978127251608010210062022000000000384305000  
FG5COMU00477308272516100620224978101 T16/  501317/  /   10072022101 TJG/  501473/  /   10072022101   G/  052739/Q9/   100720221                                                                    
FG5COMU00477308272516100620224978701 23B/  141165/  /   10072022106   N/  020905/7 /   100720221                                                                                                   
FG5COMU00477308272516100620224982801 2P0/  611011/  /   100720221                                                                                                                                  
FG2COMU004773034978727251608010910062022000000001453250000034982827251608009010062022000000000697370000034984727251600489710062022000000000042330000034985127251608013310062022000000001004720000  
FG4COMU0047730549790529535PFTE0NR028987272516100620220000000003174750549798409535V6TB5MR113091272516100620220000000004233000549803529536K8242NR04901027251610062022000000000338640                 
FG4COMU0047730549816529536E8239NR036057272516100620220000000002751450549818259539B8TJ0NR200590272516100620220000000001058250549819519535V6TB1NR03861727251610062022000000000105825                 
FG4COMU0047730549824529536E8238NR037443272516100620220000000002751450549832409535V6TB1NR0019552725161006202200000000042330005498425595388XZZ5LE00141327251610062022000000000105825                 
FG4COMU004773054984953953658240NR010861272516100620220000000009312600549853619536K8245PR002153272516100620220000000002328150549856619536K8243PR00306027251610062022000000000232815                 
FG2COMU004773034988127251600492310062022000000000042330000034988227251600492410062022000000000042330000000000000000000000000000000000000000000000000000000000000000000000000000000000000000000000  
FG4COMU004773054985751953658247NR04563827251610062022000000000232815054986052953658249NR019462272516100620220000000003386400549873519535V6TB3NR03166727251610062022000000000105825                 
FG5COMU00477308272516100620224985101 23K/  121101/  /   10072022112   G/  411381/Q9/   100720221                                                                                                   
FGF100001000000023                                                                                                                                                                                 
FTI10060000000000130620220000000000005104773                                                                                                                                                       
FT5VK47-AVISO DE LANCAMENTO * VK49-RELACAO DAS PECAS * VK58-AVALIACAO DO MOVIMENTO                                                                                                         300997  
FT60MAN - LATIN AMERICA                    *      S I G A       *                                                 * PAG.       1/    516                                                           
FT60ESTRADA MARGINAL VIA ANCHIETA,KM 23,5  *      GARANTIA      *  RELACAO DOS CREDITOS PROCESSADOS *** ADM ***   * DATA:       10/06/22                                                           
FT60                                                                                                                                                                                               
FT60     DN: 0004773    SERVOPA CAMINHOES LTDA.                                                                                                                                                    
FT60                              RODOVIA MELLO PEIXOTO, 1200                                                                                                                                      
FT60                            CAMBE                                                                                                                                                              
FT60                         86185-700          PR                                                                                                                                                 
FT60NR.OS. VER. TG REC N.FISC    NR. CHASSI     TMA  DT.VENDA DT.REPAR  QUILOM.  RESER1  RESER2  NRCONTR RESER4      VALOR TOTAL DA S.G.                                                           
FT60 LN DF FOR QT   NUMERO DA PECA     CD  CODOPER. HORAS  TOTAL M.OBRA  HR.AD.  TOT.M.O.ADC.   VL.PC. IT.NORM.    VL.PC.IT.ADIC.                                                                  
FT60 49484 000  M      079849 9536Y8245LR011718 24N  10/09/19 11/05/22  349053   619137                                        1.229,54                                                            
FT60 01 42 2DR 01  2T2/  616039/  /     1  43255551  0,70        148,16                                1.081,38                                                                                    
FT60 49602 000  M      079720 9535V6TB0MR113063 TBE  10/07/20 19/05/22  593091   P0407X                                        1.151,19                                                            
FT60 01 99 2VZ 01  2R0/  115403/  /     1                                                                189,03                                                                                    
FT60 02        01  2P0/  103196/A /     1                                                                 14,73                                                                                    
FT60 03        13    G/  052822/Q9/     1                                                                252,32                                                                                    
FT60 04        01  23B/  127177/  /     1                                                                137,69                                                                                    
FT60 05        01    G/  052739/Q9/     1                                                                 32,04                                                                                    
FT60 06 99 2VZ 00  2R0/  115403/  /     1  34351700  0,40         84,66                                                                                                                            
FT60 07        06  APC/  052812/A9/     1                                                                229,07                                                                                    
FT60 08 37 2VZ 00  23B/  109601/A /     1  15010600  1,00        211,65                                                                                                                            
FT60 49618 000  M      079732 9532M52P8ER441331 2P4  10/11/15 20/05/22  253488   721009                                          110,43                                                            
FT60 01 29 2EL 01  2P0/  607313/B /     1  49115555  0,20         42,33                                   68,10                                                                                    
FT60 49629 000  M      079811 9532M62P3JR802271 2P4  10/10/18 23/05/22  207057   721009                                          337,57                                                            
FT60 01 50 1EX 01  2TB/  941534/  /     1  94055500  0,20         42,33                                  295,24                                                                                    
FT60 49667 000  M      079846 9536Y8245LR011718 24N  10/09/19 25/05/22  352950   619137                                          384,31                                                            
FT60 01 42 1MN 01  T16/  501317/  /     1  42685500  0,70        148,16                                  142,63                                                                                    
FT60 02        00                          42645550  0,20         42,33                                                                                                                            
FT60 03        01  TJG/  501473/  /     1                                                                 19,15                                                                                    
FT60 04        01    G/  052739/Q9/     1                                                                 32,04                                                                                    
FT60 49735 000  0      079952 9535V6TB2MR113081 TBE  10/07/20 30/05/22  061388                                                   621,76                                                            
FT60 01 42 4DC 01  2P0/  109293/  /     1  13745500  2,70        571,46                                   24,76                                                                                    
FT60 02        01  2P0/  115315/  /     1                                                                 25,54                                                                                    
FT60 49778 000  0      080101 9536K8244NR049123 U4L  10/03/22 01/06/22  019461                                                   234,81                                                            
FT60 01 37 2FW 01  2R2/  419661/  /     1  48105501  0,40         84,66                                  139,77                                                                                    
FT60 02        01  T00/  415993/  /     1                                                                 10,38                                                                                    
FT60 49781 000  0      080102 9536K8244NR049123 U4L  10/03/22 01/06/22  019461                                                   384,31                                                            
FT60 01 42 1MN 01  T16/  501317/  /     1  42685500  0,70        148,16                                  142,63                                                                                    
FT60 02        00                          42645550  0,20         42,33                                                                                                                            
FT60 03        01  TJG/  501473/  /     1                                                                 19,15                                                                                    
FT60 04        01    G/  052739/Q9/     1                                                                 32,04                                                                                    
FT60 49787 000  0      080109 9535H5TB4NR027998 TBX  10/09/21 02/06/22  034006                                                 1.453,25                                                            
FT60 01 29 2SH 01  23B/  141165/  /     1  30455500  2,60        550,29                                  898,26                                                                                    
FT60 02        06    N/  020905/7 /     1                                                                  4,70                                                                                    
FT60 49828 000  4      080090 9531932P8BR152821 EST  10/03/22 03/06/22  000000                                                   697,37                                                            
FT60SAO PAULO  -  SP                       *      ********      *                          NR.LCTO:  272516       * REF.    VK407A/VK47C                                                           
FT60MAN - LATIN AMERICA                    *      S I G A       *                                                 * PAG.       2/    517                                                           
FT60ESTRADA MARGINAL VIA ANCHIETA,KM 23,5  *      GARANTIA      *  RELACAO DOS CREDITOS PROCESSADOS *** ADM ***   * DATA:       10/06/22                                                           
FT60                                                                                                                                                                                               
FT60     DN: 0004773    SERVOPA CAMINHOES LTDA.                                                                                                                                                    
FT60                              RODOVIA MELLO PEIXOTO, 1200                                                                                                                                      
FT60                            CAMBE                                                                                                                                                              
FT60                         86185-700          PR                                                                                                                                                 
FT60NR.OS. VER. TG REC N.FISC    NR. CHASSI     TMA  DT.VENDA DT.REPAR  QUILOM.  RESER1  RESER2  NRCONTR RESER4      VALOR TOTAL DA S.G.                                                           
FT60 LN DF FOR QT   NUMERO DA PECA     CD  CODOPER. HORAS  TOTAL M.OBRA  HR.AD.  TOT.M.O.ADC.   VL.PC. IT.NORM.    VL.PC.IT.ADIC.                                                                  
FT60 49828 000  4      080090 9531932P8BR152821 EST  10/03/22 03/06/22  000000                                                   697,37                                                            
FT60 01 29 2BV 01  2P0/  611011/  /     1                                                                697,37                                                                                    
FT60 49847 000  M      004897 9536Y8245LR011718 24N  10/09/19 06/06/22  358120   619137                                           42,33                                                            
FT60 01 99 2VZ 00  2S2/  957039/A /     1  901455AF  0,20         42,33                                                                                                                            
FT60 49851 000  0      080133 953698TK5NR049477 TKG  10/12/21 06/06/22  016220                                                 1.004,72                                                            
FT60 01 80 2TY 01  23K/  121101/  /     1  19625510  0,80        169,32                                   87,37                                                                                    
FT60 02        12    G/  411381/Q9/     1                                                                748,03                                                                                    
FT60 49881 000  M      004923 9535V6TB5MR113091 TBE  10/07/20 08/06/22  060410   P0407X                                           42,33                                                            
FT60 01 99 2VZ 00  2S2/  957039/A /     1  901455AF  0,20         42,33                                                                                                                            
FT60 49882 000  M      004924 95388XZZ6LE000917 TM2  10/04/20 08/06/22  238801   628489                                           42,33                                                            
FT60 01 99 2VZ 00  2V5/  957039/F /     1  901455AF  0,20         42,33                                                                                                                            
FT60- - - - - - - - - - - - - - - - - - - - - - - - - - - - - - - - - - - - - - - - - - - - - - - - - - - - - - - - - - - - - - - - - -                                                            
FT60                                                                                                                           7.736,25                                                            
FT60           57                                   11,40      2.412,83                                5.323,42                                                                                    
FT60SAO PAULO  -  SP                       *      ********      *                          NR.LCTO:  272516       * REF.    VK407C/VK47C                                                           
FT60MAN - LATIN AMERICA                    *      S I G A       *                                                 * PAG.       1/    518                                                           
FT60ESTRADA MARGINAL VIA ANCHIETA,KM 23,5  *      GARANTIA      *          REVISOES/MANUTENCOES PROCESSADAS       * DATA:       10/06/22                                                           
FT60                                                                                                                                                                                               
FT60     DN: 0004773    SERVOPA CAMINHOES LTDA.                                                                                                                                                    
FT60COD   NR.OS.       NR. CHASSI           DEALER      DT.REVIS  QUILOM.          VALOR ($)       OBSERVACOES                                                                                     
FT60REV                                  EXEC.  RESP.                                                                                                                                              
FT60 52    49790    9535PFTE0NR028987    4773           02/06/22    18725             317,48                                                                                                       
FT60540    49798    9535V6TB5MR113091    4773           02/06/22    60398             423,30                                                                                                       
FT60 52    49803    9536K8242NR049010    4773           02/06/22    19361             338,64                                                                                                       
FT60 52    49816    9536E8239NR036057    4773           03/06/22    29039             275,15                                                                                                       
FT60525    49818    9539B8TJ0NR200590    4773           03/06/22    76267             105,83                                                                                                       
FT60 51    49819    9535V6TB1NR038617    4773           03/06/22     4564             105,83                                                                                                       
FT60 52    49824    9536E8238NR037443    4773           03/06/22    30526             275,15                                                                                                       
FT60540    49832    9535V6TB1NR001955    4773           06/06/22    89806             423,30                                                                                                       
FT60555    49842    95388XZZ5LE001413    4773           06/06/22   180184             105,83                                                                                                       
FT60 53    49849    953658240NR010861    4773           06/06/22    58040             931,26                                                                                                       
FT60 61    49853    9536K8245PR002153    4773           06/06/22       59             232,82                                                                                                       
FT60 61    49856    9536K8243PR003060    4773           06/06/22       52             232,82                                                                                                       
FT60 51    49857    953658247NR045638    4773           06/06/22     2988             232,82                                                                                                       
FT60 52    49860    953658249NR019462    4773           06/06/22    38084             338,64                                                                                                       
FT60 51    49873    9535V6TB3NR031667    4773           08/06/22     4663             105,83                                                                                                       
FT60 52    48384    9535PFTE8NR023830           4773    15/02/22    42952                         108 113                                                                                          
FT60580    48603    9536Y824XLR021208           4773    07/03/22   360175                         173 112                                                                                          
FT60 51    49003    953638274NR052594           4706    01/04/22     8965                         108                                                                                              
FT60 52    49018    953998TH3NR200379           4773    04/04/22   100689                         108 113                                                                                          
FT60 61    49171    9536K8247NR020652           4844    14/04/22      144                         113                                                                                              
FT60 52    49504    953658240NR022797           4773    12/05/22   120399                         108 113                                                                                          
FT60 52    49550    9535H5TB4NR034577           4773    16/05/22    60418                         108 113                                                                                          
FT60- - - - - - - - - - - - - - - - - - - - - - - - - - - - - - - - - - - - - - - - - - - - - - - - - - - - - - - - - - - - - - - - - -                                                            
FT60                                                                                4.444,70                                                                                                       
FT60SAO PAULO  -  SP                       *      ********      *                          NR.LCTO:  272516       * REF.    VK407D/VK47C                                                           
FT60MAN - LATIN AMERICA                    *      S I G A       *                                                 * PAG.       1/    519                                                           
FT60ESTRADA MARGINAL VIA ANCHIETA,KM 23,5  *      GARANTIA      *          ERRO NAS SOLICITACOES DE GARANTIA      * DATA:       10/06/22                                                           
FT60                                                                                                                                                                                               
FT60     DN: 0004773    SERVOPA CAMINHOES LTDA.                                                                                                                                                    
FT60NR.OS. TMA     NR.CHASSI     DTVENDA DTREPARO QUILOM TG MICROFIL NUM.NF  AUTORI  RESER1  RESER2  RESER3  RESER4 CODIGOS DE ERRO                                                                
FT60 LN  DF  FOR   QT        NUM.PECA         CODOPSER  HORAS         VALOR PECAS    AD.HORAS      AD.VALOR PECAS                                                                                  
FT60 46513 24P 953658246KR915407  11/18  28/09/21 120507 M  00000000 073659  000000  720B20                         764                                                                            
FT60 01  42  4AX   00   07W/  972770/  /      15010600   1,60                                                                                                                                      
FT60 02            01   07W/  103483/A /                                   308,90                                                                                                                  
FT60 48989 24M 953658248LR022074  12/19  31/03/22 239684 1  00000000 078650  014773                                 777                                                                            
FT60 01  42  2LB   01   07W/  198007/  /      13745502   8,50              864,92                                                                                                                  
FT60 02            04   WHT/  008825/  /                                    32,68                                                                                                                  
FT60 49736 2P4 9532M62P5MR105771  07/20  30/05/22 118323 1  00000000 079942  014773                                 756                                                                            
FT60 01  29  2FC   02   TAR/  411111/  /      42985600   0,50              336,12                                                                                                                  
FT60 49737 TM2 95388XZZ6LE000917  04/20  30/05/22 238785 M  00000000 080122  000000  628489                                                                                                        
FT60 01  99  2VZ   01   2V5/  115561/  /                                    59,46                                   193                                                                            
FT60 02            01   WHT/  007791/H /                                     3,75                                                                                                                  
FT60 03            42     G/  052823/Q9/                                 1.081,92                                                                                                                  
FT60 04            01   2V5/  201512/J /                                   192,63                                                                                                                  
FT60 05            01   2V3/  127177/  /                                   140,60                                                                                                                  
FT60 06            01   2V5/  131759/A /                                   390,49                                                                                                                  
FT60 07            01   2V5/  131759/  /                                    57,61                                                                                                                  
FT60 08  99  2VZ   01   2V5/  121040/B /      23255502   0,30              145,61                                                                                                                  
FT60 09            01   2V5/  121027/A /                                   251,22                                                                                                                  
FT60 10  99  2VZ   01   2R0/  616787/A /      10505501   0,30              408,67                                                                                                                  
FT60 11  99  2VZ   01   JZV/  820367/  /      85185500   0,40              115,11                                                                                                                  
FT60 12  99  2VZ   01   07W/  103464/  /      49255502   0,30              262,21                                                                                                                  
FT60 13  50  2KM   01   2V5/  947171/A /      94355501   0,20                6,23                                                                                                                  
FT60 14  50  2KM   01   2V5/  947171/A /      94355501   0,20                6,23                                                                                                                  
FT60 49758 TM2 95388XZZ6LE000917  04/20  31/05/22 238785 M  00000000 080103  000000  628489                                                                                                        
