FHI00000000000000140620220000000000005101417         00                                                                                                                                            
FPI10000000000000130620220000000000005101417                                                                                                                                                       
FP9518073801PN0806       651403671306202215072022 2GP/  807417/A /GRUCOBERTURA    8708100000032500000002280000000084190000007015600000010001962002922415101000000      00000000000000      011102  
FP9518073801PN0806       651403671306202215072022 1SB/  807221/  /GRUCOBERTURA    8708100000032500000002524000000093200000007766900000010003740002922415801000000      00000000000000      011102  
FP9518073801PN0806       651403671306202215072022 5U0/  807221/AC/GRUCOBERTURA    8708100000032500000001318000000048670000004055400000010005700002922415901000000      00000000000000      011102  
FP9518073801PN0806       651403671306202215072022 5U0/  807221/AC/GRUCOBERTURA    8708100000032500000001318000000048670000004055400000010005700002922416001000000      00000000000000      011102  
FP9512446611             651404921306202215072022 5Z0/  805588/L /   SUPORTE      8708299900032500000003251000000120030000010002500000010006000002922383701000000      00000000000000      011102  
FP9518073801PN0806       651406951306202215072022 2H0/  857527/C /GRUcapa espe.   3926909000097500000002060000000008450000002112600000010000204002920847811000000      00000000000000      011102  
FP9518073801PN0806       651406961306202215072022 5U7/  945105/A /   REFLETOR     3926300000032500000000074000000000910000000227000000010000045002920847811000000      00000000000000      011102  
FP9518333811             651406971306202215072022 5U0/  121156/  /   MANGUEIRA    4009310000065000000001186000000021890000001824400000050000210002920847801000000      00000000000000      011102  
FP9518333811             651406971306202215072022 5U1/  837015/AE/   FECHADURA    8301200000065000000002559000000047240000003936800000020000240002920847801000000      00000000000000      011102  
FP9518073801PN0806       651420671306202215072022 2QB/  601027/A /03CRODA         8708709000032500000001815000000067030000005585800000020006955002922217801000000      00000000000000      011102  
FP9512850901PN25040      651426621306202215072022 5Z0/  823031/C /GRUTAMPA        8708299900032500000002892000000106780000008898400000010009720002922660301000000      00000000000000      011102  
FP9517144301PN31059      651426621306202215072022 6EA/  827025/  /GRUTAMPA        8708299900032500000004430000000163570000013630700000010010600002922660501000000      00000000000000      011102  
FP9516997201PN30051      651429031306202215072022 5GB/  807049/  /   SUPORTE      8708100000032500000000067000000002460000000205100000010000075002918953901000000      00000000000000      011102  
FP9516718411             651429081306202215072022 5GB/  807049/  /   SUPORTE      8708100000032500000000065000000002410000000200900000010000075002918953901000000      00000000000000      011102  
FP9518478911             651429081306202215072022 1K0/  121407/F /   RESERVATOR   8708999000032500000001039000000012790000003197800000020000764002918953911000000      00000000000000      011102  
FP9518478911             651429081306202215072022 2QB/  615301/D /   DISCO        8708309000032500000002862000000105680000008806300000050025400002918953901000000      00000000000000      011102  
FP9518478911             651429081306202215072022 5U5/  810971/C /   PROTETOR     8708299900032500000000480000000017710000001475600000030002400002918953901000000      00000000000000      011102  
FP9518478911             651429081306202215072022 5U1/  837016/AC/   FECHADURA    8301200000065000000000950000000017530000001461100000010000590002918953901000000      00000000000000      011102  
FP9518478911             651429081306202215072022 6EA/  837205/G /GRUMACANETA     8708299900032500000003582000000132250000011020700000040000328002918953901000000      00000000000000      011102  
FP9516718411             651429081306202215072022 030/  121016/A /   BOMBA AGUA   8413309000032500000006762000000249670000020806100000110007744002918953901000000      00000000000000      011102  
FP9518478911             651429091306202215072022 191/  827471/  /   FOLHA        3919909000097500000000385000000004740000000395300000500000001002918953901000000      00000000000000      011102  
FP9518478911             651429091306202215072022 5Z4/  853516/H /GRUPROTECAO     3926300000032500000000202000000007470000000622200000010000002002918953901000000      00000000000000      011102  
FP9518478911             651429091306202215072022 5Z4/  853754/H /GRUPROTECAO     3926300000032500000000138000000005080000000423700000010000001002918953901000000      00000000000000      011102  
FP9517144301PN31059      651435061306202215072022 5U7/  823031/  /GRUTAMPA        8708299900032500000003987000000147210000012267700000010012400002922686401000000      00000000000000      011102  
FP9517144301PN31059      651435061306202215072022 5U6/  827025/G /GRUTAMPA        8708299900032500000004511000000166560000013879600000010010200002922686501000000      00000000000000      011102  
FPF100000000000027                                                                                                                                                                                 
FPI00000000000000130620220000000000005101417                                                                                                                                                       
FP5518556201Est1306      1306202213062022 1SB/  809606/A /GRU00000020000000  5U5/  809605/B /GRU00000020000000  5U6/  813301/C /GRU00000020000000                                          220800  
FP5518556201Est1306      1306202213062022 5U7/  809605/D /GRU00000020000000  5Z0/  821022/P /GRU00000020000000                     00000000000000                                          220800  
FP5518612003CP1306       1306202213062022 6EC/  867211/G /UOO00000010000000  6EC/  845214/  /   00000010000000  6EC/  845213/  /   00000010000000                                          220800  
FP5518612003CP1306       1306202213062022 6EA/  839885/  /   00000010000000  5Z4/  877234/  /   00000020000002  5Z3/  877233/  /   00000020000001                                          220800  
FP5518612003CP1306       1306202213062022 5Z0/  819045/G /EL700000010000000  2GP/  971095/  /   00000010000000  2GP/  919494/  /   00000010000000                                          220800  
FP5518612003CP1306       1306202213062022 2GP/  919493/A /   00000020000000  2GP/  857121/  /TR200000010000000  2GP/  823737/  /   00000010000000                                          220800  
FP5518612003CP1306       1306202213062022 2GB/  971693/  /   00000010000000  2G4/  867012/R /TZL00000010000000  1S0/  864919/  /   00000020000000                                          220800  
FP5518612003CP1306       1306202213062022 1K0/  853437/B /95T00000010000000  06H/  103731/G /   00000010000000                     00000000000000                                          220800  
FP6508780701PN16034      16032022 5Z0/  823031/D /GRU000000100000107039 2QB/  919673/  /   000001000000005757 2G5/  853856/B /ZKS000000100000020641B                                               
FP6508780701PN16034      16032022 1SB/  805903/F /9B9000000100000008645 030/  107411/H /   000000800000002796   G/  060751/A2/   000000200000022646B                                               
FP6508942301PN17034      17032022 5GM/  805705/  /   000000100000009124                    000000000000000000                    000000000000000000B                                               
FP6509739801PN24030      24032022 5Z0/  823031/D /GRU000000100000107039                    000000000000000000                    000000000000000000B                                               
FP6509894701PN25031      25032022   G/  060751/A2/   000000100000022646 1SB/  805903/F /9B9000000100000023964 217/  419669/1 /1NN000000200000005481B                                               
FP6509894701PN25031      25032022 2QB/  919051/D /   000000100000072759 2QB/  919673/  /   000000400000005757 5GM/  805705/  /   000000100000009124B                                               
FP6509894701PN25031      25032022 5Z0/  941206/C /   000000100000029788 5Z0/  941531/A /BVY000000100000010560                    000000000000000000B                                               
FP6510245911             29032022 2G5/  601025/A /FZZ000000200000074612                    000000000000000000                    000000000000000000B                                               
FP6510343001PN30034      30032022 5U0/  853666/M /9B9000000200000007848 5Z0/  823031/D /GRU000000100000107039 5Z0/  941531/A /BVY000000100000010560B                                               
FP6510791901757847       04042022 5C6/  807305/  /   000000100000074344                    000000000000000000                    000000000000000000B                                               
FP6511860011             12042022 1S0/  407151/A /   000000200000007270                    000000000000000000                    000000000000000000B                                               
FP6512085203CP1404       14042022 2G6/  863459/A /82V000000100000012024                    000000000000000000                    000000000000000000B                                               
FP6512246103CP1804       18042022 6EA/  419685/A /VHU000000100000007658                    000000000000000000                    000000000000000000B                                               
FP6512446611             19042022 5U0/  853665/G /9B9000000100000002208                    000000000000000000                    000000000000000000B                                               
FP6512588401PN17211      20042022 17B/  955426/  /03C000000200000011906 1K8/  827761/D /   000000100000004744 5GM/  805931/  /   000000100000004526B                                               
FP6512588401PN17211      20042022 5Z0/  823031/C /GRU000000200000088984                    000000000000000000                    000000000000000000B                                               
FP6512643011             20042022 5U0/  819707/  /ST3000000500000004439                    000000000000000000                    000000000000000000B                                               
FP6512699501PN22041      22042022   G/  052182/A2/   000002000000005969 5U0/  805583/E /9B9000000300000004036 5U0/  853665/M /9B9000000100000007738B                                               
FP6512699501PN22041      22042022 5U0/  937537/A /   000000100000021225 6EA/  813301/  /GRU000000100000066394 6EA/  880201/H /HVF000000100000030282B                                               
FP6512850901PN25040      25042022 5Z1/  423057/B /   000000100000098264 5Z0/  941531/A /BVY000000100000010723 5U0/  853665/G /9B9000000200000002254B                                               
FP6512850901PN25040      25042022 5U0/  805583/E /9B9000000400000004037 5GM/  805931/  /   000000100000004526 2QB/  407366/  /   000000100000011354B                                               
FP6512850901PN25040      25042022 2H1/  941016/L /   000000100000061478 2GP/  853856/A /9B9000000100000031214   G/  060751/A2/   000000100000022646B                                               
FP6512855101PN25041      25042022 5U0/  853666/M /9B9000000100000007968 6EA/  880201/H /HVF000000100000030282                    000000000000000000B                                               
FP6512984501PN2604       26042022 5U7/  805588/A /GRU000000400000046357 6EA/  831055/H /GRU000000500000067927 6EA/  880201/H /HVF000000100000030282B                                               
FP6513024703CP2604       26042022 5NA/  827025/J /   000000100000379620                    000000000000000000                    000000000000000000B                                               
FP6513050111             26042022 6EA/  941006/  /   000000100000042328 5Z0/  807109/D /   000000200000062624 1SB/  959857/  /9B9000000300000004046B                                               
FP6513324903CP2804       28042022 17A/  845011/AF/NVB000000100000181370 2GK/  941774/A /   000000100000468941                    000000000000000000B                                               
FP6513372011             28042022 032/  107411/C /   000001600000003318 6EA/  941005/  /   000000200000042329 6EA/  941006/  /   000000200000042329B                                               
FP6513412401PN29041      29042022 2G5/  807521/  /9B9000000100000027262                    000000000000000000                    000000000000000000B                                               
FP6514012103CP0405       04052022 2QB/  919051/D /   000000100000072759                    000000000000000000                    000000000000000000B                                               
FP6514233401PN14170      06052022 6QE/  807217/B /GRU000000100000070704 6EA/  805903/A /9B9000000100000006081 5Z4/  831055/J /GRU000000100000145195B                                               
FP6514233401PN14170      06052022 5Z0/  807833/B /UY2000000100000018654 5U7/  827565/  /MK1000000100000018970 2QB/  407366/  /   000000300000011353B                                               
FP6514395703CP0905       09052022 17A/  839701/B /5AP000000100000021296                    000000000000000000                    000000000000000000B                                               
FP6514508011             09052022 5Z0/  941206/C /   000000200000029192                    000000000000000000                    000000000000000000B                                               
FP6514545201PN1005       10052022 032/  103063/AD/   000000300000189464                    000000000000000000                    000000000000000000B                                               
FP6514855111             11052022 5Z0/  412331/C /   000000500000007153                    000000000000000000                    000000000000000000B                                               
FP6514956303CP1205       12052022 1SB/  807305/  /   000000100000015112 1SB/  807305/  /   000000100000015112 2GJ/  853687/E /2ZZ000000100000004082B                                               
FP6514956303CP1205       12052022 5Z0/  941206/C /   000000100000029788 5Z0/  941206/C /   000000100000029788                    000000000000000000B                                               
FP6515338503 CP1605      16052022 5Q6/  407271/K /   000000100000185352                    000000000000000000                    000000000000000000B                                               
FP6515439104LD-42888     17052022 5Z1/  423057/B /   000000100000084855                    000000000000000000                    000000000000000000B                                               
FP6515578811             17052022 5Z0/  941205/C /   000000100000030166                    000000000000000000                    000000000000000000B                                               
FP6515656401PN1805       18052022 6EA/  941006/  /   000000100000043192 6EA/  880201/H /HVF000000200000030282 5Z4/  831055/J /GRU000000100000145195B                                               
FP6515656401PN1805       18052022 5Z0/  823031/C /GRU000000100000088984 5U7/  941699/  /   000000100000036386 2GM/  809471/  /GRU000000100000001080B                                               
FP6515656401PN1805       18052022 1S0/  721261/F /   000000100000037642 17B/  955426/  /03C000000100000011906 032/  103063/AD/   000000700000189464B                                               
FP6515858903CP1905       19052022 5QM/  423055/B /   000000100001036760                    000000000000000000                    000000000000000000B                                               
FP6516007203CP2005       20052022   G/  052182/A2/   000001000000005969   G/  052182/A2/   000001000000005969   G/  052182/A2/   000001000000005969B                                               
FP6516007203CP2005       20052022   G/  052182/A2/   000001000000005969   G/  052182/A2/   000001000000005969   G/  052182/A2/   000001000000005969B                                               
FP6516007203CP2005       20052022   G/  052182/A2/   000001000000005969   G/  052182/A2/   000001000000005969   G/  052182/A2/   000001000000005969B                                               
FP6516007203CP2005       20052022   G/  052182/A2/   000001000000005969   G/  052182/A2/   000001000000005969   G/  052182/A2/   000001000000005969B                                               
FP6516249903CP2405       24052022 6EA/  837885/  /   000000100000005035 2Q3/  959881/A /   000000100000139459 2G4/  837901/E /9B9000000100000003967B                                               
FP6516337601PN24051      24052022 6X0/  819465/E /   000000100000016008 6EA/  941006/D /   000000200000051404 6EA/  880201/H /HVF000000100000030282B                                               
FP6516337601PN24051      24052022 6EA/  831056/H /GRU000000100000067927 6EA/  813301/A /GRU000000100000009665 6EA/  805903/A /9B9000000100000006081B                                               
FP6516337601PN24051      24052022 5U7/  941699/  /   000000100000036386 5U0/  853665/G /9B9000000100000002254 5U0/  121253/C /   000000200000044785B                                               
FP6516337601PN24051      24052022 2QB/  407366/  /   000000100000011354 2GP/  853856/A /9B9000000100000031214 2GP/  805911/A /   000000100000009087B                                               
FP6516337601PN24051      24052022 1K8/  827761/D /   000000100000004744                    000000000000000000                    000000000000000000B                                               
FP6516497001PN25050      25052022 6EA/  941006/D /   000000100000051403 6EA/  880201/H /HVF000000100000030282 6EA/  853651/D /RYP000000200000040712B                                               
FP6516497001PN25050      25052022 6EA/  831056/H /GRU000000100000067927 2QB/  959655/A /   000000100000169439 2H6/  853727/  /GRU000000200000045359B                                               
FP6516497001PN25050      25052022 2H6/  823033/C /GRU000000100000302150 2GP/  805912/A /   000000100000009087 2GP/  805911/A /   000000100000009087B                                               
FP6516588104LD-43077     26052022 0D9/  300043/F /00L000000100003222101                    000000000000000000                    000000000000000000B                                               
FP6516631401PN26051      26052022 2GJ/  854820/  /9B9000000200000016612                    000000000000000000                    000000000000000000B                                               
FP6516681103CP2605       26052022 2QB/  959655/D /   000000100000135553                    000000000000000000                    000000000000000000B                                               
FP6516718411             26052022   N/  907543/02/   000002500000000068                    000000000000000000                    000000000000000000B                                               
FP6516997201PN30051      30052022 6EA/  813301/A /GRU000000300000009665 6EA/  831056/H /GRU000000100000067927 6EA/  805903/A /9B9000000100000006081B                                               
FP6516997201PN30051      30052022 5Z0/  823031/C /GRU000000100000088984 6EA/  941005/  /   000000100000043192 6EA/  941006/  /   000000400000043192B                                               
FP6516997201PN30051      30052022 6EA/  941006/D /   000000100000051403 6X0/  819465/E /   000000100000016008 5U7/  941699/  /   000000100000036386B                                               
FP6516997201PN30051      30052022 5U7/  827565/  /MK1000000100000018970 5U0/  853665/G /9B9000000100000002254 5U0/  407625/B /   000000200000012421B                                               
FP6516997201PN30051      30052022 5U0/  121253/C /   000000200000044785 2GP/  806930/B /   000000100000013001 17B/  955426/  /03C000000100000011906B                                               
FP6516997201PN30051      30052022 030/  121016/A /   000000400000019301                    000000000000000000                    000000000000000000B                                               
FP6517036203CP3005       30052022 2G5/  853855/B /ZKS000000100000020959 5C6/  805931/  /   000000100000005625 5Z1/  423057/B /   000000100000098264B                                               
FP6517683603CP0306       03062022 1SB/  880201/J /81U000000100000041111                    000000000000000000                    000000000000000000B                                               
FP6517846903CP0606       06062022 8K0/  973704/  /   000000100000003229                    000000000000000000                    000000000000000000B                                               
FP6517898411             06062022 17B/  955426/A /03C000000100000012462 5U0/  805903/C /EL7000000200000026184 5U0/  853665/M /9B9000000200000010354B                                               
FP6518073801PN0806       08062022 2G5/  809606/  /GRU000000100000141061 5Z1/  941008/M /   000000100000052340 LIT/  041451/70/   000100000000000075B                                               
FP6518201303CP0906       09062022 373/  853707/  /   000000100000011215                    000000000000000000                    000000000000000000B                                               
FP6518478911             10062022 2GP/  853651/B /JZR000000100000064170 6QE/  721261/D /   000000400000007508                    000000000000000000B                                               
FP6518612003CP1306       13062022 5Z4/  877234/  /   000000200000004473 5Z3/  877233/  /   000000100000004494                    000000000000000000B                                               
FP7510371701PN30032      30032022 6EA/  807217/F /GRU000000400000074166                    000000000000000000                    000000000000000000                                                
FP7514046511             04052022 6QE/  721388/A /   000000200000006271                    000000000000000000                    000000000000000000                                                
FP7514233401PN14170      06052022   G/  060175/A2/   000000100000050366                    000000000000000000                    000000000000000000                                                
FP7515656401PN1805       18052022   G/  060175/A2/   000000400000050366                    000000000000000000                    000000000000000000                                                
FP7516337601PN24051      24052022   G/  060175/A2/   000000100000050366                    000000000000000000                    000000000000000000                                                
FP7516631401PN26051      26052022 2QB/  407152/C /   000000300000021355                    000000000000000000                    000000000000000000                                                
FP7518478911             10062022 2G0/  941662/  /   000000100000044630 5U0/  823031/C /GRU000000100000146670 5U7/  853050/D /MX1000000100000003385                                                
FP7518556201Est1306      13062022 5U7/  809605/D /GRU000000100000164362                    000000000000000000                    000000000000000000                                                
FPF000000000000094                                                                                                                                                                                 
FRI10000000000000130620220000000000005101417                                                                                                                                                       
FR111000000000000000000000000000000000000000000000000000000000000+00000000000000+C                                                                                                         010699  
FR111000000000000000000000000000000000000000000000000000000000000+00000000000000+N                                                                                                         010699  
FR111000000000000000000000000000000000000000000000000000003208938-00000000000000+O                                                                                                         010699  
FR20004961384   P3105202201072022000000000018110000000000000000000000000000000                                                  000000000000000                                            000     
FR20004961383   P3105202201072022000000000183121000000000000000000000000000000                                                  000000000000000                                            000     
F060101 DOLAR REFERENCIAL DIARIO - VENDA                                                                                                                                                   300997  
F06021406202200000051033000000000000000000000000000000000000000000000000000000000000000000000000000000000000000000000000000000000000000000000000000000000000000000000000000000000          300997  
F060105 UFIR - UNIDADE FISCAL DE REFERENCIA                                                                                                                                                300997  
F06021406202200000010641000000000000000000000000000000000000000000000000000000000000000000000000000000000000000000000000000000000000000000000000000000000000000000000000000000000          300997  
F060114 IGPM - INDICE GERAL DE PRECOS DO MERCADO                                                                                                                                           300997  
F06021406202200010249084000000000000000000000000000000000000000000000000000000000000000000000000000000000000000000000000000000000000000000000000000000000000000000000000000000000          300997  
F060130 TRD - TAXA REFERENCIAL DIARIA                                                                                                                                                      300997  
F06021406202200000000130463100000000000000000000000000000000000000000000000000000000000000000000000000000000000000000000000000000000000000000000000000000000000000000000000000000          300997  
F060175 TABELA DE QCS PARA LIQUIDACAO DE DEBITOS EXCLUSIVAMENTE JUNTO AO CREDITO ROTATIVO                                                                                                  300997  
F06021406202200000246957886200000000000000000000000000000000000000000000000000000000000000000000000000000000000000000000000000000000000000000000000000000000000000000000000000000          300997  
F060178 TABELA DE QCIS PARA LIQUIDACAO DE DEBITOS EXCLUSIVAMENTE JUNTO AO CREDITO ROTATIVO - VEICULOS IMPORTADOS VW                                                                        300997  
F06021406202200000013536108300000000000000000000000000000000000000000000000000000000000000000000000000000000000000000000000000000000000000000000000000000000000000000000000000000          300997  
F060192 TABELA DE QCIS PARA LIQUIDACAO DE DEBITOS EXCLUSIVAMENTE JUNTO AO CREDITO ROTATIVO - VEICULOS IMPORT. SEAT                                                                         300997  
F06021406202200000013626515900000000000000000000000000000000000000000000000000000000000000000000000000000000000000000000000000000000000000000000000000000000000000000000000000000          300997  
F060196 TABELA DE QCIS PARA LIQUIDACAO DE DEBITOS EXCLUSIVAMENTE JUNTO AO CREDITO ROTATIVO - VEIC.IMPORT VW/96                                                                             300997  
F06021406202200000330951123400000000000000000000000000000000000000000000000000000000000000000000000000000000000000000000000000000000000000000000000000000000000000000000000000000          300997  
F0601101TABELA DE QCIS PARA LIQUIDACAO DE DEBITOS EXCLUSIVAMENTE JUNTO AO CREDITO ROTATIVO - VEICULO USADO                                                                                 300997  
F06021406202200000451866798100000000000000000000000000000000000000000000000000000000000000000000000000000000000000000000000000000000000000000000000000000000000000000000000000000          300997  
F0601105TABELA DE QCIS PARA LIQUIDACAO DE DEBITOS EXCLUSIVAMENTE JUNTO AO CREDITO ROTATIVO - VEICULOS AUDI                                                                                 300997  
F06021406202200000722642040900000000000000000000000000000000000000000000000000000000000000000000000000000000000000000000000000000000000000000000000000000000000000000000000000000          300997  
F0601106TABELA DE QCIS PARA LIQUIDACAO DE DEBITOS EXCLUSIVAMENTE JUNTO AO CREDITO ROTATIVO - PECAS                                                                                         300997  
F06021406202200000983055528900000000000000000000000000000000000000000000000000000000000000000000000000000000000000000000000000000000000000000000000000000000000000000000000000000          300997  
F0601109TABELA DE QCIS PARA LIQUIDACAO DE DEBITOS EXCLUSIVAMENTE JUNTO AO CREDITO ROTATIVO - CAMINHOES USADOS                                                                              300997  
F06021406202200001006069452500000000000000000000000000000000000000000000000000000000000000000000000000000000000000000000000000000000000000000000000000000000000000000000000000000          300997  
F0601110TABELA DE QCIS PARA LIQUIDACAO DE DEBITOS EXCLUSIVAMENTE JUNTO AO CREDITO ROTATIVO - AUDI USADOS                                                                                   300997  
F06021406202200000732749830000000000000000000000000000000000000000000000000000000000000000000000000000000000000000000000000000000000000000000000000000000000000000000000000000000          300997  
F0601111TABELA DE QCIS PARA LIQUIDACAO DE DEBITOS EXCLUSIVAMENTE JUNTO AO CREDITO ROTATIVO - SEAT USADOS                                                                                   300997  
F06021406202200000742147307700000000000000000000000000000000000000000000000000000000000000000000000000000000000000000000000000000000000000000000000000000000000000000000000000000          300997  
F0601115TABELA DE QCIS PARA LIQUIDACAO DE DEBITOS EXCLUSIVAMENTE JUNTO AO CREDITO ROTATIVO - QC COM BONUS                                                                                  300997  
F06021406202200000306399671600000000000000000000000000000000000000000000000000000000000000000000000000000000000000000000000000000000000000000000000000000000000000000000000000000          300997  
F0601116TABELA DE QCIS PARA LIQUIDACAO DE DEBITOS EXCLUSIVAMENTE JUNTO AO CREDITO ROTATIVO - QC DO BONUS ROTATIVO                                                                          300997  
F06021406202200000092909198200000000000000000000000000000000000000000000000000000000000000000000000000000000000000000000000000000000000000000000000000000000000000000000000000000          300997  
F0601117TABELA DE QCIS PARA LIQUIDACAO DE DEBITOS EXCLUSIVAMENTE JUNTO AO CREDITO ROTATIVO - QC FINANCIAMENTO ICMS                                                                         300997  
F06021406202200000983055530800000000000000000000000000000000000000000000000000000000000000000000000000000000000000000000000000000000000000000000000000000000000000000000000000000          300997  
F0601119TABELA DE QCIS PARA LIQUIDACAO DE DEBITOS EXCLUSIVAMENTE JUNTO AO CREDITO ROTATIVO - MULTA DE CONFISSAO DIV                                                                        300997  
F06021406202200000010000000000000000000000000000000000000000000000000000000000000000000000000000000000000000000000000000000000000000000000000000000000000000000000000000000000000          300997  
FRF100000000000043                                                                                                                                                                                 
FVI10060000000000140620220000000000005101417                                                                                                                                                       
F229BWAG45U0PT010481295304060520229BWBJ6BF5N4056600473976260420228AWBJ6B20NA805417668814200920219BWBH6BF6N406477948043227052022                                                            300997  
F229BWCH6CH5NP030982715217160520229BWCH6CH3NP025618714342130520229BWBH6BFXN4026777468422220320229BWCH6CH5NP02246271622528052022                                                            300997  
F229BWDH5BZ2NP036845713549120520229BWBJ6BF4N4038007457865210220229BWBJ6BF7N4055707472844200420229BWBJ6BF4N405402847218418042022                                                            300997  
F229BWDJ5BZ9NP040962710459280420229BWDH5BZ9NP040763710454280420229BWBJ6BFXN4055667472809200420229BWAG45U6PT00279028678019042022                                                            300997  
F229BWBH6BF0N406620548223102062022                                                                                                                                                         300997  
FVF100000000000007                                                                                                                                                                                 
FVI10060000000000130620220000000000005101417                                                                                                                                                       
F239BWAG45U8PT006792BAIXA EFETUADA                                                                                                                                                         250897  
FVF100000000000003                                                                                                                                                                                 
FAI10000000000000140620220000000000005101417                                                                                                                                                       
FA100000000000000+00000000000000+00000000000000+00000000000000+00000000000000+00000000000000+00000000000000+00000000000000+00000000000000+                                                         
FA200000000000000+00000000000000+00000000000000+00000000000000+00000000000000+00000000000000+00000000000000+00000000000000+00000000000000+                                                         
FA3000104612000010620220707202200000000004686600000000004686600000000000000000000000000000000000000000000070720220 88  ICMS ST PECAS                                                               
FA3000101270000010620220707202200000000000018200000000000018200000000000000000000000000000000000000000000070720220 88  ICMS ST PECAS                                                               
FA3000101271000010620220707202200000000001451600000000001451600000000000000000000000000000000000000000000070720220 88  ICMS ST PECAS                                                               
FA3000101272000010620220707202200000000001115800000000001115800000000000000000000000000000000000000000000070720220 88  ICMS ST PECAS                                                               
FA3000099358000010620220707202200000000000128700000000000128700000000000000000000000000000000000000000000070720220 88  ICMS ST PECAS                                                               
FA3000100705000010620220707202200000000002383900000000002383900000000000000000000000000000000000000000000070720220 88  ICMS ST PECAS                                                               
FA3000101966000010620220707202200000000000545500000000000545500000000000000000000000000000000000000000000070720220 88  ICMS ST PECAS                                                               
FA3000099305000010620220707202200000000006996600000000006996600000000000000000000000000000000000000000000070720220 88  ICMS ST PECAS                                                               
FA3000102721000010620220707202200000000000252900000000000252900000000000000000000000000000000000000000000070720220 88  ICMS ST PECAS                                                               
FA3000102722000010620220707202200000000000116000000000000116000000000000000000000000000000000000000000000070720220 88  ICMS ST PECAS                                                               
FA3000099761000010620220707202200000000003006000000000003006000000000000000000000000000000000000000000000070720220 88  ICMS ST PECAS                                                               
FA3000100403000010620220707202200000000000976100000000000976100000000000000000000000000000000000000000000070720220 88  ICMS ST PECAS                                                               
FA3000101854000010620220707202200000000000346400000000000346400000000000000000000000000000000000000000000070720220 88  ICMS ST PECAS                                                               
FA3000100223000010620220707202200000000000023800000000000023800000000000000000000000000000000000000000000070720220 88  ICMS ST PECAS                                                               
FA3000100224000010620220707202200000000001007500000000001007500000000000000000000000000000000000000000000070720220 88  ICMS ST PECAS                                                               
FA3000100230000010620220707202200000000018614100000000018614100000000000000000000000000000000000000000000070720220 88  ICMS ST PECAS                                                               
FA3000098865000010620220707202200000000002525100000000002525100000000000000000000000000000000000000000000070720220 88  ICMS ST PECAS                                                               
FA3000105141000020620220707202200000000000065400000000000065400000000000000000000000000000000000000000000070720220 88  ICMS ST PECAS                                                               
FA3000105500000020620220707202200000000000004500000000000004500000000000000000000000000000000000000000000070720220 88  ICMS ST PECAS                                                               
FA3000105501000020620220707202200000000005698800000000005698800000000000000000000000000000000000000000000070720220 88  ICMS ST PECAS                                                               
FA3000106038000020620220707202200000000001468900000000001468900000000000000000000000000000000000000000000070720220 88  ICMS ST PECAS                                                               
FA3000106039000020620220707202200000000003470800000000003470800000000000000000000000000000000000000000000070720220 88  ICMS ST PECAS                                                               
FA3000106040000020620220707202200000000002767000000000002767000000000000000000000000000000000000000000000070720220 88  ICMS ST PECAS                                                               
FA3000106041000020620220707202200000000015397400000000015397400000000000000000000000000000000000000000000070720220 88  ICMS ST PECAS                                                               
FA3000106042000020620220707202200000000000389600000000000389600000000000000000000000000000000000000000000070720220 88  ICMS ST PECAS                                                               
FA3000106043000020620220707202200000000001055300000000001055300000000000000000000000000000000000000000000070720220 88  ICMS ST PECAS                                                               
FA3000106615000020620220707202200000000000507200000000000507200000000000000000000000000000000000000000000070720220 88  ICMS ST PECAS                                                               
FA3000106289000020620220707202200000000001340600000000001340600000000000000000000000000000000000000000000070720220 88  ICMS ST PECAS                                                               
FA3000107004000020620220707202200000000001216700000000001216700000000000000000000000000000000000000000000070720220 88  ICMS ST PECAS                                                               
FA3000107389000020620220707202200000000002016000000000002016000000000000000000000000000000000000000000000070720220 88  ICMS ST PECAS                                                               
FA3000106292000020620220707202200000000005700900000000005700900000000000000000000000000000000000000000000070720220 88  ICMS ST PECAS                                                               
FA3000107390000020620220707202200000000000086200000000000086200000000000000000000000000000000000000000000070720220 88  ICMS ST PECAS                                                               
FA3000107011000020620220707202200000000002076800000000002076800000000000000000000000000000000000000000000070720220 88  ICMS ST PECAS                                                               
FA3000106761000020620220707202200000000005662800000000005662800000000000000000000000000000000000000000000070720220 88  ICMS ST PECAS                                                               
FA3000106570000020620220707202200000000001164600000000001164600000000000000000000000000000000000000000000070720220 88  ICMS ST PECAS                                                               
FA3000106762000020620220707202200000000000168800000000000168800000000000000000000000000000000000000000000070720220 88  ICMS ST PECAS                                                               
FA3000106763000020620220707202200000000000233000000000000233000000000000000000000000000000000000000000000070720220 88  ICMS ST PECAS                                                               
FA3000106765000020620220707202200000000000479100000000000479100000000000000000000000000000000000000000000070720220 88  ICMS ST PECAS                                                               
FA3000108241000020620220707202200000000001591200000000001591200000000000000000000000000000000000000000000070720220 88  ICMS ST PECAS                                                               
FA3000482231000020620220707202200000000028093700000000028093700000000000000000000000000000000000000000000070720220 99  ICMS ST VEICULOS                                                            
FA3000106766000020620220707202200000000003316900000000003316900000000000000000000000000000000000000000000070720220 88  ICMS ST PECAS                                                               
FA3000106767000020620220707202200000000000472600000000000472600000000000000000000000000000000000000000000070720220 88  ICMS ST PECAS                                                               
FA3000108243000020620220707202200000000001559400000000001559400000000000000000000000000000000000000000000070720220 88  ICMS ST PECAS                                                               
FA3000107803000020620220707202200000000001911900000000001911900000000000000000000000000000000000000000000070720220 88  ICMS ST PECAS                                                               
FA3000107805000020620220707202200000000002578000000000002578000000000000000000000000000000000000000000000070720220 88  ICMS ST PECAS                                                               
FA3000109904000030620220707202200000000003995800000000003995800000000000000000000000000000000000000000000070720220 88  ICMS ST PECAS                                                               
FA3000110807000030620220707202200000000000144200000000000144200000000000000000000000000000000000000000000070720220 88  ICMS ST PECAS                                                               
FA3000109776000030620220707202200000000000358900000000000358900000000000000000000000000000000000000000000070720220 88  ICMS ST PECAS                                                               
FA3000109905000030620220707202200000000000772200000000000772200000000000000000000000000000000000000000000070720220 88  ICMS ST PECAS                                                               
FA3000111101000030620220707202200000000003599900000000003599900000000000000000000000000000000000000000000070720220 88  ICMS ST PECAS                                                               
FA3000111320000030620220707202200000000006129000000000006129000000000000000000000000000000000000000000000070720220 88  ICMS ST PECAS                                                               
FA3000108935000030620220707202200000000000172600000000000172600000000000000000000000000000000000000000000070720220 88  ICMS ST PECAS                                                               
FA3000108936000030620220707202200000000000665100000000000665100000000000000000000000000000000000000000000070720220 88  ICMS ST PECAS                                                               
FA3000108937000030620220707202200000000005611800000000005611800000000000000000000000000000000000000000000070720220 88  ICMS ST PECAS                                                               
FA3000109213000030620220707202200000000001216700000000001216700000000000000000000000000000000000000000000070720220 88  ICMS ST PECAS                                                               
FA3000108938000030620220707202200000000000764000000000000764000000000000000000000000000000000000000000000070720220 88  ICMS ST PECAS                                                               
FA3000108939000030620220707202200000000000480400000000000480400000000000000000000000000000000000000000000070720220 88  ICMS ST PECAS                                                               
FA3000111527000030620220707202200000000001082700000000001082700000000000000000000000000000000000000000000070720220 88  ICMS ST PECAS                                                               
FA3000111261000030620220707202200000000005777200000000005777200000000000000000000000000000000000000000000070720220 88  ICMS ST PECAS                                                               
FA3000112437000030620220707202200000000003310800000000003310800000000000000000000000000000000000000000000070720220 88  ICMS ST PECAS                                                               
FA3000112502000030620220707202200000000001307200000000001307200000000000000000000000000000000000000000000070720220 88  ICMS ST PECAS                                                               
FA3000113687000040620220707202200000000005650100000000005650100000000000000000000000000000000000000000000070720220 88  ICMS ST PECAS                                                               
FA3000113733000040620220707202200000000005650100000000005650100000000000000000000000000000000000000000000070720220 88  ICMS ST PECAS                                                               
FA3000114085000040620220707202200000000002374100000000002374100000000000000000000000000000000000000000000070720220 88  ICMS ST PECAS                                                               
FA3000114086000040620220707202200000000000792600000000000792600000000000000000000000000000000000000000000070720220 88  ICMS ST PECAS                                                               
FA3000114087000040620220707202200000000000301700000000000301700000000000000000000000000000000000000000000070720220 88  ICMS ST PECAS                                                               
FA3000114677000040620220707202200000000008660200000000008660200000000000000000000000000000000000000000000070720220 88  ICMS ST PECAS                                                               
FA3000113161000040620220707202200000000012843100000000012843100000000000000000000000000000000000000000000070720220 88  ICMS ST PECAS                                                               
FA3000113162000040620220707202200000000002146900000000002146900000000000000000000000000000000000000000000070720220 88  ICMS ST PECAS                                                               
FA3000113163000040620220707202200000000001530900000000001530900000000000000000000000000000000000000000000070720220 88  ICMS ST PECAS                                                               
FA3000117305000060620220707202200000000001233700000000001233700000000000000000000000000000000000000000000070720220 88  ICMS ST PECAS                                                               
FA3000117077000060620220707202200000000000148300000000000148300000000000000000000000000000000000000000000070720220 88  ICMS ST PECAS                                                               
FA3000117964000060620220707202200000000007244800000000007244800000000000000000000000000000000000000000000070720220 88  ICMS ST PECAS                                                               
FA3000117965000060620220707202200000000003203600000000003203600000000000000000000000000000000000000000000070720220 88  ICMS ST PECAS                                                               
FA3000117966000060620220707202200000000000869900000000000869900000000000000000000000000000000000000000000070720220 88  ICMS ST PECAS                                                               
FA3000117219000060620220707202200000000000017200000000000017200000000000000000000000000000000000000000000070720220 88  ICMS ST PECAS                                                               
FA3000114988000060620220707202200000000005650100000000005650100000000000000000000000000000000000000000000070720220 88  ICMS ST PECAS                                                               
FA3000114991000060620220707202200000000005762700000000005762700000000000000000000000000000000000000000000070720220 88  ICMS ST PECAS                                                               
FA3000116574000060620220707202200000000002355800000000002355800000000000000000000000000000000000000000000070720220 88  ICMS ST PECAS                                                               
FA3000118685000060620220707202200000000000199800000000000199800000000000000000000000000000000000000000000070720220 88  ICMS ST PECAS                                                               
FA3000118689000060620220707202200000000000302800000000000302800000000000000000000000000000000000000000000070720220 88  ICMS ST PECAS                                                               
FA3000118690000060620220707202200000000006082100000000006082100000000000000000000000000000000000000000000070720220 88  ICMS ST PECAS                                                               
FA3000118691000060620220707202200000000000261400000000000261400000000000000000000000000000000000000000000070720220 88  ICMS ST PECAS                                                               
FA3000118692000060620220707202200000000014968400000000014968400000000000000000000000000000000000000000000070720220 88  ICMS ST PECAS                                                               
FA3000119041000060620220707202200000000001098800000000001098800000000000000000000000000000000000000000000070720220 88  ICMS ST PECAS                                                               
FA3000120744000070620220707202200000000000134500000000000134500000000000000000000000000000000000000000000070720220 88  ICMS ST PECAS                                                               
FA3000120154000070620220707202200000000000575100000000000575100000000000000000000000000000000000000000000070720220 88  ICMS ST PECAS                                                               
FA3000120155000070620220707202200000000000331600000000000331600000000000000000000000000000000000000000000070720220 88  ICMS ST PECAS                                                               
FA3000120221000070620220707202200000000006534900000000006534900000000000000000000000000000000000000000000070720220 88  ICMS ST PECAS                                                               
FA3000121497000070620220707202200000000003769400000000003769400000000000000000000000000000000000000000000070720220 88  ICMS ST PECAS                                                               
FA3000121635000070620220707202200000000002242800000000002242800000000000000000000000000000000000000000000070720220 88  ICMS ST PECAS                                                               
FA3000121636000070620220707202200000000000996900000000000996900000000000000000000000000000000000000000000070720220 88  ICMS ST PECAS                                                               
FA3000119329000060620220707202200000000000114500000000000114500000000000000000000000000000000000000000000070720220 88  ICMS ST PECAS                                                               
FA3000123954000070620220707202200000000000272500000000000272500000000000000000000000000000000000000000000070720220 88  ICMS ST PECAS                                                               
FA3000123955000070620220707202200000000001697200000000001697200000000000000000000000000000000000000000000070720220 88  ICMS ST PECAS                                                               
FA3000123956000070620220707202200000000013091500000000013091500000000000000000000000000000000000000000000070720220 88  ICMS ST PECAS                                                               
FA3000122274000070620220707202200000000002948900000000002948900000000000000000000000000000000000000000000070720220 88  ICMS ST PECAS                                                               
FA3000122275000070620220707202200000000001781600000000001781600000000000000000000000000000000000000000000070720220 88  ICMS ST PECAS                                                               
FA3000122276000070620220707202200000000001305400000000001305400000000000000000000000000000000000000000000070720220 88  ICMS ST PECAS                                                               
FA3000122277000070620220707202200000000000134900000000000134900000000000000000000000000000000000000000000070720220 88  ICMS ST PECAS                                                               
FA3000123195000070620220707202200000000000276900000000000276900000000000000000000000000000000000000000000070720220 88  ICMS ST PECAS                                                               
FA3000123264000070620220707202200000000000103300000000000103300000000000000000000000000000000000000000000070720220 88  ICMS ST PECAS                                                               
FA3000122545000070620220707202200000000001174800000000001174800000000000000000000000000000000000000000000070720220 88  ICMS ST PECAS                                                               
FA3000123929000070620220707202200000000003432500000000003432500000000000000000000000000000000000000000000070720220 88  ICMS ST PECAS                                                               
FA3000123094000070620220707202200000000001667000000000001667000000000000000000000000000000000000000000000070720220 88  ICMS ST PECAS                                                               
FA3000128604000080620220707202200000000000370800000000000370800000000000000000000000000000000000000000000070720220 88  ICMS ST PECAS                                                               
FA3000128605000080620220707202200000000000278800000000000278800000000000000000000000000000000000000000000070720220 88  ICMS ST PECAS                                                               
FA3000125534000080620220707202200000000001478300000000001478300000000000000000000000000000000000000000000070720220 88  ICMS ST PECAS                                                               
FA3000126583000080620220707202200000000000076000000000000076000000000000000000000000000000000000000000000070720220 88  ICMS ST PECAS                                                               
FA3000126002000080620220707202200000000000429100000000000429100000000000000000000000000000000000000000000070720220 88  ICMS ST PECAS                                                               
FA3000126266000080620220707202200000000000180800000000000180800000000000000000000000000000000000000000000070720220 88  ICMS ST PECAS                                                               
FA3000124827000080620220707202200000000002050300000000002050300000000000000000000000000000000000000000000070720220 88  ICMS ST PECAS                                                               
FA3000124828000080620220707202200000000000220000000000000220000000000000000000000000000000000000000000000070720220 88  ICMS ST PECAS                                                               
FA3000131223000090620220707202200000000001846100000000001846100000000000000000000000000000000000000000000070720220 88  ICMS ST PECAS                                                               
FA3000132666000090620220707202200000000001161000000000001161000000000000000000000000000000000000000000000070720220 88  ICMS ST PECAS                                                               
FA3000132667000090620220707202200000000001476800000000001476800000000000000000000000000000000000000000000070720220 88  ICMS ST PECAS                                                               
FA3000132668000090620220707202200000000000333200000000000333200000000000000000000000000000000000000000000070720220 88  ICMS ST PECAS                                                               
FA3000132669000090620220707202200000000001586300000000001586300000000000000000000000000000000000000000000070720220 88  ICMS ST PECAS                                                               
FA3000131933000090620220707202200000000001054300000000001054300000000000000000000000000000000000000000000070720220 88  ICMS ST PECAS                                                               
FA3000131934000090620220707202200000000001362900000000001362900000000000000000000000000000000000000000000070720220 88  ICMS ST PECAS                                                               
FA3000131935000090620220707202200000000000093700000000000093700000000000000000000000000000000000000000000070720220 88  ICMS ST PECAS                                                               
FA3000132677000090620220707202200000000001371700000000001371700000000000000000000000000000000000000000000070720220 88  ICMS ST PECAS                                                               
FA3000132678000090620220707202200000000000073400000000000073400000000000000000000000000000000000000000000070720220 88  ICMS ST PECAS                                                               
FA3000132679000090620220707202200000000000080600000000000080600000000000000000000000000000000000000000000070720220 88  ICMS ST PECAS                                                               
FA3000133623000090620220707202200000000000844400000000000844400000000000000000000000000000000000000000000070720220 88  ICMS ST PECAS                                                               
FA3000130654000090620220707202200000000000239900000000000239900000000000000000000000000000000000000000000070720220 88  ICMS ST PECAS                                                               
FA3000130940000090620220707202200000000000399900000000000399900000000000000000000000000000000000000000000070720220 88  ICMS ST PECAS                                                               
FA3000130888000090620220707202200000000000290800000000000290800000000000000000000000000000000000000000000070720220 88  ICMS ST PECAS                                                               
FA3000134204000100620220707202200000000002883300000000002883300000000000000000000000000000000000000000000070720220 88  ICMS ST PECAS                                                               
FA3000134205000100620220707202200000000000245100000000000245100000000000000000000000000000000000000000000070720220 88  ICMS ST PECAS                                                               
FA3000134206000100620220707202200000000001273900000000001273900000000000000000000000000000000000000000000070720220 88  ICMS ST PECAS                                                               
FA3000135099000100620220707202200000000004123200000000004123200000000000000000000000000000000000000000000070720220 88  ICMS ST PECAS                                                               
FA3000133942000100620220707202200000000001108900000000001108900000000000000000000000000000000000000000000070720220 88  ICMS ST PECAS                                                               
FA3000135290000100620220707202200000000000008900000000000008900000000000000000000000000000000000000000000070720220 88  ICMS ST PECAS                                                               
FA3000135092000100620220707202200000000016404000000000016404000000000000000000000000000000000000000000000070720220 88  ICMS ST PECAS                                                               
FA3000133636000100620220707202200000000001911600000000001911600000000000000000000000000000000000000000000070720220 88  ICMS ST PECAS                                                               
FA3000133907000100620220707202200000000001383000000000001383000000000000000000000000000000000000000000000070720220 88  ICMS ST PECAS                                                               
FA3000134061000100620220707202200000000000232700000000000232700000000000000000000000000000000000000000000070720220 88  ICMS ST PECAS                                                               
FA3000135889000100620220707202200000000000563900000000000563900000000000000000000000000000000000000000000070720220 88  ICMS ST PECAS                                                               
FA3000136818000100620220707202200000000000057300000000000057300000000000000000000000000000000000000000000070720220 88  ICMS ST PECAS                                                               
FA3000136819000100620220707202200000000002107200000000002107200000000000000000000000000000000000000000000070720220 88  ICMS ST PECAS                                                               
FA3000136820000100620220707202200000000000492400000000000492400000000000000000000000000000000000000000000070720220 88  ICMS ST PECAS                                                               
FA3000136821000100620220707202200000000002600800000000002600800000000000000000000000000000000000000000000070720220 88  ICMS ST PECAS                                                               
FA3000136822000100620220707202200000000002352400000000002352400000000000000000000000000000000000000000000070720220 88  ICMS ST PECAS                                                               
FA3000136823000100620220707202200000000000194400000000000194400000000000000000000000000000000000000000000070720220 88  ICMS ST PECAS                                                               
FA3000137470000100620220707202200000000000582200000000000582200000000000000000000000000000000000000000000070720220 88  ICMS ST PECAS                                                               
FA3000137475000100620220707202200000000000164000000000000164000000000000000000000000000000000000000000000070720220 88  ICMS ST PECAS                                                               
FA3000138411000110620220707202200000000001419500000000001419500000000000000000000000000000000000000000000070720220 88  ICMS ST PECAS                                                               
FA3000138613000110620220707202200000000011055000000000011055000000000000000000000000000000000000000000000070720220 88  ICMS ST PECAS                                                               
FA3000143506000130620220707202200000000003983800000000003983800000000000000000000000000000000000000000000070720220 88  ICMS ST PECAS                                                               
FA3000142067000130620220707202200000000000851100000000000851100000000000000000000000000000000000000000000070720220 88  ICMS ST PECAS                                                               
FA3000140492000130620220707202200000000001524000000000001524000000000000000000000000000000000000000000000070720220 88  ICMS ST PECAS                                                               
FA3000140367000130620220707202200000000003488100000000003488100000000000000000000000000000000000000000000070720220 88  ICMS ST PECAS                                                               
FA3000142903000130620220707202200000000000031200000000000031200000000000000000000000000000000000000000000070720220 88  ICMS ST PECAS                                                               
FA3000142908000130620220707202200000000007503800000000007503800000000000000000000000000000000000000000000070720220 88  ICMS ST PECAS                                                               
FA3000140695000130620220707202200000000000582700000000000582700000000000000000000000000000000000000000000070720220 88  ICMS ST PECAS                                                               
FA3000140696000130620220707202200000000000058400000000000058400000000000000000000000000000000000000000000070720220 88  ICMS ST PECAS                                                               
FA3000140697000130620220707202200000000000927200000000000927200000000000000000000000000000000000000000000070720220 88  ICMS ST PECAS                                                               
FA3000142909000130620220707202200000000000226400000000000226400000000000000000000000000000000000000000000070720220 88  ICMS ST PECAS                                                               
FA3000142662000130620220707202200000000003432600000000003432600000000000000000000000000000000000000000000070720220 88  ICMS ST PECAS                                                               
FA3000144586000130620220707202200000000000713700000000000713700000000000000000000000000000000000000000000070720220 88  ICMS ST PECAS                                                               
FA3000143840000130620220707202200000000001555100000000001555100000000000000000000000000000000000000000000070720220 88  ICMS ST PECAS                                                               
FA3230679     0090620222006202200000000006758300000000006758300000000000000000000000000000000000000000000200620220 DV  ALUGUEL DE SISTEMAS                                                         
FA3757145     0110520222006202200000000003220100000000003070400000000000000000000000000000000000000000000200620220 DZRVFAT. MISCELANEOUS                                                           
FA3756219     0110520222006202200000000005600000000000005339600000000000000000000000000000000000000000000200620220 DZRVFAT. MISCELANEOUS                                                           
FA3757575     0160520222006202200000000007201100000000006758300000000000000000000000000000000000000000000200620220 DZRVFAT. MISCELANEOUS                                                           
FA3759191     0130620222007202200000000005710100000000005444600000000000000000000000000000000000000000000200720220 DZRVFAT. MISCELANEOUS                                                           
FA3759654     0130620222007202200000000012890000000000012097200000000000000000000000000000000000000000000200720220 DZRVFAT. MISCELANEOUS                                                           
FA3758728     0130620222007202200000000005880000000000005606600000000000000000000000000000000000000000000200720220 DZRVFAT. MISCELANEOUS                                                           
FA40000SALDO INICIAL                           000000000013062022C0000000059495499999SALDO FINAL                             000000000013062022C000000005949549                            040213  
FAF100000000000174                                                                                                                                                                                 
FGI10000000000000130620220000000000005101417                                                                                                                                                       
FG1COMU0014170177946044201043201                                                                                                                                                                   
FGF100000000000003                                                                                                                                                                                 
FCI10050000000000130620220000000000005101417                                                                                                                                                       
FC2DZY. A141713062022000002000000**ARQUIVO NAO PROCESSADO/ARQUIVO VAZIO (SEM REGISTROS DE PROCESSOS)**                                                                                             
FCF100000000000003                                                                                                                                                                                 
FCI10050000000000130620220000000000005101417                                                                                                                                                       
FC1000000945000000-PROCESSO DE AUTOSERVICE          - QUANTIDADE REGISTROS RECEBIDOS        00945                                                                                                  
FC2DZY. B141713062022000949000000** ARQUIVO RECEBIDO OK **                                                                                                                                         
FCF100000000000004                                                                                                                                                                                 
FCI10050000000000130620220000000000005101417                                                                                                                                                       
FC2DZY. C141713062022000002000000**ARQUIVO NAO PROCESSADO/ARQUIVO VAZIO (SEM REGISTROS DE PROCESSOS)**                                                                                             
FCF100000000000003                                                                                                                                                                                 
FCI10050000000000130620220000000000005101417                                                                                                                                                       
FC1000000051000000-PROCESSO DE AUTOSERVICE          - QUANTIDADE REGISTROS RECEBIDOS        00051                                                                                                  
FC2DZY. D141713062022000055000000** ARQUIVO RECEBIDO OK **                                                                                                                                         
FCF100000000000004                                                                                                                                                                                 
FCI10050000000000130620220000000000005101417                                                                                                                                                       
FC2DZY. A141713062022000002000000**ARQUIVO NAO PROCESSADO/ARQUIVO VAZIO (SEM REGISTROS DE PROCESSOS)**                                                                                             
FCF100000000000003                                                                                                                                                                                 
FCI10050000000000130620220000000000005101417                                                                                                                                                       
FC1000000007000000-PROCESSO DE SOLICIT DE GARANTIA  - QUANTIDADE REGISTROS RECEBIDOS        00007                                                                                                  
FC2DZY. B141713062022000011000000** ARQUIVO RECEBIDO OK **                                                                                                                                         
FCF100000000000004                                                                                                                                                                                 
FCI10050000000000130620220000000000005101417                                                                                                                                                       
FC2DZY. A141713062022000002000000**ARQUIVO NAO PROCESSADO/ARQUIVO VAZIO (SEM REGISTROS DE PROCESSOS)**                                                                                             
FCF100000000000003                                                                                                                                                                                 
FCI10050000000000130620220000000000005101417                                                                                                                                                       
FC1000000002000000-PROCESSO DE TS VEIC VENDIDOS     - QUANTIDADE REGISTROS RECEBIDOS        00002                                                                                                  
FC2DZY. B141713062022000006000000** ARQUIVO RECEBIDO OK **                                                                                                                                         
FCF100000000000004                                                                                                                                                                                 
FPI10000000000000140620220000000000005101417                                                                                                                                                       
F1000001417149107200000000164106514.06.2022                                                                                                                                                110199  
F1001001417149107214036700000000027125413.06.202214049200000000011851613.06.202214069500000000002901313.06.202214069600000000000292813.06.202214069700000000007062913.06.2022              110199  
F1001001417149107214206700000000006618413.06.202214266200000000026693913.06.202214290300000000000243013.06.202214290800000000056046313.06.202214290900000000001740113.06.2022              110199  
F1001001417149107214350600000000030980913.06.202214384000000000012093513.06.202214458600000000005334513.06.2022                                                                            110199  
FPF100000000000006                                                                                                                                                                                 
FKI10000000000000130620220000000000005101417                                                                                                                                                       
FK20000141713062200010000 A/C CPD E OFICINA  SUB-GERENTE DE ASSISTENCIA TECNICA                                         00000000000                                                        210812  
FK2001000000277954000000LOTE PROCESSADO COM SUCESSO                                                     CK6011                                                                                     
FK2001099215277954000000LOTE PROCESSADO COM SUCESSO                                                     CK7001                                                                                     
FK2001099231279190000000LOTE PROCESSADO COM SUCESSO                                                     CK7001                                                                                     
FK2001099218279177000000LOTE PROCESSADO COM SUCESSO                                                     CK7001                                                                                     
FK2001099242279204000000LOTE PROCESSADO COM SUCESSO                                                     CK7001                                                                                     
FK2001099238279146000000LOTE PROCESSADO COM SUCESSO                                                     CK7001                                                                                     
FK2001099235279185000000LOTE PROCESSADO COM SUCESSO                                                     CK7001                                                                                     
FK2001099236279193000000LOTE PROCESSADO COM SUCESSO                                                     CK7001                                                                                     
FK2001099224279162000000LOTE PROCESSADO COM SUCESSO                                                     CK7001                                                                                     
FK2001099230279181000000LOTE PROCESSADO COM SUCESSO                                                     CK7001                                                                                     
FK2001099234279195000000LOTE PROCESSADO COM SUCESSO                                                     CK7001                                                                                     
FK2001099232279200000000LOTE PROCESSADO COM SUCESSO                                                     CK7001                                                                                     
FK2001099220279128000000LOTE PROCESSADO COM SUCESSO                                                     CK7001                                                                                     
FK2001099233279186000000LOTE PROCESSADO COM SUCESSO                                                     CK7001                                                                                     
FK2001099229279192000000LOTE PROCESSADO COM SUCESSO                                                     CK7001                                                                                     
FK2001099223279163000000LOTE PROCESSADO COM SUCESSO                                                     CK7001                                                                                     
FK2001099245279166000000LOTE PROCESSADO COM SUCESSO                                                     CK7001                                                                                     
FK2001099226279179000000LOTE PROCESSADO COM SUCESSO                                                     CK7001                                                                                     
FK2001099219279201000000LOTE PROCESSADO COM SUCESSO                                                     CK7001                                                                                     
FK2001099237279171000000LOTE PROCESSADO COM SUCESSO                                                     CK7001                                                                                     
FK2001099214279134000000LOTE PROCESSADO COM SUCESSO                                                     CK7001                                                                                     
FK2001099213279114000000LOTE PROCESSADO COM SUCESSO                                                     CK7001                                                                                     
FK2001099241279084000000LOTE PROCESSADO COM SUCESSO                                                     CK7001                                                                                     
FK2001099227278948000000LOTE PROCESSADO COM SUCESSO                                                     CK7001                                                                                     
FK2001099211278586000000LOTE PROCESSADO COM SUCESSO                                                     CK7001                                                                                     
FK2001099244279047000000LOTE PROCESSADO COM SUCESSO                                                     CK7001                                                                                     
FK2001099212278292000000LOTE PROCESSADO COM SUCESSO                                                     CK7001                                                                                     
FK2001099240279099000000LOTE PROCESSADO COM SUCESSO                                                     CK7001                                                                                     
FK2001099222279102000000LOTE PROCESSADO COM SUCESSO                                                     CK7001                                                                                     
FK2001099217278627000000LOTE PROCESSADO COM SUCESSO                                                     CK7001                                                                                     
FK2001099216278982000000LOTE PROCESSADO COM SUCESSO                                                     CK7001                                                                                     
FK2001099239278889000000LOTE PROCESSADO COM SUCESSO                                                     CK7001                                                                                     
FK2001099225278511000000LOTE PROCESSADO COM SUCESSO                                                     CK7001                                                                                     
FK2001099221278034000000LOTE PROCESSADO COM SUCESSO                                                     CK7001                                                                                     
FK2001000000278034000000LOTE PROCESSADO COM SUCESSO                                                     CK6011                                                                                     
FK2001000000278034000000LOTE PROCESSADO COM SUCESSO                                                     CK6011                                                                                     
FK2001000000278292000000LOTE PROCESSADO COM SUCESSO                                                     CK6011                                                                                     
FK2001000000278511000000LOTE PROCESSADO COM SUCESSO                                                     CK6011                                                                                     
FK2001000000278511000000LOTE PROCESSADO COM SUCESSO                                                     CK6011                                                                                     
FK2001000000278586068366LOTE PROCESSADO COM SUCESSO                                                     CK6011                                                                                     
FK2001000000278586068366LOTE PROCESSADO COM SUCESSO                                                     CK6011                                                                                     
FK2001000000278627000000LOTE PROCESSADO COM SUCESSO                                                     CK6011                                                                                     
FK2001000000278627000000LOTE PROCESSADO COM SUCESSO                                                     CK6011                                                                                     
FK2001000000278889000000LOTE PROCESSADO COM SUCESSO                                                     CK6011                                                                                     
FK2001000000278948000000LOTE PROCESSADO COM SUCESSO                                                     CK6011                                                                                     
FK2001000000278948000000LOTE PROCESSADO COM SUCESSO                                                     CK6011                                                                                     
FK2001000000278972000000LOTE PROCESSADO COM SUCESSO                                                     CK6011                                                                                     
FK2001000000278982069081LOTE PROCESSADO COM SUCESSO                                                     CK6011                                                                                     
FK2001000000278982069081LOTE PROCESSADO COM SUCESSO                                                     CK6011                                                                                     
FK2001000000279007000000LOTE PROCESSADO COM SUCESSO                                                     CK6011                                                                                     
FK2001000000279047069231LOTE PROCESSADO COM SUCESSO                                                     CK6011                                                                                     
FK2001000000279047069231LOTE PROCESSADO COM SUCESSO                                                     CK6011                                                                                     
FK2001000000279084069216LOTE PROCESSADO COM SUCESSO                                                     CK6011                                                                                     
FK2001000000279084069216LOTE PROCESSADO COM SUCESSO                                                     CK6011                                                                                     
FK2001000000279099000000LOTE PROCESSADO COM SUCESSO                                                     CK6011                                                                                     
FK2001000000279102069321LOTE PROCESSADO COM SUCESSO                                                     CK6011                                                                                     
FK2001000000279112000000LOTE PROCESSADO COM SUCESSO                                                     CK6011                                                                                     
FK2001000000279114000000LOTE PROCESSADO COM SUCESSO                                                     CK6011                                                                                     
FK2001000000279114000000LOTE PROCESSADO COM SUCESSO                                                     CK6011                                                                                     
FK2001000000279128069375LOTE PROCESSADO COM SUCESSO                                                     CK6011                                                                                     
FK2001000000279128069375LOTE PROCESSADO COM SUCESSO                                                     CK6011                                                                                     
FK2001000000279134000000LOTE PROCESSADO COM SUCESSO                                                     CK6011                                                                                     
FK2001000000279146000000LOTE PROCESSADO COM SUCESSO                                                     CK6011                                                                                     
FK2001000000279146000000LOTE PROCESSADO COM SUCESSO                                                     CK6011                                                                                     
FK2001000000279162000000LOTE PROCESSADO COM SUCESSO                                                     CK6011                                                                                     
FK2001000000279163069428LOTE PROCESSADO COM SUCESSO                                                     CK6011                                                                                     
FK2001000000279163069428LOTE PROCESSADO COM SUCESSO                                                     CK6011                                                                                     
FK2001000000279171069483LOTE PROCESSADO COM SUCESSO                                                     CK6011                                                                                     
FK2001000000279171069483LOTE PROCESSADO COM SUCESSO                                                     CK6011                                                                                     
FK2001099243279141000000                                                                                                                                                                           
FK2001000000279177000000LOTE PROCESSADO COM SUCESSO                                                     CK6011                                                                                     
FK2001000000279179069480LOTE PROCESSADO COM SUCESSO                                                     CK6011                                                                                     
FK2001000000279179069480LOTE PROCESSADO COM SUCESSO                                                     CK6011                                                                                     
FK2001000000279181069486LOTE PROCESSADO COM SUCESSO                                                     CK6011                                                                                     
FK2001000000279181069486LOTE PROCESSADO COM SUCESSO                                                     CK6011                                                                                     
FK2001000000279185069510LOTE PROCESSADO COM SUCESSO                                                     CK6011                                                                                     
FK2001000000279185069510LOTE PROCESSADO COM SUCESSO                                                     CK6011                                                                                     
FK2001000000279186069511LOTE PROCESSADO COM SUCESSO                                                     CK6011                                                                                     
FK2001000000279186069511LOTE PROCESSADO COM SUCESSO                                                     CK6011                                                                                     
FK2001000000279190069507LOTE PROCESSADO COM SUCESSO                                                     CK6011                                                                                     
FK2001000000279190069507LOTE PROCESSADO COM SUCESSO                                                     CK6011                                                                                     
FK2001000000279192069489LOTE PROCESSADO COM SUCESSO                                                     CK6011                                                                                     
FK2001000000279192069489LOTE PROCESSADO COM SUCESSO                                                     CK6011                                                                                     
FK2001000000279193069526LOTE PROCESSADO COM SUCESSO                                                     CK6011                                                                                     
FK2001000000279193069526LOTE PROCESSADO COM SUCESSO                                                     CK6011                                                                                     
FK2001000000279195000000LOTE PROCESSADO COM SUCESSO                                                     CK6011                                                                                     
FK2001000000279200000000LOTE PROCESSADO COM SUCESSO                                                     CK6011                                                                                     
FK2001000000279200000000LOTE PROCESSADO COM SUCESSO                                                     CK6011                                                                                     
FK2001000000279201000000LOTE PROCESSADO COM SUCESSO                                                     CK6011                                                                                     
FK2001000000279204069537LOTE PROCESSADO COM SUCESSO                                                     CK6011                                                                                     
FK2001000000279204069537LOTE PROCESSADO COM SUCESSO                                                     CK6011                                                                                     
FK2001000000279210000000LOTE PROCESSADO COM SUCESSO                                                     CK6011                                                                                     
FK2001000000278263000000LOTE PROCESSADO COM SUCESSO                                                     CK6011                                                                                     
FK2001000000278992000000LOTE PROCESSADO COM SUCESSO                                                     CK6011                                                                                     
FK2001000000279104069316LOTE PROCESSADO COM SUCESSO                                                     CK6011                                                                                     
FK2001000000279118069369LOTE PROCESSADO COM SUCESSO                                                     CK6011                                                                                     
FK2001000000279124000000LOTE PROCESSADO COM SUCESSO                                                     CK6011                                                                                     
FK2001000000279155000000LOTE PROCESSADO COM SUCESSO                                                     CK6011                                                                                     
FK2001000000279166000000LOTE PROCESSADO COM SUCESSO                                                     CK6011                                                                                     
FK2001000000279166000000LOTE PROCESSADO COM SUCESSO                                                     CK6011                                                                                     
FK2001099228279205000000241  MUNICIPIO NAO INFORMADO - CK7002                                           CK7002                                                                                     
FK2001099228279205000000242  UF NAO INFORMADO - CK7002                                                  CK7002                                                                                     
FK2001099228279205000000                                                                                                                                                                           
FK2001099228279205000000240  BAIRRO NAO INFORMADO - CK7002                                              CK7002                                                                                     
FK2001099243279141000000241  MUNICIPIO NAO INFORMADO - CK7002                                           CK7002                                                                                     
FK2001099243279141000000242  UF NAO INFORMADO - CK7002                                                  CK7002                                                                                     
FK2001099243279141000000240  BAIRRO NAO INFORMADO - CK7002                                              CK7002                                                                                     
FK2001000000279141069415214  ENDERECO NAO INFORMADO                                                     CK6041                                                                                     
FK2001000000279141069415216  BAIRRO NAO INFORMADO                                                       CK6041                                                                                     
FK2001000000279141069415220  MUNICIPIO NAO INFORMADO                                                    CK6042                                                                                     
FK2001000000279141069415221  UF NAO INFORMADA                                                           CK6042                                                                                     
FK2001000000279205000000214  ENDERECO NAO INFORMADO                                                     CK6041                                                                                     
FK2001000000279205000000216  BAIRRO NAO INFORMADO                                                       CK6041                                                                                     
FK2001000000279205000000220  MUNICIPIO NAO INFORMADO                                                    CK6042                                                                                     
FK2001000000279205000000221  UF NAO INFORMADA                                                           CK6042                                                                                     
FK2001000000279205000000214  ENDERECO NAO INFORMADO                                                     CK6041                                                                                     
FK2001000000279205000000216  BAIRRO NAO INFORMADO                                                       CK6041                                                                                     
FK2001000000279205000000220  MUNICIPIO NAO INFORMADO                                                    CK6042                                                                                     
FK2001000000279205000000221  UF NAO INFORMADA                                                           CK6042                                                                                     
FK2001265758279205000000241  MUNICIPIO NAO INFORMADO - CK7002                                           CK7002                                                                                     
FK2001265739278034000000LOTE PROCESSADO COM SUCESSO                                                     CK7001                                                                                     
FK2001265767279190000000LOTE PROCESSADO COM SUCESSO                                                     CK7001                                                                                     
