FHI00000000000000140620220000000000005104778         00                                                                                                                                            
FPI10000000000000130620220000000000005104778                                                                                                                                                       
FP9518195803UP2047       351112551306202215072022 2TA/  525273/  /   ROLAMENTO    8482201000078000000001309000000020140000001678600000010000625000503234401000000      000000000000005XEDC8011102  
FP9518066203UP2046       351112551306202215072022 23B/  820423/  /   CONDENSADO   8418990000097500000004592000000056510000004709300000010001650000503477501000000      000000000000005XEDC8011102  
FP9518540003up2052       351114811306202215072022 07W/  903142/B /   SUPORTE      8409999900032500000005490000000067570000016893200000010001155000503156711000000      000000000000005XEDC8011102  
FP9518540003up2052       351114811306202215072022 2V5/  945095/B /   LANTERNA     8512202200097500000003500000000014360000003589700000010001300000503440211000000      000000000000005XEDC8011102  
FP9518540003up2052       351114811306202215072022 2R0/  953513/  /999INTERRUPTO   8536509001026000000000437000000020160000001680400000010000135000503441701000000      000000000000005XEDC8011102  
FP9518540003up2052       351114811306202215072022 07W/  260457/A /   SUPORTE      8708999000032500000001047000000038650000003220600000010001555000503441701000000      000000000000005XEDC8011102  
FP9518540003up2052       351114811306202215072022 2T2/  857507/  /   CARCACA      8708299900032500000000484000000017880000001489900000010000690000503693301000000      000000000000005XEDC8011102  
FP9518540003up2052       351114811306202215072022 2P0/  721405/  /   CIL.TRANSM   8708930001026000000000458000000021150000001762600000010000850000503871901000000      000000000000005XEDC8011102  
FP9511025003PN1003       351114811306202215072022 23B/  831055/  /   PORTA        8708299300032500000006018000000222190000018515800000010023800000503929601000000      000000000000005XEDC8011102  
FP9518419703TRAXON       351114811306202215072022 2V1/  300057/E /   TRANSMIS.    8708408000032500000123224000004549820000379151300000010294200000503930001000000      000000000000005XEDC8011102  
FP9518540003up2052       351114821306202215072022 23B/  857527/  /   COBERTURA    3926909000097500000000937000000011530000000961000000010000550000500275701000000      000000000000005XEDC8011102  
FP9518195803UP2047       351114821306202215072022 2RD/  525269/R /   ARRUELA      7318210000065000000000806000000014880000001240100000010000020000500498801000000      000000000000005XEDC8011102  
FP9518540003up2052       351114821306202215072022 2T2/  857941/  /   moldura      3926909000097500000001002000000012330000001027900000010000190000500498801000000      000000000000005XEDC8011102  
FP9518540003up2052       351114821306202215072022 WHT/  006556/  /   PARAFUSO     7318150000065000000001306000000024110000002008800000040000280000500498801000000      000000000000005XEDC8011102  
FP9518540003up2052       351114821306202215072022 07W/  019873/AA/   PARAFUSO     7318150000065000000000050000000000930000000077600000020000106000500498801000000      000000000000005XEDC8011102  
FP9518540003up2052       351114821306202215072022 2V5/  821167/  /   SUPORTE      3926909000097500000001417000000005810000001453400000010000080000500498811000000      000000000000005XEDC8011102  
FP9518540003up2052       351114821306202215072022 2V5/  803377/  /   porca        3926909007065000000000155000000000950000000238300000050000005000500498811000000      000000000000005XEDC8011102  
FP9518540003up2052       351114821306202215072022 2V5/  803875/AT/   PORCA        3926909007065000000000681000000004190000001048200000100000020000500498811000000      000000000000005XEDC8011102  
FP9518540003up2052       351114821306202215072022 2V5/  803877/GL/   REBITE       3926909000097500000000224000000000920000000229500000050000005000500498811000000      000000000000005XEDC8011102  
FP9518540003up2052       351114821306202215072022 07W/  019873/AA/   PARAFUSO     7318150000065000000000050000000000930000000077600000020000106000500498801000000      000000000000005XEDC8011102  
FP9518540003up2052       351114821306202215072022 07W/  019873/CB/   PARAFUSO     7318150000065000000000214000000003940000000328600000020000196000500498801000000      000000000000005XEDC8011102  
FP9518540003up2052       351114821306202215072022 WHT/  007034/  /   BRACADEIRA   7326909000032500000000218000000008040000000670100000010000105000503441701000000      000000000000005XEDC8011102  
FP9518540003up2052       351114821306202215072022 2V5/  845121/A /   VEDACAO      4016999000117000000000308000000001050000000263200000010000120000503911911000000      000000000000005XEDC8011102  
FP9518540003up2052       351114831306202215072022 07W/  298019/B /   JG.PECAS     8412319000000000000000000000000062380000005198100000010000550000500498801000000      000000000000005XEDC8011102  
FP9518540003up2052       351114831306202215072022 2S2/  253903/A /   CARCACA      8481909000000000000000000000000053410000013351900000010001590000500498811000000      000000000000005XEDC8011102  
FP9518540003up2052       351114841306202215072022 07W/  117395/A /   TAMPA        3923500000032500000001598000000019660000004915600000010000225000503561211000000      000000000000005XEDC8011102  
FPF100000000000028                                                                                                                                                                                 
FPI10000000000000130620220000000000005104778                                                                                                                                                       
FP9510733101n0112        052071570404202202052022 23B/  103181/  /   JUNTA        73181500000000000000000000000000000000000011427000000100300000000000000000000005X358B43201151001001      011102  
FP9510733101n0112        052074610704202205052022 23B/  105379/  /   BICO EJETO   84099999000000000000000000000000000000000021080000000500200000000000000000000005X358B43201151001001      011102  
FP9510733101n0112        052072520504202203052022 23B/  105379/  /   BICO EJETO   84099999000000000000000000000000000000000008432000000200200000000000000000000005X358B43201151001001      011102  
FP9510733101n0112        052071570404202202052022 23B/  105379/  /   BICO EJETO   84099999000000000000000000000000000000000021080000000500200000000000000000000005X358B43201151001001      011102  
FP9510733101n0112        052074610704202205052022 23B/  198012/  /   JG.VEDACAO   84841000000000000000000000000000000000000120761000000107200000000000000000000005X358B43201151001001      011102  
FP9510733101n0112        052071570404202202052022 23B/  198012/  /   JG.VEDACAO   84841000000000000000000000000000000000000120761000000107200000000000000000000005X358B43201151001001      011102  
FP9510733101n0112        052072520504202203052022 2Z0/  198012/A /   JG.VEDACAO   84841000000000000000000000000000000000001000764000000610850000000000000000000005X358B43201151001001      011102  
FP9510733101n0112        099687900504202230042022 23B/  311063/  /   GUIA         87084090000375000000004190000000134100000011594000001500020000000000000000000005XS73554625819002893      011102  
FP9510733101n0112        099687560504202230042022 23B/  311189/B /   RETENTOR     40169300000000000000000000000000192300000016022000000200500000000000000000000005XS73554625819002893      011102  
FP9510733101n0112        099687900504202230042022 23B/  311240/A /   CORPOSINCR   87084090000375000000036560000001170000000101155000000115350000000000000000000005XS73554625819002893      011102  
FP9510733101n0112        052071570404202202052022 2P0/  103601/D /   CARTER       84099912010000000000000000000000000000000268346000000244650000000000000000000005X358B43201151001001      011102  
FP9510733101n0112        052071570404202202052022 2P0/  145367/C /   TUBO         84099999000000000000000000000000000000000026498000000101550000000000000000000005X358B43201151001001      011102  
FP9510733101n0112        052071570404202202052022 2R0/  130139/A /   ANEL         40169300000000000000000000000000000000000004300000000100050000000000000000000005X358B43201151001001      011102  
FP9510733101n0112        052071570404202202052022 2S0/  103483/A /   JUNTA        84099999000000000000000000000000000000000098952000000601050000000000000000000005X358B43201151001001      011102  
FP9510733101n0112        052071570404202202052022 2S0/  109139/  /   JUNTA        40169300000000000000000000000000000000000058412000000400900000000000000000000005X358B43201151001001      011102  
FP9510733101n0112        052071570404202202052022 2S0/  121305/  /   suporte      84839000000000000000000000000000000000000020627000000115150000000000000000000005X358B43201151001001      011102  
FP9510733101n0112        052071570404202202052022 2T2/  103181/B /   JUNTA        40169300000000000000000000000000000000000269620000000204900000000000000000000005X358B43201151001001      011102  
FP9510733101n0112        052071570404202202052022 2T2/  103601/D /   CARTER       84099912010000000000000000000000000000000609554000000258000000000000000000000005X358B43201151001001      011102  
FP9510733101n0112        052071570404202202052022 2T2/  105243/  /   AMORTECEDO   84835090000000000000000000000000000000000312380000000290000000000000000000000005X358B43201151001001      011102  
FP9510733101n0112        052078211404202212052022 2T2/  105701/E /   CASQUILHO    84833029000000000000000000000000000000000138840000000601850000000000000000000005X358B43201151001001      011102  
FP9510733101n0112        052072520504202203052022 2T2/  105701/E /   CASQUILHO    84833029000000000000000000000000000000000138840000000601850000000000000000000005X358B43201151001001      011102  
FP9510733101n0112        052071570404202202052022 2T2/  109447/C /   BALANCIM     84099999000000000000000000000000000000000085712000000412050000000000000000000005X358B43201151001001      011102  
FP9510733101n0112        052075781104202209052022 2T2/  109623/B /   MOLA         73202010000000000000000000000000000000000086436000003600650000000000000000000005X358B43201151001001      011102  
FP9510733101n0112        052071570404202202052022 2T2/  145299/C /   TENSOR       84835090000000000000000000000000000000000216602000000217400000000000000000000005X358B43201151001001      011102  
FP9510733101n0112        052071570404202202052022 2T2/  198115/B /   JG.BRONZIN   84833029000000000000000000000000000000000057742000000211700000000000000000000005X358B43201151001001      011102  
FP9510733101n0112        016919000504202210052022 2U2/  906051/  /   SENSOR       90262090000000000000000000000000260500000065115000000300400000000000000000000005XE11002162259000326      011102  
FP9510733101n0112        052071570404202202052022 2S0/  906051/  /   SENSOR       90262090000000000000000000000002888800000160488000000200300000000000000000000005X358B43201151001001      011102  
FP9510733101n0112        052071570404202202052022 2T2/  906041/A /   SENSOR       90268000000000000000000000000004694800000260820000001200300000000000000000000005X358B43201151001001      011102  
FP9510733101n0112        016919000504202210052022 2U2/  121113/  /   TERMOSTATO   90321090001125000000095290000001016400000094233000000402350000000000000000000005XE11002162259000326      011102  
FP9510733101n0112        052071570404202202052022 2Z0/  105263/  /   PARAFUSO     73181500000000000000000000000000000000000559650000005000650000000000000000000005X358B43201151001001      011102  
FP9510733101n0112        052071570404202202052022 2RD/  199120/BJ/   PARAFUSO     73181500000000000000000000000000000000000156400000010001170000000000000000000005X358B43201151001001      011102  
FP9510733101n0112        052071570404202202052022 2T2/  109623/C /   MOLA VALV.   73202010000000000000000000000000000000000115104000004800700000000000000000000005X358B43201151001001      011102  
FP9516847701N253         052100373005202227062022 2P0/  115313/C /   RESPIRO      84099999000000000000000000000000000000000007840000000200550000000000000000000005X358B43201151001001      011102  
FP9516847701N253         052100373005202227062022 2P0/  121004/D /   bomba agua   84133090000000000000000000000000000000000131802000000211200000000000000000000005X358B43201151001001      011102  
FP9516847701N253         052100373005202227062022 2P0/  121113/B /   TERMOSTATO   90321010000000000000000000000000000000000052788000000301000000000000000000000005X358B43201151001001      011102  
FP9516847701N253         052100373005202227062022 2P0/  145367/C /   TUBO         84099999000000000000000000000000000000000025066000000101550000000000000000000005X358B43201151001001      011102  
FP9517925803UP2045       052107951306202211072022 2T2/  253193/D /   PINO         73182900000000000000000000000000000000000012409000000102650000000000000000000005X358B43201151001001      011102  
FP9518017901PE0706       052106300906202207072022 23B/  109611/A /   VALVULA      84099914000000000000000000000000000000000233216000001600600000000000000000000005X358B43201151001001      011102  
FP9518017901PE0706       052106300906202207072022 23B/  121113/  /   TERMOSTATO   90321010000000000000000000000000000000000047980000000501050000000000000000000005X358B43201151001001      011102  
FP9518017901PE0706       052106300906202207072022 23B/  121179/B /   CONECTOR     73079900000000000000000000000000000000000037010000000501100000000000000000000005X358B43201151001001      011102  
FP9518017901PE0706       052106300906202207072022 23B/  903165/A /   POLIA        84835010000000000000000000000000000000000065955000000508250000000000000000000005X358B43201151001001      011102  
FP9518017901PE0706       052106300906202207072022 23B/  906051/A /   SENSOR       90262090000000000000000000000000481200000026734000000200150000000000000000000005X358B43201151001001      011102  
FP9518017901PE0706       052106300906202207072022 2P0/  103609/A /   VEDACAO      84841000000000000000000000000000000000000182408000000800650000000000000000000005X358B43201151001001      011102  
FP9518017901PE0706       052106300906202207072022 2P0/  121004/D /   bomba agua   84133090000000000000000000000000000000000197703000000311200000000000000000000005X358B43201151001001      011102  
FP9518017901PE0706       052106300906202207072022 2P0/  121179/K /   CONECTOR     73079900000000000000000000000000000000000234600000001201550000000000000000000005X358B43201151001001      011102  
FP9518017901PE0706       052106300906202207072022 2P0/  145483/  /   ANEL         40169300000000000000000000000000000000000008290000001000050000000000000000000005X358B43201151001001      011102  
FP9518017901PE0706       052106300906202207072022 2P0/  198115/C /   JG.BRONZIN   84833029000000000000000000000000000000000040902000000200500000000000000000000005X358B43201151001001      011102  
FP9518017901PE0706       052106300906202207072022 2P0/  201156/E /   CONECTOR     73079900000000000000000000000000000000000051840000000500200000000000000000000005X358B43201151001001      011102  
FP9518017901PE0706       052106300906202207072022 2P0/  903165/A /   POLIA        84835010000000000000000000000000000000000077235000000308750000000000000000000005X358B43201151001001      011102  
FP9518017901PE0706       052106300906202207072022 2R0/  103085/  /   RETENTOR     40169300000000000000000000000000000000000078170000001001700000000000000000000005X358B43201151001001      011102  
FP9518017901PE0706       017091600906202214072022 2R0/  127177/A /   ELEM FILTR   84212990000520000000031430000000725300000063587000000607750000000000000000000005XE11002162259000326      011102  
FP9518017901PE0706       052106300906202207072022 2R0/  145368/  /   TUBO         84149039000000000000000000000000000000000031326000000200800000000000000000000005X358B43201151001001      011102  
FP9518017901PE0706       052106300906202207072022 2R0/  145646/A /   ANEL         40169300000000000000000000000000000000000017990000001000040000000000000000000005X358B43201151001001      011102  
FP9518017901PE0706       052106300906202207072022 2R0/  903119/B /   POLIA        84835010000000000000000000000000000000000227380000001001850000000000000000000005X358B43201151001001      011102  
FP9518017901PE0706       052106300906202207072022 2R0/  906433/A /   sensor       90268000000000000000000000000000888200000049344000000200650000000000000000000005X358B43201151001001      011102  
FP9518038901N302         052108171306202211072022 2Z0/  145367/F /   TUBO         84149039000000000000000000000000000000000041212000000401100000000000000000000005X358B43201151001001      011102  
FP9518038901N302         052106280906202207072022 2Z0/  145367/F /   TUBO         84149039000000000000000000000000000000000010303000000101100000000000000000000005X358B43201151001001      011102  
FP9518044001N303         052106290906202207072022 23B/  121179/B /   CONECTOR     73079900000000000000000000000000000000000074030000001001100000000000000000000005X358B43201151001001      011102  
FP9518044001N303         052106290906202207072022 2P0/  121004/D /   bomba agua   84133090000000000000000000000000000000000131802000000211200000000000000000000005X358B43201151001001      011102  
FP9518044001N303         052106290906202207072022 2P0/  145483/  /   ANEL         40169300000000000000000000000000000000000016580000002000050000000000000000000005X358B43201151001001      011102  
FP9518044001N303         052106290906202207072022 2P0/  198115/C /   JG.BRONZIN   84833029000000000000000000000000000000000061353000000300500000000000000000000005X358B43201151001001      011102  
FP9518044001N303         052106290906202207072022 2P0/  201156/E /   CONECTOR     73079900000000000000000000000000000000000031104000000300200000000000000000000005X358B43201151001001      011102  
FP9518044001N303         052106290906202207072022 2P0/  903165/A /   POLIA        84835010000000000000000000000000000000000102976000000408750000000000000000000005X358B43201151001001      011102  
FP9518044001N303         052107201006202208072022 2P0/  903165/A /   POLIA        84835010000000000000000000000000000000000025745000000108750000000000000000000005X358B43201151001001      011102  
FP9518044001N303         017091600906202214072022 2R0/  127177/A /   ELEM FILTR   84212990000520000000051550000001189600000104287000001207750000000000000000000005XE11002162259000326      011102  
FP9518044001N303         017097141106202216072022 TAE/  115561/  /   ELEM FILTR   84219999000520000000102740000002370800000207842000002409950000000000000000000005XE11002162259000326      011102  
FP9518044001N303         052106290906202207072022 2R0/  145646/A /   ANEL         40169300000000000000000000000000000000000035980000002000040000000000000000000005X358B43201151001001      011102  
FP9518044001N303         052107201006202208072022 2R0/  903119/B /   POLIA        84835010000000000000000000000000000000000045476000000201850000000000000000000005X358B43201151001001      011102  
FP9518044001N303         052106290906202207072022 2R0/  903119/B /   POLIA        84835010000000000000000000000000000000000136428000000601850000000000000000000005X358B43201151001001      011102  
FP9518044001N303         052106290906202207072022 2S0/  103609/D /   VEDACAO      40169300000000000000000000000000000000000085036000000404950000000000000000000005X358B43201151001001      011102  
FP9518044001N303         052106290906202207072022 2S0/  121004/B /   bomba agua   84133090000000000000000000000000000000000203550000000524100000000000000000000005X358B43201151001001      011102  
FP9518044001N303         052106290906202207072022 2T0/  103383/A /   JUNTA CABE   84841000000000000000000000000000000000000037077000000106800000000000000000000005X358B43201151001001      011102  
FP9518044001N303         052106290906202207072022 2T0/  109293/  /   RETENTOR     40169300000000000000000000000000000000000036954000000200500000000000000000000005X358B43201151001001      011102  
FP9518044001N303         052106290906202207072022 2T2/  145577/  /   MANGUEIRA    84099999000000000000000000000000000000000056861000000101800000000000000000000005X358B43201151001001      011102  
FP9518044001N303         052107201006202208072022 2T2/  145877/G /   COTOVELO     73079200000000000000000000000000000000000040416000000400900000000000000000000005X358B43201151001001      011102  
FP9518044001N303         017091600906202214072022 2U2/  927331/E /   valvula      84812090000000000000000000000001267200000316795000000503200000000000000000000005XE11002162259000326      011102  
FP9518044001N303         052106290906202207072022 2Z0/  145877/  /   CONECTOR     84099999000000000000000000000000490500000027250000000500750000000000000000000005X358B43201151001001      011102  
FP9518044001N303         052106290906202207072022 2Z0/  903119/A /   POLIA        84835010000000000000000000000000000000000040334000000206800000000000000000000005X358B43201151001001      011102  
FP9518044001N303         052106290906202207072022 TE3/  253135/A /   VEDACAO      73261900000000000000000000000000367600000020420000001000090000000000000000000005X358B43201151001001      011102  
FP9518044001N303         052106290906202207072022 23B/  903165/A /   POLIA        84835010000000000000000000000000000000000052764000000408250000000000000000000005X358B43201151001001      011102  
FP9518044001N303         052106290906202207072022 2P0/  103182/  /   TAMPA        84099999000000000000000000000000000000000080526000000209000000000000000000000005X358B43201151001001      011102  
FP9518044001N303         052106290906202207072022 2Z0/  198011/A /   JG.VEDACAO   84841000000000000000000000000000000000000075594000000103000000000000000000000005X358B43201151001001      011102  
FP9518044001N303         052106290906202207072022 TRA/  145453/  /   VEDACAO      73261900000000000000000000000000000000000021140000001000130000000000000000000005X358B43201151001001      011102  
FP9518044101N303         052106270906202207072022 2P0/  121179/K /   CONECTOR     73079900000000000000000000000000000000000195500000001001550000000000000000000005X358B43201151001001      011102  
FP9518044101N303         052106270906202207072022 2S0/  105701/  /   CASQUILHO    84833029000000000000000000000000000000000155030000000518300000000000000000000005X358B43201151001001      011102  
FP9518044101N303         052106270906202207072022 2Z0/  906051/E /   HALL         90328981000000000000000000000000780600000043368000000400300000000000000000000005X358B43201151001001      011102  
FP9518044101N303         052106270906202207072022 TJG/  145455/  /   PRISIONEIR   73181500000000000000000000000000000000000007440000001000200000000000000000000005X358B43201151001001      011102  
FP9518044101N303         052106270906202207072022 TJG/  145457/  /   PORCA        73181600000000000000000000000000000000000025450000005000100000000000000000000005X358B43201151001001      011102  
FP9518044101N303         052106270906202207072022 2R0/  103085/  /   RETENTOR     40169300000000000000000000000000000000000109438000001401700000000000000000000005X358B43201151001001      011102  
FP9518044101N303         052106270906202207072022 2S0/  105701/D /   CASQUILHO    84833029000000000000000000000000000000000060642000000210700000000000000000000005X358B43201151001001      011102  
FP9518044101N303         052106270906202207072022 2T2/  121004/  /   bomba agua   84133090000000000000000000000000000000000324116000000436300000000000000000000005X358B43201151001001      011102  
FP9518044101N303         052106270906202207072022 2T2/  130659/  /   ANEL         40169300000000000000000000000000000000000003360000000400010000000000000000000005X358B43201151001001      011102  
FP9518044101N303         052106270906202207072022 2T2/  145367/G /   TUBO         84099999000000000000000000000000000000000075614000000203550000000000000000000005X358B43201151001001      011102  
FP9518044101N303         052106270906202207072022 2T2/  198115/  /   JG.BRONZIN   84833029000000000000000000000000000000000091246000000210500000000000000000000005X358B43201151001001      011102  
FP9518044101N303         052106270906202207072022 2T2/  198115/A /   JG.BRONZIN   84833029000000000000000000000000000000000037000000000200850000000000000000000005X358B43201151001001      011102  
FP9518044101N303         052106270906202207072022 2P0/  906261/B /   SENSOR       90329099000000000000000000000013289800000738320000000402900000000000000000000005X358B43201151001001      011102  
FP9518044101N303         052106270906202207072022 2T2/  198133/CX/   BICO INJET   84099969000000000000000000000000000000001100676000001206550000000000000000000005X358B43201151001001      011102  
FP9518044101N303         052106270906202207072022 TJG/  115441/  /   VEDACAO      84841000000000000000000000000000000000000061240000001000200000000000000000000005X358B43201151001001      011102  
FP9518044101N303         052106270906202207072022 TRA/  103875/  /   PINO         73182900000000000000000000000000000000000006180000002000050000000000000000000005X358B43201151001001      011102  
FP9518044101N303         052107211006202208072022 23B/  109611/A /   VALVULA      84099914000000000000000000000000000000000189488000001300600000000000000000000005X358B43201151001001      011102  
FP9518044101N303         052106270906202207072022 23B/  109611/A /   VALVULA      84099914000000000000000000000000000000000378976000002600600000000000000000000005X358B43201151001001      011102  
FP9518044101N303         052106270906202207072022 2T2/  105379/B /   BICO EJETO   84099999000000000000000000000000000000000066848000001600250000000000000000000005X358B43201151001001      011102  
FP9518044101N303         052106270906202207072022 2RD/  199120/AJ/   PARAFUSO     73181500000000000000000000000000000000000051100000010000500000000000000000000005X358B43201151001001      011102  
FP9518044101N303         052106270906202207072022 2RK/  105425/  /   PARAFUSO     73181500000000000000000000000000000000000093960000006000900000000000000000000005X358B43201151001001      011102  
FP9518044101N303         052106270906202207072022 2R0/  109601/  /   VALVULA      84099914000000000000000000000000000000000079368000002400700000000000000000000005X358B43201151001001      011102  
FP9518044101N303         052106270906202207072022 2TD/  105425/  /   PARAFUSO     73181500000000000000000000000001904300000105792000002400500000000000000000000005X358B43201151001001      011102  
FP9518044101N303         052106270906202207072022 2T2/  129589/A /   JUNTA        73261900000000000000000000000000000000000097150000002500200000000000000000000005X358B43201151001001      011102  
FP9518044101N303         052106270906202207072022 2RD/  199120/AG/   PARAFUSO     73181500000000000000000000000000000000000170760000012001950000000000000000000005X358B43201151001001      011102  
FP9518044101N303         052106270906202207072022 2Z0/  105385/  /   PARAFUSO     73181500000000000000000000000000000000000002520000002000500000000000000000000005X358B43201151001001      011102  
FP9518044101N303         052106270906202207072022 2T2/  109675/F /   RETENTOR     40169300000000000000000000000000000000000191964000020400050000000000000000000005X358B43201151001001      011102  
FP9518044101N303         052106270906202207072022 2P0/  103196/A /   ANEL         40169300000000000000000000000000000000000037050000003000030000000000000000000005X358B43201151001001      011102  
FP9518044101N303         014850471006202210072022 2S0/  129620/B /   ELEMENTO     84219999000520000000423570000009774700000856917000012023550000000000000000000005XQ28503469014000147      011102  
FP9518048403UP2046       052107221006202208072022 23B/  103347/  /   PINO         73269090000000000000000000000000016200000000900000000200050000000000000000000005X358B43201151001001      011102  
FP9518314601W1N305       052107811306202211072022 23B/  103511/  /   BUCHA        84099999000000000000000000000000000000000015758000000200350000000000000000000005X358B43201151001001      011102  
FP9518314601W1N305       052107811306202211072022 23B/  198012/  /   JG.VEDACAO   84841000000000000000000000000000000000000114233000000107200000000000000000000005X358B43201151001001      011102  
FP9518316901n306         052108221306202211072022 2P0/  129717/  /   JUNTA        73261900000000000000000000000000000000000004239000000100250000000000000000000005X358B43201151001001      011102  
FP9518316901n306         052107821306202211072022 2P0/  130085/B /   TUBO         84099999000000000000000000000000000000000013259000000100250000000000000000000005X358B43201151001001      011102  
FP9518316901n306         052107821306202211072022 2P0/  971079/D /   CHICOTE      85443000010000000000000000000000585100000032506000000200650000000000000000000005X358B43201151001001      011102  
FP9518316901n306         052107821306202211072022 2R0/  906433/  /   SENSOR       90268000000000000000000000000000888200000049344000000200500000000000000000000005X358B43201151001001      011102  
FP9518316901n306         052107821306202211072022 2S0/  105707/  /   CASQUILHO    84833090000000000000000000000000000000000272780000000519250000000000000000000005X358B43201151001001      011102  
FP9518316901n306         052107821306202211072022 2S0/  107065/B /   PISTAO       84099929000000000000000000000000000000000272958000000612900000000000000000000005X358B43201151001001      011102  
FP9518316901n306         052107821306202211072022 2S0/  130302/E /   TUBO         84099999000000000000000000000000000000000032992000000201150000000000000000000005X358B43201151001001      011102  
FP9518316901n306         052107821306202211072022 2T2/  121688/A /   JUNTA        84841000000000000000000000000000000000000011861000000100100000000000000000000005X358B43201151001001      011102  
FP9518316901n306         052107821306202211072022 2T2/  145367/C /   TUBO         84149039000000000000000000000000000000000014706000000101950000000000000000000005X358B43201151001001      011102  
FP9518316901n306         052107821306202211072022 TRA/  103913/  /   PINO         73170090000000000000000000000000000000000009840000004000050000000000000000000005X358B43201151001001      011102  
FPF100000000000127                                                                                                                                                                                 
FPI00000000000000130620220000000000005104778                                                                                                                                                       
FP5518540003up2052       1306202213062022 WHT/  007034/  /   00000010000000  WHT/  006556/  /   00000040000000  5Z0/  959856/A /1NN00000010000001                                          220800  
FP5518540003up2052       1306202213062022 2V5/  945095/B /   00000010000000  2V5/  845121/A /   00000010000000  2V5/  821167/  /   00000010000000                                          220800  
FP5518540003up2052       1306202213062022 2V5/  803877/GL/   00000050000000  2V5/  803875/AT/   00000100000000  2V5/  803377/  /   00000050000000                                          220800  
FP5518540003up2052       1306202213062022 2T2/  857941/  /   00000010000000  2T2/  857507/  /   00000010000000  2S2/  253903/A /   00000010000000                                          220800  
FP5518540003up2052       1306202213062022 2R0/  953513/  /99900000010000000  2P0/  721405/  /   00000010000000  23B/  857527/  /   00000010000000                                          220800  
FP5518540003up2052       1306202213062022 07W/  903142/B /   00000010000000  07W/  298019/B /   00000010000000  07W/  260457/A /   00000010000000                                          220800  
FP5518540003up2052       1306202213062022 07W/  117395/A /   00000010000000  07W/  103035/  /   00000010000001  07W/  019873/CB/   00000020000000                                          220800  
FP5518540003up2052       1306202213062022 07W/  019873/AA/   00000020000000  07W/  019873/AA/   00000020000000                     00000000000000                                          220800  
FP5518630603up2053       1306202213062022 2V5/  941115/B /   00000010000000  2V5/  899541/A /   00000020000000  2V5/  823663/A /   00000010000001                                          220800  
FP5518630603up2053       1306202213062022 2V5/  820725/A /   00000010000000  2V5/  819259/B /   00000010000000  2V5/  809231/C /   00000010000000                                          220800  
FP5518630603up2053       1306202213062022 2V5/  809056/  /   00000010000001  2V5/  803877/CM/   00000140000000  2V3/  121625/A /   00000010000000                                          220800  
FP5518630603up2053       1306202213062022 2U2/  311623/A /   00000010000000  2U2/  301216/  /   00000010000000  2U2/  121103/A /   00000010000000                                          220800  
FP5518630603up2053       1306202213062022 2T2/  971014/F /   00000010000000  2T2/  201283/E /   00000010000000  2T0/  915519/  /   00000010000000                                          220800  
FP5518630603up2053       1306202213062022 2T0/  311623/A /   00000010000000  2T0/  311623/  /   00000010000000  2R0/  501319/D /   00000010000001                                          220800  
FP5518630603up2053       1306202213062022 2P0/  821105/  /   00000010000001  2P0/  501471/  /   00000030000001  23B/  109143/  /   00000010000000H                                         220800  
FP6508535703UP0045       15032022 23B/  959653/  /   000000100000018958                    000000000000000000                    000000000000000000B                                               
FP6508940301N0062        17032022 2V5/  947171/C /   000005000000004507                    000000000000000000                    000000000000000000B                                               
FP6510076003UP0090       28032022 2RG/  863827/  /   000001000000000882                    000000000000000000                    000000000000000000B                                               
FP6510593601N0107        01042022 2V3/  823359/A /   000000200000006291 2V5/  837399/  /   000000100000118811                    000000000000000000B                                               
FP6510705101N0110        01042022 23B/  598611/B /   000000100000107383 2V5/  915105/B /   000000400000105610                    000000000000000000B                                               
FP6510705401N0111        01042022 2T2/  311243/A /   000000900000043047 2V5/  947171/A /   000000800000000534                    000000000000000000B                                               
FP6510733101n0112        02042022 2R2/  809032/A /   000000100000197081 2R2/  805025/  /   000000100000196052 23B/  407728/  /   000000100000001135B                                               
FP6510733101n0112        02042022 07W/  145621/G /   000000300000355924                    000000000000000000                    000000000000000000B                                               
FP6510806803UP1000       04042022 2R0/  711127/  /   000000100000061398                    000000000000000000                    000000000000000000B                                               
FP6510861103UP1001       04042022 2P0/  198026/  /   000000100000003610                    000000000000000000                    000000000000000000B                                               
FP6510963401N0116        05042022 2S0/  907156/F /   000001000000179653                    000000000000000000                    000000000000000000B                                               
FP6510972801PN1002       05042022 2TB/  941534/  /   000000500000021136                    000000000000000000                    000000000000000000B                                               
FP6511250103UP1005       07042022 23B/  959653/  /   000000100000018958                    000000000000000000                    000000000000000000B                                               
FP6511464301PN1010       08042022 T16/  601139/  /   000003000000003186                    000000000000000000                    000000000000000000B                                               
FP6511822103UP1013       12042022 23B/  407728/  /   000000200000001135                    000000000000000000                    000000000000000000B                                               
FP6511911201N131         13042022 2R2/  805025/  /   000000200000196052 23B/  927748/A /   000000500000020954 23B/  407728/  /   000000100000001135B                                               
FP6512073201N132         14042022 2TB/  941534/  /   000001000000021136                    000000000000000000                    000000000000000000B                                               
FP6512083703UP2016       14042022 07W/  121075/D /   000000100000015423                    000000000000000000                    000000000000000000B                                               
FP6512332801N0133        19042022 2H0/  598081/B /   000000200000012262 2T2/  141025/A /   000000100000088469                    000000000000000000B                                               
FP6512664301N142         22042022 2R0/  906261/  /   000000600000045446 2R2/  853601/A /   000000300000012461                    000000000000000000B                                               
FP6512670701N143         22042022 2R2/  953513/  /   000000300000078097                    000000000000000000                    000000000000000000B                                               
FP6512671801N144         22042022 23B/  413119/A /   000000200000035031                    000000000000000000                    000000000000000000B                                               
FP6512785103UP2019       25042022 2P0/  198026/  /   000000100000003610 2P0/  198026/  /   000000100000003610 23B/  953501/A /9B9000000100000050178B                                               
FP6512785103UP2019       25042022 23B/  953501/A /9B9000000100000050178                    000000000000000000                    000000000000000000B                                               
FP65137040032022         02052022 23B/  831056/  /   000000100000156916                    000000000000000000                    000000000000000000B                                               
FP6513762701n165         03052022 23B/  831055/  /   000001000000176105 23B/  831056/  /   000001000000156915 2R2/  831052/A /   000000800000213675B                                               
FP6513762701n165         03052022 2R2/  899541/  /   000010000000002181 2R2/  899542/  /   000010000000006999 2R2/  953513/  /   000000500000074631B                                               
FP6513762701n165         03052022 2T2/  141025/A /   000000300000084144 2T2/  141033/A /   000000400000154713 2V5/  103181/  /   000000400000039597B                                               
FP6513843503UP2025       03052022 2P0/  947555/  /   000000100000013632                    000000000000000000                    000000000000000000B                                               
FP6514008801N175         04052022 07W/  103035/  /   000010000000003797 2RD/  419669/  /   000000400000020909 2T2/  198149/  /   000000200000230614B                                               
FP6514226503UP2027       06052022 23B/  415801/  /   000000100000108916 2S2/  920808/B /   000000100000136414 2V2/  919670/  /   000000100000178581B                                               
FP6514531401N179         10052022 23B/  953501/A /9B9000000500000050178 23B/  820423/  /   000000100000047093 07W/  103511/  /   000001600000003421B                                               
FP6514710503UP2029       11052022 2T2/  301523/  /   000000100000001553                    000000000000000000                    000000000000000000B                                               
FP6514716101N180         11052022 07W/  103464/  /   000015000000024559                    000000000000000000                    000000000000000000B                                               
FP6514810203UP2030       11052022 2T2/  301523/  /   000000100000001553                    000000000000000000                    000000000000000000B                                               
FP6514880001N185         12052022 23B/  959493/A /   000000500000006602 2P0/  501317/A /   000003000000021897                    000000000000000000B                                               
FP6514883203UP2031       12052022 2R2/  853601/A /   000000100000012461                    000000000000000000                    000000000000000000B                                               
FP6515016701N192         13052022 5Z0/  959856/A /1NN000020000000002770                    000000000000000000                    000000000000000000B                                               
FP6515036403UP2031       13052022 2S2/  920808/B /   000000100000136414                    000000000000000000                    000000000000000000B                                               
FP6515104903UP2032       13052022 2P0/  907156/H /   000000100000202768 2P0/  907156/H /   000000100000202768 2P0/  907156/H /   000000100000202768B                                               
FP6515104903UP2032       13052022 2S0/  907156/F /   000000100000179653 2S0/  907156/F /   000000100000179653 2S0/  907156/F /   000000100000179653B                                               
FP6515214601N202         16052022 2V2/  253101/  /   000000100000051218                    000000000000000000                    000000000000000000B                                               
FP6515218903UP2033       16052022 2V5/  971793/A /   000000100000075401                    000000000000000000                    000000000000000000B                                               
FP6515279801N202         16052022 2R2/  953513/  /   000000500000078097                    000000000000000000                    000000000000000000B                                               
FP6515382001N205         17052022 6Q0/  959858/A /9B9000005000000005772 2R0/  903137/C /   000002000000009466                    000000000000000000B                                               
FP6515410203UP2035       17052022 2V2/  919670/  /   000000100000178581                    000000000000000000                    000000000000000000B                                               
FP6515464701N210         17052022 5Z0/  959856/A /1NN000004000000002770                    000000000000000000                    000000000000000000B                                               
FP6515514603UP2035       17052022 2R0/  501319/D /   000000100000031614                    000000000000000000                    000000000000000000B                                               
FP6515528101N220         17052022 2V3/  823359/A /   000000200000006291 2VB/  831401/  /   000000200000011606                    000000000000000000B                                               
FP6515609003UP2037       18052022 2R0/  857077/  /   000000100000020732                    000000000000000000                    000000000000000000B                                               
FP6515738403UP2037       19052022 WHT/  005092/  /   000000200000007139                    000000000000000000                    000000000000000000B                                               
FP6515963801N220         20052022 07W/  121011/A /   000001500000060353                    000000000000000000                    000000000000000000B                                               
FP6516106401N230         23052022 2R2/  899541/  /   000002000000002181 2RD/  419669/  /   000000400000020909 2S0/  800375/B /   000000200000048358B                                               
FP6516421903UP2038       25052022 2W0/  115304/J /   000000100000013499                    000000000000000000                    000000000000000000B                                               
FP6516588903UP2039       26052022 2H0/  698141/  /   000000100000003450                    000000000000000000                    000000000000000000B                                               
FP6516731501n254         27052022 6Q0/  959858/A /9B9000030000000005772                    000000000000000000                    000000000000000000B                                               
FP6516746303UP2040       27052022 2V3/  915089/  /   000000200000182809 2V5/  971793/A /   000000100000075401                    000000000000000000B                                               
FP6516847701N253         27052022 07W/  130758/G /   000000400000028465 2H0/  501320/  /   000000200000047894                    000000000000000000B                                               
FP6516942603UP2038       30052022 2V5/  810084/  /   000000100000141940 2P0/  198026/  /   000000100000003610 23B/  927748/A /   000000100000020954B                                               
FP6517275503UP2033       01062022 2P0/  198026/  /   000000100000003610 2V3/  861709/  /   000000100000031717                    000000000000000000B                                               
FP6517312601PN1027       01062022 5Z0/  959856/A /1NN000002000000002770                    000000000000000000                    000000000000000000B                                               
FP6517433803UP2031       02062022 23B/  953501/A /9B9000000100000050178 2R0/  513031/B /   000000100000018582 2S0/  907156/F /   000000100000179653B                                               
FP6517433803UP2031       02062022 2T2/  927103/E /   000000100000060865                    000000000000000000                    000000000000000000B                                               
FP6517488501PN1035       02062022 2T0/  721405/  /   000000500000034766                    000000000000000000                    000000000000000000B                                               
FP6517924203UP2041       07062022 2R2/  857521/E /   000000100000025658                    000000000000000000                    000000000000000000B                                               
FP6517925803UP2045       07062022   N/  908298/02/   000000500000000180 23B/  854749/A /   000000100000054772                    000000000000000000B                                               
FP6517940101PN2037       07062022 5Z0/  959856/A /1NN000003000000002770 6Q0/  959858/A /9B9000003000000005772                    000000000000000000B                                               
FP6517955001PN1046       07062022 07W/  105701/A /   000000600000004030 07W/  906529/B /   000000200000071420                    000000000000000000B                                               
FP6517972201761310       07062022 6Q0/  959858/A /9B9000000100000005771                    000000000000000000                    000000000000000000B                                               
FP6518017901PE0706       07062022 2P0/  501291/A /   000000200000015062 2H0/  525345/  /   000000300000011324 23B/  857521/A /   000000800000009829B                                               
FP6518017901PE0706       07062022 23B/  857501/B /9B9000000500000059525 23B/  141025/A /   000000400000066970 07W/  130758/  /   000000400000017701B                                               
FP6518027701N301         07062022 23B/  857501/B /9B9000000800000059525                    000000000000000000                    000000000000000000B                                               
FP6518038901N302         07062022   N/  106451/02/   000002000000003516 2T2/  121101/Q /   000000200000005635 2V5/  947171/C /   000002000000004507B                                               
FP6518044001N303         07062022 07W/  101311/  /   000000100000113145 23B/  141025/A /   000000300000066970 23B/  857521/A /   000000400000009829B                                               
FP6518044001N303         07062022 2H0/  525345/  /   000000400000011324 2P0/  501291/A /   000000200000015062 2T2/  198149/  /   000000300000230613B                                               
FP6518044001N303         07062022 2T2/  323174/A /   000000500000007344 2V5/  121253/F /   000000100000237381                    000000000000000000B                                               
FP6518044101N303         08062022 WHT/  007473/B /   000005000000001725 6Q0/  959858/A /9B9000020000000005772 5X0/  837581/  /033000000200000001761B                                               
FP6518044101N303         08062022 2T0/  199382/B /   000000400000013033 2S0/  129142/A /   000000500000001391 2RD/  415897/  /   000002000000000698B                                               
FP6518044101N303         08062022 07W/  103035/  /   000010000000003797 07W/  130758/  /   000000400000017701 07W/  130758/G /   000000300000028465B                                               
FP6518044101N303         08062022 2R2/  711141/  /999000000800000002821 2R0/  906261/  /   000001000000045446                    000000000000000000B                                               
FP6518048403UP2046       08062022 2S2/  920808/B /   000000100000136414 2H0/  501320/  /   000000100000047893 23B/  927748/A /   000000100000020954B                                               
FP6518051101n304         08062022 2T2/  121402/  /   000001400000033261                    000000000000000000                    000000000000000000B                                               
FP6518195803UP2047       09062022 2P0/  525143/F /   000000100000262274 T11/  525267/F /   000000100000003617                    000000000000000000B                                               
FP6518196901PN1049       09062022 07W/  103609/B /   000000500000036051                    000000000000000000                    000000000000000000B                                               
FP6518212203UP2048       09062022 WHT/  006443/AA/   000000100000012237 2H0/  525121/B /   000000100000202814 2H0/  501320/  /   000000100000047893B                                               
FP6518314601W1N305       09062022 23B/  601027/  /XD6000000100000078260 23B/  711267/C /   000000100000061336                    000000000000000000B                                               
FP6518316901n306         09062022 2P0/  198026/  /   000000500000003610 2T2/  253097/A /   000000100000049017                    000000000000000000B                                               
FP6518362803UP2050       10062022 2T2/  711118/C /1NN000000100000035640 2V3/  858045/  /   000000100000242713                    000000000000000000B                                               
FP6518411601PN1052       10062022 07W/  103035/  /   000010000000003797                    000000000000000000                    000000000000000000B                                               
FP6518540003up2052       13062022 07W/  103035/  /   000000100000003797 5Z0/  959856/A /1NN000000100000002770                    000000000000000000B                                               
FP6518630603up2053       13062022 2V5/  823663/A /   000000100000006983 2V5/  809056/  /   000000100000006306 2R0/  501319/D /   000000100000031614B                                               
FP6518630603up2053       13062022 2P0/  821105/  /   000000100000136252 2P0/  501471/  /   000000100000006422                    000000000000000000B                                               
FP7507159501N0012        02032022 TN4/  145851/  /   000000200000009000                    000000000000000000                    000000000000000000                                                
FP7508347801N0039        14032022 23B/  198040/  /   000000200000362933                    000000000000000000                    000000000000000000                                                
FP7508855201n0052        17032022 TN4/  607963/  /   000004000000001832                    000000000000000000                    000000000000000000                                                
FP7508906001N0061        17032022 2P0/  103601/C /   000000500000098728                    000000000000000000                    000000000000000000                                                
FP7510091501PED.INICIAL D28032022 23C/  121091/  /   000000200000001622 23C/  121114/  /   000000200000026021 23C/  127023/  /   000000100000081390                                                
FP7510091501PED.INICIAL D28032022 23C/  130201/  /   000000100000247459 23C/  130758/  /   000000100000093882 23C/  145299/  /   000000200000025680                                                
FP7510091501PED.INICIAL D28032022 23C/  198012/  /   000000100000047976 23C/  253143/B /   000000100000007846 23C/  903015/C /   000000100000108495                                                
FP7510091501PED.INICIAL D28032022 23C/  903137/A /   000000200000011518 23C/  903137/B /   000000200000013469 23C/  903165/  /   000000200000014301                                                
FP7510091501PED.INICIAL D28032022 23C/  906041/  /   000000100000022287 23C/  906041/A /   000000100000031837 23C/  906051/  /   000000100000017689                                                
FP7510091501PED.INICIAL D28032022 23C/  906051/B /   000000100000008114 23C/  906051/C /   000000100000007271 23C/  906051/D /   000000100000005578                                                
FP7510091501PED.INICIAL D28032022 23C/  906051/E /   000000200000003436 23C/  919501/  /   000000100000004184 23B/  201257/  /   000000100000046893                                                
FP7510091501PED.INICIAL D28032022 23C/  103181/  /   000000200000004369 23C/  103181/A /   000000200000009958 23C/  103196/  /   000000500000000229                                                
FP7510091501PED.INICIAL D28032022 23C/  103485/  /   000000100000005043 23C/  103487/  /   000000200000005135 23C/  103523/  /   000000200000015221                                                
FP7510091501PED.INICIAL D28032022 23C/  103609/  /   000000200000010784 23C/  109139/  /   000000100000010272 23C/  109293/A /   000000100000004042                                                
FP7510091501PED.INICIAL D28032022 23C/  109293/B /   000000100000004166 23C/  115105/  /   000000100000083302 23C/  115124/B /   000000100000019219                                                
FP7510091501PED.INICIAL D28032022 23C/  115130/  /   000000400000038612 23C/  115130/A /   000000100000025935 23C/  115230/  /   000000100000060494                                                
FP7510091501PED.INICIAL D28032022 23C/  115230/A /   000000100000086596 23C/  115403/  /   000000500000009805 23C/  115441/  /   000000100000001858                                                
FP7510091501PED.INICIAL D28032022 23C/  121011/  /   000000100000040925                    000000000000000000                    000000000000000000                                                
FP7510152503up0097       29032022 23B/  198040/  /   000000100000362933                    000000000000000000                    000000000000000000                                                
FP751044360304778        31032022 23B/  198040/  /   000000100000362933 23B/  198149/  /   000000100000233465                    000000000000000000                                                
FP7510705101N0110        01042022 TN4/  607963/  /   000004000000001832 2RP/  607039/  /   000016000000001138                    000000000000000000                                                
FP7510705401N0111        01042022 2R0/  611441/B /   000001000000001942                    000000000000000000                    000000000000000000                                                
FP7511911201N131         13042022 23B/  609583/  /   000001200000009718 2RG/  609273/  /   000100000000000028 2RG/  609273/  /   000100000000000028                                                
FP7511911201N131         13042022 2RG/  609273/  /   000100000000000028 2RG/  609273/  /   000100000000000028 2RG/  609273/  /   000100000000000028                                                
FP7511911201N131         13042022 2U2/  198567/A /   000003000000025746                    000000000000000000                    000000000000000000                                                
FP7511929201n131         13042022 2P0/  103601/C /   000000200000098321                    000000000000000000                    000000000000000000                                                
FP7511947203UP2015       13042022 23B/  198040/  /   000000100000362274                    000000000000000000                    000000000000000000                                                
FP7511971501n133         13042022 2R0/  609853/  /   000000200000037164 2R0/  609854/  /   000000200000037164                    000000000000000000                                                
FP7512206501n139         18042022 TE3/  607039/  /   000032000000001152                    000000000000000000                    000000000000000000                                                
FP7512332801N0133        19042022 2V2/  609599/  /   000100000000000044 2V2/  609599/  /   000100000000000044 2V2/  609599/  /   000100000000000044                                                
FP7512332801N0133        19042022 2V2/  609599/  /   000100000000000044 2V2/  609599/  /   000100000000000044 2V2/  609599/  /   000100000000000044                                                
FP7513161901EEEEEEN162   27042022 2R0/  127413/C /   000000600000060596                    000000000000000000                    000000000000000000                                                
FP7513762701n165         03052022   G/  052830/Q0/   000003600000014001                    000000000000000000                    000000000000000000                                                
FP7514201401N180         06052022   G/  052809/Q2/   000002000000139257   G/  052809/Q2/   000004500000139257                    000000000000000000                                                
FP7515382001N205         17052022 2Z0/  906051/  /   000000400000010483 2W0/  607273/A /   000020000000000037 2RP/  607039/A /   000016000000001086                                                
FP7516106401N230         23052022 2W0/  698431/A /   000002400000024230                    000000000000000000                    000000000000000000                                                
FP7516421903UP2038       25052022 2S2/  311613/  /   000000100000010320                    000000000000000000                    000000000000000000                                                
FP7516588903UP2039       26052022 2Z0/  906051/  /   000000200000010483                    000000000000000000                    000000000000000000                                                
FP7516697301N264         26052022 2P0/  127177/  /   000010800000023860 2R0/  129620/D /   000003000000007318                    000000000000000000                                                
FP7517275503UP2033       01062022 2T2/  253037/A /   000000100000023529 2T2/  253037/A /   000000100000023529                    000000000000000000                                                
FP7518017901PE0706       07062022 2R0/  311478/F /   000000600000025420 2P0/  721405/  /   000001200000017626 2P0/  103601/C /   000000200000098321                                                
FP7518017901PE0706       07062022 23B/  115403/  /   000007200000016732                    000000000000000000                    000000000000000000                                                
FP7518027701N301         07062022 23B/  115403/  /   000012000000016732 2P0/  721405/  /   000002000000017626 2R0/  311478/F /   000000800000025420                                                
FP7518027701N301         07062022 JZV/  198149/  /   000000400000116305                    000000000000000000                    000000000000000000                                                
FP7518038901N302         07062022 2W0/  698431/  /   000002400000022640 2Z0/  301431/A /   000001000000001327 JZV/  198149/A /   000000300000116447                                                
FP7518044001N303         07062022 JZV/  198149/C /   000000300000196268 2U2/  115441/H /   000000500000008333 2T2/  141720/  /   000000300000040911                                                
FP7518044001N303         07062022 2RD/  312039/C /   000002000000000424 2P0/  103601/C /   000000300000098320                    000000000000000000                                                
FP7518044101N303         08062022 2W0/  607273/A /   000080000000000044 2RG/  609273/  /   000100000000000033 2RG/  609273/  /   000100000000000033                                                
FP7518044101N303         08062022 2RG/  609273/  /   000100000000000033 2RG/  609273/  /   000100000000000033 2RG/  609273/  /   000100000000000033                                                
FP7518044101N303         08062022 2RG/  609273/  /   000100000000000033 2RG/  609273/  /   000100000000000033 2RG/  609273/  /   000100000000000033                                                
FP7518044101N303         08062022 2RG/  609273/  /   000100000000000033 2RG/  609273/  /   000100000000000033 2RG/  609273/  /   000100000000000033                                                
FP7518044101N303         08062022 2RG/  607041/  /   000040000000000399 2R0/  611441/B /   000002000000002330 2R0/  609465/  /   000016000000000875                                                
FP7518044101N303         08062022 23B/  609465/  /   000010000000001524   G/  052835/Q0/   000002400000007436                    000000000000000000                                                
FP7518106101PN1047       08062022 2U2/  698075/A /   000002100000052758                    000000000000000000                    000000000000000000                                                
FP7518195803UP2047       09062022 2W0/  609727/A /   000000400000005570                    000000000000000000                    000000000000000000                                                
FP7518212203UP2048       09062022 2T2/  115253/  /   000000100000013714                    000000000000000000                    000000000000000000                                                
FP7518314601W1N305       09062022 23B/  141719/A /   000000100000076738                    000000000000000000                    000000000000000000                                                
FP7518316901n306         09062022 JZV/  198149/D /   000000300000198231 2Z0/  130085/  /   000000200000027747 2T2/  971759/  /   000000300000005308                                                
FP7518316901n306         09062022 2T2/  201512/  /   000000300000100774 2T2/  145846/D /   000000100000008216 2T0/  311705/  /   000000100000005020                                                
FP7518316901n306         09062022 2S2/  311541/C /   000000500000021049                    000000000000000000                    000000000000000000                                                
FP7518362803UP2050       10062022 23C/  903165/  /   000000100000015150                    000000000000000000                    000000000000000000                                                
FP7518630603up2053       13062022 23B/  109143/  /   000000100000003413                    000000000000000000                    000000000000000000                                                
FPF000000000000171                                                                                                                                                                                 
FRI10000000000000130620220000000000005104778                                                                                                                                                       
FR111000000000000000000000000000000000000000000000000000050102137-00000000000000+O                                                                                                         010699  
FR111000000000000000000000000000000000000000000000000004124359533-00000368902832+N                                                                                                         010699  
FR2000125122206 P1006202200000000000000011361362000000115661302000000000000000                                                  000000000490342                                            032     
FR2000157088060 P2904202200000000000000047528631000000470944213000000000000000953658245PR016271VW CAMINHOES CHASSI C/ MOTOR E CA202220230000000                                            090     
FR2000157107860 P290420220000000000000002454212400000024317913100000000000000095355FTEXPR011364VW CAMINHOES CHASSI MOTOR CABINE 202220230000000                                            090     
FR2000157115060 P29042022000000000000000702192250000006957771920000000000000009539B8TJ3PR200019VW CAMINHOES CAMINHAO TRACTOR    202220230000000                                            090     
FR2000157168360 P3004202200000000000000051172607000000507051070000000000000000953658249PR015494VW CAMINHOES CHASSI C/ MOTOR E CA202220230000000                                            090     
FR2000157205360 P100520220000000000000002442987600000024206690900000000000000095355FTE8PR012951VW CAMINHOES CHASSI MOTOR CABINE 202220230000000                                            090     
FR2000157205460 P1005202200000000000000049171126000000487219112000000000000000953658241PR015554VW CAMINHOES CHASSI C/ MOTOR E CA202220230000000                                            090     
FR2000157205560 P1005202200000000000000048761267000000483157966000000000000000953658245PR017310VW CAMINHOES CHASSI C/ MOTOR E CA202220230000000                                            090     
FR2000157206160 P10052022000000000000000304832780000003020479020000000000000009535H5TB1PR016461VW CAMINHOES CHASSI C/ MOTOR E CA202220230000000                                            090     
FR2000157212360 P10052022000000000000000691039810000006847266410000000000000009539B8TJ2PR200545VW CAMINHOES CAMINHAO TRACTOR    202220230000000                                            090     
FR2000157246960 P13052022000000000000000294947920000002922533500000000000000009535V7TB6PR003516VW CAMINHOES CHASSI C/ MOTOR E CA202220230000000                                            090     
FR2000157247460 P1305202200000000000000050179898000000497214669000000000000000953658244PR017296VW CAMINHOES CHASSI C/ MOTOR E CA202220230000000                                            090     
FR2000157265460 P1605202200000000000000050390924000000499305654000000000000000953658241PR017725VW CAMINHOES CHASSI C/ MOTOR E CA202220230000000                                            090     
FR2000157265560 P1605202200000000000000068018313000000673969148000000000000000953998TH8PR200817VW CAMINHOES CAMINHAO TRACTOR    202220230000000                                            090     
FR2000157265660 P16052022000000000000000426539080000004226423260000000000000009536K8247PR017690VW CAMINHOES CHASSI C/ MOTOR E CA202220230000000                                            090     
FR2000157292260 P1705202200000000000000050356564000000498965192000000000000000953658246PR017817VW CAMINHOES CHASSI C/ MOTOR E CA202220230000000                                            090     
FR2000157292360 P17052022000000000000000317016100000003141199210000000000000009535V6TB1PR016720VW CAMINHOES CHASSI C/ MOTOR E CA202220230000000                                            090     
FR2000157292460 P17052022000000000000000317016100000003141199210000000000000009535V6TB8PR016374VW CAMINHOES CHASSI C/ MOTOR E CA202220230000000                                            090     
FR2000157328460 P20052022000000000000000540998520000005360560910000000000000009536R8268PR009286VW CAMINHOES CHASSI C/ MOTOR E CA202220230000000                                            090     
FR2000157328560 P20052022000000000000000316364880000003134746500000000000000009535V6TB1PR017060VW CAMINHOES CHASSI C/ MOTOR E CA202220230000000                                            090     
FR2000157328660 P20052022000000000000000316364880000003134746500000000000000009535V6TB6PR017622VW CAMINHOES CHASSI C/ MOTOR E CA202220230000000                                            090     
FR2000157328760 P20052022000000000000000316364880000003134746500000000000000009535V6TB2PR016404VW CAMINHOES CHASSI C/ MOTOR E CA202220230000000                                            090     
FR2000157347160 P23052022000000000000000323049940000003200986390000000000000009535V7TB4PR012683VW CAMINHOES CHASSI C/ MOTOR E CA202220230000000                                            090     
FR2000157352160 P23052022000000000000000257530010000002551772850000000000000009535C3TC9PR020169VW CAMINHOES CHASSI C/ MOTOR E CA202220230000000                                            090     
FR2000157356260 P23052022000000000000000464932450000004606849410000000000000009536K8260PR017998VOLKSWAGEN   26.260 CONSTELLATION202220230000000                                            045     
FR2000157360960 P24052022000000000000000326156290000003231766100000000000000009535V6TB1PR019388VW CAMINHOES CHASSI C/ MOTOR E CA202220230000000                                            090     
FR2000157361060 P2405202200000000000000050184109000000497256394000000000000000953658247PR014330VW CAMINHOES CHASSI C/ MOTOR E CA202220230000000                                            090     
FR2000157361160 P2405202200000000000000051677934000000512058172000000000000000953658243PR016057VW CAMINHOES CHASSI C/ MOTOR E CA202220230000000                                            090     
FR2000157368960 P24052022000000000000000353522950000003502932560000000000000009536G8241PR017461VW CAMINHOES CHASSI C/ MOTOR E CA202220230000000                                            090     
FR2000157369360 P2405202200000000000000049939873000000494836347000000000000000953658247PR017275VW CAMINHOES CHASSI C/ MOTOR E CA202220230000000                                            090     
FR2000157371860 P2405202200000000000000052542230000000520622177000000000000000953658262PR020604VW CAMINHOES CHASSI C/ MOTOR E CA202220230000000                                            090     
FR2000157371960 P2405202200000000000000048710410000000482654035000000000000000953658261PR018066VW CAMINHOES CHASSI C/ MOTOR E CA202220230000000                                            090     
FR2000157372060 P24052022000000000000000577113160000005718407960000000000000009536R8263PR017005VW CAMINHOES CHASSI C/ MOTOR E CA202220230000000                                            090     
FR2000157391360 P2505202200000000000000045420062000000450051153000000000000000953658269PR020602VW CAMINHOES CHASSI C/ MOTOR E CA202220230000000                                            045     
FR2000157393060 P25052022000000000000000322606300000003196590520000000000000009535V7TB1PR018134VW CAMINHOES CHASSI C/ MOTOR E CA202220230000000                                            090     
FR2000157393160 P25052022000000000000000322606300000003196590520000000000000009535V7TB6PR018128VW CAMINHOES CHASSI C/ MOTOR E CA202220230000000                                            090     
FR2000157395060 P2505202200000000000000046956760000000465277743000000000000000953658247PR016319VW CAMINHOES CHASSI C/ MOTOR E CA202220230000000                                            090     
FR2000157398660 P2505202200000000000000050308486000000498488798000000000000000953658248PR015552VW CAMINHOES CHASSI C/ MOTOR E CA202220230000000                                            090     
FR2000157399560 P2605202200000000000000063728191000000631459857000000000000000953998TH1PR201064VW CAMINHOES CAMINHAO TRACTOR    202220230000000                                            090     
FR2000157399660 P2605202200000000000000067645784000000670277884000000000000000953998TH5PR201066VW CAMINHOES CAMINHAO TRACTOR    202220230000000                                            090     
FR2000157399760 P26052022000000000000000388263760000003847166820000000000000009536G8243PR019163VW CAMINHOES CHASSI C/ MOTOR E CA202220230000000                                            090     
FR2000157414760 P26052022000000000000000463972700000004597339610000000000000009536K8266PR016337VOLKSWAGEN   26.260 CONSTELLATION202220230000000                                            045     
FR2000157479360 P30052022000000000000000325256150000003222846960000000000000009535V6TB1PR020900VW CAMINHOES CHASSI C/ MOTOR E CA202220230000000                                            090     
FR2000125122306 P1006202200000000000000008521021000000086745976000000000000000                                                  000000000490342                                            032     
FR2000156073010 C0905202200000000000000020900000000000000000000000000000000000                                                  000000000000000                                            000     
FR2000156073110 C0905202200000000000000020900000000000000000000000000000000000                                                  000000000000000                                            000     
FR2000156079310 C1205202200000000000000020900000000000000000000000000000000000                                                  000000000000000                                            000     
FR2000156079410 C1205202200000000000000020900000000000000000000000000000000000                                                  000000000000000                                            000     
FR2000156109510 C1205202200000000000000020300000000000000000000000000000000000                                                  000000000000000                                            000     
FR2000156337810 C2505202200000000000000020300000000000000000000000000000000000                                                  000000000000000                                            000     
FR2000156337910 C2505202200000000000000020300000000000000000000000000000000000                                                  000000000000000                                            000     
FR2000156338010 C2505202200000000000000020300000000000000000000000000000000000                                                  000000000000000                                            000     
FR2000156466460 P17032022000000000000000312715250000003098583600000000000000009535H5TB6PR007089VW CAMINHOES CHASSI C/ MOTOR E CA202220230000000                                            090     
FR2000156474160 P17032022000000000000000385440350000003819190610000000000000009536E7238PR009171VW CAMINHOES CHASSI C/ MOTOR E CA202220230000000                                            090     
FR2000156484160 P18032022000000000000000312514340000003096592860000000000000009535H5TB7PR007389VW CAMINHOES CHASSI C/ MOTOR E CA202220230000000                                            090     
FR2000156512660 P21032022000000000000000322991520000003200407520000000000000009535H5TB6PR009263VOLKSWAGEN   DELIVERY 9.170 4X2 D202220230000000                                            090     
FR2000156512760 P21032022000000000000000322991520000003200407520000000000000009535H5TB5PR009366VOLKSWAGEN   DELIVERY 9.170 4X2 D202220230000000                                            090     
FR2000156512860 P21032022000000000000000336448170000003333744690000000000000009535V6TB3PR010482VW CAMINHOES CHASSI C/ MOTOR E CA202220230000000                                            090     
FR2000156512960 P21032022000000000000000336448170000003333744690000000000000009535V6TB3PR011759VW CAMINHOES CHASSI C/ MOTOR E CA202220230000000                                            090     
FR2000156538560 P22032022000000000000000322779030000003198302040000000000000009535H5TB7PR008719VOLKSWAGEN   DELIVERY 9.170 4X2 D202220230000000                                            090     
FR2000156583660 P24032022000000000000000714729860000007082002610000000000000009539B8TJ1PR200374VW CAMINHOES CAMINHAO TRACTOR    202220230000000                                            090     
FR2000156631560 P28032022000000000000000337627880000003345434010000000000000009535V6TB4PR012726VW CAMINHOES CHASSI C/ MOTOR E CA202220230000000                                            090     
FR2000156634560 P28032022000000000000000337627880000003345434010000000000000009535V6TBXPR012732VW CAMINHOES CHASSI C/ MOTOR E CA202220230000000                                            090     
FR2000156649160 P29032022000000000000000313387470000003105244400000000000000009535H5TB9PR012593VW CAMINHOES CHASSI C/ MOTOR E CA202220230000000                                            090     
FR2000156649460 P29032022000000000000000337405890000003343234400000000000000009535V6TB9PR012642VW CAMINHOES CHASSI C/ MOTOR E CA202220230000000                                            090     
FR2000156667260 P29032022000000000000000582789630000005774654110000000000000009536Y8247PR010981VW CAMINHOES CHASSI C/ MOTOR E CA202220230000000                                            090     
FR2000156752760 P31032022000000000000000582026180000005767089370000000000000009536Y824XPR011896VW CAMINHOES CHASSI C/ MOTOR E CA202220230000000                                            090     
FR2000156778860 C31032022000000000000000000000000000000000000000000000000000009539B8TJXPR200034VW CAMINHOES CAMINHAO TRACTOR    202220230000000                                            000     
FR2000156832760 P06042022000000000000000320337130000003174106110000000000000009535H5TB5PR008749VW CAMINHOES CHASSI C/ MOTOR E CA202220230000000                                            090     
FR2000156832860 P06042022000000000000000434591550000004306212340000000000000009536K8245PR013749VW CAMINHOES CHASSI C/ MOTOR E CA202220230000000                                            090     
FR2000156832960 P060420220000000000000004854635900000048102851800000000000000095365824XPR013852VW CAMINHOES CHASSI C/ MOTOR E CA202220230000000                                            090     
FR2000156838860 P0704202200000000000000049509528000000490572215000000000000000953658248PR013526VW CAMINHOES CHASSI C/ MOTOR E CA202220230000000                                            090     
FR2000156854960 P1204202200000000000000050700957000000502377655000000000000000953658246PR013492VW CAMINHOES CHASSI C/ MOTOR E CA202220230000000                                            090     
FR2000156934560 P250420220000000000000005243221200000051953204000000000000000095365824XPR015889VW CAMINHOES CHASSI C/ MOTOR E CA202220230000000                                            090     
FR2000156935660 P2504202200000000000000052432212000000519532040000000000000000953658240PR015867VW CAMINHOES CHASSI C/ MOTOR E CA202220230000000                                            090     
FR2000156940160 P25042022000000000000000307175840000003043695590000000000000009535H5TBXPR015034VW CAMINHOES CHASSI C/ MOTOR E CA202220230000000                                            090     
FR2000156968260 P2604202200000000000000052800928000000523185521000000000000000953658246PR015422VW CAMINHOES CHASSI C/ MOTOR E CA202220230000000                                            090     
FR2000156968560 P26042022000000000000000306941220000003041370800000000000000009535H5TB6PR015466VW CAMINHOES CHASSI C/ MOTOR E CA202220230000000                                            090     
FR2000156968660 P26042022000000000000000306941220000003041370800000000000000009535H5TBXPR015390VW CAMINHOES CHASSI C/ MOTOR E CA202220230000000                                            090     
FR2000156968760 P26042022000000000000000575017770000005697645460000000000000009536Y8243PR012064VW CAMINHOES CHASSI C/ MOTOR E CA202220230000000                                            090     
FR2000156973260 P2604202200000000000000050393770000000499333855000000000000000953658244PR013474VW CAMINHOES CHASSI C/ MOTOR E CA202220230000000                                            090     
FR2000156982760 P2604202200000000000000054122046000000536276002000000000000000953658268PR012670VW CAMINHOES CHASSI C/ MOTOR E CA202220230000000                                            090     
FR2000156990460 P2704202200000000000000052352147000000518738703000000000000000953658247PR016093VW CAMINHOES CHASSI C/ MOTOR E CA202220230000000                                            090     
FR2000156990660 P2704202200000000000000049061012000000486128024000000000000000953658243PR014244VW CAMINHOES CHASSI C/ MOTOR E CA202220230000000                                            090     
FR2000156990760 P27042022000000000000000703270830000006968459220000000000000009539B8TJ0PR200379VW CAMINHOES CAMINHAO TRACTOR    202220230000000                                            090     
FR2000157087860 P2904202200000000000000047528631000000470944213000000000000000953658244PR016391VW CAMINHOES CHASSI C/ MOTOR E CA202220230000000                                            090     
FR2000125122406 P1006202200000000000000008521023000000086745989000000000000000                                                  000000000490342                                            032     
FR2000153768660 P24082021000000000000000402365310000003986894030000000000000009536R8273NR034456VW CAMINHOES CAMINHAO TRATOR     202120220000000                                            060     
FR2000155458910 C0102202200000000000000035500000000000000000000000000000000000                                                  000000000000000                                            000     
FR2000155459110 C0102202200000000000000035500000000000000000000000000000000000                                                  000000000000000                                            000     
FR2000155503710 C0102202200000000000000035500000000000000000000000000000000000                                                  000000000000000                                            000     
FR2000155503910 C0102202200000000000000035500000000000000000000000000000000000                                                  000000000000000                                            000     
FR2000155642310 C1802202200000000000000043206068000000000000000000000000000000                                                  000000000000000                                            000     
FR2000155679210 C2302202200000000000000069914630000000000000000000000000000000                                                  000000000000000                                            000     
FR2000155679310 C2302202200000000000000069914630000000000000000000000000000000                                                  000000000000000                                            000     
FR2000155769110 C2303202200000000000000068983912000000000000000000000000000000                                                  000000000000000                                            000     
FR2000155787210 C1804202200000000000000020900000000000000000000000000000000000                                                  000000000000000                                            000     
FR2000155787310 C1804202200000000000000020900000000000000000000000000000000000                                                  000000000000000                                            000     
FR2000155949410 C2604202200000000000000020900000000000000000000000000000000000                                                  000000000000000                                            000     
FR2000156072410 C1005202200000000000000020300000000000000000000000000000000000                                                  000000000000000                                            000     
FR2000156072510 C0905202200000000000000020900000000000000000000000000000000000                                                  000000000000000                                            000     
FR2000156072610 C1005202200000000000000020300000000000000000000000000000000000                                                  000000000000000                                            000     
FR2000156072810 C1005202200000000000000020300000000000000000000000000000000000                                                  000000000000000                                            000     
FR2000156072910 C0905202200000000000000020900000000000000000000000000000000000                                                  000000000000000                                            000     
FR2000125255406 P1306202200000000000000008679491000000088359234000000000000000                                                  000000000490786                                            032     
FR2000157479460 P30052022000000000000000256642870000002542982450000000000000009535C3TC2PR020210VW CAMINHOES CHASSI C/ MOTOR E CA202220230000000                                            090     
FR2000157479560 P30052022000000000000000321937090000003189959580000000000000009535V7TB4PR018130VW CAMINHOES CHASSI C/ MOTOR E CA202220230000000                                            090     
FR2000157507060 P30052022000000000000000423616120000004197460740000000000000009536K8246PR019401VW CAMINHOES CHASSI C/ MOTOR E CA202220230000000                                            090     
FR2000157507160 P30052022000000000000000423616120000004197460740000000000000009536K8244PR019574VW CAMINHOES CHASSI C/ MOTOR E CA202220230000000                                            090     
FR2000157507260 P30052022000000000000000423616120000004197460740000000000000009536K8247PR019391VW CAMINHOES CHASSI C/ MOTOR E CA202220230000000                                            090     
FR2000157514260 P3105202200000000000000046826930000000463991304000000000000000953658244PR015984VW CAMINHOES CHASSI C/ MOTOR E CA202220230000000                                            090     
FR2000157638560 P08062022000000000000000257569330000002552162390000000000000009535C3TC3PR016067VW CAMINHOES CHASSI C/ MOTOR E CA202220230000000                                            090     
FR2000157638660 P08062022000000000000000300407560000002976631150000000000000009535H5TB7PR017064VW CAMINHOES CHASSI C/ MOTOR E CA202220230000000                                            090     
FR2000157638760 P08062022000000000000000315688390000003128043440000000000000009535V6TB9PR008686VW CAMINHOES CHASSI C/ MOTOR E CA202220230000000                                            090     
FR2000157642060 P0806202200000000000000054919504000000544177734000000000000000953698TK2PR009814VW CAMINHOES CAMINHAO TRACTOR    202220230000000                                            060     
FR2000157642160 P0806202200000000000000054919504000000544177734000000000000000953698TK0PR007057VW CAMINHOES CAMINHAO TRACTOR    202220230000000                                            060     
FR2000157644560 P08062022000000000000000461003140000004567915290000000000000009536K8265PR015146VW CAMINHOES CHASSI C/ MOTOR E CA202220230000000                                            045     
FR2000157644660 P08062022000000000000000461003140000004567915290000000000000009536K8268PR018073VW CAMINHOES CHASSI C/ MOTOR E CA202220230000000                                            045     
FR2000157645660 P0806202200000000000000047102495000000466721779000000000000000953658263PR020384VW CAMINHOES CHASSI C/ MOTOR E CA202220230000000                                            045     
FR2000157645760 P0806202200000000000000047102495000000466721779000000000000000953658263PR020546VW CAMINHOES CHASSI C/ MOTOR E CA202220230000000                                            045     
FR2000157654960 P10062022000000000000000254982970000002526535080000000000000009535C3TC7PR021644VW CAMINHOES CHASSI C/ MOTOR E CA202220230000000                                            090     
FR2000157655060 P1006202200000000000000067115292000000665021430000000000000000953998TH8PR201062VW CAMINHOES CAMINHAO TRACTOR    202220230000000                                            090     
FR2000157658660 P10062022000000000000000254982970000002526535080000000000000009535C3TC3PR022368VW CAMINHOES CHASSI C/ MOTOR E CA202220230000000                                            090     
FR2000157658760 P10062022000000000000000254982970000002526535080000000000000009535C3TC6PR023496VW CAMINHOES CHASSI C/ MOTOR E CA202220230000000                                            090     
FR2000157658860 P10062022000000000000000254982970000002526535080000000000000009535C3TC6PR023501VW CAMINHOES CHASSI C/ MOTOR E CA202220230000000                                            090     
FR2000125255506 P1306202200000000000000006509618000000066269426000000000000000                                                  000000000490786                                            032     
FR2000125255606 P1306202200000000000000006509619000000066269439000000000000000                                                  000000000490786                                            032     
F060101 DOLAR REFERENCIAL DIARIO - VENDA                                                                                                                                                   300997  
F06021406202200000051033000000000000000000000000000000000000000000000000000000000000000000000000000000000000000000000000000000000000000000000000000000000000000000000000000000000          300997  
F060102 TABELA DE QCS PARA LIQUIDACAO DE DEBITOS EXCLUSIVAMENTE JUNTO AO FLOOR PLAN PARA CAMINHOES (INCLUINDO F.4000) - VW                                                                 300997  
F06021406202200001009953078300000000000000000000000000000000000000000000000000000000000000000000000000000000000000000000000000000000000000000000000000000000000000000000000000000          300997  
F060104 TABELA DE QCS PARA LIQUIDACAO DE DEBITOS EXCLUSIVAMENTE JUNTO AO PLANO DE CAPITALIZACAO - VW CAMINHOES                                                                             300997  
F06021406202200000000004643800000000000000000000000000000000000000000000000000000000000000000000000000000000000000000000000000000000000000000000000000000000000000000000000000000          300997  
F060105 UFIR - UNIDADE FISCAL DE REFERENCIA                                                                                                                                                300997  
F06021406202200000010641000000000000000000000000000000000000000000000000000000000000000000000000000000000000000000000000000000000000000000000000000000000000000000000000000000000          300997  
F060114 IGPM - INDICE GERAL DE PRECOS DO MERCADO                                                                                                                                           300997  
F06021406202200010249084000000000000000000000000000000000000000000000000000000000000000000000000000000000000000000000000000000000000000000000000000000000000000000000000000000000          300997  
F060120 TABELA DE QCS PARA LIQUIDACAO DE DEBITOS EXCLUSIVAMENTE JUNTO AO FLOOR PLAN PARA AUTOMOVEIS, COM. LEVES E OUTROS DEBITOS - VW                                                      300997  
F06021406202200001091385475700000000000000000000000000000000000000000000000000000000000000000000000000000000000000000000000000000000000000000000000000000000000000000000000000000          300997  
F060130 TRD - TAXA REFERENCIAL DIARIA                                                                                                                                                      300997  
F06021406202200000000130463100000000000000000000000000000000000000000000000000000000000000000000000000000000000000000000000000000000000000000000000000000000000000000000000000000          300997  
F0601101TABELA DE QCIS PARA LIQUIDACAO DE DEBITOS EXCLUSIVAMENTE JUNTO AO CREDITO ROTATIVO - VEICULO USADO                                                                                 300997  
F06021406202200000451866798100000000000000000000000000000000000000000000000000000000000000000000000000000000000000000000000000000000000000000000000000000000000000000000000000000          300997  
F0601106TABELA DE QCIS PARA LIQUIDACAO DE DEBITOS EXCLUSIVAMENTE JUNTO AO CREDITO ROTATIVO - PECAS                                                                                         300997  
F06021406202200000983055528900000000000000000000000000000000000000000000000000000000000000000000000000000000000000000000000000000000000000000000000000000000000000000000000000000          300997  
F0601109TABELA DE QCIS PARA LIQUIDACAO DE DEBITOS EXCLUSIVAMENTE JUNTO AO CREDITO ROTATIVO - CAMINHOES USADOS                                                                              300997  
F06021406202200001006069452500000000000000000000000000000000000000000000000000000000000000000000000000000000000000000000000000000000000000000000000000000000000000000000000000000          300997  
F0601110TABELA DE QCIS PARA LIQUIDACAO DE DEBITOS EXCLUSIVAMENTE JUNTO AO CREDITO ROTATIVO - AUDI USADOS                                                                                   300997  
F06021406202200000732749830000000000000000000000000000000000000000000000000000000000000000000000000000000000000000000000000000000000000000000000000000000000000000000000000000000          300997  
F0601111TABELA DE QCIS PARA LIQUIDACAO DE DEBITOS EXCLUSIVAMENTE JUNTO AO CREDITO ROTATIVO - SEAT USADOS                                                                                   300997  
F06021406202200000742147307700000000000000000000000000000000000000000000000000000000000000000000000000000000000000000000000000000000000000000000000000000000000000000000000000000          300997  
F0601115TABELA DE QCIS PARA LIQUIDACAO DE DEBITOS EXCLUSIVAMENTE JUNTO AO CREDITO ROTATIVO - QC COM BONUS                                                                                  300997  
F06021406202200000306399671600000000000000000000000000000000000000000000000000000000000000000000000000000000000000000000000000000000000000000000000000000000000000000000000000000          300997  
F0601116TABELA DE QCIS PARA LIQUIDACAO DE DEBITOS EXCLUSIVAMENTE JUNTO AO CREDITO ROTATIVO - QC DO BONUS ROTATIVO                                                                          300997  
F06021406202200000092909198200000000000000000000000000000000000000000000000000000000000000000000000000000000000000000000000000000000000000000000000000000000000000000000000000000          300997  
F0601117TABELA DE QCIS PARA LIQUIDACAO DE DEBITOS EXCLUSIVAMENTE JUNTO AO CREDITO ROTATIVO - QC FINANCIAMENTO ICMS                                                                         300997  
F06021406202200000983055530800000000000000000000000000000000000000000000000000000000000000000000000000000000000000000000000000000000000000000000000000000000000000000000000000000          300997  
F0601119TABELA DE QCIS PARA LIQUIDACAO DE DEBITOS EXCLUSIVAMENTE JUNTO AO CREDITO ROTATIVO - MULTA DE CONFISSAO DIV                                                                        300997  
F06021406202200000010000000000000000000000000000000000000000000000000000000000000000000000000000000000000000000000000000000000000000000000000000000000000000000000000000000000000          300997  
FRF100000000000163                                                                                                                                                                                 
FVI10060000000000140620220000000000005104778                                                                                                                                                       
F229535V7TB1PR01812057663813062022953658245PR0222645766391306202295365824XPR021854576736130620229535C3TC6PR02350157658810062022                                                            300997  
F229535C3TC3PR022368576586100620229535C3TC6PR023496576587100620229536E8231PR016906570431280420229536E8237PR01690957043228042022                                                            300997  
F22953658244PR01347456973226042022953658246PR015422569682260420229535H5TB6PR015466569685260420229535H5TBXPR01539056968626042022                                                            300997  
F229536Y8243PR012064569687260420229536R8273NR034456537686240820219536E8233PR00419157150730042022953658246PR01349256854912042022                                                            300997  
F22953658244PR015984575142310520229536E8231PR004304570339280420229535H5TB5PR008749568327060420229536K8245PR01374956832806042022                                                            300997  
F2295365824XPR01385256832906042022953658240PR01586756935625042022953998TH1PR20106457399526052022953998TH5PR20106657399626052022                                                            300997  
F229536G8243PR019163573997260520229539B8TJ3PR2000195711502904202295365824XPR015889569345250420229539B8TJ1PR20037456583624032022                                                            300997  
F22953658246PR017817572922170520229535V6TB1PR016720572923170520229535V6TB8PR016374572924170520229535V6TBXNR03861655503721122021                                                            300997  
F229535V6TB0NR038592555039211220219536E7230PR00555256184621022022953998TH6NR20311555679228122021953998TH8NR20311655679328122021                                                            300997  
F229535C3TC9PR020169573521230520229536E8231PR017764572578130520229536E8235PR016827572579130520229536E8238PR01699757258013052022                                                            300997  
F229536E8239PR017320572581130520229536E8235PR000563559494310120229536E8235PR017346572576130520229536E7238PR00567156072409022022                                                            300997  
F229536E8230PR004259560725090220229536E723XPR005672560726090220229536E7237PR005676560728090220229536E823XPR00490256072909022022                                                            300997  
F229536E8233PR005860560730090220229536E8237PR005862560731090220229536E8238PR004963560732090220229535V6TB1NR03718955459117122021                                                            300997  
F229536K8246PR019401575070300520229536K8244PR019574575071300520229536K8247PR019391575072300520229535C3TC7PR02164457654910062022                                                            300997  
F22953998TH8PR2010625765501006202295355FTEXPR011364571078290420229535V6TBXNR036526554589171220219535V6TB4PR01272656631528032022                                                            300997  
F229535V6TBXPR01273256634528032022953658245NR04955755642327122021953658269PR020602573913250520229536E8235PR00961856630228032022                                                            300997  
F229536E8238PR00966256630328032022953658241PR01772557265416052022953998TH8PR200817572655160520229536K8247PR01769057265616052022                                                            300997  
F22953658263PR02038457645608062022953658263PR020546576457080620229536E8232NR042475547774281020219536E8236NR04281854780028102021                                                            300997  
F229536K8265PR015146576445080620229536K8268PR018073576446080620229535V6TB9PR012642566494290320229535H5TB9PR01259356649129032022                                                            300997  
