FHI00000000000000140620220000000000005101494         00                                                                                                                                            
FPI00000000000000130620220000000000005101494                                                                                                                                                       
FP5518613103CP1306       1306202213062022 2QB/  423057/C /   00000010000000  2QB/  423057/C /   00000010000000                     00000000000000                                          220800  
FP6514259903CP0605       06052022 6EA/  880201/D /HVF000000100000025892                    000000000000000000                    000000000000000000B                                               
FP6514479603CP0905       09052022 5Z0/  601147/M /YSW000000200000013630                    000000000000000000                    000000000000000000B                                               
FP6516325503CP2405       24052022   G/  060751/A2/   000000100000022646   G/  060751/A2/   000000100000022646   G/  060751/A2/   000000100000022646B                                               
FPF000000000000006                                                                                                                                                                                 
FRI10000000000000130620220000000000005101494                                                                                                                                                       
FR111000000000000000000000000000000000000000000000000000000000000+00000000000000+N                                                                                                         010699  
FR111000000000000000000000000000000000000000000000000000000001108-00000000000000+O                                                                                                         010699  
FR111000000000000000000000000000000000000000000000000000000000000+00000000000000+C                                                                                                         010699  
FR20004961771   P3105202201072022000000000001108000000000000000000000000000000                                                  000000000000000                                            000     
F060101 DOLAR REFERENCIAL DIARIO - VENDA                                                                                                                                                   300997  
F06021406202200000051033000000000000000000000000000000000000000000000000000000000000000000000000000000000000000000000000000000000000000000000000000000000000000000000000000000000          300997  
F060105 UFIR - UNIDADE FISCAL DE REFERENCIA                                                                                                                                                300997  
F06021406202200000010641000000000000000000000000000000000000000000000000000000000000000000000000000000000000000000000000000000000000000000000000000000000000000000000000000000000          300997  
F060114 IGPM - INDICE GERAL DE PRECOS DO MERCADO                                                                                                                                           300997  
F06021406202200010249084000000000000000000000000000000000000000000000000000000000000000000000000000000000000000000000000000000000000000000000000000000000000000000000000000000000          300997  
F060130 TRD - TAXA REFERENCIAL DIARIA                                                                                                                                                      300997  
F06021406202200000000130463100000000000000000000000000000000000000000000000000000000000000000000000000000000000000000000000000000000000000000000000000000000000000000000000000000          300997  
F060175 TABELA DE QCS PARA LIQUIDACAO DE DEBITOS EXCLUSIVAMENTE JUNTO AO CREDITO ROTATIVO                                                                                                  300997  
F06021406202200000246957886200000000000000000000000000000000000000000000000000000000000000000000000000000000000000000000000000000000000000000000000000000000000000000000000000000          300997  
F060178 TABELA DE QCIS PARA LIQUIDACAO DE DEBITOS EXCLUSIVAMENTE JUNTO AO CREDITO ROTATIVO - VEICULOS IMPORTADOS VW                                                                        300997  
F06021406202200000013536108300000000000000000000000000000000000000000000000000000000000000000000000000000000000000000000000000000000000000000000000000000000000000000000000000000          300997  
F060192 TABELA DE QCIS PARA LIQUIDACAO DE DEBITOS EXCLUSIVAMENTE JUNTO AO CREDITO ROTATIVO - VEICULOS IMPORT. SEAT                                                                         300997  
F06021406202200000013626515900000000000000000000000000000000000000000000000000000000000000000000000000000000000000000000000000000000000000000000000000000000000000000000000000000          300997  
F060196 TABELA DE QCIS PARA LIQUIDACAO DE DEBITOS EXCLUSIVAMENTE JUNTO AO CREDITO ROTATIVO - VEIC.IMPORT VW/96                                                                             300997  
F06021406202200000330951123400000000000000000000000000000000000000000000000000000000000000000000000000000000000000000000000000000000000000000000000000000000000000000000000000000          300997  
F0601101TABELA DE QCIS PARA LIQUIDACAO DE DEBITOS EXCLUSIVAMENTE JUNTO AO CREDITO ROTATIVO - VEICULO USADO                                                                                 300997  
F06021406202200000451866798100000000000000000000000000000000000000000000000000000000000000000000000000000000000000000000000000000000000000000000000000000000000000000000000000000          300997  
F0601105TABELA DE QCIS PARA LIQUIDACAO DE DEBITOS EXCLUSIVAMENTE JUNTO AO CREDITO ROTATIVO - VEICULOS AUDI                                                                                 300997  
F06021406202200000722642040900000000000000000000000000000000000000000000000000000000000000000000000000000000000000000000000000000000000000000000000000000000000000000000000000000          300997  
F0601106TABELA DE QCIS PARA LIQUIDACAO DE DEBITOS EXCLUSIVAMENTE JUNTO AO CREDITO ROTATIVO - PECAS                                                                                         300997  
F06021406202200000983055528900000000000000000000000000000000000000000000000000000000000000000000000000000000000000000000000000000000000000000000000000000000000000000000000000000          300997  
F0601109TABELA DE QCIS PARA LIQUIDACAO DE DEBITOS EXCLUSIVAMENTE JUNTO AO CREDITO ROTATIVO - CAMINHOES USADOS                                                                              300997  
F06021406202200001006069452500000000000000000000000000000000000000000000000000000000000000000000000000000000000000000000000000000000000000000000000000000000000000000000000000000          300997  
F0601110TABELA DE QCIS PARA LIQUIDACAO DE DEBITOS EXCLUSIVAMENTE JUNTO AO CREDITO ROTATIVO - AUDI USADOS                                                                                   300997  
F06021406202200000732749830000000000000000000000000000000000000000000000000000000000000000000000000000000000000000000000000000000000000000000000000000000000000000000000000000000          300997  
F0601111TABELA DE QCIS PARA LIQUIDACAO DE DEBITOS EXCLUSIVAMENTE JUNTO AO CREDITO ROTATIVO - SEAT USADOS                                                                                   300997  
F06021406202200000742147307700000000000000000000000000000000000000000000000000000000000000000000000000000000000000000000000000000000000000000000000000000000000000000000000000000          300997  
F0601115TABELA DE QCIS PARA LIQUIDACAO DE DEBITOS EXCLUSIVAMENTE JUNTO AO CREDITO ROTATIVO - QC COM BONUS                                                                                  300997  
F06021406202200000306399671600000000000000000000000000000000000000000000000000000000000000000000000000000000000000000000000000000000000000000000000000000000000000000000000000000          300997  
F0601116TABELA DE QCIS PARA LIQUIDACAO DE DEBITOS EXCLUSIVAMENTE JUNTO AO CREDITO ROTATIVO - QC DO BONUS ROTATIVO                                                                          300997  
F06021406202200000092909198200000000000000000000000000000000000000000000000000000000000000000000000000000000000000000000000000000000000000000000000000000000000000000000000000000          300997  
F0601117TABELA DE QCIS PARA LIQUIDACAO DE DEBITOS EXCLUSIVAMENTE JUNTO AO CREDITO ROTATIVO - QC FINANCIAMENTO ICMS                                                                         300997  
F06021406202200000983055530800000000000000000000000000000000000000000000000000000000000000000000000000000000000000000000000000000000000000000000000000000000000000000000000000000          300997  
F0601119TABELA DE QCIS PARA LIQUIDACAO DE DEBITOS EXCLUSIVAMENTE JUNTO AO CREDITO ROTATIVO - MULTA DE CONFISSAO DIV                                                                        300997  
F06021406202200000010000000000000000000000000000000000000000000000000000000000000000000000000000000000000000000000000000000000000000000000000000000000000000000000000000000000000          300997  
FRF100000000000042                                                                                                                                                                                 
FVI10060000000000140620220000000000005101494                                                                                                                                                       
F229BWDH5BZ4NP039570708337230420229BWDH5BZXNP036530708325230420229BWAG45U6PT026183309183030620229BWBJ6BF0N405463971576819052022                                                            300997  
F229BWBJ6BF7N4064844481367300520229BWBJ6BF9N4046779479029240520229BWBH6BF7N4052043482126010620228AWBJ6B26NA80458070427624032022                                                            300997  
F229BWBH6BF7N4063883479353250520229BWBJ6BF4N404723947514429042022                                                                                                                          300997  
FVF100000000000005                                                                                                                                                                                 
FAI10000000000000140620220000000000005101494                                                                                                                                                       
FA100000000000000+00000000000000+00000000000000+00000000000000+00000000000000+00000000000000+00000000000000+00000000000000+00000000000000+                                                         
FA200000000000000+00000000000000+00000000000000+00000000000000+00000000000000+00000000000000+00000000000000+00000000000000+00000000000000+                                                         
FA3000482126000010620220707202200000000026441500000000026441500000000000000000000000000000000000000000000070720220 99  ICMS ST VEICULOS                                                            
FA3000105517000020620220707202200000000001577800000000001577800000000000000000000000000000000000000000000070720220 88  ICMS ST PECAS                                                               
FA3000309183000030620220707202200000000019756900000000019756900000000000000000000000000000000000000000000070720220 99  ICMS ST VEICULOS                                                            
FA3000114100000040620220707202200000000000171800000000000171800000000000000000000000000000000000000000000070720220 88  ICMS ST PECAS                                                               
FA3000114101000040620220707202200000000000172800000000000172800000000000000000000000000000000000000000000070720220 88  ICMS ST PECAS                                                               
FA3000119550000070620220707202200000000000403100000000000403100000000000000000000000000000000000000000000070720220 88  ICMS ST PECAS                                                               
FA3000120296000070620220707202200000000000403100000000000403100000000000000000000000000000000000000000000070720220 88  ICMS ST PECAS                                                               
FA3000124350000080620220707202200000000000353400000000000353400000000000000000000000000000000000000000000070720220 88  ICMS ST PECAS                                                               
FA3000129174000090620220707202200000000000133200000000000133200000000000000000000000000000000000000000000070720220 88  ICMS ST PECAS                                                               
FA3230728     0090620222006202200000000006758300000000006758300000000000000000000000000000000000000000000200620220 DV  ALUGUEL DE SISTEMAS                                                         
FA3756222     0110520222006202200000000005600000000000005339600000000000000000000000000000000000000000000200620220 DZRVFAT. MISCELANEOUS                                                           
FA3757148     0110520222006202200000000003220100000000003070400000000000000000000000000000000000000000000200620220 DZRVFAT. MISCELANEOUS                                                           
FA3757577     0160520222006202200000000007201100000000006758300000000000000000000000000000000000000000000200620220 DZRVFAT. MISCELANEOUS                                                           
FA3758731     0130620222007202200000000005880000000000005606600000000000000000000000000000000000000000000200720220 DZRVFAT. MISCELANEOUS                                                           
FA3759657     0130620222007202200000000012890000000000012097200000000000000000000000000000000000000000000200720220 DZRVFAT. MISCELANEOUS                                                           
FA3759194     0130620222007202200000000005710100000000005444600000000000000000000000000000000000000000000200720220 DZRVFAT. MISCELANEOUS                                                           
FA40000SALDO INICIAL                           000000000013062022C0000000051652899999SALDO FINAL                             000000000013062022C000000005165289                            040213  
FAF100000000000021                                                                                                                                                                                 
FCI10050000000000130620220000000000005101494                                                                                                                                                       
FC2DZY. A149413062022000002000000**ARQUIVO NAO PROCESSADO/ARQUIVO VAZIO (SEM REGISTROS DE PROCESSOS)**                                                                                             
FCF100000000000003                                                                                                                                                                                 
FCI10050000000000130620220000000000005101494                                                                                                                                                       
FC1000000265000000-PROCESSO DE AUTOSERVICE          - QUANTIDADE REGISTROS RECEBIDOS        00265                                                                                                  
FC2DZY. B149413062022000269000000** ARQUIVO RECEBIDO OK **                                                                                                                                         
FCF100000000000004                                                                                                                                                                                 
FCI10050000000000130620220000000000005101494                                                                                                                                                       
FC2DZY. C149413062022000002000000**ARQUIVO NAO PROCESSADO/ARQUIVO VAZIO (SEM REGISTROS DE PROCESSOS)**                                                                                             
FCF100000000000003                                                                                                                                                                                 
FCI10050000000000130620220000000000005101494                                                                                                                                                       
FC1000000013000000-PROCESSO DE AUTOSERVICE          - QUANTIDADE REGISTROS RECEBIDOS        00013                                                                                                  
FC2DZY. D149413062022000017000000** ARQUIVO RECEBIDO OK **                                                                                                                                         
FCF100000000000004                                                                                                                                                                                 
FKI10000000000000130620220000000000005101494                                                                                                                                                       
FK20000149413062200010000 A/C CPD E OFICINA  SUB-GERENTE DE ASSISTENCIA TECNICA                                         00000000000                                                        210812  
FK2001000000028611000000LOTE PROCESSADO COM SUCESSO                                                     CK6011                                                                                     
FK2001047386028611000000LOTE PROCESSADO COM SUCESSO                                                     CK7001                                                                                     
FK2001019619028611000000LOTE PROCESSADO COM SUCESSO                                                     CK7001                                                                                     
FK2001019624028670000000LOTE PROCESSADO COM SUCESSO                                                     CK7001                                                                                     
FK2001047388028670000000LOTE PROCESSADO COM SUCESSO                                                     CK7001                                                                                     
FK2001047390028673000000LOTE PROCESSADO COM SUCESSO                                                     CK7001                                                                                     
FK2001019623028673000000LOTE PROCESSADO COM SUCESSO                                                     CK7001                                                                                     
FK2001019622028675000000LOTE PROCESSADO COM SUCESSO                                                     CK7001                                                                                     
FK2001047389028675000000LOTE PROCESSADO COM SUCESSO                                                     CK7001                                                                                     
FK2001047387028677000000LOTE PROCESSADO COM SUCESSO                                                     CK7001                                                                                     
FK2001019620028677000000LOTE PROCESSADO COM SUCESSO                                                     CK7001                                                                                     
FK2001019621028678000000LOTE PROCESSADO COM SUCESSO                                                     CK7001                                                                                     
FK2001047382028679000000LOTE PROCESSADO COM SUCESSO                                                     CK7001                                                                                     
FK2001019616028679000000LOTE PROCESSADO COM SUCESSO                                                     CK7001                                                                                     
FK2001019617028685000000LOTE PROCESSADO COM SUCESSO                                                     CK7001                                                                                     
FK2001047384028685000000LOTE PROCESSADO COM SUCESSO                                                     CK7001                                                                                     
FK2001047385028690000000LOTE PROCESSADO COM SUCESSO                                                     CK7001                                                                                     
FK2001047391028691000000LOTE PROCESSADO COM SUCESSO                                                     CK7001                                                                                     
FK2001019625028691000000LOTE PROCESSADO COM SUCESSO                                                     CK7001                                                                                     
FK2001019626028694000000LOTE PROCESSADO COM SUCESSO                                                     CK7001                                                                                     
FK2001047395028694000000LOTE PROCESSADO COM SUCESSO                                                     CK7001                                                                                     
FK2001047396028697000000LOTE PROCESSADO COM SUCESSO                                                     CK7001                                                                                     
FK2001019627028697000000LOTE PROCESSADO COM SUCESSO                                                     CK7001                                                                                     
FK2001000000028611000000LOTE PROCESSADO COM SUCESSO                                                     CK6011                                                                                     
FK2001047400000000000000LOTE PROCESSADO COM SUCESSO                                                     CK3001                                                                                     
FK2001047379000000000000LOTE PROCESSADO COM SUCESSO                                                     CK3001                                                                                     
FK2001047380000000000000LOTE PROCESSADO COM SUCESSO                                                     CK3001                                                                                     
FK2001047397000000000000LOTE PROCESSADO COM SUCESSO                                                     CK3001                                                                                     
FK2001047398000000000000LOTE PROCESSADO COM SUCESSO                                                     CK3001                                                                                     
FK2001047399000000000000LOTE PROCESSADO COM SUCESSO                                                     CK3001                                                                                     
FK2001000000028670009604LOTE PROCESSADO COM SUCESSO                                                     CK6011                                                                                     
FK2001000000028670009604LOTE PROCESSADO COM SUCESSO                                                     CK6011                                                                                     
FK2001000000028673000000LOTE PROCESSADO COM SUCESSO                                                     CK6011                                                                                     
FK2001000000028673000000LOTE PROCESSADO COM SUCESSO                                                     CK6011                                                                                     
FK2001000000028675000000LOTE PROCESSADO COM SUCESSO                                                     CK6011                                                                                     
FK2001000000028675000000LOTE PROCESSADO COM SUCESSO                                                     CK6011                                                                                     
FK2001000000028677000000LOTE PROCESSADO COM SUCESSO                                                     CK6011                                                                                     
FK2001000000028677000000LOTE PROCESSADO COM SUCESSO                                                     CK6011                                                                                     
FK2001000000028678009607LOTE PROCESSADO COM SUCESSO                                                     CK6011                                                                                     
FK2001000000028679009612LOTE PROCESSADO COM SUCESSO                                                     CK6011                                                                                     
FK2001000000028679009612LOTE PROCESSADO COM SUCESSO                                                     CK6011                                                                                     
FK2001000000028685000000LOTE PROCESSADO COM SUCESSO                                                     CK6011                                                                                     
FK2001000000028685000000LOTE PROCESSADO COM SUCESSO                                                     CK6011                                                                                     
FK2001000000028690000000LOTE PROCESSADO COM SUCESSO                                                     CK6011                                                                                     
FK2001000000028691000000LOTE PROCESSADO COM SUCESSO                                                     CK6011                                                                                     
FK2001000000028691000000LOTE PROCESSADO COM SUCESSO                                                     CK6011                                                                                     
FK2001000000028694009616LOTE PROCESSADO COM SUCESSO                                                     CK6011                                                                                     
FK2001000000028694009616LOTE PROCESSADO COM SUCESSO                                                     CK6011                                                                                     
FK2001000000028697000000LOTE PROCESSADO COM SUCESSO                                                     CK6011                                                                                     
FK2001000000028697000000LOTE PROCESSADO COM SUCESSO                                                     CK6011                                                                                     
FK2001000000028581000000LOTE PROCESSADO COM SUCESSO                                                     CK6011                                                                                     
FKF000000000000054                                                                                                                                                                                 
FAI10000000000000140620220000000000005101494                                                                                                                                                       
FNT00001494SERVOPA SA COMERCIO E INDR GENERAL MARIO TOURINHO 1215           CURITIBA            SEMINARIO                     PR80740-00                                                   101202  
FAF100000000000003                                                                                                                                                                                 
FHF000000000000147                                                                                                                                                                                 
